:1000000080C6002061D1000093D504004DD10000CE
:100010004DD100004DD100004DD100000000000086
:1000200000000000000000000000000081D200007D
:100030004DD10000000000004DD200004DD1000065
:1000400085D40000F5C4030085D4000085D40000E9
:1000500085D4000085D4000085D4000085D400003C
:1000600085D4000085D4000085D4000085D400002C
:1000700085D4000085D4000085D4000085D400001C
:1000800085D4000085D4000085D4000085D400000C
:1000900085D4000085D4000085D4000085D40000FC
:1000A00085D4000085D4000085D4000085D40000EC
:1000B00085D4000085D4000085D4000085D40000DC
:1000C00085D4000085D4000085D4000085D40000CC
:1000D00085D4000085D4000085D4000085D40000BC
:1000E00085D4000085D4000085D4000085D40000AC
:1000F00085D4000085D4000085D4000085D400009C
:100100007BB972B90029BEBF00204FF0004106E064
:1001100008BF00281CBF6FF000414FF0FF3000F017
:1001200057B8ADF1080C6DE904CE002909DB002BAE
:100130001ADB00F062F8DDF804E0DDE9022304B028
:100140007047404261EB4101002B1BDB00F055F88A
:10015000DDF804E0DDE9022304B0404261EB410137
:10016000524263EB43037047524263EB430300F098
:1001700044F8DDF804E0DDE9022304B0404261EB1D
:1001800041017047524263EB430300F036F8DDF85B
:1001900004E0DDE9022304B0524263EB43037047FD
:1001A00053B94AB9002908BF00281CBF4FF0FF31DE
:1001B0004FF0FF3000F00CB8ADF1080C6DE904CE43
:1001C00000F01BF8DDF804E0DDE9022304B070471D
:1001D000704700BF430803F05533C01A00F03333B3
:1001E000800800F03330184400EB10104FF001335A
:1001F00000F00F305843000E70472DE9F047864657
:100200008C460846089E154674461946002B40F059
:10021000C2808542B2FA82F245D94AB1C2F12003C6
:1002200000FA02FC2EFA03F3954043EA0C0C9440CA
:100230004FEA154EA8B2BCFBFEF8230C0EFB18CCFF
:1002400008FB00F943EA0C43994528D9EB1808F15B
:10025000FF3704D2994502D9A8F102072B44A3EB3A
:100260000903A4B2B3FBFEFC0EFB1C330CFB00F035
:1002700044EA0344A04214D92C190CF1FF3304D2F0
:10028000A04202D9ACF102032C44241A43EA0740ED
:100290001EB1D440002334607360BDE8F087474648
:1002A000DDE76346F1E792BB431B01214FEA154EA0
:1002B000AFB2B3FBFEFC200C0EFB1C330CFB07F8AB
:1002C00040EA0343984562D9EB180CF1FF3004D2A1
:1002D000984502D9ACF102002B44A3EB0803A4B269
:1002E000B3FBFEFC0EFB1C330CFB07F744EA034494
:1002F000A7424ED92C190CF1FF3304D2A74202D9E0
:10030000ACF102032C44E41B43EA0040C0E7C2F115
:10031000200320FA03F1954090402EFA03F30343A3
:100320004FEA154EAFB2B1FBFEFC0EFB1C10190CD0
:100330000CFB07F841EA0041884504FA02F422D98F
:1003400069180CF1FF3004D2884502D9ACF10200E3
:100350002944A1EB08019BB2B1FBFEFC0EFB1C1172
:100360000CFB07F743EA01439F420ED9EB180CF14F
:10037000FF3104D29F4202D9ACF102012B44DB1BB6
:1003800041EA004192E76046E3E76146F7E76046ED
:10039000A3E76346B7E7834206D916B900210846AA
:1003A0007BE7C6E900E0F9E7B3FA83F78FB9834248
:1003B00001D3724508D8BEEB020460EB03030120B1
:1003C0009C461EB9002168E73846FAE7C6E9004CAA
:1003D000F8E7C7F1200CBB4022FA0CF41C432EFABC
:1003E0000CF120FA0CF3B84001434FEA14490EFA1D
:1003F00007F5B3FBF9F81FFA84FE09FB18300B0C64
:1004000008FB0EFA43EA00439A4502FA07F240D984
:10041000E31808F1FF3004D29A4502D9A8F102008E
:100420002344A3EB0A0389B2B3FBF9F809FB1833A1
:1004300008FB0EFE41EA03418E452CD9611808F1F4
:10044000FF3304D28E4502D9A8F10203214443EAC6
:100450000040A0FB0298A1EB0E014145CE46434669
:1004600002D306D14D4504D2B9EB020E68EB04036A
:100470000138002EA6D0B5EB0E0261EB030101FAA4
:100480000CFC22FA07F34CEA0303F940C6E90031F9
:1004900098E74046C5E74346D9E710F8012B11F825
:1004A000013B012A28BF9A42F7D0D01A7047034671
:1004B00011F8012B03F8012B002AF9D170470346EC
:1004C00013F8012B002AFBD1181A013870470000DD
:1004D0002DE9F047064688B00F46904653F003F8E2
:1004E0004FF47A73A0FB034503FB0155E40B012F86
:1004F00044EA45444FEAD53507D1294922462B46DF
:1005000030464AF069FE002012E0D8F80470254811
:100510003946FFF7C2FF70B123483946FFF7BDFFE8
:1005200048B1304621493A464AF072FE6FF0040065
:1005300008B0BDE8F0872046294617A3D3E9002379
:10054000FFF7DEFD05460C4610461946184A002303
:10055000FFF7D6FD80460F46104619464EF660223C
:100560000023FFF7CDFD82468946104619464FF419
:100570007A720023FFF7C4FDCDE902A9CDE9062375
:10058000CDE90401CDE900870A492A4623463046D1
:100590004AF022FEB7E700BF005C2605000000001D
:1005A0007C8C05008D8C0500908C0500998C0500D5
:1005B00080EE3600B18C05002DE9F843D0E906380D
:1005C000456903EB08042F34A5420F46164619D897
:1005D000DFF86C80A3FB080117A3D3E90023FFF722
:1005E000DFFD0346601BA0FB080123F07F4412A33C
:1005F000D3E90023FFF7D4FD20F07F403C6030605A
:10060000BDE8F883DFF838900BA3D3E90023A5FBFE
:100610000901FFF7C5FD20F07F440A480A2106A31F
:10062000D3E90023E8FB0901FFF7BAFD20F07F4082
:100630003C603060BDE8F8838D49FD1A070000007A
:1006400000CA9A3B00166BF12DE9F04F8DB09A4627
:10065000179C9DF85890636C05460E46904653B122
:10066000B4F87E301BB1B4F87C209A4278D2D4F82A
:100670008020002A77D14FF6FF739A4520D0277843
:100680000137FFB22770002F78D06F496F4BC1F848
:10069000048004F11C000022C86081F80A900D60FB
:1006A000A1F808A09960012011462FF073FB0028E3
:1006B00073D1636CC4F88C5013B1204636F0AAFB9A
:1006C00094F8245015F001054AD1614A614B117824
:1006D0001B788B4277D04FF6FF739A45D4F8808011
:1006E000B4F87C9015BF0AF101074FF0000ABFB2C1
:1006F0005746B8F1000F30D0B9F1000F2DD0226F5E
:100700000AF1010A40F271211FFA8AF301FB02FA91
:10071000514A4FF0070BA6FB02010AFB03F30993B2
:100720000BFB061146A3D3E90023FFF739FD099B14
:10073000494A1E18A5FB02010BFB051140A3D3E992
:100740000023FFF72DFD50443044804586BFA8EBC1
:100750000606C4F88060C4F880A04F44A4F87C70FA
:100760000DB0BDE8F08F216F40F27123A1FB0313A0
:10077000914273F10003FFF47EAFF1E7374A384945
:10078000384840F6491349F078FB87F31188BFF3E6
:100790006F8F0323184602DF77E7304A324931482A
:1007A00040F66B1349F069FB002383F31188BFF314
:1007B0006F8F0323184602DF636CC4F88C50002B44
:1007C0007FF47BAF7CE7013304210BA813703CF06E
:1007D000E5F90B9B25490694A1FB0321581A244AED
:1007E000009501EB50012348A21AA0FB0202090A5E
:1007F00040F24710520900FB113302321E490591A5
:100800000133CDE90355CDE90155D2B20121284686
:100810000B9330F091FE10F0FD0F0DD00F4A1749E9
:10082000104840F2BA7349F028FB85F31188BFF3F2
:100830006F8F0323184602DF0B9D4CE7AFF3008058
:1008400000CA9A3B0000000098660020601000205B
:100850007E8200207D8200208D49FD1AAC64050057
:10086000CC650500E05F05007061050021F1D490C2
:10087000C4660020398EE3381D500300D0650500A2
:10088000002900F0CF802DE9F04F8FB0002840F014
:10089000C080C74C1D4694F88430DF07164600F12F
:1008A000978194F8352094F8293004EB820204EB08
:1008B0008303976BD3F82C90002F00F09280394679
:1008C000484634F077FD002840F0A98099F80030C0
:1008D00013F00E0F40F0A880236A002B40F09E809A
:1008E00031F05EFF8246002800F0DA8131F064FFCB
:1008F0008346002800F0D18137F08CFA804600282A
:1009000000F0C881806E4FF6FF73A8F8283008F118
:100910001C03002800F0E78108F15C0208F158018F
:100920000B932FF0B3F9A34A98F82C11D2F80100D9
:10093000C8F82D01C8F8330112F8010B9288A8F805
:100940003121A8F8372198F8392002F03F0262F0EF
:100950007F0288F8392098F86E2022F0070200F014
:10096000010088F86E2098F83C2060F3000160F3E5
:10097000410122F0070288F82C1188F83C2006215A
:100980000022C8E91222C8F86820A8F86C20A8F84C
:100990003220C8F82E2088F83B20C8F85020A8F84C
:1009A0002621A8F82211404638F0EAF9002288F8FA
:1009B000F020C8F8F4A008F1700037F0FFFF002223
:1009C0000B9B2362C4E91AABC8E9052288F8002012
:1009D000C8F81C803CF024FC58B334F03FFD0320E1
:1009E0001DE099F8003003F00F03072B16D004F137
:1009F00034003CF0ADFDC0B2002840F0518194F8C5
:100A0000353004EB83039F6B04233B7006237B701C
:100A100055E733F045F9002800F0C2800C200FB0F4
:100A2000BDE8F08F34F05EBD03F00F03072B00F03C
:100A3000658133F035F9002840F0348120640025C9
:100A40002E4694F8242094F82530A4F87E50C2F362
:100A50004202012100250DF13300C4F880608DF8B9
:100A60003320C3F38206A4F87C502FF0ABFA024681
:100A7000002800F0088133463946484634F0F8FD36
:100A80004D494E4B2570A0FB0101C0184FF03103BA
:100A900041F10701A360C4E9055543A3D3E900234D
:100AA0006560E560FFF77CFBB4F87060206130F0B2
:100AB00089FE00F10E07002E00F00B8194F824301F
:100AC00065F3000384F82430DB07256900F11C81FD
:100AD000D4F84480B8F1000F00F0A880D8F8008066
:100AE000AB1C3B440DA940460D9300F0CDF9236F9C
:100AF00094F87B2040F271218146A3FB0131002A4A
:100B000040F0388142F6DC32981841F1000140F2A1
:100B1000E2420023FFF744FB80B2A8F83C004A46BB
:100B20000D99404600F0F8F98146002840F0AB806E
:100B30000DAB08930290224B2248049505F247150D
:100B4000069491211D600993A6FB000301FB063169
:100B50001D4B07931D4B05934FF6FF73022503931F
:100B600011A3D3E900230D95FFF71AFB0321019090
:100B70003B462A46CDF80090484630F07DFC0DA952
:100B800031F0D2FE00287ED198F84E3043F00103B8
:100B900088F84E3094F8843043F0010384F88430B0
:100BA00000200FB0BDE8F08F8D49FD1A070000004E
:100BB000C46600202DA9050000CA9A3B8C49FD1A85
:100BC000B8660020002AE784651903004906000082
:100BD00033F066F80028E3D094F88430D8077FF526
:100BE0001DAF94F8352094F8293004EB820204EB11
:100BF0008303916BD86A34F0DDFB00287FF40FAFDC
:100C0000236C002B3FF40AAF1A7902F0FF014AB9B6
:100C100042F2107206FB02F2A4F87C10A4F87E5097
:100C2000C4F880201B79002BBAD0F7E65E4B5F48F2
:100C3000049505F247150694CDF8088091211D60B2
:100C40000993A6FB000301FB0631594B0793594B4F
:100C500005934FF6FF7302260DAD039350A3D3E91E
:100C600000230D960895FFF79BFA032101903B4660
:100C70003246CDF80080404630F0FEFB294631F088
:100C800053FE002886D0236A002B3FF4C7AE34F011
:100C9000E5FBC3E6584631F095FD504631F086FD40
:100CA0000720BCE631F07CFD804608B331F084FDBE
:100CB00000286CD00023C0F80080037194F8243021
:100CC0002064DA073FF5BBAE42F2107303FB06F671
:100CD000B7E699F8005005F00F05A5F10105B5FA42
:100CE00085F56D09EAE608F16000C8F8680013E6CA
:100CF000236A002BD4D034F0B1FBD1E799F802304D
:100D000059067FF596AEE7E5274B099300200DAA1B
:100D100018600226049501950892254D254A0592F2
:100D20000321CDE9020006943B4600900795324628
:100D30000D9630F0A1FB0DA931F0F6FD0028A2D1EF
:100D40000DAA1D4908924AF2D83200920591CDE9C8
:100D500003000321CDE9010007953B4606940122DB
:100D60000D9630F055FB0DA931F0DEFD00283FF463
:100D700011AF88E702FB01110132A2FB0303194402
:100D800040F2E2420023FFF70BFA80B2C5E6236A85
:100D90000BB134F063FB404631F008FD80E700BF43
:100DA0008D49FD1A07000000B8660020002AE7847C
:100DB0006519030049060000814E03000000000091
:100DC000F0B590F8243090F825708BB0C3F342034F
:100DD0000D46044601210DF1230016468DF82330FF
:100DE0002FF0F0F8C7F3820702463B46314628460B
:100DF00034F03EFC1E491F4AA0FB0131981841F116
:100E0000070119A3D3E90023FFF7CAF92369984220
:100E1000054621D21B1A00220192174A0293174B52
:100E2000A21AA3FB02320221520900230A4409AE8E
:100E3000099113490591CDE903330321D2B20696F6
:100E40000093184630F078FB314631F06DFD38B92B
:100E5000256100200BB0F0BDFBD9C21A0023DBE7EF
:100E60000C200BB0F0BD00BF8D49FD1A070000003B
:100E700000CA9A3B8C49FD1AC4660020398EE338BB
:100E800065190300000000002DE9F04182B004461E
:100E90001F4E204F884635F0C5F9072500236360B3
:100EA000E36029463346E0FB07313122A260184651
:100EB00015A3D3E90023FFF773F994F8313020F03C
:100EC0007F4004EB83032061596B5F231A46204661
:100ED00035F068F92946E0FB07610BA3D3E900234D
:100EE0003046FFF75DF901A920F07F403BF0AEF8F6
:100EF00018B9019B0233C8F80030002002B0BDE8E9
:100F0000F08100BFAFF300808D49FD1A070000009B
:100F10008C49FD1A00CA9A3B2DE9F04700268CB097
:100F20008846C0E9056620490670174650220446E7
:100F30002EF08CFE0546A08F1C4940F2E24202FBD7
:100F400000F002230B93A0FB010115A3D3E90023BA
:100F5000FFF726F90DF12C0ACDF820A006941946CA
:100F600023691F44124B0793124B059381460023BC
:100F700010464FF47A72CDE90367FFF711F9033594
:100F8000EDB2CDE9019043462A4600963046032152
:100F900030F03EFA514631F0C7FC0CB0BDE8F087A6
:100FA0008D49FD1A070000009867002000CA9A3B8F
:100FB00065190300616203002DE9F04FA3B00D46EF
:100FC0001E4640F201232C991092AB432D9A0D91AD
:100FD00004460E9200F0918194F8293004EB8303CB
:100FE00005F4007BD3F82CA09AF8007007F00F07E7
:100FF000072F10D0BBF1000F04D10C27384623B0C7
:10100000BDE8F08FD6F801203178204623B0BDE846
:10101000F04F34F0D1BF9AF802200AF1040112F027
:101020003F0318BF9AF803300B91BBF1000F02D0B9
:101030007F2A00F284810D99099304F128003CF085
:101040003DFB9AF800100278034601F00F0122F0F0
:101050003F020A4303F8022B81469AF8022099F8CE
:1010600002101493920962F3871189F80210616CDF
:10107000099B04F11C004FF00008002900F0C98210
:101080004A7D01EB820290690A681592C2780C9041
:101090000230139002F00100129001F114000E9939
:1010A000119209933CF00AFB804699F8000098F8E9
:1010B00000100C9B00F00F0021F03F01014388F865
:1010C0000010197898F80000C1F3801161F38610C0
:1010D00088F800001978C0B2C90961F3C71088F810
:1010E000000099F8021098F802004FF001038909F6
:1010F0008DF82830099B61F3871015F001020F92DB
:1011000088F80200119A03F0010140F006810029DD
:1011100000F04B819AF8001098F800C00F98C1F3C6
:10112000801161F3861C88F800C099F8001060F304
:10113000861189F800100AF10A010B911299002911
:1011400040F048810C990431099102F002011F918D
:10115000990740F109810B9998F8000006310B912D
:101160009AF80010C90961F3C710414601F8100B45
:101170004FF003008DF8280099F800006FF3C710B6
:1011800089F8000002F0020010B1099806300990B9
:1011900013F00800199002D00B9802300B90881CB5
:1011A0000F9015F0080000F0DD8002203070D6F8B6
:1011B00001001890C6F8011005360A9840F0080C96
:1011C00012F008008DF828C01A9002D00998023059
:1011D000099013F010001B9002D00B9803300B9075
:1011E0004FF018008DF85C0009F10900119002F031
:1011F00010001C90E80640F1A480881CC6F801008D
:101200004CF010000A9003203070053602F01000F8
:10121000002800F0A38000201D9009980330099059
:101220000A98C00644BF05310F91590610D50B9B93
:1012300001330B9394F8253003F01C03102B00F0BE
:1012400009824FF058038DF85C3009F10A031193BD
:10125000530606D5099B013309930A9B43F04003CB
:101260000A939DF82830DAB213F0400316921E93C9
:1012700002D00F9B01330F93119B149A9B1ADBB280
:10128000022B03D809F1030311930123099A13993F
:10129000501AC0B2022803D80C9A033209920120D6
:1012A0000C9A92F801C08445C0F07C810F9908F136
:1012B00002028A1AD2B2022A03D808F103020F925C
:1012C0000122BBF1000F00F08980099DD6F80110C2
:1012D000C6F80150ACEB00003578C0B230708B46D8
:1012E0000536002D40F06C81002940F08D81099970
:1012F000CDF840B00546DC467EE0B84AB849B9486A
:1013000040F2F45348F0B9FD002383F31188BFF392
:101310006F8F0323184602DF5EE616F801EB98F89C
:1013200000C06EF3861C88F800C099F800C06FF307
:10133000861C89F800C000293FF400AFFBE61227A5
:101340005CE61098C0063FF561AF02F0100028B1CE
:101350004CF010000A9009981D905EE702F0100012
:101360001D905DE7189028E70F9808F10A01002802
:101370007FF402AF02F00200002800F027810C99F0
:1013800098F800C00978C90961F3C71C41464FF0BD
:10139000030001F810CB8DF8280099F800C00F98D1
:1013A00060F3C71C89F800C0EFE61299002900F02D
:1013B000F9800C9998F800C009780F98C1F3801152
:1013C00061F3861C88F800C099F8001060F386115C
:1013D00089F800100C990A310991B6E66D0500F103
:1013E000E3801099890500F10D81ACEB00050999A6
:1013F000CDF840B0DC46EDB205EB0C0EBEF11F0F90
:1014000028463FF7FBAD104460445F2800F3EC80B2
:1014100099F8020089F80130013B63F3050089F86F
:10142000020098F802300F9E501E60F3050388F802
:1014300002300BEB05031A4488F8012030462A4697
:1014400052F011FA109B23B15A461946701952F006
:10145000FCF998F802309F0600F0A280179B5E0608
:1014600040F1FD800B9A119912F8013C01F8013C02
:10147000531E0B934B1E11931B9B13B10B9B033BF2
:101480000B93119E94F8253016F8032C6FF3050288
:1014900006F8032C5D093BF015FF32288CBF0020B5
:1014A000012095FAA5F3002DB3FA83F308BF4FF09E
:1014B000FF335B0106F8013C16F8033C60F386132A
:1014C0006FF3C71306F8033C002306F8023C1C9B8D
:1014D00013B1099B033B0993169BDD0602D50F9BB5
:1014E000033B0F931D9B23B10F981946032252F023
:1014F000BAF9199B13B10B9B023B0B931A9B13B1C7
:10150000099B023B0993189B002B00F0FD80189A61
:10151000537812781B0203F470631A431198D1B206
:1015200000F8051C94F87A30C3F303031B0103EBA6
:10153000122300F8043C0F9800F8021C94F87A304B
:10154000C3F303031B0103EB122300F8013C169BBA
:101550009C0700F19380821E169BD8070BD5129B27
:10156000002B00F0E880099B063B196842F8061C36
:101570009B8822F8023C99F8023099061CBF9DF81E
:101580005C3089F8033098F802309A061CBF9DF849
:10159000283088F80330159B93F84E30DB077DD454
:1015A00000272BE51F2729E596F800B0D6F8011093
:1015B0001091ACEB00000999C5B20536DC461BE77B
:1015C0004FF0000CE346CDF840C015E799F800C095
:1015D0000F9860F3C71C89F800C0D9E5B466050010
:1015E00028670500E05F0500A2F15F035B442B4420
:1015F000CA45337000F09A800C9B984500F09180AA
:101600004527FBE45D465946AB461095AC46284657
:10161000F9E635F0DDF9099B1590002800F0978078
:10162000DDF854E0CDF848809EF831200EEB8202C0
:101630000121506B0C9084461CF8022BCDF84CC055
:1016400002F03F024170027080F803800EF11C012D
:10165000424622E50A9B43F040030A93F8E51E9BAD
:10166000002B3FF409AF099A0F9912F8013C01F8D9
:10167000013C531E09934B1E0F93FDE61F9B002B4D
:101680005CD0099B063B09930F991A6841F8082C16
:101690009B8821F8043CA1F108025DE7159C2046D7
:1016A00034F0C0FD364A374B0721E0FB02311846C3
:1016B00031A3D3E90023FEF773FD256920F07F44B1
:1016C000AC423FD22E1B0025159F2F4902235022EA
:1016D000384621932EF0BAFA00232C490195C21CFA
:1016E00021AD0591CDE9033303210296D2B20093D7
:1016F000184606952FF020FF294631F015F90028ED
:101700007FF47BAC3C614BE794F87A30204903F0DE
:101710000F0331F81320501C21F81300C2F30B0201
:10172000FCE60E9A636C12785A7569E70D9B1B787C
:1017300084F8293060E70B9B063B16E70B9B063BC2
:101740000B93A1E77FF62CAF651B0026BCE7CA45CB
:101750007FF454AC0F4A1049104840F2276348F018
:101760008CFB159B83F31188BFF36F8F03231846FF
:1017700002DF43E4AFF300808D49FD1A070000004B
:1017800000CA9A3B8C49FD1A98670020651903002E
:1017900074670020B466050078670500E05F050007
:1017A00070B590F803C01CF0010F14BF00F10A04DB
:1017B000041D1B481CF0020F15461E464FF0070281
:1017C000A1FB000318BF063402FB01311CF0080F17
:1017D00011A3D3E9002318BF0234FEF7E1FCAD1BCF
:1017E00010492844A1FB00310D09490C04D00E4BCF
:1017F000A3FB003001214509A2782078657022F012
:101800001F02C5F3042361F3C71013432070A370B4
:10181000204670BDAFF3008000CA9A3B0000000074
:101820008D49FD1A89888888B5814E1B000000000B
:101830002DE9F04FD0F844B0A949DBF80030DFF8CB
:10184000A4A291B0044608905022184609932EF0A5
:10185000FDF9FF23D4F88C508DF82F30C61C0023DF
:10186000F6B20D950C9301240DF13C090DF13808E9
:101870000CAF0CE00D9BAB4202D06CB3013CE4B268
:101880009DF82F30FF2B3BD09E424CD00D9D002069
:101890000221CDE905A9CDE90078CDE90300029048
:1018A0000DAB0DF12F020F912FF028FF022800F051
:1018B000EF800F9B002BDDD08B4A8C498C4840F683
:1018C0008E4348F0DAFA002383F31188BFF36F8F59
:1018D0000323184602DFCDE78649834A844840F651
:1018E000974348F0CAFA84F31188BFF36F8F03233C
:1018F000184602DF9DF82F30FF2B4FF0FF04C3D1B5
:101900007D49794A7A4840F6994348F0B6FA00236F
:1019100083F31188BFF36F8F0323184602DF9DF80E
:101920002F309E42B2D10E9C744A0C9EA4F57423B3
:10193000A3F51073934207D904F1E874013E04F54E
:10194000D4340C9604F5A5746D4BCBF80C60A3FB56
:101950000434A40C089BCBF8104093F8282093F88B
:1019600029100E948A42D3B204D00133DBB2022B89
:1019700008BF0023089A634D92F82570BBF80890C1
:1019800002EB8303A6FB0501D3F82CA04FF0070858
:101990004FA3D3E9002308FB0611FEF701FCC7F3B0
:1019A00082079AF8011007F003030B4456492218E6
:1019B0000933A1FB0201DB00C7F34007FB4021F024
:1019C0000F0003F59673A0EB1111B3EB410F21D972
:1019D000099B4E489B8F40F2E24101FB0324A4FB8C
:1019E00000013DA3D3E90023FEF7DAFB20F07F4698
:1019F000A6FB050136A3D3E90023CBF80C6008FB56
:101A00000611FEF7CDFB09F10109241ACBF81040AD
:101A10001FFA89F92246314600235046FFF7C0FEDF
:101A2000DBF80C300999099D0133CBF80C3091F8A3
:101A30004D2091F84C30934202EB420305EB4303F7
:101A400018BF81F84C2093F84530062101FB025263
:101A50004032E98F044603F03F0348463AF09EFBCC
:101A6000237860F3050323702FF0ACFE0D992FF05F
:101A7000ABFE089BD3E90121DB6891422CBFC3EB8D
:101A80000103C3EB020398420ED211B0BDE8F08F00
:101A90000F9B022B7FF40DAF022100202FF07AFE66
:101AA0000F9B022BF8D004E70F4A1949104840F663
:101AB000E54348F0E2F9002383F31188BFF36F8F09
:101AC0000323184602DF11B0BDE8F08FAFF30080AA
:101AD00000CA9A3B000000008D49FD1A0700000073
:101AE000986700205D620300B46605009C670500EE
:101AF000E05F0500A4670500D4670500BFBDF07F67
:101B000083DE1B438D49FD1A8988888800CA9A3B69
:101B1000F86705000000000070B5234C9DF810E048
:101B200094F856C01CF0020F37D1460816F0040591
:101B300033D151B363F3830C400194F83230A4F8ED
:101B400044104FEACE0E0EF0180E00F0200040EACE
:101B50000E0023F03803184394F83C3084F8320028
:101B6000124884F856C066F3020384F83C30912191
:101B7000A2FB000301FB023109A3D3E90023FEF716
:101B80000FFBC4E91200284670BD94F83C3065F3A1
:101B9000020384F83C30284670BD0C25284670BDF1
:101BA0008D49FD1A07000000D83A0020002AE7847A
:101BB00010B504469DF8080022854FEA411CC0007C
:101BC000A17D00F018000CF0200C4CEA000C0C4831
:101BD00021F038014CEA010CA3FB0002912184F8AA
:101BE00016C001FB032104A3D3E90023FEF7D8FAB2
:101BF000E06210BDAFF300808D49FD1A07000000C0
:101C0000002AE784000000002DE9F04790F85630E4
:101C100090F832205A4DDFF86C916FF300030446C0
:101C200000F13D01C3F3800060F386128CB084F8AC
:101C3000563084F832202FF019FE94F83220B4F890
:101C400044305148E46102F07902002784F83220E0
:101C50009121A3FB0002C4E90577277001FB032152
:101C600045A3D3E90023FEF79BFA3123E26CA3607E
:101C7000464B6760651BA3FB053502F10E039842D6
:101C80009CBF3A461346C5F3871588BF19460646DA
:101C9000236105EB4503E76098BF3146A26449F82C
:101CA00023102FF08FFD236A00F10E074FEA450A3B
:101CB000002B45D00DF12C08AA4409EB8A030993A7
:101CC000CDF820800694B4F844302F484FF0000936
:101CD000A3FB0002CDF80C90912101FB03212369A5
:101CE00004932B4B07932B4B059302230B9322A3B7
:101CF000D3E90023FEF754FA104619464FF47A72DE
:101D00000023FEF74DFA0535EDB2CDE90160032160
:101D10003B462A46CDF8009048462FF0ADFB4146A1
:101D200030F002FE40B994F8563043F0020384F8D4
:101D300056300CB0BDE8F0870C200CB0BDE8F08741
:101D40000DF12C08CDE90A33216943460AAA032084
:101D500001F022FA0028AFD10B990F4806A3D3E96E
:101D60000023A1FB0001FEF71BFA0A9B20F07F472E
:101D70001F44A1E7AFF300808D49FD1A0700000062
:101D8000D83A002010680020002AE784A38B2EBADE
:101D900065190300656E030000CA9A3B000000004D
:101DA0002DE9F04F0B79062B8FB00C46064614D068
:101DB000092B00F09C80A64AA649A7484FF4A373BC
:101DC00048F05BF8002383F31188BFF36F8F032380
:101DD000184602DF0FB0BDE8F08FD1F808A0DAF89E
:101DE00018306BB19A4A9D499B48912348F045F8B9
:101DF000002383F31188BFF36F8F0323184602DF9C
:101E0000DAF80090484635F069FB637E26600027CB
:101E100067F3C3036376637FE760002B5DD0053013
:101E200001225FFA80F804F11E0E3D4639460B92FE
:101E3000A27F90064DD094F91F0094F81FC000288F
:101E4000C0F232811CF0010F14BF04F1260004F12E
:101E500020001CF0020F18BF06301CF0040F18BF42
:101E600001301CF0080F18BF02301CF0100B1CBF13
:101E7000834603301CF0200F18BF12301CF0400FB7
:101E800018BF0130C2F30502A0EB0E000132D2B23E
:101E9000C0B2824238BF02469A423ABF9B1ADBB2B6
:101EA0000023BBF1000F78D09BF802009BF801C023
:101EB000020202F4F85252EA0C026ED0002948D015
:101EC000002D00F0F8812A8F13449BB22B87638387
:101ED0006CE0013BDBB2002D40D1638321463046EC
:101EE00030F076FC0FB0BDE8F04F30F07DBC8F686D
:101EF0005B4B3D689D4261D1D5F82CA0BAF1000F33
:101F000000F0978056493C2208462DF09FFE00F1D4
:101F100006085FFA88F8DAF8000035F0F9FA7A79FD
:101F200002F00702012A814646D0022A2FD1072358
:101F3000617E237100200B4660F3C3036376637FE9
:101F40002660E06053B10B92C1F3400104F11E0E14
:101F50006EE73F2840F2BF80002DBED02A8F134489
:101F60009BB22B876383B9F1000F44D099F85630A8
:101F70006A6BDB0700F19C80D460EE6A6C63002E14
:101F800048D028460FB0BDE8F04F35F095BB304A39
:101F9000304931484FF4827312E7002D6AD02A8FFE
:101FA00013449BB22B8763830029DCD06B6B002B1F
:101FB00064D0DC606C630DE70623B9E7D7F81880BE
:101FC000B8F1000F79D0D8F80050EB6A9F4266D084
:101FD0001F4A24492048D12347F04FFF002383F3B1
:101FE0001188BFF36F8F0323184602DFBA464746B6
:101FF0004FF0FF088FE7164A1B49174840F2353368
:1020000047F03BFF89F31188BFF36F8F0323184616
:1020100002DFABE70E4A15490F4840F25D3347F047
:102020002CFF86F31188BFF36F8F0323184602DF5E
:10203000A7E7074A0E490848BD2347F01EFF8AF369
:102040001188BFF36F8F0323184602DF5AE700BFE2
:102050008468050060600500E05F0500E068050039
:1020600048680020FC6805007C680500C868050019
:10207000F0680500638300293FF430AFBA4ABB49DA
:10208000BB4840F2F71347F0F8FE002383F31188B2
:10209000BFF36F8F0323184602DF6B6B89E7BA46E5
:1020A00047464FF0FF0836E7002D3FF417AF5AE7D9
:1020B0006B6BA3427FF47DAF8CE6AB4AAD49AC4875
:1020C000CE2347F0DAFE88F31188BFF36F8F032326
:1020D000184602DF77E7002D00F00E812A8F1344A7
:1020E0009BB21E2B2B8703D9637EDE067FF53BAFA9
:1020F0006B6B002B00F01A81DC602B8F6C636383A9
:102100009BF800203B79797962F305033B719BF8DA
:10211000022001235209934063F302017971637E27
:10212000D80600F1CA80B9F1000F00F0018199F8DA
:10213000563013F00103BBD1CAF818309BF90030B8
:102140000B98002BACBF1E214FF49671B960637FD2
:102150009BF8022000F003061E440936C0F340033A
:10216000F600DE4012029BF8013002F4F8521A43E6
:1021700001FB02FAB245FFF4F9AE9BF80030787922
:102180005A064CBF4FF032094FF4FA797A4B09FBEB
:102190000AF9B9FBF3F909F12F0301EB4301B96027
:1021A00000F0070001213AF063FE4FF0000B3121EF
:1021B0006369A960C5F804B0C5F80CB079796F4FB0
:1021C0002F3B9E1B01F003030933C1F34001DB00E9
:1021D000CB40564403F5EA730344361A6848072196
:1021E000E3FB07015EA3D3E90023FDF7D9FFA6EBCC
:1021F000090620F07F405AA3D3E900232861A6FBFB
:102200000701FDF7CDFF5A4620F07F46022101204D
:102210002DF08CFDB8F1FF0F1AD0CDE900BB23697A
:102220003F3B42463344012158462FF09DF910F0C0
:10223000FD0F0DD04C4A53494D4840F20B3347F047
:102240001CFE8BF31188BFF36F8F0323184602DF48
:102250004D493C2228462DF0F9FC4C4A2369CDE932
:1022600007254B4ACDE90525296900960024821DE2
:10227000CDE90341CDE901443F3BD2B201212046E3
:102280002FF0C6F810F0FD0F0DD0374A41493848FD
:1022900040F21B3347F0F1FD84F31188BFF36F8FD9
:1022A0000323184602DF0122022110460FB0BDE8C9
:1022B000F04F2DF03BBD6383E0E6DAF8183083B1D0
:1022C000BB420ED0284A3449294840F2852347F0C2
:1022D000D4FD002383F31188BFF36F8F03231846C7
:1022E00002DFCAF81870637E43F0080363763B7917
:1022F0006FF386133B716DE52848CDE90C312DF065
:1023000077FCDDE90C31054608B3038790F82030EF
:102310000170C0E9051161F3C71301634163C06136
:10232000C0F82CA080F8203000F11C072C63E4E6F4
:102330000D4A1B490E484FF4277347F09EFD89F361
:102340001188BFF36F8F0323184602DFEFE6637E29
:10235000DF067FF5C3AD43F008036376BEE500BF3B
:102360008D49FD1A0700000084680500106905000A
:10237000E05F0500F468050040420F0000CA9A3B88
:102380008C49FD1A5069050048680020A5770300B4
:102390009D750300806905002469050044680020DC
:1023A0007C680500000000002DE9F04F05468BB069
:1023B0008B46012002219A4614463EF04DF8002239
:1023C0000221814601202DF0B1FC3D494FF4A0725D
:1023D00028462DF03BFCC61DF6B23A4B009532461E
:1023E000012100202FF004F910F0FD0F0ED0364A25
:1023F0003649374840F6320347F03FFD002383F368
:102400001188BFF36F8F0323184602DF314BA4FB03
:102410000348204628A3D3E900234146FDF7C0FE28
:102420002D4B20F07F47A7FB03310722E01A02FB68
:10243000071168EB01014FF47A720023FDF7B0FE3B
:10244000CDE90170CDF800B008950695296995F998
:10245000394022480491224931EA240128BF01462B
:102460000591204C07944FF6FE7103915346324676
:10247000012100202EF0CCFF10F0FD0F0ED0124AEB
:102480001249134840F6470347F0F7FC002383F353
:102490001188BFF36F8F0323184602DFB9F1000FD5
:1024A00002D10BB0BDE8F08F0122022110460BB023
:1024B000BDE8F04F2DF03ABC8D49FD1A0700000031
:1024C000303B0020B57D0300F06905005069050030
:1024D000E05F050000CA9A3B8D49FD1A0DBA030062
:1024E00075BB0300557D03002DE9F04F87B0CDE9A2
:1024F0000432BDF8442003780292BDF84820BDF8AC
:102500004080BDF84C50468EB0F82E90B0F8B4B074
:10251000019104460392002B00F0BA80013EB6B24E
:10252000A368D4F8AC70721B92B2002B009209DA47
:10253000E168626823F0004391422CBF7F18BF1806
:10254000A360FF1A009A638D13FB02F39BB2B3FBE7
:10255000F8F218FB02F080B283421FFA82FA80F090
:102560008680C01A40F2E242554902FB00F0A0FB0F
:10257000010151A3D3E90023FDF712FE20F07F40B3
:102580000744D94494F839304D44AD1B554440F2CA
:10259000E246DB09E58506FB08F57DD0226C009953
:1025A000A36CDFF81CB102FB1133A3643AF08AFE7E
:1025B000814694F81401C0F342003AF085FE059B71
:1025C000814406FB03F305FB09F9236509F574292A
:1025D0003C4B09F23F29A3FB09394FEA994303FB1E
:1025E0000AF02364A5EB0309A36C6A080344963A36
:1025F000934228BF1346C4E911230023C4F81C31B9
:10260000A0FB0B012CA3D3E90023FDF7C9FD049B1C
:102610003F1A2D48A0FB0330800A06FB00F026A3DA
:10262000D3E90023A0FB0B01FDF7BAFD20F07F46A4
:10263000029BA385039BA4F82431A4F82A80294691
:10264000204636F00DFC019B13B10023A4F826317F
:102650003B464A4631462046FFF7A6FE94F8203115
:1026600043F0010384F8203107B0BDE8F08F08FB88
:102670001231134840F2E24389B203FB01F1A1FB9E
:1026800000010DA3D3E90023FDF78AFD3F1A78E787
:102690004E445E44B6B243E7049B0948A3FB0001E5
:1026A00005A3D3E90023FDF77BFD20F07F46A94673
:1026B0000136BDE7AFF300808D49FD1A0700000029
:1026C00000CA9A3B83DE1B435917B7D100000000B4
:1026D0002DE9F04F04460B68D0F81E00D3F80080B7
:1026E000638C166893B00F46ADF84430237F2168A1
:1026F0000A91C3F3801B1090CDF82CB012A911E9F8
:1027000003004FEAD31A08F1850915460E90ADF87B
:102710003C100EAB5A465046494635F031FD002874
:1027200040F0A08196F82C11BDF83C200C906BF382
:1027300041010E98C6F833016AF3000186F82C11A6
:10274000A6F83721D8F88520C6F82D21B9F804203D
:10275000A6F83121E28D94F83010A9722A81D4F8BC
:102760002A206A60D4F83A20AA6105F1180094F88A
:102770003E20027105212DF025FC6A7F00F03F000C
:1027800060F305026A7794F83F20C2F30401A97749
:10279000A18EE981012802F01F0289B240F2628114
:1027A0001B3202F01F020B2A00F25C810C9B0029F5
:1027B00000F058813A685360E38E2B82E989D8F89B
:1027C000442040F2E24303FB01FA618E0C91002A9F
:1027D00000F0AD8198F8251040F6C41240F6A663CB
:1027E0007F2988BF1A460D920021304636F04CFBF7
:1027F00094F83F3096F814215B0963F3430286F89E
:1028000014213AF05FFD814696F81401C0F34200AE
:102810003AF05AFD09EB00030AFB03F3C84A03F53B
:10282000742303F23F23A2FB03239B0C6B624FEA4A
:102830005A03963BAB6294F8313040F2E24202FB1D
:1028400003F3AB63238FA6F824315146304636F0AC
:1028500007FBBC4BC6F828316B68C6F81831D8F8AE
:102860004430002B00F05E814FF00109E20700F1D7
:102870003A819DF82C30A377BDF83C30A4F8233082
:102880000E98C4F81F004FF48073A383EB89E38490
:102890002B8A2385B6F82431638596F81431C3F367
:1028A000420384F82C30304635F0C0FAA881E0802D
:1028B00021460A987C682FF08BFFAB89E3801C23AC
:1028C000D4F800B02371B9F1000F40F0038184F80F
:1028D0001C9031F0E5F9002840F0E480214658468C
:1028E0002FF088FF002108463AF0C2FA964A974B2B
:1028F0000446072100F2FE40E0FB02314FF00009E0
:1029000018463123B360C6F804908BA3D3E90023A3
:10291000C6F80C90FDF744FC20F07F4030610C9924
:10292000FB686D6A40F2E24202FB01330D992F3BD6
:1029300019440C1B4A46022101202DF0F7F9D8F862
:102940004430AAEB0505B3B1D3F800A0504633F0EC
:10295000EFFFC21C7E4BCDF800A0D2B20121484649
:102960002EF046FE012800F01A819AF84E306FF3DF
:1029700000038AF84E30404633F06AFA82467248C5
:102980006DA3D3E90023A4FB0001FDF709FCCDF8FA
:102990000480BB686E49009120F07F490AF1020271
:1029A0003F3BD2B24B44012100202EF063FE0128B0
:1029B00000F0E08098F82430DB076BD4304635F027
:1029C00035FA614BA5FB03A804465BA3D3E90023BA
:1029D00050464146FDF7E4FB5E4BBF685E4A0792F6
:1029E00020F07F45A5FB0331BAEB03005B4B059359
:1029F00040F2D1130696089333694FF0000BCDE9EE
:102A000003B34FF0070303FB051168EB01014FF41B
:102A10007A720023FDF7C4FB07343F3FE4B2CDE9EF
:102A20000150CDF800903B462246012158462EF039
:102A3000EFFC10F0FD0F0DD0494A4A494A484FF4C7
:102A4000E97347F01AFA8BF31188BFF36F8F0323F2
:102A5000184602DF0122022110462DF067F913B05B
:102A6000BDE8F08F0022C8F8142095F820300A98AD
:102A700062F3000385F82030E568012621462671BF
:102A80002FF0A6FE28682E7129462FF0B3FE13B052
:102A9000BDE8F08F002301220093184611462EF066
:102AA000A7FD8BE7214658462FF092FED8F840400C
:102AB0004046D4F800B033F0CBF910F0FF0921D133
:102AC00000231222A4F8069023722271AA8962813F
:102AD000637203E76B7F43F040036B77281D39F087
:102AE00059FBE883F3E61E4A20491F48F82347F0C4
:102AF000C4F9002383F31188BFF36F8F03231846B3
:102B000002DFB6E6164A1A4917484FF4A67347F093
:102B1000B4F9002383F31188BFF36F8F03231846A2
:102B200002DFCDE794F81C90C9F340199EE60D939F
:102B30005AE600BFAFF300808D49FD1A0700000080
:102B400083DE1B43404B4C0000CA9A3B8C49FD1A64
:102B5000CDB903008D49FD1A99B903000DBA0300E0
:102B6000986E050050690500E05F0500E863050008
:102B7000EC6405002FF002FF80453FF41BAF124AC2
:102B80001249134840F2792347F077F9002383F381
:102B90001188BFF36F8F0323184602DF0AE72FF077
:102BA000EDFE82453FF4E1AE074A0849084840F28D
:102BB000792347F062F989F31188BFF36F8F0323FC
:102BC000184602DFD1E600BF986E0500F46E0500DE
:102BD000E05F0500000000002DE9F04F8DB0CDE969
:102BE00003011E460020BDF860309DF85C80BDF8F2
:102BF00064A0BDF868909DF86C500592069334F07F
:102C0000A7FC00286ED008F0010B044658462EF0B1
:102C10001DFE0746BBF1000F5DD1169B584632469C
:102C2000394635F0ADFA002860D1012D5AD894F814
:102C30003C3065F3020384F83C30236A079304F1C7
:102C40001C0B002B56D0236A1D6806F001060021DC
:102C500008463AF00BF994F83C108B4A01F0030354
:102C60002833C1F34001DB00CB40B3F5A47F38BF6C
:102C70004FF4A47300EB4303844803F26E2307214F
:102C8000E3FB02017EA3D3E90023FDF789FA20F0DC
:102C90007F40286194F8561068F3830184F8561039
:102CA00094F83C1066F3451184F83C1016990968B5
:102CB00061621699898821850599A4F83090DDE92B
:102CC0000323009158460021FEF772FFE0640020C4
:102CD0000DB0BDE8F08F06212CF0CCFF00289CD170
:102CE0001220F5E70C200DB0BDE8F08F0B200DB0E1
:102CF000BDE8F08F2FF054FD0890002800F0BC8054
:102D000035F088F80546002800F0B38020302DF01B
:102D10006DF905F11C030993002840F09780032109
:102D200005F1240039F0FAFE069BA86E6B854FF67C
:102D3000FF73A5F82CA02B85002800F0968005F1E4
:102D40005C0205F158012CF0A1FF95F86E304FF0B0
:102D5000000A23F0070385F86E30C5F868A0A5F8CF
:102D60006CA0C5F82EA0A5F832A005F1340039F00A
:102D7000BBF995F8393060F30503012185F8393046
:102D80000DF12F0039F0CAFE9DF82F20404B85F839
:102D90003BA0A3FB0213DB0803EB4303A2EB83027C
:102DA00095F83930A5F826A103F03F0385F83930AE
:102DB00095F83C30A5F8249123F00303053285F8FB
:102DC0003C30062385F83A20A5F82231284635F014
:102DD000D7FF069B40F2E24101FB03F31946284668
:102DE00036F03EF8089BC5F8F43085F8F0A005F100
:102DF000700035F0E3FD95F82C31C5F804A006F01D
:102E0000010666F3410385F82C313123AB60169B34
:102E1000C5F80CA01B68C5F83331169A95F82C310B
:102E20009288A5F8372168F3000385F82C313B68B8
:102E3000C5F82D31BB88A5F8313105F11C0323629B
:102E4000C5E905AA85F800A0ED6100E7114A12491D
:102E50001248C12347F011F8079B83F31188BFF391
:102E60006F8F0323184602DF59E705F16000A8665B
:102E700065E708982FF09AFC072029E7AFF3008058
:102E80008D49FD1A0700000000CA9A3B8C49FD1AC3
:102E9000ABAAAAAA246F05003C600500E05F05000C
:102EA0002DE9F04F04468DB090F81C80238D406AC8
:102EB000ADF82C30E307C8F3C0160F461546C8F32B
:102EC00040180A9000F1E480BDF82C300A98A677EB
:102ED0004FF0000AA4F81CA0A4F82330C4F81F0087
:102EE0003B68D3F80090EB89E3842B8A2385B9F8FB
:102EF000303063853AF0E4F984F82C002E683046CF
:102F000034F094FF5146A881E080304635F0BCFF94
:102F1000D7F804A0206821462FF05AFCAB89AAF804
:102F200006301C23DAF800408AF80430B8F1000FAC
:102F300040F0BE808AF81C80514620462FF05AFC93
:102F4000B3687268B5F80E80FD68614C934238BF73
:102F50001346002103F10E0A084640F2E24303FB48
:102F600008F839F083FF002202212D1A01202CF0ED
:102F7000DDFE484634F0B2FAA5FB044552A3D3E97E
:102F80000023834629462046FDF70AF9CDF8049030
:102F9000BB685049009120F07F490BF10502A3EB7B
:102FA0000A03D2B24B44012100202EF063FB10F043
:102FB000FD0F0ED0484A4949494840F23E3346F099
:102FC0005CFF002383F31188BFF36F8F0323184640
:102FD00002DF4FF0000B5B4604220121CDF800B068
:102FE00058462EF005FB304634F020FFBB680746FC
:102FF0003748A3EB0A0AA8FB000133A3D3E9002357
:10300000FDF7CEF81946374B0893374B069340F23D
:103010006E330796099333698046CDE904B31046B1
:1030200000234FF47A72FDF7BBF8304B0722A9FB5F
:103030000331CDE9028002FB0911E01A65EB0101C1
:103040004FF47A720023FDF7ABF80737FFB2CDE9F2
:10305000009053463A46012158462EF0F5F910F0FB
:10306000FD0F0DD01C4A1D491D4840F26F3346F03C
:1030700004FF8BF31188BFF36F8F0323184602DF21
:103080000122022110460DB0BDE8F04F2CF04EBEDB
:10309000114A1749124840F2BE2346F0EEFE0023C3
:1030A00083F31188BFF36F8F0323184602DF0BE70A
:1030B0006B7F43F040036B77281D39F06BF84FF0BE
:1030C0000108E88336E700BF8D49FD1A07000000BC
:1030D00000CA9A3B3DBB0300246F05005069050000
:1030E000E05F050041BB030075BB03008D49FD1A7D
:1030F000E863050000000000032870B50D4626D0E7
:103100000738C3B2012B02D90024204670BD80B21B
:1031100034F094FE04460028F6D090F93930002BA4
:10312000F2DB0021084639F0A1FE194E194A00F2DF
:103130004E500721E0FB0621104613A3D3E90023DC
:10314000FDF72EF820F07F402860204670BD00205B
:1031500033F04EFE04460028D6D05F22114633F0ED
:103160004FFE0B4A0B4B0721E0FB0231184606A32A
:10317000D3E90023FDF714F820F07F4028602046B3
:1031800070BD00BFAFF300808D49FD1A070000003D
:1031900000CA9A3B8C49FD1A70B588B01E4607AB31
:1031A0001446019306AA05AB02920093204A2346D7
:1031B00038F0AAFEFF2834D0069B1E480721A3FB47
:1031C000000201FB032118A3D3E90023FCF7E8FF69
:1031D000044600B13E34079D1749059BA5F57422AE
:1031E000A2F510728A4214D812480721A3FB0002EC
:1031F00001FB03210CA3D3E90023FCF7D1FF0F4B04
:10320000A3FB053504EB954404443460002008B06A
:1032100070BD05F1E87505F5D435013B05F5A575DB
:10322000E2E76FF00900F2E700CA9A3B00000000F5
:10323000FDBE03008D49FD1ABFBDF07F83DE1B4339
:103240002DE9F043C668476873683D491A68D0F8AD
:103250000090A7F57423A3F510738B4283B08046CA
:1032600007D907F1E87707F5D43709F1FF3907F5F2
:10327000A57773681169DD89CDF8049006F1100314
:1032800001AA0220FFF788FF00284ED10199A1EB87
:1032900009031B0237D4084649462EF095FA034627
:1032A00028480721A3FB000201FB032122A3D3E945
:1032B0000023FCF775FF34690444002C346109DBFA
:1032C00040F2E24305FB03F3A3422FD2E41AA342E8
:1032D000FCD33461D8F800301A48A3EB0903A3FBF0
:1032E0000002072101FB032113A3D3E90023FCF70C
:1032F00057FF154BA3FB0737A0EB974020443061E5
:1033000003B0BDE8F08348462EF05EFA03460D4850
:103310000721A3FB000201FB032107A3D3E900233C
:10332000FCF73EFF3469241AC7E73469002CD1D179
:1033300003B0BDE8F08300BF00CA9A3B0000000064
:10334000BFBDF07F8D49FD1A83DE1B4300000000E6
:103350002DE9F04F8FB00DF137010446DFF8F0A0F2
:10336000DFF8F0800DF136002FF0B4FA9DF836301A
:103370009DF837B00B932EF025FADAF80060A6FB23
:10338000085631A3D3E90023002781463146284659
:10339000FCF706FFCDE90777069420F07F44DAF8C2
:1033A00004002D4B0593A0FB080127A3D3E90023BC
:1033B000FCF7F6FE294B20F07F40A4FB03310722E7
:1033C00002FB0411CDE90370E81A66EB01014FF42A
:1033D0007A720023FCF7E4FE0097CDE901404B46EA
:1033E0000B985A4603212EF013F810F0FD0404D078
:1033F0006FF08B000FB0BDE8F08F1948194A002319
:1034000042F0CCFD20B9DAF80C000FB0BDE8F08F27
:103410009DF837209DF836000094234603212EF0B6
:10342000E7F810F0FD0F0CD00F49104A1048E423C4
:1034300046F023FD0F4846F020FD0C48E42146F0FD
:1034400013FD6FF07300D5E78D49FD1A07000000EA
:103450002C6D002000CA9A3BADC303008D49FD1AB4
:10346000146D0020447B0B0034700500C46F050010
:10347000E05F05007C70050038B50F4D04462EF066
:10348000A1F9A9682EF0A0F9696803460B48B3FBBF
:10349000F4F4A1FB00011C4405A3D3E90023FCF7CD
:1034A0007FFE20F07F40844294BF0020012038BD81
:1034B0008D49FD1A070000002C6D002000CA9A3BC0
:1034C000F0B5C468636883B00546002B55D13CF065
:1034D00011FC00203CF034FCA17A607A01F001017B
:1034E000C0F382003CF01EFC627A252102F01C022F
:1034F00008203CF05DFC3C4B019301A83CF040FCF3
:103500003A4940F25B603CF0F3FC237AC3F3420299
:1035100062F30613237220463AF028F927682E68D2
:10352000384639F03DFC06446A6806F10E01012078
:103530003CF018FE3CF05CFF204632F095FC811C0C
:103540003246C9B2384639F039FC054600BB204640
:1035500039F08CFB10B9002003B0F0BD244A254996
:10356000254840F2294346F088FC85F31188BFF3D3
:103570006F8F0323184602DFEDE793F820309B0797
:10358000A5D01E4821463CF073FB3CF05DFCE2E711
:10359000174A1B49184840F2114346F06EFC194B7C
:1035A0000721A5FB030301FB05310DA3D3E900238C
:1035B000FCF7F6FD14490246144846F05EFC00256F
:1035C00085F31188BFF36F8F0323184602DF10487D
:1035D00021463CF04DFB3CF037FC6FF08B00BBE725
:1035E00000CA9A3B00000000D6BE898E5555550092
:1035F0007073050070610500E05F050069CF03008E
:10360000606005008D49FD1A24740500F073050003
:10361000D5D20300000000002DE9F047C46882B055
:10362000002306460DF1030104F1140067688DF8CC
:1036300003303AF065F88046002800F0C2803B7BFA
:1036400007EB83031D692B7803F00F03072B0DD0C5
:10365000814A824982489F2346F00FFC002383F36E
:103660001188BFF36F8F0323184602DFAB7813F086
:103670003F0900F08280EB78DA074CBF05F10A02BF
:103680002A1D980748BF0632190748BF0232DB06D9
:1036900040F19080937851781B0203F4F8530B4368
:1036A00000F08880238992F800A0013323813CF048
:1036B00021FB00203CF044FB97F80990B97A4FEACF
:1036C000591901F0010148463CF02CFB4FEA8902F0
:1036D0005F2108203CF06CFB624B019301A83CF099
:1036E0004FFB0AF03F0A604940F25B603CF000FC8F
:1036F000504639F075FB40463CF08AFBAB783F2BD7
:1037000027D85A4821463CF0B3FA3CF0B7FC27686A
:103710003568384639F044FB054405F10E017268FE
:1037200001203CF01FFD3CF063FE204633F00AF917
:10373000C11C2A46C9B2384639F040FB054600286C
:103740005BD1204639F092FA28BB002002B0BDE8D8
:10375000F0870DF1030107F1180039F0D1FF05469C
:1037600000283CD0214642483CF082FA96203CF0AA
:10377000EDFC48463CF0DAFBC9E7374A3D4938489A
:10378000AB2346F07AFB89F31188BFF36F8F0323D5
:10379000184602DF6FE7304A374931484FF4AD73BE
:1037A00046F06BFB85F31188BFF36F8F0323184638
:1037B00002DFCAE7314821463CF05AFA3CF044FBAC
:1037C000C3E7254A2E4926488A2346F056FB88F34C
:1037D0001188BFF36F8F0323184602DF2FE71E4ABD
:1037E00028491F48F12346F048FB85F31188BFF3B1
:1037F0006F8F0323184602DFB4E7174A224918489F
:1038000040F2491346F039FB204B0721A5FB030387
:1038100001FB05310EA3D3E90023FCF7C1FC1C49D1
:1038200002461C4846F029FB002585F31188BFF3AA
:103830006F8F0323184602DF0C4821463CF018FA2C
:103840003CF002FB6FF08B0080E700BFAFF300801D
:1038500000CA9A3B0000000030740500887405001F
:10386000E05F0500D6BE898E55555500E9DC0300A2
:1038700039DD0300B07405007061050069DE0300E6
:1038800080740500E4730500606005008D49FD1A31
:10389000D0740500F07305002DE9F041C46894F977
:1038A0001630002B8CB0C0F2E780636805460E46E8
:1038B000002B40F0D680A37D6FF30003A3753CF08E
:1038C00019FA00203CF03CFA94F82000012100F0A5
:1038D00007003CF027FA94F820209200252102F0FE
:1038E0001C0208203CF064FA94F8203023F01803FE
:1038F000012084F820302FF0F5F80746002800F06A
:10390000A18007F11C003CF07DFA754B0B930BA8CE
:103910003CF036FA734940F25B603CF0E9FAA07D76
:10392000C0F34100253039F05BFA6F4821463CF086
:103930009FF9A37D9B0602D46368002B7FD096205D
:103940003CF004FC00231A46194618463CF036FBAE
:10395000D4F800802F68404639F022FA07446A689C
:1039600007F10E0100203CF0FDFB3CF041FD3CF076
:1039700095FB204633F0BEFD411DC9B240463A4694
:1039800039F01CFA804600287DD116B9E36A002B75
:1039900031D163683BB1554B0122022100209D606B
:1039A0002CF0F8F9B8B9204639F060F918B90020C0
:1039B0000CB0BDE8F0814E4A4E494F4840F20B230F
:1039C00046F05BFA002383F31188BFF36F8F032364
:1039D000184602DFEBE7464A4849474840F20623CB
:1039E00046F04BFA002383F31188BFF36F8F032354
:1039F000184602DFD7E7424A0792424A059240F250
:103A0000F31200930892CDE90366CDE901660694AE
:103A10003B46042231462DF0FBFC10F0FD0FB8D0E0
:103A2000334A394934484FF4FA7346F026FA86F39C
:103A30001188BFF36F8F0323184602DFA9E73CF01C
:103A40001DFB85E72A4A31492B484FF4C57346F0E0
:103A500014FA87F31188BFF36F8F0323184602DF30
:103A60004FE7636893F82030D90705D4636893F86B
:103A700020309A077FF51FAF254821463CF0F8F823
:103A80003CF0E2F993E71A4A22491B4840F2E51359
:103A900046F0F3F9204B0721A8FB030301FB083193
:103AA0000DA3D3E90023FCF77BFB1C4902461C480D
:103AB00046F0E3F9002585F31188BFF36F8F0323E8
:103AC000184602DF174821463CF0D2F83CF0BCF91A
:103AD0006FF08B006CE700BF00CA9A3B000000004B
:103AE000D6BE898E55555500C93B0000B81100203F
:103AF000DC74050070610500E05F0500746005007E
:103B000091E50300C5E50300F8640500BC730500FA
:103B100069CF0300606005008D49FD1A347505000A
:103B2000F073050069E3030038B504463AF0D6FBAC
:103B3000A37DA27DC3F34103013303F00303032BF1
:103B400008BF002363F3420214BF03F125002520C0
:103B5000A27539F045F963680BB123694BB92DF0B3
:103B600031FEC11C00203CF071FBBDE838403CF048
:103B70003FBC3CF0F1FB05462DF024FEC11C0020AB
:103B80003CF064FB3CF034FC3CF0E6FB29462DF0B5
:103B90001BFE0B4A03460721A0FB020201FB032187
:103BA00005A3D3E90023FCF7FBFA23691B1A236161
:103BB00038BD00BFAFF3008000CA9A3B0000000090
:103BC0008D49FD1A000000002DE9F04F8DB004462C
:103BD0003CF078F910F0FF0013D1FF238DF8290095
:103BE0008DF827008DF82A308DF8283039F054F9F7
:103BF000C34821463CF03CF83CF026F90DB0BDE846
:103C0000F08F3CF081F905463CF080FA8DF82700F2
:103C10003CF086FA0022FF238DF829208DF82A3007
:103C20008DF828003CF054FA81463CF035FAEDB2AC
:103C3000074639F031F9002DDAD001202EF052FF7D
:103C40000546002800F046812B7F03F00F03072B69
:103C500005F11C0800F01681A37D9DF827201907A7
:103C600000F1B68095F81CA0636800225FFA89F91C
:103C70008DF82B200AF00F06002B00F0AD80636852
:103C800093F820309B0700F1A780072E00F00E81EB
:103C900094F816B01BF0080FCBF3C10300F040817D
:103CA000002E40F05A816B7F063B1F2BA0D80420CA
:103CB0002EF018FF00289BD03CF0A2FBE36A0646DA
:103CC00043B9238D40F2712202FB03F3B0FBF3F200
:103CD00003FB120622688B4B12690721A2FB030328
:103CE00001FB023184A3D3E90023FCF759FAA0F2C7
:103CF000A2331F3B4FF0000747F1FF32B34272F18E
:103D00000002FFF475AF3CF0B9F9A67D63683CF0A2
:103D100009F905F11E0301930BAB0493C6F380165A
:103D200004F12103029603932B7FC3F38013014612
:103D3000064600933A46012320463AF003FE3046F9
:103D40003CF066F83CF0AAF8002840F0A2816E48EA
:103D500021463BF08DFF626892F8203043F001036A
:103D600082F82030A37D43F08003A3752EF0D4FEAB
:103D7000172303714FF6FF73C38095F81CE00746C5
:103D80003346CEF3401E00F11C0206F1200C1D68E4
:103D900058689968DE68D6601033634515605060D6
:103DA000916002F11002F2D11B6813603B7FBC608E
:103DB0006EF345133B773CF0CFFA0B9BC7E9040346
:103DC0002EF0AAFE3946F86038682EF0CFFE15E7CF
:103DD000002A7FF447AF0BE7002E40F09D806A7FFA
:103DE000052A7FF605AF252A3FF602AFA37D03F033
:103DF0002103202B32D16368002B00F0FB80062EBC
:103E000051D84523F340D90700F1E180012E00F09D
:103E1000D980042E7FF4ECAE6B7F052B7FF6E8AEE5
:103E2000252B3FF6E5AEA37DDB077FF5E1AE3CF049
:103E300079F82B7F0278C3F38013B3EBD21F7FF4A2
:103E4000D7AE0830062205F11E014FF046FC0028CF
:103E50007FF4CEAE6B7F002B3FF4CAAE63682BB10C
:103E60002B7F03F00F03072B7FF4C2AE3A4649467F
:103E700020463AF0FBFB00283FF4BAAE10307FF446
:103E8000B7AEBBE60DF12A0301930DF129030093B0
:103E90000DF127020AAB414620463BF0FBF9002812
:103EA0007FF4DAAEDEE6072E7FF4A2AE94F820307F
:103EB0005A073FF49DAE0DF12B020192FF220092B2
:103EC00043460022012120463AF0DAFC00283FF464
:103ED0008FAEBFE70D4A0E490E4840F2C72345F0AA
:103EE000CCFF85F31188BFF36F8F0323184602DFE1
:103EF000AAE600BFAFF3008000CA9A3B00000000B2
:103F0000BDE303008D49FD1A79E40300DC7405006C
:103F1000BC730500E05F0500062E3FF460AF6EE75E
:103F200094F82020CAF38011C2F34012914208D0C5
:103F3000002E3FF454AF062E3FF451AF7FF661AF31
:103F400056E6062205F11E0104F1080007934FF022
:103F5000C4FB079B0028EBD1A2E6012EEBD16A7FC0
:103F60000C2A7FF445AECBF3801BBBEBDA1F4FEA84
:103F7000DA1600F09D80012B07D936B195F829306B
:103F800003F0C003402B3FF492AE94F816B0CBF38D
:103F90008013B3EBDA1F4FEADA1620D0CBF3C10B54
:103FA000BBF1010F7FF624AE002E3FF421AE95F851
:103FB000293003F0C003402B7FF41AAE01238DF8A3
:103FC0002B304BE76A7F0C2A7FF412AEDDE76B7F64
:103FD000052B7FF60DAE252B3FF60AAE3EE70622F7
:103FE00005F1240104F121004FF077FB00283FF494
:103FF00035AFD3E7962007933CF0A8F8079B184607
:104000003BF094FF3A46494620463AF02FFB0646DD
:1040100000287FF4EDAD3BF085FF0278032767F3BE
:10402000030202702A7F0178C2F3801262F3C71183
:104030000C2201704270A27DC9B2C2F3801262F3F9
:104040008611024602F8021BD4F82110C0F80210B3
:10405000B4F825109180D5F81E2082606A8C828188
:104060003BF0D6FE3BF01AFF78BB3CF0C1F9A37DD4
:1040700043F00103A3752B7F180705D194F8203076
:1040800043F0080384F82030174821463BF0F0FD48
:10409000B4E5164A1649174840F2AB4345F0EDFE29
:1040A00087F31188BFF36F8F0323184602DF4EE6B4
:1040B000062205F1240104F1210007934FF00DFBC6
:1040C000079B00283FF4F3AD55E7084A0849094823
:1040D00040F22F5345F0D1FE86F31188BFF36F8F66
:1040E000384602DFC1E700BFD1E30300DC740500FE
:1040F000C4730500E05F05002DE9F047C46882B095
:1041000006460DF10301204633F0FAFB90F9163014
:10411000002BC0F2CF8043680746002B40F0BF80E1
:1041200023797F4A6FF386132371002515803BF0B6
:10413000E1FD28463BF004FE6079012100F0070014
:104140003BF0F0FD62799200FF2102F01C02082092
:104150003BF02EFE01202EF0C5FC0546002800F0A5
:104160008F8005F11C003BF04DFE6E4B019301A8C2
:104170003BF006FE6C4940F25B603BF0B9FE2079F3
:1041800000F03F0038F02CFE214668483BF070FDFF
:1041900096203BF0DBFF627902F007020123104614
:1041A00000213BF00BFFD4F800903568484638F00A
:1041B000F7FD05EB0008726808F10E0100203BF0E6
:1041C000D1FF05466079D4F808A000F0070001216E
:1041D0003BF02CFE0544607900F0070002285544AE
:1041E0002DD004280CBF4FF4BC73282301211D449B
:1041F0003BF01EFE28443CF0C1F83CF0F9F83BF0DF
:104200004DFF204633F072FB811D4246C9B248463D
:1042100038F0D4FD0546002853D17B683BB1444BB0
:10422000F760012202219E602BF0B4FDC8B9204640
:1042300038F01CFD28B9002002B0BDE8F087182333
:10424000D4E73C4A3C493D484FF4187345F015FE0D
:10425000002383F31188BFF36F8F0323184602DF17
:10426000E9E7344A3449354840F25B2345F005FE1E
:1042700085F31188BFF36F8F0323184602DFD6E75B
:104280002C4A2F492D484FF4F57345F0F6FD85F380
:104290001188BFF36F8F0323184602DF61E743687D
:1042A00093F82030DA0705D4436893F820309B0751
:1042B0007FF536AF234821463BF0DAFC3BF0C4FDE6
:1042C000B9E71C4A20491D4840F2412345F0D5FD7D
:1042D0001E4B0721A5FB030301FB05310EA3D3E908
:1042E0000023FBF75DFF1A4902461A4845F0C5FD59
:1042F000002585F31188BFF36F8F0323184602DF73
:10430000154821463BF0B4FC3BF09EFD6FF08B005E
:1043100092E700BFAFF3008000CA9A3B00000000A4
:10432000107F0020D6BE898E555555005DF20300E2
:10433000C81100204875050070610500E05F0500A8
:10434000BC7305005DEC0300606005008D49FD1A3B
:10435000C8750500F073050071EA03000000000055
:104360002DE9F04F8BB004460D4616463BF0AAFDF2
:10437000C0B258B938F086FD35B3974800213BF0FC
:1043800077FC0BB0BDE8F04F3BF05EBD3BF0BCFDF1
:1043900007463BF0BBFE82463BF0C2FE3BF098FE78
:1043A00081463BF079FEFFB2804638F06BFD4FB19D
:1043B00003202EF097FB074620B1037F03F00F0385
:1043C000072B23D0002DD8D194F82030D906D4D58E
:1043D0002EF0A2FB0546002800F06E810A23286813
:1043E0002B71AC6029462EF0C1FB94F82030DA0620
:1043F000C3D56FF30413794884F8203021463BF08D
:1044000037FC0BB0BDE8F04F3BF01EBD437F002BE7
:10441000D8D0C37FDA0708D55FFA8AF2FF230021DC
:1044200020463AF00FFA0028CCD0636800228DF8BD
:10443000232007F11C0B002B00F0DA80636893F84F
:10444000201011F0020140F0D380BB7F5B0640F1E9
:10445000CF80FF23009301915B46012220463AF072
:104460000FFA002800F0C480002D00F00D82042017
:104470002EF038FB002880D0AA463BF0C1FFE36A4B
:10448000814643B9238D40F2712202FB03F3B0FB56
:10449000F3F203FB1209236851481A6906F003037B
:1044A00003F12B011733C6F3400CC900DB0021FADE
:1044B0000CF123FA0CF3DFF82CC10B44ACEB030333
:1044C000A2FB00010793072303FB021140A3D3E9DA
:1044D0000023FBF765FE079B03441F3B4FF0000BD7
:1044E0004BF1FF324B4572F10002FFF46BAF94F8D1
:1044F00016903BF017FD09AA049204F121020392E1
:10450000C9F3801907F12002CDF8089001923A7F93
:10451000C2F380120146814643460092204632464D
:104520003AF010FA48463BF073FC3BF0B7FC002829
:1045300040F0C7813BF05CFF96203BF007FE304621
:104540003BF0F4FC284851463BF092FB626892F83D
:10455000203043F0010382F82030A37D43F0800334
:10456000A3752EF0D9FA172202714FF6FF72C2809E
:1045700006464B4600F11C0209F1200E1F685868E0
:104580009968D3F80CC0C2F80CC01033734517609B
:104590005060916002F11002F0D11B681360337F0C
:1045A000B46043F0200333773BF0D6FE099BC6E9A5
:1045B00004032EF0B1FAF060CAF80C60002D78D137
:1045C0000A4A13880133138073E000BFAFF3008001
:1045D00000CA9A3B0000000071EA030011E80300E2
:1045E0008D49FD1A28FDFFFF0DEC0300107F002010
:1045F00063685FFA89F9002B6DD06368002B7FF444
:10460000E1AE002D77D02B791B0613D4A3691BB123
:1046100093F90430002B0DDB0DF1230300220193ED
:10462000FF23009311465B4620463AF029F9002803
:104630003FF4C8AEBD602B797A7EC3F3801363F379
:1046400082027A762B7943F080032B712EF064FA84
:104650003BF082FE38613BF0D3FE41468246304655
:104660003BF0E6FB7B7EAAEB000068F30003786179
:104670007B76B9F1000F67D17F207B7E38766FF3B0
:1046800041037B764246A54B0094314658463AF0AA
:1046900035FD7B7E092260F304137B7638683A711E
:1046A00039462EF063FA7B7ED80640F1FA80002D61
:1046B0004ED00BB0BDE8F08F994A9A499A484FF412
:1046C000587345F0DAFB85F31188BFF36F8F03232E
:1046D000184602DF82E6A37D98068ED5002D00F0F5
:1046E000BC802B7959063AD4BA7F7F2A43D86268B6
:1046F000002A89D041E6A369002B00F0B68093F927
:104700000430002B11DB0DF1230300220193FF2362
:10471000009311465B4620463AF0B2F800283FF479
:1047200053AEA369002B3FF44FAEBC60A3697A7E01
:104730001B79C3F3801363F382027A76A26913793B
:1047400043F08003137181E73BF0B2FCC0B294E701
:1047500094F8203043F0100384F82030A9E7A269D0
:10476000002A00F0A68013795A063FF546AFBB7FBA
:104770007F2B7FF642AF0DF1230300220193FF232D
:10478000009311465B4620463AF07AF800283FF441
:1047900034AF04202EF0A6F900283FF413AE962083
:1047A0003BF0D4FC30463BF0C1FB3BF0BBFB027856
:1047B0004FF0030A6AF3030202703A7F0178C2F3F2
:1047C000801262F3C7110C2201704270A27DC9B23F
:1047D000C2F3801262F38611024602F8021BD4F87B
:1047E0002110C0F80210B4F8251091803A6A826056
:1047F000BA8C82813BF00CFB3BF050FB00287ED151
:104800003BF0F6FD2EF088F909233B71002D6BD0AB
:104810004648BD6029463BF02BFA2B7943F0400314
:104820002B713BF099FD38613BF0EAFD41460446AF
:1048300030463BF0FDFA241A7C61B9F1000F4FD1EC
:104840007F227B7E38683A7623F0160343F002031A
:104850007B7639462EF08AF92BE7A269002A82D1AD
:104860006368002B3FF44FAFAEE50DF123030193D6
:10487000FF2300932A465B46294620463AF000F87B
:1048800000287FF44EAF9FE5D4F818A0BAF1000FCE
:104890003FF49AAD04202EF025F900287FF4EDAD09
:1048A00092E5234A138801331380002D7FF465AD10
:1048B0009BE56268002A7FF460AD1B067FF5ACAE15
:1048C000B8E6174A1B4918484FF47C7345F0D5FAEF
:1048D0008BF31188BFF36F8F0323184602DF29E69D
:1048E0003BF0E6FBC2B2ACE71348BC6039463BF094
:1048F000BFF9A269137943F04003137191E7084AA5
:104900000C49094840F2864345F0B7FA002383F387
:104910001188BFF36F8F504602DF71E789ED030006
:104920004875050028750500E05F0500BDEB030034
:10493000107F0020C47305006DEB03000000000031
:104940002DE9F041C468A2894FF6FF739A4282B004
:1049500000F0AF8005463AF0FBFC2B89628AE08AC2
:104960001A4492B21044637FA28280B2411CE18259
:104970005E064FF00001618204F1180175D403F066
:104980003F000B46A17F009004F11F0037F0BAFBF7
:104990000646D4E90B231344D4E90D020021024456
:1049A000E1626163A16AA26394F852208B4228BF3E
:1049B0000B4612F0040223635FD03BF09BF900200A
:1049C0003BF0BEF9201D3BF0DBF92389A17A40F2D0
:1049D0005B6043EA01413BF08BFA304638F000FA65
:1049E00021464D483BF044F996203BF0AFFB0023B5
:1049F0001A46194618463BF0E1FA20463AF004FD03
:104A000027682E68384638F0CBF906446A6806F104
:104A10000E0100203BF0A6FB80463BF0BDFC0020D1
:104A20003BF0D4FC226BA36B0021084603EB42054C
:104A30003BF0FCF9863500214544054408463BF02F
:104A4000F7F928443BF09AFCA18907313246C9B2F4
:104A5000384638F0B3F9054690BB204638F006F9E1
:104A6000C0B9002002B0BDE8F0810A4603F03F0360
:104A7000E18B37F093FB06468BE7D4E90F012BF06F
:104A80001DF9002899D194F8523043F0040384F8BA
:104A9000523092E7214A2249224840F2551345F00C
:104AA000ECF985F31188BFF36F8F0323184602DFFB
:104AB000D7E71D4821463BF0DBF83BF0C5F9D0E7CE
:104AC000164A1A49174840F24B1345F0D6F9184BCD
:104AD0000721A5FB030301FB05310DA3D3E9002347
:104AE000FBF75EFB13490246134845F0C6F9002563
:104AF00085F31188BFF36F8F0323184602DF0F4839
:104B000021463BF0B5F83BF09FF96FF08B00A9E729
:104B100000CA9A3B00000000C1F503004C76050076
:104B200070610500E05F050069CF0300606005006B
:104B30008D49FD1AA0760500F073050029CF03000A
:104B4000F0B5C468A2894FF6FF739A4285B000F0B1
:104B5000898005463AF0FCFB2B89628AE08A1A4478
:104B600092B21044637FA28280B2411CE1825E0651
:104B70004FF00001618204F118015CD403F03F00A2
:104B80000B46A17F009004F11F0037F0BBFA0646E8
:104B9000204603A93AF0B6FC039B94F852101A7809
:104BA00061F3C3021A70039A94F852301178C3F378
:104BB000400363F3820111703BF09CF800203BF04E
:104BC000BFF8201D3BF0DCF82389A17A40F25B603E
:104BD00043EA01413BF08CF9304638F001F9039982
:104BE00020463AF07FFC214637483BF041F89620BA
:104BF0003BF0ACFA00203BF099F927682E68384664
:104C000038F0CEF806446A6806F10E0101203BF048
:104C1000A9FA3BF0EDFBA18907313246C9B238460B
:104C200038F0CCF8054620BB204638F01FF850B9C4
:104C3000002005B0F0BD0A4603F03F03E18B37F0DA
:104C4000ADFA0646A4E7214A2149224840F203135F
:104C500045F013F985F31188BFF36F8F03231846CE
:104C600002DFE5E71C4821463BF002F83BF0ECF898
:104C7000DEE7164A19491748F92345F0FEF8184BA4
:104C80000721A5FB030301FB05310DA3D3E9002395
:104C9000FBF786FA13490246134845F0EEF8002563
:104CA00085F31188BFF36F8F0323184602DF0F4887
:104CB00021463AF0DDFF3BF0C7F86FF08B00B8E714
:104CC00000CA9A3B0000000061F40300AC760500C6
:104CD00070610500E05F050069CF030060600500BA
:104CE0008D49FD1AFC760500F073050029CF0300FD
:104CF00010B510460C4648F0F9FDA188024602485E
:104D000045F0A5F8002010BD587A050070B5104E8A
:104D100088B003AB4FF4E02204460D4605A848F2E4
:104D20000421CDE9062305934BF04DFF317805A80A
:104D300048F025FE3178074845F089F800230093B4
:104D400005AA2946204617F049FF08B070BD00BFEC
:104D5000167F00207D7A0500014841F0D7BC00BFD6
:104D6000D441002010B5124B59681A6909684906E8
:104D70000ED41049104A11484FF4CB6345F07DF82A
:104D80000F4845F07AF80C484FF4CB6145F06CF8C9
:104D90001268520603D520B19B681B6903E0002806
:104DA000FAD09B68DB680248BDE8104040211847F4
:104DB000B8390500C27A0500917A0500007B05002C
:104DC0001D7B050010B5104648F090FD084B1A7881
:104DD0008242044609D0021E18BF01221A70FFF752
:104DE000C1FF0448214645F032F8002010BD00BF45
:104DF000167F00202F7B0500012973B50546144658
:104E000007D8174946F0E8F96FF01504204602B0BC
:104E100070BD60680A2201A944F062FB019B1B7807
:104E200006460BB9012805D962680E49284646F0A6
:104E3000D3F9E9E7FFF796FF044630B103460A4984
:104E40003246284646F0C8F9E0E7084B084A0949C7
:104E5000002E18BF1A46284646F0BEF9D6E700BF16
:104E6000507B0500637B05008D7B0500CC7C050035
:104E70004C7B0500B27B050010B51C4B1C788CB038
:104E800084F001041422002107A81C704EF005FDD7
:104E90004FF6FF734FF40022ADF820308DF82C3020
:104EA00048F2022102AB04A8CDE9052304934BF09C
:104EB0008AFE214604A848F062FD0D4B197804A82B
:104EC0004A1C1A7048F05BFD0A48214644F0BFFFB7
:104ED000002307A90848009304AA17F07FFE0146A3
:104EE00010B1064844F0B3FF0CB010BD157F002090
:104EF000147F0020C27B050028080020D47B050019
:104F000073B5014628B1384802B0BDE8704044F09E
:104F10009EBF364844F09BFF3549364813F030F9C0
:104F2000014608B13448EFE745F014FF334844F038
:104F30008EFF05F0D7FB054600284DD0304B186892
:104F400043681B685B060ED42E492F4A2F4840F257
:104F5000FF5344F092FF2E4844F08FFF2A4840F25E
:104F6000FF5144F081FF0669836801A95B68984797
:104F7000044620B93368019C5C40C4F38014254882
:104F8000214644F064FF012C2CD100214FF4403025
:104F900042F082FF2049284606F084FC002141F6B9
:104FA0009A1042F079FF1D49284606F07BFC00214B
:104FB00041F69A1042F070FF1949284606F072FC3B
:104FC000002141F69A1042F067FF1649284602B0C8
:104FD000BDE8704006F066BC134802B0BDE8704002
:104FE00044F035BF02B070BDF97B0500197C0500A7
:104FF0000C4205008C0F0020307C05004B7C050026
:1050000040420020C27A0500917A0500007B05002D
:105010001D7B0500727C0500877C0500917C0500E6
:10502000A27C0500BA7C0500CF7C050038B553484A
:1050300044F00DFF524C20464EF0D1F850B9514883
:1050400044F005FF6FF012044F48214644F0FFFE84
:10505000002038BD6368A1681B6822695D060ED414
:105060004A494B4A4B4840F2ED3344F006FF4A4868
:1050700044F003FF40F2ED31454844F0F5FE13687B
:1050800043F0400313600B68444A204606219847CA
:10509000044620B10146424844F0D9FED4E7414DD0
:1050A000414828604EF09BF808B94048C8E7286896
:1050B000436881681B6802695C06D1D5136843F0B8
:1050C000400313600B683A4A06219847044610B122
:1050D00001463848E0E72868816842688C690369BE
:1050E00004B3126852060CD42849294A294840F2D0
:1050F0008B3344F0C2FE284844F0BFFE40F28B31AF
:10510000BAE71B6813F0400F14BF4FF000734FF065
:1051100080634FF0A0720621A047044628B12648BC
:105120002146B9E76FF05704F9E7244B244A5A6047
:10513000286840229A608368DB6913B11F49012205
:1051400098472049204841F0AFF920480BF01CF95E
:10515000014608B11E4879E705F0C4FA50B106F0DF
:10516000ADF8014610B11B4844F071FE1A4844F0F6
:105170006EFE6DE7194844F06AFEF7E7EE7C050025
:10518000B8390500FF7C0500AD7D0500C27A050039
:10519000917A0500007B05001D7B050001000A00D7
:1051A000157D050040420020A43905003C7D050026
:1051B00011000100557D05007E7D0500C8410020DD
:1051C000594D0000794E0000D4410020014F0000ED
:1051D000F97B0500C97D0500057E0500E87D050019
:1051E00010B5094C0A44914200D110BD11F8013BA1
:1051F000584003090001E35CC0B2434018091B0199
:10520000205CDBB25840EEE7367E050070B50C46F8
:10521000002934D002680B1F9B1AD90823F007031A
:1052200013445D88E8070DD4154A16491648AF2384
:1052300044F023FE2146154844F01FFEAF211048DC
:1052400044F012FE104644F091FC084432F83060FD
:10525000801B81420BD00A4A0D490B48B72344F00A
:105260000CFE21460B4844F008FEB721E7E725F085
:1052700001055D80BDE87040104644F034BD70BD4E
:10528000467E0500697E0500007B05007A7E0500EC
:10529000B27E0500D87E05002DE9F8434B1E0B4079
:1052A00006680F46144611D0C1F1000909EA010948
:1052B0004A46042A03F1FF3128BF042219420CD1C7
:1052C0001F46E4B900252846BDE8F883042913D811
:1052D000BDE8F843114644F037BD2D492D4A2E480C
:1052E0004FF4A27344F0C9FD2C4844F0C6FD294890
:1052F0004FF4A27144F0B8FD99460422E1E7B36887
:10530000B3EBD40FDED904F10B013944891AC90873
:10531000304644F081FC80460028D3D009F10405D2
:1053200005EBC0057B1E35441D44B5FBF7F57D43F9
:10533000A5EB09052C442B1F07349B1B24F0070405
:10534000A41BB0EBD30F4FEAD3074FEAE40408D213
:1053500001463A46304644F0ACFC4146304644F003
:105360000AFC3946304644F001FC3844844207D2F6
:105370003046224644F09DFC2146304644F0FBFB7B
:1053800006EBC706738843F0010373809BE700BFF9
:10539000147F0500467E0500007B05002F7F050079
:1053A000B2F5802F2DE9F0410ED33C493C4A3D48EF
:1053B00040F2EB1344F061FD3B4844F05EFD40F2E7
:1053C000EB11374844F050FD042A0CD83749344AD1
:1053D00034484FF4F97344F050FD354844F04DFD26
:1053E0004FF4F971EDE7043ACD1D8E1825F007054D
:1053F00026F00706761B172E4FEAD6070CD82D4944
:10540000274A284840F2FB1344F037FD284844F06F
:1054100034FD40F2FB11D4E7B7FA87F4C4F120025F
:10542000C4F12404A4000734E408631C4FF000080E
:10543000BB420560AF60C5F80C800CD91E49184A04
:1054400018484FF4037344F018FD194844F015FD53
:105450004FF40371B5E74146920005F110004EF09C
:105460001CFA630043F001036B8005EBC4023B1B95
:105470005900A5F800805180AA1925F83440A2F8F7
:105480000280AB5305EBC70321465A8842F0010264
:105490005A802846BDE8F04144F06DBB4C7F0500C2
:1054A000467E0500007B0500627F0500797F0500D0
:1054B0009A7F0500B37F0500DC7F05002DE9F04FE2
:1054C00091B08407009302F004030293C2F3C20375
:1054D00003F10103DDF86880039205460E4605934B
:1054E00040F0F581041D30B1072909D86FF01B0089
:1054F00011B0BDE8F08F01F00706341DC6F10806B3
:10550000009B4FF00009013B4FF0040B0193CDF8D5
:1055100010904F464B464FF0FF32DA460DB10099DE
:1055200021600598002800F3D780984800998142AF
:1055300003D397488142C0F0CF800399A4EB050EB6
:1055400089074FEA9E0040F1E2804FF0000CCCE06A
:105550007A285AD84B280CD8472856D829282AD830
:10556000252851D051D8202877D0233843424341B1
:1055700073E04C382E2848D8DFE800F06F474747E3
:1055800047474747474747474947474747474747A9
:1055900047594749495959596F496C476F47184905
:1055A000184747807D49474749477D000020002331
:1055B0004FF0040B39E02A38C0B2012101FA00F0A3
:1055C00010EA0E0F49D110F0625C30D110EA0103ED
:1055D00043D06046013C5C44B4FBFBF40BFB04F499
:1055E000002D60D0AAEB050CA444B4453FF67EAF75
:1055F00000286AD1BAF1040F45D158F8040B206095
:1056000004344FF0040A28E0013A002325E0019B0E
:1056100013F8013C6C2B33D1019B13F8023C0020A2
:105620006C2B0346C4D14FF0080BDA46D2E708F1E1
:10563000070828F007080734F8E802AB24F007044D
:1056400035B106982044B0423FF650AFC4E900ABF4
:10565000083400234FF0080BDA46019911F8010FC6
:105660000191002800F0BB80002B7FF471AF25284A
:10567000F3D1013201234FF0040BEDE7184696E712
:1056800000200346A6E7BAF1080F40F09A8008F11F
:10569000070828F00708F8E80201C4E90001083407
:1056A0004FF0080AD9E780B9BAF1040F02D108F126
:1056B0000408A5E7BAF1080F40F0838008F1070855
:1056C00028F0070808F10808E9E70599013905916C
:1056D00058F8041B009121E7039988074AD5A4EBE9
:1056E000050E4FEA9E004FF0010CBEF5007F1ED361
:1056F0002849294A29484FF41F7344F0BEFB284823
:1057000044F0BBFB4FF41F71234844F0ADFB0F2F57
:105710000FD8002D48D007F140010DEB010C0CF81B
:10572000200C0CF8102C04980130049021E00F2F6D
:105730000CD91849184A194840F2812344F09DFBBE
:10574000184844F09AFB40F28121DDE7CDB107F122
:1057500040010DEB010EC0B20EF8200C0EF8102C1B
:10576000BCF1000FDFD060F07F000EF8200C09F1D3
:1057700001090137C5F10801043406914FF6DA7EBC
:105780006BE7BCF1000F0FD00136F2E7D03805000F
:10579000BC5A0600EAE6050007800500007B05000C
:1057A0003580050056800500029802360028E0D1B9
:1057B0000098CDE90632FAF782FEDDE906320644AA
:1057C000D7E7444A4449454840F2C62344F055FBD4
:1057D0005146434844F051FB40F2C62194E7631B15
:1057E000B3F5806F0CD33C493A4A3C4840F2D2238F
:1057F00044F043FB3B4844F040FB40F2D22183E7B6
:105800001DB9A6F10804E01872E6029A28609B0808
:105810002B709DF81030C2B1EB7085F80290B9F191
:10582000000F05D008A80022C5F1010C97420ED147
:10583000C5F101030DF120084FF0000A01930DF1AD
:10584000300B574512D1601B52E66B70E5E710F83C
:10585000013B190608D504EB0C0EB64503F07F0397
:105860003FF644AE04F8013B0132DFE7B9F1000F27
:1058700003D098F90020002A17DB029BD3B11AF855
:105880000B2004F8012B0022019B98182044B04201
:105890003FF62CAE98F8000004F8010B0099039233
:1058A00020464DF0D2FF039A14440AF1010A08F190
:1058B0000108C6E798F8002055F822300093029BB3
:1058C00045F822300098FAF7FAFD421CDCE76FF049
:1058D0000D000DE607800500EAE60500007B0500E7
:1058E00070800500858005002DE9F04F97B000AF6E
:1058F0008946D7F880B0FA623B62044658B9AA4993
:10590000AA4AAB484FF4667344F0B7FA4FF4667195
:10591000A64844F0A9FACBF3C00390F802A07B613B
:1059200041B9457800780AEB800020444D4517D8EE
:10593000A0EB0409E378FB61BAF1000F02D01BF081
:10594000010F16D1FB6953BBFB6A1BB13A6A49468A
:10595000204698474D4628465C37BD46BDE8F08F47
:10596000461C3046FAF7ABFD0130304409F101091D
:10597000DCE7237862687A62FA6A9900B96104EB1D
:105980008301002A40F005814D460E4601EB0A09CD
:105990004FF000084E4550D101EB0A0610E01BF015
:1059A000020FD1D023789A00BA6162687A62FA6AEB
:1059B00004EB8301002A7BD14D4601EB0A06904699
:1059C0001BF0050F0CBF02230123FB62FB6906EBF2
:1059D000430A0BF00203BB625645BCD016F8021B0B
:1059E00016F8013C54F82390724B994502D3724B40
:1059F00099453AD37B69002B44D0786A44F0FEF98C
:105A000000283FD06D48036813F0060F13D0E94615
:105A10008AB06A466A4B53617B6AC2E906314FF429
:105A200000731384674B42F8103F00234FF4125168
:105A300002F09CF8CD46023DCEE716F8013BF96234
:105A400054F82300FAF73BFDD7F88430F96A0130A7
:105A50004BB1D7F8883098453EBFD7F8843023F84B
:105A6000180008F10108054494E77B6923B1786ABE
:105A700044F0C4F90028C5D11BF0010F05D1FB6A21
:105A8000ED1AA9E7BB6A002BA6D04846FAF717FD26
:105A9000D7F8843053B1D7F8883098453FBFD7F84E
:105AA0008420431C22F8183008F10108054493E7CC
:105AB000BAF1000F73D01BF0040673D0D046002655
:105AC00007F1480052463B61B9624DF0BEFEB96A2B
:105AD0003B6901EB0A02BA62FA69F9695200FA609D
