:1000000040C800205DD1000057E4040049D1000041
:1000100049D1000049D1000049D100000000000092
:100020000000000000000000000000007DD2000081
:1000300049D100000000000049D2000049D1000071
:1000400081D40000B9D3030081D4000081D4000022
:1000500081D4000081D4000081D4000081D400004C
:1000600081D4000081D4000081D4000081D400003C
:1000700081D4000081D4000081D4000081D400002C
:1000800081D4000081D4000081D4000081D400001C
:1000900081D4000081D4000081D4000081D400000C
:1000A00081D4000081D4000081D4000081D40000FC
:1000B00081D4000081D4000081D4000081D40000EC
:1000C00081D4000081D4000081D4000081D40000DC
:1000D00081D4000081D4000081D4000081D40000CC
:1000E00081D4000081D4000081D4000081D40000BC
:1000F00081D4000081D4000081D4000081D40000AC
:100100007BB972B90029BEBF00204FF0004106E064
:1001100008BF00281CBF6FF000414FF0FF3000F017
:1001200057B8ADF1080C6DE904CE002909DB002BAE
:100130001ADB00F062F8DDF804E0DDE9022304B028
:100140007047404261EB4101002B1BDB00F055F88A
:10015000DDF804E0DDE9022304B0404261EB410137
:10016000524263EB43037047524263EB430300F098
:1001700044F8DDF804E0DDE9022304B0404261EB1D
:1001800041017047524263EB430300F036F8DDF85B
:1001900004E0DDE9022304B0524263EB43037047FD
:1001A00053B94AB9002908BF00281CBF4FF0FF31DE
:1001B0004FF0FF3000F00CB8ADF1080C6DE904CE43
:1001C00000F01BF8DDF804E0DDE9022304B070471D
:1001D000704700BF430803F05533C01A00F03333B3
:1001E000800800F03330184400EB10104FF001335A
:1001F00000F00F305843000E70472DE9F047864657
:100200008C460846089E154674461946002B40F059
:10021000C2808542B2FA82F245D94AB1C2F12003C6
:1002200000FA02FC2EFA03F3954043EA0C0C9440CA
:100230004FEA154EA8B2BCFBFEF8230C0EFB18CCFF
:1002400008FB00F943EA0C43994528D9EB1808F15B
:10025000FF3704D2994502D9A8F102072B44A3EB3A
:100260000903A4B2B3FBFEFC0EFB1C330CFB00F035
:1002700044EA0344A04214D92C190CF1FF3304D2F0
:10028000A04202D9ACF102032C44241A43EA0740ED
:100290001EB1D440002334607360BDE8F087474648
:1002A000DDE76346F1E792BB431B01214FEA154EA0
:1002B000AFB2B3FBFEFC200C0EFB1C330CFB07F8AB
:1002C00040EA0343984562D9EB180CF1FF3004D2A1
:1002D000984502D9ACF102002B44A3EB0803A4B269
:1002E000B3FBFEFC0EFB1C330CFB07F744EA034494
:1002F000A7424ED92C190CF1FF3304D2A74202D9E0
:10030000ACF102032C44E41B43EA0040C0E7C2F115
:10031000200320FA03F1954090402EFA03F30343A3
:100320004FEA154EAFB2B1FBFEFC0EFB1C10190CD0
:100330000CFB07F841EA0041884504FA02F422D98F
:1003400069180CF1FF3004D2884502D9ACF10200E3
:100350002944A1EB08019BB2B1FBFEFC0EFB1C1172
:100360000CFB07F743EA01439F420ED9EB180CF14F
:10037000FF3104D29F4202D9ACF102012B44DB1BB6
:1003800041EA004192E76046E3E76146F7E76046ED
:10039000A3E76346B7E7834206D916B900210846AA
:1003A0007BE7C6E900E0F9E7B3FA83F78FB9834248
:1003B00001D3724508D8BEEB020460EB03030120B1
:1003C0009C461EB9002168E73846FAE7C6E9004CAA
:1003D000F8E7C7F1200CBB4022FA0CF41C432EFABC
:1003E0000CF120FA0CF3B84001434FEA14490EFA1D
:1003F00007F5B3FBF9F81FFA84FE09FB18300B0C64
:1004000008FB0EFA43EA00439A4502FA07F240D984
:10041000E31808F1FF3004D29A4502D9A8F102008E
:100420002344A3EB0A0389B2B3FBF9F809FB1833A1
:1004300008FB0EFE41EA03418E452CD9611808F1F4
:10044000FF3304D28E4502D9A8F10203214443EAC6
:100450000040A0FB0298A1EB0E014145CE46434669
:1004600002D306D14D4504D2B9EB020E68EB04036A
:100470000138002EA6D0B5EB0E0261EB030101FAA4
:100480000CFC22FA07F34CEA0303F940C6E90031F9
:1004900098E74046C5E74346D9E710F8012B11F825
:1004A000013B012A28BF9A42F7D0D01A7047034671
:1004B00011F8012B03F8012B002AF9D170470346EC
:1004C00013F8012B002AFBD1181A013870470000DD
:1004D0002DE9F047064688B00F46904654F039F8AB
:1004E0004FF47A73A0FB034503FB0155E40B012F86
:1004F00044EA45444FEAD53507D1294922462B46DF
:1005000030464BF0CBFD002012E0D8F804702548AF
:100510003946FFF7C2FF70B123483946FFF7BDFFE8
:1005200048B1304621493A464BF0D4FD6FF0040003
:1005300008B0BDE8F0872046294617A3D3E9002379
:10054000FFF7DEFD05460C4610461946184A002303
:10055000FFF7D6FD80460F46104619464EF660223C
:100560000023FFF7CDFD82468946104619464FF419
:100570007A720023FFF7C4FDCDE902A9CDE9062375
:10058000CDE90401CDE900870A492A4623463046D1
:100590004BF084FDB7E700BF005C260500000000BB
:1005A000A09D0500B19D0500B49D0500BD9D050001
:1005B00080EE3600D59D05002DE9F843D0E90638D8
:1005C000456903EB08042F34A5420F46164619D897
:1005D000DFF86C80A3FB080117A3D3E90023FFF722
:1005E000DFFD0346601BA0FB080123F07F4412A33C
:1005F000D3E90023FFF7D4FD20F07F403C6030605A
:10060000BDE8F883DFF838900BA3D3E90023A5FBFE
:100610000901FFF7C5FD20F07F440A480A2106A31F
:10062000D3E90023E8FB0901FFF7BAFD20F07F4082
:100630003C603060BDE8F8838D49FD1A070000007A
:1006400000CA9A3B00166BF12DE9F04F8DB09A4627
:10065000179C9DF85890636C05460E46904653B122
:10066000B4F87E301BB1B4F87C209A4278D2D4F82A
:100670008020002A77D14FF6FF739A4520D0277843
:100680000137FFB22770002F78D06F496F4BC1F848
:10069000048004F11C000022C86081F80A900D60FB
:1006A000A1F808A099600120114630F0D5FA002881
:1006B00073D1636CC4F88C5013B1204637F00CFB37
:1006C00094F8245015F001054AD1614A614B117824
:1006D0001B788B4277D04FF6FF739A45D4F8808011
:1006E000B4F87C9015BF0AF101074FF0000ABFB2C1
:1006F0005746B8F1000F30D0B9F1000F2DD0226F5E
:100700000AF1010A40F271211FFA8AF301FB02FA91
:10071000514A4FF0070BA6FB02010AFB03F30993B2
:100720000BFB061146A3D3E90023FFF739FD099B14
:10073000494A1E18A5FB02010BFB051140A3D3E992
:100740000023FFF72DFD50443044804586BFA8EBC1
:100750000606C4F88060C4F880A04F44A4F87C70FA
:100760000DB0BDE8F08F216F40F27123A1FB0313A0
:10077000914273F10003FFF47EAFF1E7374A384945
:10078000384840F649134AF0DAFA87F31188BFF384
:100790006F8F0323184602DF77E7304A324931482A
:1007A00040F66B134AF0CBFA002383F31188BFF3B2
:1007B0006F8F0323184602DF636CC4F88C50002B44
:1007C0007FF47BAF7CE7013304210BA813703DF06D
:1007D00047F90B9B25490694A1FB0321581A244A8B
:1007E000009501EB50012348A21AA0FB0202090A5E
:1007F00040F24710520900FB113302321E490591A5
:100800000133CDE90355CDE90155D2B20121284686
:100810000B9331F0F3FD10F0FD0F0DD00F4A174987
:10082000104840F2BA734AF08AFA85F31188BFF390
:100830006F8F0323184602DF0B9D4CE7AFF3008058
:1008400000CA9A3B0000000028680020C011002068
:100850000F8400200E8400208D49FD1AAC75050020
:10086000CC760500E07005007072050021F1D4908F
:1008700054680020398EE338E15E0300D07605002D
:10088000002900F0CF802DE9F04F8FB0002840F014
:10089000C080C74C1D4694F88430DF07164600F12F
:1008A000978194F8352094F8293004EB820204EB08
:1008B0008303976BD3F82C90002F00F09280394679
:1008C000484635F0D9FC002840F0A98099F800305E
:1008D00013F00E0F40F0A880236A002B40F09E809A
:1008E00032F0C0FE8246002800F0DA8132F0C6FE07
:1008F0008346002800F0D18138F0EEF980460028C8
:1009000000F0C881806E4FF6FF73A8F8283008F118
:100910001C03002800F0E78108F15C0208F158018F
:100920000B9330F015F9A34A98F82C11D2F8010076
:10093000C8F82D01C8F8330112F8010B9288A8F805
:100940003121A8F8372198F8392002F03F0262F0EF
:100950007F0288F8392098F86E2022F0070200F014
:10096000010088F86E2098F83C2060F3000160F3E5
:10097000410122F0070288F82C1188F83C2006215A
:100980000022C8E91222C8F86820A8F86C20A8F84C
:100990003220C8F82E2088F83B20C8F85020A8F84C
:1009A0002621A8F82211404639F04CF9002288F897
:1009B000F020C8F8F4A008F1700038F061FF0022C0
:1009C0000B9B2362C4E91AABC8E9052288F8002012
:1009D000C8F81C803DF086FB58B335F0A1FC03201D
:1009E0001DE099F8003003F00F03072B16D004F137
:1009F00034003DF00FFDC0B2002840F0518194F862
:100A0000353004EB83039F6B04233B7006237B701C
:100A100055E734F0A7F8002800F0C2800C200FB092
:100A2000BDE8F08F35F0C0BC03F00F03072B00F0DA
:100A3000658134F097F8002840F034812064002567
:100A40002E4694F8242094F82530A4F87E50C2F362
:100A50004202012100250DF13300C4F880608DF8B9
:100A60003320C3F38206A4F87C5030F00DFA02461E
:100A7000002800F0088133463946484635F05AFDD3
:100A80004D494E4B2570A0FB0101C0184FF03103BA
:100A900041F10701A360C4E9055543A3D3E900234D
:100AA0006560E560FFF77CFBB4F87060206131F0B1
:100AB000EBFD00F10E07002E00F00B8194F82430BE
:100AC00065F3000384F82430DB07256900F11C81FD
:100AD000D4F84480B8F1000F00F0A880D8F8008066
:100AE000AB1C3B440DA940460D9300F0CDF9236F9C
:100AF00094F87B2040F271218146A3FB0131002A4A
:100B000040F0388142F6DC32981841F1000140F2A1
:100B1000E2420023FFF744FB80B2A8F83C004A46BB
:100B20000D99404600F0F8F98146002840F0AB806E
:100B30000DAB08930290224B2248049505F247150D
:100B4000069491211D600993A6FB000301FB063169
:100B50001D4B07931D4B05934FF6FF73022503931F
:100B600011A3D3E900230D95FFF71AFB0321019090
:100B70003B462A46CDF80090484631F0DFFB0DA9F0
:100B800032F034FE00287ED198F84E3043F0010355
:100B900088F84E3094F8843043F0010384F88430B0
:100BA00000200FB0BDE8F08F8D49FD1A070000004E
:100BB0005468002051BA050000CA9A3B8C49FD1ABE
:100BC00048680020002AE78429280300490600001D
:100BD00033F0C8FF0028E3D094F88430D8077FF5BD
:100BE0001DAF94F8352094F8293004EB820204EB11
:100BF0008303916BD86A35F03FFB00287FF40FAF79
:100C0000236C002B3FF40AAF1A7902F0FF014AB9B6
:100C100042F2107206FB02F2A4F87C10A4F87E5097
:100C2000C4F880201B79002BBAD0F7E65E4B5F48F2
:100C3000049505F247150694CDF8088091211D60B2
:100C40000993A6FB000301FB0631594B0793594B4F
:100C500005934FF6FF7302260DAD039350A3D3E91E
:100C600000230D960895FFF79BFA032101903B4660
:100C70003246CDF80080404631F060FB294632F024
:100C8000B5FD002886D0236A002B3FF4C7AE35F0AF
:100C900047FBC3E6584632F0F7FC504632F0E8FC1A
:100CA0000720BCE632F0DEFC804608B332F0E6FCFA
:100CB00000286CD00023C0F80080037194F8243021
:100CC0002064DA073FF5BBAE42F2107303FB06F671
:100CD000B7E699F8005005F00F05A5F10105B5FA42
:100CE00085F56D09EAE608F16000C8F8680013E6CA
:100CF000236A002BD4D035F013FBD1E799F80230EA
:100D000059067FF596AEE7E5274B099300200DAA1B
:100D100018600226049501950892254D254A0592F2
:100D20000321CDE9020006943B4600900795324628
:100D30000D9631F003FB0DA932F058FD0028A2D129
:100D40000DAA1D4908924AF2D83200920591CDE9C8
:100D500003000321CDE9010007953B4606940122DB
:100D60000D9631F0B7FA0DA932F040FD00283FF49E
:100D700011AF88E702FB01110132A2FB0303194402
:100D800040F2E2420023FFF70BFA80B2C5E6236A85
:100D90000BB135F0C5FA404632F06AFC80E700BF7F
:100DA0008D49FD1A0700000048680020002AE784EA
:100DB0002928030049060000455D030000000000EB
:100DC000F0B590F8243090F825708BB0C3F342034F
:100DD0000D46044601210DF1230016468DF82330FF
:100DE00030F052F8C7F3820702463B4631462846A8
:100DF00035F0A0FB1E491F4AA0FB0131981841F1B4
:100E0000070119A3D3E90023FFF7CAF92369984220
:100E1000054621D21B1A00220192174A0293174B52
:100E2000A21AA3FB02320221520900230A4409AE8E
:100E3000099113490591CDE903330321D2B20696F6
:100E40000093184631F0DAFA314632F0CFFC38B967
:100E5000256100200BB0F0BDFBD9C21A0023DBE7EF
:100E60000C200BB0F0BD00BF8D49FD1A070000003B
:100E700000CA9A3B8C49FD1A54680020398EE33829
:100E800029280300000000002DE9F04182B004464B
:100E90001F4E204F884636F027F907250023636050
:100EA000E36029463346E0FB07313122A260184651
:100EB00015A3D3E90023FFF773F994F8313020F03C
:100EC0007F4004EB83032061596B5F231A46204661
:100ED00036F0CAF82946E0FB07610BA3D3E90023EB
:100EE0003046FFF75DF901A920F07F403CF010F893
:100EF00018B9019B0233C8F80030002002B0BDE8E9
:100F0000F08100BFAFF300808D49FD1A070000009B
:100F10008C49FD1A00CA9A3B2DE9F04700268CB097
:100F20008846C0E9056620490670174650220446E7
:100F30002FF0EEFD0546A08F1C4940F2E24202FB75
:100F400000F002230B93A0FB010115A3D3E90023BA
:100F5000FFF726F90DF12C0ACDF820A006941946CA
:100F600023691F44124B0793124B059381460023BC
:100F700010464FF47A72CDE90367FFF711F9033594
:100F8000EDB2CDE9019043462A4600963046032152
:100F900031F0A0F9514632F029FC0CB0BDE8F087E1
:100FA0008D49FD1A070000002869002000CA9A3BFD
:100FB00029280300257103002DE9F04FA3B00D4649
:100FC0001E4640F201232C991092AB432D9A0D91AD
:100FD00004460E9200F0918194F8293004EB8303CB
:100FE00005F4007BD3F82CA09AF8007007F00F07E7
:100FF000072F10D0BBF1000F04D10C27384623B0C7
:10100000BDE8F08FD6F801203178204623B0BDE846
:10101000F04F35F033BF9AF802200AF1040112F0C4
:101020003F0318BF9AF803300B91BBF1000F02D0B9
:101030007F2A00F284810D99099304F128003DF084
:101040009FFA9AF800100278034601F00F0122F08F
:101050003F020A4303F8022B81469AF8022099F8CE
:1010600002101493920962F3871189F80210616CDF
:10107000099B04F11C004FF00008002900F0C98210
:101080004A7D01EB820290690A681592C2780C9041
:101090000230139002F00100129001F114000E9939
:1010A000119209933DF06CFA804699F8000098F887
:1010B00000100C9B00F00F0021F03F01014388F865
:1010C0000010197898F80000C1F3801161F38610C0
:1010D00088F800001978C0B2C90961F3C71088F810
:1010E000000099F8021098F802004FF001038909F6
:1010F0008DF82830099B61F3871015F001020F92DB
:1011000088F80200119A03F0010140F006810029DD
:1011100000F04B819AF8001098F800C00F98C1F3C6
:10112000801161F3861C88F800C099F8001060F304
:10113000861189F800100AF10A010B911299002911
:1011400040F048810C990431099102F002011F918D
:10115000990740F109810B9998F8000006310B912D
:101160009AF80010C90961F3C710414601F8100B45
:101170004FF003008DF8280099F800006FF3C710B6
:1011800089F8000002F0020010B1099806300990B9
:1011900013F00800199002D00B9802300B90881CB5
:1011A0000F9015F0080000F0DD8002203070D6F8B6
:1011B00001001890C6F8011005360A9840F0080C96
:1011C00012F008008DF828C01A9002D00998023059
:1011D000099013F010001B9002D00B9803300B9075
:1011E0004FF018008DF85C0009F10900119002F031
:1011F00010001C90E80640F1A480881CC6F801008D
:101200004CF010000A9003203070053602F01000F8
:10121000002800F0A38000201D9009980330099059
:101220000A98C00644BF05310F91590610D50B9B93
:1012300001330B9394F8253003F01C03102B00F0BE
:1012400009824FF058038DF85C3009F10A031193BD
:10125000530606D5099B013309930A9B43F04003CB
:101260000A939DF82830DAB213F0400316921E93C9
:1012700002D00F9B01330F93119B149A9B1ADBB280
:10128000022B03D809F1030311930123099A13993F
:10129000501AC0B2022803D80C9A033209920120D6
:1012A0000C9A92F801C08445C0F07C810F9908F136
:1012B00002028A1AD2B2022A03D808F103020F925C
:1012C0000122BBF1000F00F08980099DD6F80110C2
:1012D000C6F80150ACEB00003578C0B230708B46D8
:1012E0000536002D40F06C81002940F08D81099970
:1012F000CDF840B00546DC467EE0B84AB849B9486A
:1013000040F2F45349F01BFD002383F31188BFF32F
:101310006F8F0323184602DF5EE616F801EB98F89C
:1013200000C06EF3861C88F800C099F800C06FF307
:10133000861C89F800C000293FF400AFFBE61227A5
:101340005CE61098C0063FF561AF02F0100028B1CE
:101350004CF010000A9009981D905EE702F0100012
:101360001D905DE7189028E70F9808F10A01002802
:101370007FF402AF02F00200002800F027810C99F0
:1013800098F800C00978C90961F3C71C41464FF0BD
:10139000030001F810CB8DF8280099F800C00F98D1
:1013A00060F3C71C89F800C0EFE61299002900F02D
:1013B000F9800C9998F800C009780F98C1F3801152
:1013C00061F3861C88F800C099F8001060F386115C
:1013D00089F800100C990A310991B6E66D0500F103
:1013E000E3801099890500F10D81ACEB00050999A6
:1013F000CDF840B0DC46EDB205EB0C0EBEF11F0F90
:1014000028463FF7FBAD104460445F2800F3EC80B2
:1014100099F8020089F80130013B63F3050089F86F
:10142000020098F802300F9E501E60F3050388F802
:1014300002300BEB05031A4488F8012030462A4697
:1014400053F047FA109B23B15A461946701953F0CE
:1014500032FA98F802309F0600F0A280179B5E06D1
:1014600040F1FD800B9A119912F8013C01F8013C02
:10147000531E0B934B1E11931B9B13B10B9B033BF2
:101480000B93119E94F8253016F8032C6FF3050288
:1014900006F8032C5D093CF077FE32288CBF002053
:1014A000012095FAA5F3002DB3FA83F308BF4FF09E
:1014B000FF335B0106F8013C16F8033C60F386132A
:1014C0006FF3C71306F8033C002306F8023C1C9B8D
:1014D00013B1099B033B0993169BDD0602D50F9BB5
:1014E000033B0F931D9B23B10F981946032253F022
:1014F000F0F9199B13B10B9B023B0B931A9B13B191
:10150000099B023B0993189B002B00F0FD80189A61
:10151000537812781B0203F470631A431198D1B206
:1015200000F8051C94F87A30C3F303031B0103EBA6
:10153000122300F8043C0F9800F8021C94F87A304B
:10154000C3F303031B0103EB122300F8013C169BBA
:101550009C0700F19380821E169BD8070BD5129B27
:10156000002B00F0E880099B063B196842F8061C36
:101570009B8822F8023C99F8023099061CBF9DF81E
:101580005C3089F8033098F802309A061CBF9DF849
:10159000283088F80330159B93F84E30DB077DD454
:1015A00000272BE51F2729E596F800B0D6F8011093
:1015B0001091ACEB00000999C5B20536DC461BE77B
:1015C0004FF0000CE346CDF840C015E799F800C095
:1015D0000F9860F3C71C89F800C0D9E5B4770500FF
:1015E00028780500E0700500A2F15F035B442B44FE
:1015F000CA45337000F09A800C9B984500F09180AA
:101600004527FBE45D465946AB461095AC46284657
:10161000F9E636F03FF9099B1590002800F0978015
:10162000DDF854E0CDF848809EF831200EEB8202C0
:101630000121506B0C9084461CF8022BCDF84CC055
:1016400002F03F024170027080F803800EF11C012D
:10165000424622E50A9B43F040030A93F8E51E9BAD
:10166000002B3FF409AF099A0F9912F8013C01F8D9
:10167000013C531E09934B1E0F93FDE61F9B002B4D
:101680005CD0099B063B09930F991A6841F8082C16
:101690009B8821F8043CA1F108025DE7159C2046D7
:1016A00035F022FD364A374B0721E0FB0231184660
:1016B00031A3D3E90023FEF773FD256920F07F44B1
:1016C000AC423FD22E1B0025159F2F4902235022EA
:1016D000384621932FF01CFA00232C490195C21C97
:1016E00021AD0591CDE9033303210296D2B20093D7
:1016F0001846069530F082FE294632F077F8002829
:101700007FF47BAC3C614BE794F87A30204903F0DE
:101710000F0331F81320501C21F81300C2F30B0201
:10172000FCE60E9A636C12785A7569E70D9B1B787C
:1017300084F8293060E70B9B063B16E70B9B063BC2
:101740000B93A1E77FF62CAF651B0026BCE7CA45CB
:101750007FF454AC0F4A1049104840F2276349F017
:10176000EEFA159B83F31188BFF36F8F032318469E
:1017700002DF43E4AFF300808D49FD1A070000004B
:1017800000CA9A3B8C49FD1A2869002029280300C9
:1017900004690020B477050078780500E070050042
:1017A00070B590F803C01CF0010F14BF00F10A04DB
:1017B000041D1B481CF0020F15461E464FF0070281
:1017C000A1FB000318BF063402FB01311CF0080F17
:1017D00011A3D3E9002318BF0234FEF7E1FCAD1BCF
:1017E00010492844A1FB00310D09490C04D00E4BCF
:1017F000A3FB003001214509A2782078657022F012
:101800001F02C5F3042361F3C71013432070A370B4
:10181000204670BDAFF3008000CA9A3B0000000074
:101820008D49FD1A89888888B5814E1B000000000B
:101830002DE9F04FD0F844B0A949DBF80030DFF8CB
:10184000A4A291B0044608905022184609932FF0A4
:101850005FF9FF23D4F88C508DF82F30C61C00237D
:10186000F6B20D950C9301240DF13C090DF13808E9
:101870000CAF0CE00D9BAB4202D06CB3013CE4B268
:101880009DF82F30FF2B3BD09E424CD00D9D002069
:101890000221CDE905A9CDE90078CDE90300029048
:1018A0000DAB0DF12F020F9130F08AFE022800F0EF
:1018B000EF800F9B002BDDD08B4A8C498C4840F683
:1018C0008E4349F03CFA002383F31188BFF36F8FF6
:1018D0000323184602DFCDE78649834A844840F651
:1018E000974349F02CFA84F31188BFF36F8F0323D9
:1018F000184602DF9DF82F30FF2B4FF0FF04C3D1B5
:101900007D49794A7A4840F6994349F018FA00230C
:1019100083F31188BFF36F8F0323184602DF9DF80E
:101920002F309E42B2D10E9C744A0C9EA4F57423B3
:10193000A3F51073934207D904F1E874013E04F54E
:10194000D4340C9604F5A5746D4BCBF80C60A3FB56
:101950000434A40C089BCBF8104093F8282093F88B
:1019600029100E948A42D3B204D00133DBB2022B89
:1019700008BF0023089A634D92F82570BBF80890C1
:1019800002EB8303A6FB0501D3F82CA04FF0070858
:101990004FA3D3E9002308FB0611FEF701FCC7F3B0
:1019A00082079AF8011007F003030B4456492218E6
:1019B0000933A1FB0201DB00C7F34007FB4021F024
:1019C0000F0003F59673A0EB1111B3EB410F21D972
:1019D000099B4E489B8F40F2E24101FB0324A4FB8C
:1019E00000013DA3D3E90023FEF7DAFB20F07F4698
:1019F000A6FB050136A3D3E90023CBF80C6008FB56
:101A00000611FEF7CDFB09F10109241ACBF81040AD
:101A10001FFA89F92246314600235046FFF7C0FEDF
:101A2000DBF80C300999099D0133CBF80C3091F8A3
:101A30004D2091F84C30934202EB420305EB4303F7
:101A400018BF81F84C2093F84530062101FB025263
:101A50004032E98F044603F03F0348463BF000FB69
:101A6000237860F30503237030F00EFE0D9930F0FB
:101A70000DFE089BD3E90121DB6891422CBFC3EB2B
:101A80000103C3EB020398420ED211B0BDE8F08F00
:101A90000F9B022B7FF40DAF0221002030F0DCFD04
:101AA0000F9B022BF8D004E70F4A1949104840F663
:101AB000E54349F044F9002383F31188BFF36F8FA6
:101AC0000323184602DF11B0BDE8F08FAFF30080AA
:101AD00000CA9A3B000000008D49FD1A0700000073
:101AE0002869002021710300B47705009C78050067
:101AF000E0700500A4780500D4780500BFBDF07F34
:101B000083DE1B438D49FD1A8988888800CA9A3B69
:101B1000F87805000000000070B5234C9DF810E037
:101B200094F856C01CF0020F37D1460816F0040591
:101B300033D151B363F3830C400194F83230A4F8ED
:101B400044104FEACE0E0EF0180E00F0200040EACE
:101B50000E0023F03803184394F83C3084F8320028
:101B6000124884F856C066F3020384F83C30912191
:101B7000A2FB000301FB023109A3D3E90023FEF716
:101B80000FFBC4E91200284670BD94F83C3065F3A1
:101B9000020384F83C30284670BD0C25284670BDF1
:101BA0008D49FD1A07000000503C0020002AE78400
:101BB00010B504469DF8080022854FEA411CC0007C
:101BC000A17D00F018000CF0200C4CEA000C0C4831
:101BD00021F038014CEA010CA3FB0002912184F8AA
:101BE00016C001FB032104A3D3E90023FEF7D8FAB2
:101BF000E06210BDAFF300808D49FD1A07000000C0
:101C0000002AE784000000002DE9F04790F85630E4
:101C100090F832205A4DDFF86C916FF300030446C0
:101C200000F13D01C3F3800060F386128CB084F8AC
:101C3000563084F8322030F07BFD94F83220B4F82E
:101C400044305148E46102F07902002784F83220E0
:101C50009121A3FB0002C4E90577277001FB032152
:101C600045A3D3E90023FEF79BFA3123E26CA3607E
:101C7000464B6760651BA3FB053502F10E039842D6
:101C80009CBF3A461346C5F3871588BF19460646DA
:101C9000236105EB4503E76098BF3146A26449F82C
:101CA000231030F0F1FC236A00F10E074FEA450AD9
:101CB000002B45D00DF12C08AA4409EB8A030993A7
:101CC000CDF820800694B4F844302F484FF0000936
:101CD000A3FB0002CDF80C90912101FB03212369A5
:101CE00004932B4B07932B4B059302230B9322A3B7
:101CF000D3E90023FEF754FA104619464FF47A72DE
:101D00000023FEF74DFA0535EDB2CDE90160032160
:101D10003B462A46CDF80090484630F00FFB41463E
:101D200031F064FD40B994F8563043F0020384F872
:101D300056300CB0BDE8F0870C200CB0BDE8F08741
:101D40000DF12C08CDE90A33216943460AAA032084
:101D500001F022FA0028AFD10B990F4806A3D3E96E
:101D60000023A1FB0001FEF71BFA0A9B20F07F472E
:101D70001F44A1E7AFF300808D49FD1A0700000062
:101D8000503C0020A0690020002AE784A38B2EBAD3
:101D900029280300297D030000CA9A3B00000000A7
:101DA0002DE9F04F0B79062B8FB00C46064614D068
:101DB000092B00F09C80A64AA649A7484FF4A373BC
:101DC00048F0BDFF002383F31188BFF36F8F032317
:101DD000184602DF0FB0BDE8F08FD1F808A0DAF89E
:101DE00018306BB19A4A9D499B48912348F0A7FF50
:101DF000002383F31188BFF36F8F0323184602DF9C
:101E0000DAF80090484636F0CBFA637E2660002769
:101E100067F3C3036376637FE760002B5DD0053013
:101E200001225FFA80F804F11E0E3D4639460B92FE
:101E3000A27F90064DD094F91F0094F81FC000288F
:101E4000C0F232811CF0010F14BF04F1260004F12E
:101E500020001CF0020F18BF06301CF0040F18BF42
:101E600001301CF0080F18BF02301CF0100B1CBF13
:101E7000834603301CF0200F18BF12301CF0400FB7
:101E800018BF0130C2F30502A0EB0E000132D2B23E
:101E9000C0B2824238BF02469A423ABF9B1ADBB2B6
:101EA0000023BBF1000F78D09BF802009BF801C023
:101EB000020202F4F85252EA0C026ED0002948D015
:101EC000002D00F0F8812A8F13449BB22B87638387
:101ED0006CE0013BDBB2002D40D1638321463046EC
:101EE00031F0D8FB0FB0BDE8F04F31F0DFBB8F68A9
:101EF0005B4B3D689D4261D1D5F82CA0BAF1000F33
:101F000000F0978056493C2208462EF001FE00F171
:101F100006085FFA88F8DAF8000036F05BFA7A799A
:101F200002F00702012A814646D0022A2FD1072358
:101F3000617E237100200B4660F3C3036376637FE9
:101F40002660E06053B10B92C1F3400104F11E0E14
:101F50006EE73F2840F2BF80002DBED02A8F134489
:101F60009BB22B876383B9F1000F44D099F85630A8
:101F70006A6BDB0700F19C80D460EE6A6C63002E14
:101F800048D028460FB0BDE8F04F36F0F7BA304AD7
:101F9000304931484FF4827312E7002D6AD02A8FFE
:101FA00013449BB22B8763830029DCD06B6B002B1F
:101FB00064D0DC606C630DE70623B9E7D7F81880BE
:101FC000B8F1000F79D0D8F80050EB6A9F4266D084
:101FD0001F4A24492048D12348F0B1FE002383F34F
:101FE0001188BFF36F8F0323184602DFBA464746B6
:101FF0004FF0FF088FE7164A1B49174840F2353368
:1020000048F09DFE89F31188BFF36F8F03231846B4
:1020100002DFABE70E4A15490F4840F25D3348F046
:102020008EFE86F31188BFF36F8F0323184602DFFD
:10203000A7E7074A0E490848BD2348F080FE8AF307
:102040001188BFF36F8F0323184602DF5AE700BFE2
:102050008479050060710500E0700500E0790500F5
:10206000D8690020FC7905007C790500C879050055
:10207000F0790500638300293FF430AFBA4ABB49C9
:10208000BB4840F2F71348F05AFE002383F311884F
:10209000BFF36F8F0323184602DF6B6B89E7BA46E5
:1020A00047464FF0FF0836E7002D3FF417AF5AE7D9
:1020B0006B6BA3427FF47DAF8CE6AB4AAD49AC4875
:1020C000CE2348F03CFE88F31188BFF36F8F0323C3
:1020D000184602DF77E7002D00F00E812A8F1344A7
:1020E0009BB21E2B2B8703D9637EDE067FF53BAFA9
:1020F0006B6B002B00F01A81DC602B8F6C636383A9
:102100009BF800203B79797962F305033B719BF8DA
:10211000022001235209934063F302017971637E27
:10212000D80600F1CA80B9F1000F00F0018199F8DA
:10213000563013F00103BBD1CAF818309BF90030B8
:102140000B98002BACBF1E214FF49671B960637FD2
:102150009BF8022000F003061E440936C0F340033A
:10216000F600DE4012029BF8013002F4F8521A43E6
:1021700001FB02FAB245FFF4F9AE9BF80030787922
:102180005A064CBF4FF032094FF4FA797A4B09FBEB
:102190000AF9B9FBF3F909F12F0301EB4301B96027
:1021A00000F0070001213BF0C5FD4FF0000B31218D
:1021B0006369A960C5F804B0C5F80CB079796F4FB0
:1021C0002F3B9E1B01F003030933C1F34001DB00E9
:1021D000CB40564403F5EA730344361A6848072196
:1021E000E3FB07015EA3D3E90023FDF7D9FFA6EBCC
:1021F000090620F07F405AA3D3E900232861A6FBFB
:102200000701FDF7CDFF5A4620F07F46022101204D
:102210002EF0EEFCB8F1FF0F1AD0CDE900BB236918
:102220003F3B424633440121584630F0FFF810F05E
:10223000FD0F0DD04C4A53494D4840F20B3348F046
:102240007EFD8BF31188BFF36F8F0323184602DFE7
:102250004D493C2228462EF05BFC4C4A2369CDE9CF
:1022600007254B4ACDE90525296900960024821DE2
:10227000CDE90341CDE901443F3BD2B201212046E3
:1022800030F028F810F0FD0F0DD0374A414938489A
:1022900040F21B3348F053FD84F31188BFF36F8F76
:1022A0000323184602DF0122022110460FB0BDE8C9
:1022B000F04F2EF09DBC6383E0E6DAF8183083B16E
:1022C000BB420ED0284A3449294840F2852348F0C1
:1022D00036FD002383F31188BFF36F8F0323184665
:1022E00002DFCAF81870637E43F0080363763B7917
:1022F0006FF386133B716DE52848CDE90C312EF064
:10230000D9FBDDE90C31054608B3038790F820308E
:102310000170C0E9051161F3C71301634163C06136
:10232000C0F82CA080F8203000F11C072C63E4E6F4
:102330000D4A1B490E484FF4277348F000FD89F3FE
:102340001188BFF36F8F0323184602DFEFE6637E29
:10235000DF067FF5C3AD43F008036376BEE500BF3B
:102360008D49FD1A0700000084790500107A0500E8
:10237000E0700500F479050040420F0000CA9A3B66
:102380008C49FD1A507A0500D8690020698603003F
:1023900061840300807A0500247A0500D469002056
:1023A0007C790500000000002DE9F04F05468BB058
:1023B0008B46012002219A4614463EF0AFFF0022D0
:1023C0000221814601202EF013FC3D494FF4A072FA
:1023D00028462EF09DFBC61DF6B23A4B00953246BC
:1023E0000121002030F066F810F0FD0F0ED0364AC3
:1023F0003649374840F6320348F0A1FC002383F306
:102400001188BFF36F8F0323184602DF314BA4FB03
:102410000348204628A3D3E900234146FDF7C0FE28
:102420002D4B20F07F47A7FB03310722E01A02FB68
:10243000071168EB01014FF47A720023FDF7B0FE3B
:10244000CDE90170CDF800B008950695296995F998
:10245000394022480491224931EA240128BF01462B
:102460000591204C07944FF6FE7103915346324676
:10247000012100202FF02EFF10F0FD0F0ED0124A88
:102480001249134840F6470348F059FC002383F3F0
:102490001188BFF36F8F0323184602DFB9F1000FD5
:1024A00002D10BB0BDE8F08F0122022110460BB023
:1024B000BDE8F04F2EF09CBB8D49FD1A07000000CF
:1024C000A83C0020798C0300F07A0500507A0500C2
:1024D000E070050000CA9A3B8D49FD1AD1C803007F
:1024E00039CA0300198C03002DE9F04F87B0CDE9FC
:1024F0000432BDF8442003780292BDF84820BDF8AC
:102500004080BDF84C50468EB0F82E90B0F8B4B074
:10251000019104460392002B00F0BA80013EB6B24E
:10252000A368D4F8AC70721B92B2002B009209DA47
:10253000E168626823F0004391422CBF7F18BF1806
:10254000A360FF1A009A638D13FB02F39BB2B3FBE7
:10255000F8F218FB02F080B283421FFA82FA80F090
:102560008680C01A40F2E242554902FB00F0A0FB0F
:10257000010151A3D3E90023FDF712FE20F07F40B3
:102580000744D94494F839304D44AD1B554440F2CA
:10259000E246DB09E58506FB08F57DD0226C009953
:1025A000A36CDFF81CB102FB1133A3643BF0ECFD1C
:1025B000814694F81401C0F342003BF0E7FD059B0F
:1025C000814406FB03F305FB09F9236509F574292A
:1025D0003C4B09F23F29A3FB09394FEA994303FB1E
:1025E0000AF02364A5EB0309A36C6A080344963A36
:1025F000934228BF1346C4E911230023C4F81C31B9
:10260000A0FB0B012CA3D3E90023FDF7C9FD049B1C
:102610003F1A2D48A0FB0330800A06FB00F026A3DA
:10262000D3E90023A0FB0B01FDF7BAFD20F07F46A4
:10263000029BA385039BA4F82431A4F82A80294691
:10264000204637F06FFB019B13B10023A4F826311D
:102650003B464A4631462046FFF7A6FE94F8203115
:1026600043F0010384F8203107B0BDE8F08F08FB88
:102670001231134840F2E24389B203FB01F1A1FB9E
:1026800000010DA3D3E90023FDF78AFD3F1A78E787
:102690004E445E44B6B243E7049B0948A3FB0001E5
:1026A00005A3D3E90023FDF77BFD20F07F46A94673
:1026B0000136BDE7AFF300808D49FD1A0700000029
:1026C00000CA9A3B83DE1B435917B7D100000000B4
:1026D0002DE9F04F04460B68D0F81E00D3F80080B7
:1026E000638C166893B00F46ADF84430237F2168A1
:1026F0000A91C3F3801B1090CDF82CB012A911E9F8
:1027000003004FEAD31A08F1850915460E90ADF87B
:102710003C100EAB5A465046494636F093FC002812
:1027200040F0A08196F82C11BDF83C200C906BF382
:1027300041010E98C6F833016AF3000186F82C11A6
:10274000A6F83721D8F88520C6F82D21B9F804203D
:10275000A6F83121E28D94F83010A9722A81D4F8BC
:102760002A206A60D4F83A20AA6105F1180094F88A
:102770003E20027105212EF087FB6A7F00F03F00AA
:1027800060F305026A7794F83F20C2F30401A97749
:10279000A18EE981012802F01F0289B240F2628114
:1027A0001B3202F01F020B2A00F25C810C9B0029F5
:1027B00000F058813A685360E38E2B82E989D8F89B
:1027C000442040F2E24303FB01FA618E0C91002A9F
:1027D00000F0AD8198F8251040F6C41240F6A663CB
:1027E0007F2988BF1A460D920021304637F0AEFA95
:1027F00094F83F3096F814215B0963F3430286F89E
:1028000014213BF0C1FC814696F81401C0F342004C
:102810003BF0BCFC09EB00030AFB03F3C84A03F5D9
:10282000742303F23F23A2FB03239B0C6B624FEA4A
:102830005A03963BAB6294F8313040F2E24202FB1D
:1028400003F3AB63238FA6F824315146304637F0AB
:1028500069FABC4BC6F828316B68C6F81831D8F84D
:102860004430002B00F05E814FF00109E20700F1D7
:102870003A819DF82C30A377BDF83C30A4F8233082
:102880000E98C4F81F004FF48073A383EB89E38490
:102890002B8A2385B6F82431638596F81431C3F367
:1028A000420384F82C30304636F022FAA881E080CA
:1028B00021460A987C6830F0EDFEAB89E3801C234A
:1028C000D4F800B02371B9F1000F40F0038184F80F
:1028D0001C9032F047F9002840F0E4802146584629
:1028E00030F0EAFE002108463BF024FA964A974B66
:1028F0000446072100F2FE40E0FB02314FF00009E0
:1029000018463123B360C6F804908BA3D3E90023A3
:10291000C6F80C90FDF744FC20F07F4030610C9924
:10292000FB686D6A40F2E24202FB01330D992F3BD6
:1029300019440C1B4A46022101202EF059F9D8F8FF
:102940004430AAEB0505B3B1D3F800A0504634F0EB
:1029500051FFC21C7E4BCDF800A0D2B201214846E7
:102960002FF0A8FD012800F01A819AF84E306FF37D
:1029700000038AF84E30404634F0CCF98246724863
:102980006DA3D3E90023A4FB0001FDF709FCCDF8FA
:102990000480BB686E49009120F07F490AF1020271
:1029A0003F3BD2B24B44012100202FF0C5FD01284E
:1029B00000F0E08098F82430DB076BD4304636F026
:1029C00097F9614BA5FB03A804465BA3D3E9002359
:1029D00050464146FDF7E4FB5E4BBF685E4A0792F6
:1029E00020F07F45A5FB0331BAEB03005B4B059359
:1029F00040F2D1130696089333694FF0000BCDE9EE
:102A000003B34FF0070303FB051168EB01014FF41B
:102A10007A720023FDF7C4FB07343F3FE4B2CDE9EF
:102A20000150CDF800903B462246012158462FF038
:102A300051FC10F0FD0F0DD0494A4A494A484FF465
:102A4000E97348F07CF98BF31188BFF36F8F032390
:102A5000184602DF0122022110462EF0C9F813B0F9
:102A6000BDE8F08F0022C8F8142095F820300A98AD
:102A700062F3000385F82030E568012621462671BF
:102A800030F008FE28682E71294630F015FE13B08C
:102A9000BDE8F08F002301220093184611462FF065
:102AA00009FD8BE72146584630F0F4FDD8F8404048
:102AB0004046D4F800B034F02DF910F0FF0921D1D0
:102AC00000231222A4F8069023722271AA8962813F
:102AD000637203E76B7F43F040036B77281D3AF086
:102AE000BBFAE883F3E61E4A20491F48F82348F062
:102AF00026F9002383F31188BFF36F8F0323184651
:102B000002DFB6E6164A1A4917484FF4A67348F092
:102B100016F9002383F31188BFF36F8F0323184640
:102B200002DFCDE794F81C90C9F340199EE60D939F
:102B30005AE600BFAFF300808D49FD1A0700000080
:102B400083DE1B43404B4C0000CA9A3B8C49FD1A64
:102B500091C803008D49FD1A5DC80300D1C8030068
:102B6000987F0500507A0500E0700500E8740500C4
:102B7000EC75050030F064FE80453FF41BAF124A4F
:102B80001249134840F2792348F0D9F8002383F31F
:102B90001188BFF36F8F0323184602DF0AE730F076
:102BA0004FFE82453FF4E1AE074A0849084840F22B
:102BB000792348F0C4F889F31188BFF36F8F03239A
:102BC000184602DFD1E600BF987F0500F47F0500BC
:102BD000E0700500000000002DE9F04F8DB0CDE958
:102BE00003011E460020BDF860309DF85C80BDF8F2
:102BF00064A0BDF868909DF86C500592069335F07E
:102C000009FC00286ED008F0010B044658462FF04E
:102C10007FFD0746BBF1000F5DD1169B584632463B
:102C2000394636F00FFA002860D1012D5AD894F8B1
:102C30003C3065F3020384F83C30236A079304F1C7
:102C40001C0B002B56D0236A1D6806F001060021DC
:102C500008463BF06DF894F83C108B4A01F00303F2
:102C60002833C1F34001DB00CB40B3F5A47F38BF6C
:102C70004FF4A47300EB4303844803F26E2307214F
:102C8000E3FB02017EA3D3E90023FDF789FA20F0DC
:102C90007F40286194F8561068F3830184F8561039
:102CA00094F83C1066F3451184F83C1016990968B5
:102CB00061621699898821850599A4F83090DDE92B
:102CC0000323009158460021FEF772FFE0640020C4
:102CD0000DB0BDE8F08F06212DF02EFF00289CD10D
:102CE0001220F5E70C200DB0BDE8F08F0B200DB0E1
:102CF000BDE8F08F30F0B6FC0890002800F0BC80F2
:102D000035F0EAFF0546002800F0B38020302EF0B1
:102D1000CFF805F11C030993002840F097800321A8
:102D200005F124003AF05CFE069BA86E6B854FF619
:102D3000FF73A5F82CA02B85002800F0968005F1E4
:102D40005C0205F158012DF003FF95F86E304FF04D
:102D5000000A23F0070385F86E30C5F868A0A5F8CF
:102D60006CA0C5F82EA0A5F832A005F134003AF009
:102D70001DF995F8393060F30503012185F83930E4
:102D80000DF12F003AF02CFE9DF82F20404B85F8D6
:102D90003BA0A3FB0213DB0803EB4303A2EB83027C
:102DA00095F83930A5F826A103F03F0385F83930AE
:102DB00095F83C30A5F8249123F00303053285F8FB
:102DC0003C30062385F83A20A5F82231284636F013
:102DD00039FF069B40F2E24101FB03F31946284606
:102DE00036F0A0FF089BC5F8F43085F8F0A005F197
:102DF000700036F045FD95F82C31C5F804A006F0BA
:102E0000010666F3410385F82C313123AB60169B34
:102E1000C5F80CA01B68C5F83331169A95F82C310B
:102E20009288A5F8372168F3000385F82C313B68B8
:102E3000C5F82D31BB88A5F8313105F11C0323629B
:102E4000C5E905AA85F800A0ED6100E7114A12491D
:102E50001248C12347F073FF079B83F31188BFF328
:102E60006F8F0323184602DF59E705F16000A8665B
:102E700065E7089830F0FCFB072029E7AFF30080F6
:102E80008D49FD1A0700000000CA9A3B8C49FD1AC3
:102E9000ABAAAAAA248005003C710500E0700500D9
:102EA0002DE9F04F04468DB090F81C80238D406AC8
:102EB000ADF82C30E307C8F3C0160F461546C8F32B
:102EC00040180A9000F1E480BDF82C300A98A677EB
:102ED0004FF0000AA4F81CA0A4F82330C4F81F0087
:102EE0003B68D3F80090EB89E3842B8A2385B9F8FB
:102EF000303063853BF046F984F82C002E6830466C
:102F000035F0F6FE5146A881E080304636F01EFFCF
:102F1000D7F804A02068214630F0BCFBAB89AAF8A2
:102F200006301C23DAF800408AF80430B8F1000FAC
:102F300040F0BE808AF81C805146204630F0BCFB31
:102F4000B3687268B5F80E80FD68614C934238BF73
:102F50001346002103F10E0A084640F2E24303FB48
:102F600008F83AF0E5FE002202212D1A01202DF08A
:102F70003FFE484635F014FAA5FB044552A3D3E9B9
:102F80000023834629462046FDF70AF9CDF8049030
:102F9000BB685049009120F07F490BF10502A3EB7B
:102FA0000A03D2B24B44012100202FF0C5FA10F0E1
:102FB000FD0F0ED0484A4949494840F23E3347F098
:102FC000BEFE002383F31188BFF36F8F03231846DF
:102FD00002DF4FF0000B5B4604220121CDF800B068
:102FE00058462FF067FA304635F082FEBB68074638
:102FF0003748A3EB0A0AA8FB000133A3D3E9002357
:10300000FDF7CEF81946374B0893374B069340F23D
:103010006E330796099333698046CDE904B31046B1
:1030200000234FF47A72FDF7BBF8304B0722A9FB5F
:103030000331CDE9028002FB0911E01A65EB0101C1
:103040004FF47A720023FDF7ABF80737FFB2CDE9F2
:10305000009053463A46012158462FF057F910F098
:10306000FD0F0DD01C4A1D491D4840F26F3347F03B
:1030700066FE8BF31188BFF36F8F0323184602DFC0
:103080000122022110460DB0BDE8F04F2DF0B0BD79
:10309000114A1749124840F2BE2347F050FE002360
:1030A00083F31188BFF36F8F0323184602DF0BE70A
:1030B0006B7F43F040036B77281D39F0CDFF4FF055
:1030C0000108E88336E700BF8D49FD1A07000000BC
:1030D00000CA9A3B01CA030024800500507A05000B
:1030E000E070050005CA030039CA03008D49FD1AC6
:1030F000E874050000000000032870B50D4626D0D6
:103100000738C3B2012B02D90024204670BD80B21B
:1031100035F0F6FD04460028F6D090F93930002B42
:10312000F2DB002108463AF003FE194E194A00F27C
:103130004E500721E0FB0621104613A3D3E90023DC
:10314000FDF72EF820F07F402860204670BD00205B
:1031500034F0B0FD04460028D6D05F22114634F08A
:10316000B1FD0B4A0B4B0721E0FB0231184606A3C9
:10317000D3E90023FDF714F820F07F4028602046B3
:1031800070BD00BFAFF300808D49FD1A070000003D
:1031900000CA9A3B8C49FD1A70B588B01E4607AB31
:1031A0001446019306AA05AB02920093204A2346D7
:1031B00039F00CFEFF2834D0069B1E480721A3FBE4
:1031C000000201FB032118A3D3E90023FCF7E8FF69
:1031D000044600B13E34079D1749059BA5F57422AE
:1031E000A2F510728A4214D812480721A3FB0002EC
:1031F00001FB03210CA3D3E90023FCF7D1FF0F4B04
:10320000A3FB053504EB954404443460002008B06A
:1032100070BD05F1E87505F5D435013B05F5A575DB
:10322000E2E76FF00900F2E700CA9A3B00000000F5
:10323000C1CD03008D49FD1ABFBDF07F83DE1B4366
:103240002DE9F043C668476873683D491A68D0F8AD
:103250000090A7F57423A3F510738B4283B08046CA
:1032600007D907F1E87707F5D43709F1FF3907F5F2
:10327000A57773681169DD89CDF8049006F1100314
:1032800001AA0220FFF788FF00284ED10199A1EB87
:1032900009031B0237D4084649462FF0F7F90346C5
:1032A00028480721A3FB000201FB032122A3D3E945
:1032B0000023FCF775FF34690444002C346109DBFA
:1032C00040F2E24305FB03F3A3422FD2E41AA342E8
:1032D000FCD33461D8F800301A48A3EB0903A3FBF0
:1032E0000002072101FB032113A3D3E90023FCF70C
:1032F00057FF154BA3FB0737A0EB974020443061E5
:1033000003B0BDE8F08348462FF0C0F903460D48EE
:103310000721A3FB000201FB032107A3D3E900233C
:10332000FCF73EFF3469241AC7E73469002CD1D179
:1033300003B0BDE8F08300BF00CA9A3B0000000064
:10334000BFBDF07F8D49FD1A83DE1B4300000000E6
:103350002DE9F04F8FB00DF137010446DFF8F0A0F2
:10336000DFF8F0800DF1360030F016FA9DF83630B7
:103370009DF837B00B932FF087F9DAF80060A6FBC1
:10338000085631A3D3E90023002781463146284659
:10339000FCF706FFCDE90777069420F07F44DAF8C2
:1033A00004002D4B0593A0FB080127A3D3E90023BC
:1033B000FCF7F6FE294B20F07F40A4FB03310722E7
:1033C00002FB0411CDE90370E81A66EB01014FF42A
:1033D0007A720023FCF7E4FE0097CDE901404B46EA
:1033E0000B985A4603212EF075FF10F0FD0404D00F
:1033F0006FF08B000FB0BDE8F08F1948194A002319
:1034000043F02EFD20B9DAF80C000FB0BDE8F08FC4
:103410009DF837209DF836000094234603212FF0B5
:1034200049F810F0FD0F0CD00F49104A1048E42362
:1034300047F085FC0F4847F082FC0C48E42147F038
:1034400075FC6FF07300D5E78D49FD1A0700000089
:10345000BC6E002000CA9A3B71D203008D49FD1A50
:10346000A46E0020447B0B0034810500C48005005D
:10347000E07005007C81050038B50F4D04462FF043
:1034800003F9A9682FF002F9696803460B48B3FBFA
:10349000F4F4A1FB00011C4405A3D3E90023FCF7CD
:1034A0007FFE20F07F40844294BF0020012038BD81
:1034B0008D49FD1A07000000BC6E002000CA9A3B2F
:1034C000F0B5C468636883B00546002B55D13DF064
:1034D00073FB00203DF096FBA17A607A01F00101B8
:1034E000C0F382003DF080FB627A252102F01C02CD
:1034F00008203DF0BFFB3C4B019301A83DF0A2FB2F
:103500003A4940F25B603DF055FC237AC3F3420236
:1035100062F30613237220463BF08AF827682E6870
:1035200038463AF09FFB06446A6806F10E01012016
:103530003DF07AFD3DF0BEFE204633F0F7FB811CE6
:103540003246C9B238463AF09BFB054600BB2046DE
:103550003AF0EEFA10B9002003B0F0BD244A254934
:10356000254840F2294347F0EAFB85F31188BFF371
:103570006F8F0323184602DFEDE793F820309B0797
:10358000A5D01E4821463DF0D5FA3DF0BFFBE2E74D
:10359000174A1B49184840F2114347F0D0FB194B1A
:1035A0000721A5FB030301FB05310DA3D3E900238C
:1035B000FCF7F6FD14490246144847F0C0FB00250D
:1035C00085F31188BFF36F8F0323184602DF10487D
:1035D00021463DF0AFFA3DF099FB6FF08B00BBE761
:1035E00000CA9A3B00000000D6BE898E5555550092
:1035F0007084050070720500E07005002DDE030088
:10360000607105008D49FD1A24850500F0840500D0
:1036100099E10300000000002DE9F047C46882B082
:10362000002306460DF1030104F1140067688DF8CC
:1036300003303AF0C7FF8046002800F0C2803B7B91
:1036400007EB83031D692B7803F00F03072B0DD0C5
:10365000814A824982489F2347F071FB002383F30C
:103660001188BFF36F8F0323184602DFAB7813F086
:103670003F0900F08280EB78DA074CBF05F10A02BF
:103680002A1D980748BF0632190748BF0232DB06D9
:1036900040F19080937851781B0203F4F8530B4368
:1036A00000F08880238992F800A0013323813DF047
:1036B00083FA00203DF0A6FA97F80990B97A4FEA0C
:1036C000591901F0010148463DF08EFA4FEA89028E
:1036D0005F2108203DF0CEFA624B019301A83DF036
:1036E000B1FA0AF03F0A604940F25B603DF062FBCC
:1036F00050463AF0D7FA40463DF0ECFAAB783F2B13
:1037000027D85A4821463DF015FA3DF019FC2768A4
:10371000356838463AF0A6FA054405F10E0172689C
:1037200001203DF081FC3DF0C5FD204634F06CF8F1
:10373000C11C2A46C9B238463AF0A2FA054600280A
:103740005BD120463AF0F4F928BB002002B0BDE876
:10375000F0870DF1030107F118003AF033FF054639
:1037600000283CD0214642483DF0E4F996203DF047
:103770004FFC48463DF03CFBC9E7374A3D493848D5
:10378000AB2347F0DCFA89F31188BFF36F8F032373
:10379000184602DF6FE7304A374931484FF4AD73BE
:1037A00047F0CDFA85F31188BFF36F8F03231846D6
:1037B00002DFCAE7314821463DF0BCF93DF0A6FAE8
:1037C000C3E7254A2E4926488A2347F0B8FA88F3EA
:1037D0001188BFF36F8F0323184602DF2FE71E4ABD
:1037E00028491F48F12347F0AAFA85F31188BFF34F
:1037F0006F8F0323184602DFB4E7174A224918489F
:1038000040F2491347F09BFA204B0721A5FB030325
:1038100001FB05310EA3D3E90023FCF7C1FC1C49D1
:1038200002461C4847F08BFA002585F31188BFF348
:103830006F8F0323184602DF0C4821463DF07AF9CA
:103840003DF064FA6FF08B0080E700BFAFF30080BB
:1038500000CA9A3B000000003085050088850500FD
:10386000E0700500D6BE898E55555500ADEB0300BE
:10387000FDEB0300B0850500707205002DED03001F
:1038800080850500E4840500607105008D49FD1AFE
:10389000D0850500F08405002DE9F041C46894F955
:1038A0001630002B8CB0C0F2E780636805460E46E8
:1038B000002B40F0D680A37D6FF30003A3753DF08D
:1038C0007BF900203DF09EF994F82000012100F0E2
:1038D00007003DF089F994F820209200252102F09C
:1038E0001C0208203DF0C6F994F8203023F018039C
:1038F000012084F8203030F057F80746002800F007
:10390000A18007F11C003DF0DFF9754B0B930BA86C
:103910003DF098F9734940F25B603DF04BFAA07DB1
:10392000C0F3410025303AF0BDF96F4821463DF023
:1039300001F9A37D9B0602D46368002B7FD09620FB
:103940003DF066FB00231A46194618463DF098FAEA
:10395000D4F800802F6840463AF084F907446A683A
:1039600007F10E0100203DF05FFB3DF0A3FC3DF0B0
:10397000F7FA204634F020FD411DC9B240463A46D0
:103980003AF07EF9804600287DD116B9E36A002B13
:1039900031D163683BB1554B0122022100209D606B
:1039A0002DF05AF9B8B920463AF0C2F818B90020FB
:1039B0000CB0BDE8F0814E4A4E494F4840F20B230F
:1039C00047F0BDF9002383F31188BFF36F8F032302
:1039D000184602DFEBE7464A4849474840F20623CB
:1039E00047F0ADF9002383F31188BFF36F8F0323F2
:1039F000184602DFD7E7424A0792424A059240F250
:103A0000F31200930892CDE90366CDE901660694AE
:103A10003B46042231462EF05DFC10F0FD0FB8D07D
:103A2000334A394934484FF4FA7347F088F986F33A
:103A30001188BFF36F8F0323184602DFA9E73DF01B
:103A40007FFA85E72A4A31492B484FF4C57347F07E
:103A500076F987F31188BFF36F8F0323184602DFCF
:103A60004FE7636893F82030D90705D4636893F86B
:103A700020309A077FF51FAF254821463DF05AF8C0
:103A80003DF044F993E71A4A22491B4840F2E513F6
:103A900047F055F9204B0721A8FB030301FB083130
:103AA0000DA3D3E90023FCF77BFB1C4902461C480D
:103AB00047F045F9002585F31188BFF36F8F032385
:103AC000184602DF174821463DF034F83DF01EF954
:103AD0006FF08B006CE700BF00CA9A3B000000004B
:103AE000D6BE898E55555500C93B000018130020DD
:103AF000DC85050070720500E0700500747105003A
:103B000055F4030089F40300F8750500BC84050032
:103B10002DDE0300607105008D49FD1A3486050015
:103B2000F08405002DF2030038B504463BF038FB65
:103B3000A37DA27DC3F34103013303F00303032BF1
:103B400008BF002363F3420214BF03F125002520C0
:103B5000A2753AF0A7F863680BB123694BB92EF050
:103B600093FDC11C00203DF0D3FABDE838403DF084
:103B7000A1BB3DF053FB05462EF086FDC11C002085
:103B80003DF0C6FA3DF096FB3DF048FB29462EF08D
:103B90007DFD0B4A03460721A0FB020201FB032126
:103BA00005A3D3E90023FCF7FBFA23691B1A236161
:103BB00038BD00BFAFF3008000CA9A3B0000000090
:103BC0008D49FD1A000000002DE9F04F8DB004462C
:103BD0003DF0DAF810F0FF0013D1FF238DF8290033
:103BE0008DF827008DF82A308DF828303AF0B6F895
:103BF000C34821463CF09EFF3DF088F80DB0BDE87B
:103C0000F08F3DF0E3F805463DF0E2F98DF827002E
:103C10003DF0E8F90022FF238DF829208DF82A30A5
:103C20008DF828003DF0B6F981463DF097F9EDB2E8
:103C300007463AF093F8002DDAD001202FF0B4FEB9
:103C40000546002800F046812B7F03F00F03072B69
:103C500005F11C0800F01681A37D9DF827201907A7
:103C600000F1B68095F81CA0636800225FFA89F91C
:103C70008DF82B200AF00F06002B00F0AD80636852
:103C800093F820309B0700F1A780072E00F00E81EB
:103C900094F816B01BF0080FCBF3C10300F040817D
:103CA000002E40F05A816B7F063B1F2BA0D80420CA
:103CB0002FF07AFE00289BD03DF004FBE36A064615
:103CC00043B9238D40F2712202FB03F3B0FBF3F200
:103CD00003FB120622688B4B12690721A2FB030328
:103CE00001FB023184A3D3E90023FCF759FAA0F2C7
:103CF000A2331F3B4FF0000747F1FF32B34272F18E
:103D00000002FFF475AF3DF01BF9A67D63683DF03E
:103D10006BF805F11E0301930BAB0493C6F38016F9
:103D200004F12103029603932B7FC3F38013014612
:103D3000064600933A46012320463BF065FD304697
:103D40003CF0C8FF3DF00CF8002840F0A2816E481E
:103D500021463CF0EFFE626892F8203043F0010308
:103D600082F82030A37D43F08003A3752FF036FE48
:103D7000172303714FF6FF73C38095F81CE00746C5
:103D80003346CEF3401E00F11C0206F1200C1D68E4
:103D900058689968DE68D6601033634515605060D6
:103DA000916002F11002F2D11B6813603B7FBC608E
:103DB0006EF345133B773DF031FA0B9BC7E90403E3
:103DC0002FF00CFE3946F86038682FF031FE15E709
:103DD000002A7FF447AF0BE7002E40F09D806A7FFA
:103DE000052A7FF605AF252A3FF602AFA37D03F033
:103DF0002103202B32D16368002B00F0FB80062EBC
:103E000051D84523F340D90700F1E180012E00F09D
:103E1000D980042E7FF4ECAE6B7F052B7FF6E8AEE5
:103E2000252B3FF6E5AEA37DDB077FF5E1AE3CF049
:103E3000DBFF2B7F0278C3F38013B3EBD21F7FF439
:103E4000D7AE0830062205F11E0150F07CFC002898
:103E50007FF4CEAE6B7F002B3FF4CAAE63682BB10C
:103E60002B7F03F00F03072B7FF4C2AE3A4649467F
:103E700020463BF05DFB00283FF4BAAE10307FF4E3
:103E8000B7AEBBE60DF12A0301930DF129030093B0
:103E90000DF127020AAB414620463CF05DF90028AF
:103EA0007FF4DAAEDEE6072E7FF4A2AE94F820307F
:103EB0005A073FF49DAE0DF12B020192FF220092B2
:103EC00043460022012120463BF03CFC00283FF401
:103ED0008FAEBFE70D4A0E490E4840F2C72346F0A9
:103EE0002EFF85F31188BFF36F8F0323184602DF7F
:103EF000AAE600BFAFF3008000CA9A3B00000000B2
:103F000081F203008D49FD1A3DF30300DC850500B5
:103F1000BC840500E0700500062E3FF460AF6EE73C
:103F200094F82020CAF38011C2F34012914208D0C5
:103F3000002E3FF454AF062E3FF451AF7FF661AF31
:103F400056E6062205F11E0104F10800079350F021
:103F5000FAFB079B0028EBD1A2E6012EEBD16A7F8A
:103F60000C2A7FF445AECBF3801BBBEBDA1F4FEA84
:103F7000DA1600F09D80012B07D936B195F829306B
:103F800003F0C003402B3FF492AE94F816B0CBF38D
:103F90008013B3EBDA1F4FEADA1620D0CBF3C10B54
:103FA000BBF1010F7FF624AE002E3FF421AE95F851
:103FB000293003F0C003402B7FF41AAE01238DF8A3
:103FC0002B304BE76A7F0C2A7FF412AEDDE76B7F64
:103FD000052B7FF60DAE252B3FF60AAE3EE70622F7
:103FE00005F1240104F1210050F0ADFB00283FF45D
:103FF00035AFD3E7962007933DF00AF8079B1846A4
:104000003CF0F6FE3A46494620463BF091FA064619
:1040100000287FF4EDAD3CF0E7FE0278032767F35C
:10402000030202702A7F0178C2F3801262F3C71183
:104030000C2201704270A27DC9B2C2F3801262F3F9
:104040008611024602F8021BD4F82110C0F80210B3
:10405000B4F825109180D5F81E2082606A8C828188
:104060003CF038FE3CF07CFE78BB3DF023F9A37DAC
:1040700043F00103A3752B7F180705D194F8203076
:1040800043F0080384F82030174821463CF052FDE5
:10409000B4E5164A1649174840F2AB4346F04FFEC6
:1040A00087F31188BFF36F8F0323184602DF4EE6B4
:1040B000062205F1240104F12100079350F043FB8F
:1040C000079B00283FF4F3AD55E7084A0849094823
:1040D00040F22F5346F033FE86F31188BFF36F8F03
:1040E000384602DFC1E700BF95F20300DC8505001A
:1040F000C4840500E07005002DE9F047C46882B073
:1041000006460DF10301204634F05CFB90F91630B1
:10411000002BC0F2CF8043680746002B40F0BF80E1
:1041200023797F4A6FF386132371002515803CF0B5
:1041300043FD28463CF066FD6079012100F0070050
:104140003CF052FD62799200FF2102F01C0208202F
:104150003CF090FD01202FF027FC0546002800F0E0
:104160008F8005F11C003CF0AFFD6E4B019301A860
:104170003CF068FD6C4940F25B603CF01BFE20792E
:1041800000F03F0039F08EFD214668483CF0D2FC3B
:1041900096203CF03DFF627902F0070201231046B1
:1041A00000213CF06DFED4F800903568484639F0A7
:1041B00059FD05EB0008726808F10E0100203CF083
:1041C00033FF05466079D4F808A000F0070001210C
:1041D0003CF08EFD0544607900F00700022855444C
:1041E0002DD004280CBF4FF4BC73282301211D449B
:1041F0003CF080FD28443DF023F83DF05BF83CF0B6
:10420000AFFE204634F0D4FA811D4246C9B248467A
:1042100039F036FD0546002853D17B683BB1444B4D
:10422000F760012202219E602CF016FDC8B92046DD
:1042300039F07EFC28B9002002B0BDE8F0871823D1
:10424000D4E73C4A3C493D484FF4187346F077FDAB
:10425000002383F31188BFF36F8F0323184602DF17
:10426000E9E7344A3449354840F25B2346F067FDBC
:1042700085F31188BFF36F8F0323184602DFD6E75B
:104280002C4A2F492D484FF4F57346F058FD85F31D
:104290001188BFF36F8F0323184602DF61E743687D
:1042A00093F82030DA0705D4436893F820309B0751
:1042B0007FF536AF234821463CF03CFC3CF026FD20
:1042C000B9E71C4A20491D4840F2412346F037FD1A
:1042D0001E4B0721A5FB030301FB05310EA3D3E908
:1042E0000023FBF75DFF1A4902461A4846F027FDF6
:1042F000002585F31188BFF36F8F0323184602DF73
:10430000154821463CF016FC3CF000FD6FF08B0098
:1043100092E700BFAFF3008000CA9A3B00000000A4
:10432000A0800020D6BE898E55555500210104007D
:10433000281300204886050070720500E070050013
:10434000BC84050021FB0300607105008D49FD1A46
:10435000C8860500F084050035F903000000000060
:104360002DE9F04F8BB004460D4616463CF00CFD8F
:10437000C0B258B939F0E8FC35B3974800213CF099
:10438000D9FB0BB0BDE8F04F3CF0C0BC3CF01EFDCB
:1043900007463CF01DFE82463CF024FE3CF0FAFD50
:1043A00081463CF0DBFDFFB2804639F0CDFC4FB1D9
:1043B00003202FF0F9FA074620B1037F03F00F0323
:1043C000072B23D0002DD8D194F82030D906D4D58E
:1043D0002FF004FB0546002800F06E810A232868B0
:1043E0002B71AC6029462FF023FB94F82030DA06BD
:1043F000C3D56FF30413794884F8203021463CF08C
:1044000099FB0BB0BDE8F04F3CF080BC437F002B24
:10441000D8D0C37FDA0708D55FFA8AF2FF230021DC
:1044200020463BF071F90028CCD0636800228DF85B
:10443000232007F11C0B002B00F0DA80636893F84F
:10444000201011F0020140F0D380BB7F5B0640F1E9
:10445000CF80FF23009301915B46012220463BF071
:1044600071F9002800F0C480002D00F00D820420B6
:104470002FF09AFA002880D0AA463CF023FFE36A86
:10448000814643B9238D40F2712202FB03F3B0FB56
:10449000F3F203FB1209236851481A6906F003037B
:1044A00003F12B011733C6F3400CC900DB0021FADE
:1044B0000CF123FA0CF3DFF82CC10B44ACEB030333
:1044C000A2FB00010793072303FB021140A3D3E9DA
:1044D0000023FBF765FE079B03441F3B4FF0000BD7
:1044E0004BF1FF324B4572F10002FFF46BAF94F8D1
:1044F00016903CF079FC09AA049204F1210203927F
:10450000C9F3801907F12002CDF8089001923A7F93
:10451000C2F380120146814643460092204632464D
:104520003BF072F948463CF0D5FB3CF019FC002802
:1045300040F0C7813CF0BEFE96203CF069FD30465D
:104540003CF056FC284851463CF0F4FA626892F878
:10455000203043F0010382F82030A37D43F0800334
:10456000A3752FF03BFA172202714FF6FF72C2803B
:1045700006464B4600F11C0209F1200E1F685868E0
:104580009968D3F80CC0C2F80CC01033734517609B
:104590005060916002F11002F0D11B681360337F0C
:1045A000B46043F0200333773CF038FE099BC6E942
:1045B00004032FF013FAF060CAF80C60002D78D1D4
:1045C0000A4A13880133138073E000BFAFF3008001
:1045D00000CA9A3B0000000035F90300D5F603003D
:1045E0008D49FD1A28FDFFFFD1FA0300A0800020AD
:1045F00063685FFA89F9002B6DD06368002B7FF444
:10460000E1AE002D77D02B791B0613D4A3691BB123
:1046100093F90430002B0DDB0DF1230300220193ED
:10462000FF23009311465B4620463BF08BF80028A1
:104630003FF4C8AEBD602B797A7EC3F3801363F379
:1046400082027A762B7943F080032B712FF0C6F922
:104650003CF0E4FD38613CF035FE41468246304690
:104660003CF048FB7B7EAAEB000068F30003786116
:104670007B76B9F1000F67D17F207B7E38766FF3B0
:1046800041037B764246A54B0094314658463BF0A9
:1046900097FC7B7E092260F304137B7638683A71BD
:1046A00039462FF0C5F97B7ED80640F1FA80002DFF
:1046B0004ED00BB0BDE8F08F994A9A499A484FF412
:1046C000587346F03CFB85F31188BFF36F8F0323CB
:1046D000184602DF82E6A37D98068ED5002D00F0F5
:1046E000BC802B7959063AD4BA7F7F2A43D86268B6
:1046F000002A89D041E6A369002B00F0B68093F927
:104700000430002B11DB0DF1230300220193FF2362
:10471000009311465B4620463BF014F800283FF416
:1047200053AEA369002B3FF44FAEBC60A3697A7E01
:104730001B79C3F3801363F382027A76A26913793B
:1047400043F08003137181E73CF014FCC0B294E79E
:1047500094F8203043F0100384F82030A9E7A269D0
:10476000002A00F0A68013795A063FF546AFBB7FBA
:104770007F2B7FF642AF0DF1230300220193FF232D
:10478000009311465B4620463AF0DCFF00283FF4D8
:1047900034AF04202FF008F900283FF413AE962020
:1047A0003CF036FC30463CF023FB3CF01DFB02782D
:1047B0004FF0030A6AF3030202703A7F0178C2F3F2
:1047C000801262F3C7110C2201704270A27DC9B23F
:1047D000C2F3801262F38611024602F8021BD4F87B
:1047E0002110C0F80210B4F8251091803A6A826056
:1047F000BA8C82813CF06EFA3CF0B2FA00287ED18D
:104800003CF058FD2FF0EAF809233B71002D6BD0E6
:104810004648BD6029463CF08DF92B7943F04003B2
:104820002B713CF0FBFC38613CF04CFD41460446EA
:1048300030463CF05FFA241A7C61B9F1000F4FD189
:104840007F227B7E38683A7623F0160343F002031A
:104850007B7639462FF0ECF82BE7A269002A82D14B
:104860006368002B3FF44FAFAEE50DF123030193D6
:10487000FF2300932A465B46294620463AF062FF12
:1048800000287FF44EAF9FE5D4F818A0BAF1000FCE
:104890003FF49AAD04202FF087F800287FF4EDADA7
:1048A00092E5234A138801331380002D7FF465AD10
:1048B0009BE56268002A7FF460AD1B067FF5ACAE15
:1048C000B8E6174A1B4918484FF47C7346F037FA8C
:1048D0008BF31188BFF36F8F0323184602DF29E69D
:1048E0003CF048FBC2B2ACE71348BC6039463CF030
:1048F00021F9A269137943F04003137191E7084A43
:104900000C49094840F2864346F019FA002383F324
:104910001188BFF36F8F504602DF71E74DFC030033
:104920004886050028860500E070050081FA03002E
:10493000A0800020C484050031FA030000000000BC
:104940002DE9F041C468A2894FF6FF739A4282B004
:1049500000F0AF8005463BF05DFC2B89628AE08A5F
:104960001A4492B21044637FA28280B2411CE18259
:104970005E064FF00001618204F1180175D403F066
:104980003F000B46A17F009004F11F0038F01CFB94
:104990000646D4E90B231344D4E90D020021024456
:1049A000E1626163A16AA26394F852208B4228BF3E
:1049B0000B4612F0040223635FD03CF0FDF80020A8
:1049C0003CF020F9201D3CF03DF92389A17A40F20A
:1049D0005B6043EA01413CF0EDF9304639F062F9A1
:1049E00021464D483CF0A6F896203CF011FB0023F0
:1049F0001A46194618463CF043FA20463BF066FC3E
:104A000027682E68384639F02DF906446A6806F1A1
:104A10000E0100203CF008FB80463CF01FFC00200B
:104A20003CF036FC226BA36B0021084603EB4205E9
:104A30003CF05EF9863500214544054408463CF0CB
:104A400059F928443CF0FCFBA18907313246C9B230
:104A5000384639F015F9054690BB204639F068F81C
:104A6000C0B9002002B0BDE8F0810A4603F03F0360
:104A7000E18B38F0F5FA06468BE7D4E90F012CF00C
:104A80007FF8002899D194F8523043F0040384F859
:104A9000523092E7214A2249224840F2551346F00B
:104AA0004EF985F31188BFF36F8F0323184602DF99
:104AB000D7E71D4821463CF03DF83CF027F9D0E708
:104AC000164A1A49174840F24B1346F038F9184B6A
:104AD0000721A5FB030301FB05310DA3D3E9002347
:104AE000FBF75EFB13490246134846F028F9002500
:104AF00085F31188BFF36F8F0323184602DF0F4839
:104B000021463CF017F83CF001F96FF08B00A9E763
:104B100000CA9A3B00000000850404004C87050091
:104B200070720500E07005002DDE03006071050065
:104B30008D49FD1AA0870500F0840500EDDD030016
:104B4000F0B5C468A2894FF6FF739A4285B000F0B1
:104B5000898005463BF05EFB2B89628AE08A1A4415
:104B600092B21044637FA28280B2411CE1825E0651
:104B70004FF00001618204F118015CD403F03F00A2
:104B80000B46A17F009004F11F0038F01DFA064685
:104B9000204603A93BF018FC039B94F852101A78A6
:104BA00061F3C3021A70039A94F852301178C3F378
:104BB000400363F3820111703BF0FEFF00203CF0E4
:104BC00021F8201D3CF03EF82389A17A40F25B6079
:104BD00043EA01413CF0EEF8304639F063F80399BE
:104BE00020463BF0E1FB214637483BF0A3FF9620EF
:104BF0003CF00EFA00203CF0FBF827682E6838469F
:104C000039F030F806446A6806F10E0101203CF0E4
:104C10000BFA3CF04FFBA18907313246C9B2384646
:104C200039F02EF8054620BB204638F081FF50B9F8
:104C3000002005B0F0BD0A4603F03F03E18B38F0D9
:104C40000FFA0646A4E7214A2149224840F20313FD
:104C500046F075F885F31188BFF36F8F032318466C
:104C600002DFE5E71C4821463BF064FF3CF04EF8CC
:104C7000DEE7164A19491748F92346F060F8184B41
:104C80000721A5FB030301FB05310DA3D3E9002395
:104C9000FBF786FA13490246134846F050F8002500
:104CA00085F31188BFF36F8F0323184602DF0F4887
:104CB00021463BF03FFF3CF029F86FF08B00B8E74E
:104CC00000CA9A3B0000000025030400AC870500E1
:104CD00070720500E07005002DDE030060710500B4
:104CE0008D49FD1AFC870500F0840500EDDD030009
:104CF00010B510460C4649F05BFDA18802460248FB
:104D000046F007F8002010BD7C8B050070B5104EF2
:104D100088B003AB4FF4E02204460D4605A848F2E4
:104D20000421CDE9062305934CF0F9FE317805A85E
:104D300049F087FD3178074845F0EBFF00230093E9
:104D400005AA2946204618F041F808B070BD00BFFA
:104D5000A6800020A18B0500014842F039BC00BFAD
:104D60004C43002010B5124B59681A69096849066E
:104D70000ED41049104A11484FF4CB6345F0DFFFC1
:104D80000F4845F0DCFF0C484FF4CB6145F0CEFFF7
:104D90001268520603D520B19B681B6903E0002806
:104DA000FAD09B68DB680248BDE8104040211847F4
:104DB000244A0500E68B0500B58B0500248C050010
:104DC000418C050010B5104649F0F2FC084B1A78EA
:104DD0008242044609D0021E18BF01221A70FFF752
:104DE000C1FF0448214645F094FF002010BD00BFDC
:104DF000A6800020538C0500012973B50546144692
:104E000007D8174947F04AF96FF01504204602B059
:104E100070BD60680A2201A945F0C4FA019B1B78A5
:104E200006460BB9012805D962680E49284647F0A5
:104E300035F9E9E7FFF796FF044630B103460A4922
:104E40003246284647F02AF9E0E7084B084A094964
:104E5000002E18BF1A46284647F020F9D6E700BFB3
:104E6000748C0500878C0500B18C0500F08D050061
:104E7000708C0500D68C050010B51C4B1C788CB0CE
:104E800084F001041422002107A81C704FF03BFDA0
:104E90004FF6FF734FF40022ADF820308DF82C3020
:104EA00048F2022102AB04A8CDE9052304934CF09B
:104EB00036FE214604A849F0C4FC0D4B197804A81D
:104EC0004A1C1A7049F0BDFC0A48214645F021FFF2
:104ED000002307A90848009304AA17F077FF0146AA
:104EE00010B1064845F015FF0CB010BDA58000209C
:104EF000A4800020E68C050058080020F88C0500EE
:104F000073B5014628B1374802B0BDE8704045F09E
:104F100000BF354845F0FDFE3449354813F032F9FD
:104F2000014608B13348EFE746F076FE324845F0D7
:104F3000F0FE05F0D5FB054600284DD000214FF4CA
:104F4000403043F00BFF2D49284606F0A9FC41F6FE
:104F50009A10002143F002FF294B186843681B6830
:104F60005B060ED42749284A284840F2FF5345F0F3
:104F7000E6FE274845F0E3FE234840F2FF5145F0A6
:104F8000D5FE0669836801A95B689847044620B985
:104F90003368019C5C40C4F380141E48214645F0F0
:104FA000B8FE012C03D11C49284606F079FC0021EB
:104FB00041F69A1043F0D2FE1849284606F070FCDC
:104FC000002141F69A1043F0C9FE1549284602B067
:104FD000BDE8704006F064BC124802B0BDE8704005
:104FE00045F097BE1D8D05003D8D05009C520500C6
:104FF000EC100020548D05006F8D0500968D050086
:10500000B8430020E68B0500B58B0500248C050015
:10501000418C0500A08D0500B58D0500C68D0500ED
:10502000DE8D0500F38D050038B5534845F071FE5F
:10503000524C20464FF009F950B9514845F069FEED
:105040006FF012044F48214645F063FE002038BD42
:105050006368A1681B6822695D060ED44A494B4A01
:105060004B4840F2ED3345F06AFE4A4845F067FE92
:1050700040F2ED31454845F059FE136843F04003D6
:1050800013600B68444A204606219847044620B125
:105090000146424845F03DFED4E7414D4148286075
:1050A0004FF0D3F808B94048C8E7286843688168DA
:1050B0001B6802695C06D1D5136843F04003136096
:1050C0000B683A4A06219847044610B10146384811
:1050D000E0E72868816842688C69036904B3126854
:1050E00052060CD42849294A294840F28B3345F00E
:1050F00026FE284845F023FE40F28B31BAE71B68B4
:1051000013F0400F14BF4FF000734FF080634FF067
:10511000A0720621A047044628B126482146B9E7D7
:105120006FF05704F9E7244B244A5A60286840225C
:105130009A608368DB6913B11F49012298472049AF
:10514000204842F013F920480BF01CF9014608B141
:105150001E4879E705F0C4FA50B106F0ADF80146F3
:1051600010B11B4845F0D5FD1A4845F0D2FD6DE75A
:10517000194845F0CEFDF7E7128E0500244A0500D8
:10518000238E0500D18E0500E68B0500B58B05004A
:10519000248C0500418C050001000A00398E0500B1
:1051A000B8430020104A0500608E05001100010080
:1051B000798E0500A28E050040430020594D000065
:1051C000794E00004C430020014F00001D8D05006A
:1051D000ED8E0500298F05000C8F050010B5094CD8
:1051E0000A44914200D110BD11F8013B5840030917
:1051F0000001E35CC0B2434018091B01205CDBB234
:105200005840EEE75A8F050070B50C46002934D09F
:1052100002680B1F9B1AD90823F0070313445D880B
:10522000E8070DD4154A16491648AF2345F087FD07
:105230002146154845F083FDAF21104845F076FD25
:10524000104645F0F5FB084432F83060801B81427F
:105250000BD00A4A0D490B48B72345F070FD214693
:105260000B4845F06CFDB721E7E725F001055D80AF
:10527000BDE87040104645F098BC70BD6A8F0500CF
:105280008D8F0500248C05009E8F0500D68F0500AC
:10529000FC8F05002DE9F8434B1E0B4006680F46B6
:1052A000144611D0C1F1000909EA01094A46042A4D
:1052B00003F1FF3128BF042219420CD11F46E4B983
:1052C00000252846BDE8F883042913D8BDE8F84333
:1052D000114645F09BBC2D492D4A2E484FF4A27330
:1052E00045F02DFD2C4845F02AFD29484FF4A271C8
:1052F00045F01CFD99460422E1E7B368B3EBD40FF7
:10530000DED904F10B013944891AC908304645F049
:10531000E5FB80460028D3D009F1040505EBC00564
:105320007B1E35441D44B5FBF7F57D43A5EB090510
:105330002C442B1F07349B1B24F00704A41BB0EB49
:10534000D30F4FEAD3074FEAE40408D201463A46A6
:10535000304645F010FC4146304645F06EFB39467C
:10536000304645F065FB3844844207D23046224639
:1053700045F001FC2146304645F05FFB06EBC706D1
:10538000738843F0010373809BE700BF38900500EA
:105390006A8F0500248C050053900500B2F5802F1C
:1053A0002DE9F0410ED33C493C4A3D4840F2EB1315
:1053B00045F0C5FC3B4845F0C2FC40F2EB113748D4
:1053C00045F0B4FC042A0CD83749344A34484FF429
:1053D000F97345F0B4FC354845F0B1FC4FF4F97170
:1053E000EDE7043ACD1D8E1825F0070526F00706D7
:1053F000761B172E4FEAD6070CD82D49274A284886
:1054000040F2FB1345F09BFC284845F098FC40F225
:10541000FB11D4E7B7FA87F4C4F12002C4F12404E5
:10542000A4000734E408631C4FF00008BB42056089
:10543000AF60C5F80C800CD91E49184A18484FF4C3
:10544000037345F07CFC194845F079FC4FF4037177
:10545000B5E74146920005F110004FF054FA6300A1
:1054600043F001036B8005EBC4023B1B5900A5F818
:1054700000805180AA1925F83440A2F80280AB536D
:1054800005EBC70321465A8842F001025A8028469C
:10549000BDE8F04145F0D1BA709005006A8F050073
:1054A000248C0500869005009D900500BE900500A7
:1054B000D7900500009105002DE9F04F91B08407C9
:1054C000009302F004030293C2F3C20303F1010349
:1054D000DDF86880039205460E46059340F0F5819D
:1054E000041D30B1072909D86FF01B0011B0BDE8C9
:1054F000F08F01F00706341DC6F10806009B4FF03F
:105500000009013B4FF0040B0193CDF810904F467A
:105510004B464FF0FF32DA460DB1009921600598F5
:10552000002800F3D78098480099814203D3974818
:105530008142C0F0CF800399A4EB050E89074FEAA2
:105540009E0040F1E2804FF0000CCCE07A285AD85F
:105550004B280CD8472856D829282AD8252851D096
:1055600051D8202877D023384342434173E04C3848
:105570002E2848D8DFE800F06F474747474747479E
:105580004747474749474747474747474759474995
:10559000495959596F496C476F471849184747800F
:1055A0007D49474749477D00002000234FF0040B09
:1055B00039E02A38C0B2012101FA00F010EA0E0FDA
:1055C00049D110F0625C30D110EA010343D060464B
:1055D000013C5C44B4FBFBF40BFB04F4002D60D0F5
:1055E000AAEB050CA444B4453FF67EAF00286AD16F
:1055F000BAF1040F45D158F8040B206004344FF081
:10560000040A28E0013A002325E0019B13F8013C3D
:105610006C2B33D1019B13F8023C00206C2B03460A
:10562000C4D14FF0080BDA46D2E708F1070828F09A
:1056300007080734F8E802AB24F0070435B10698F0
:105640002044B0423FF650AFC4E900AB0834002319
:105650004FF0080BDA46019911F8010F019100286B
:1056600000F0BB80002B7FF471AF2528F3D101320D
:1056700001234FF0040BEDE7184696E700200346A0
:10568000A6E7BAF1080F40F09A8008F1070828F061
:105690000708F8E80201C4E9000108344FF0080ADD
:1056A000D9E780B9BAF1040F02D108F10408A5E7DF
:1056B000BAF1080F40F0838008F1070828F00708C6
:1056C00008F10808E9E705990139059158F8041B24
:1056D000009121E7039988074AD5A4EB050E4FEA0C
:1056E0009E004FF0010CBEF5007F1ED32849294AC9
:1056F00029484FF41F7345F022FB284845F01FFB53
:105700004FF41F71234845F011FB0F2F0FD8002DC8
:1057100048D007F140010DEB010C0CF8200C0CF8FF
:10572000102C04980130049021E00F2F0CD9184957
:10573000184A194840F2812345F001FB184845F00A
:10574000FEFA40F28121DDE7CDB107F140010DEB1A
:10575000010EC0B20EF8200C0EF8102CBCF1000F98
:10576000DFD060F07F000EF8200C09F1010901374D
:10577000C5F10801043406914FF6DA7E6BE7BCF1FF
:10578000000F0FD00136F2E73C4905001C6F060000
:1057900059F805002B910500248C0500599105004E
:1057A0007A910500029802360028E0D10098CDE9F0
:1057B0000632FAF784FEDDE906320644D7E7444AAA
:1057C0004449454840F2C62345F0B9FA514643489A
:1057D00045F0B5FA40F2C62194E7631BB3F5806F3C
:1057E0000CD33C493A4A3C4840F2D22345F0A7FA50
:1057F0003B4845F0A4FA40F2D22183E71DB9A6F157
:105800000804E01872E6029A28609B082B709DF845
:105810001030C2B1EB7085F80290B9F1000F05D0DD
:1058200008A80022C5F1010C97420ED1C5F1010371
:105830000DF120084FF0000A01930DF1300B574590
:1058400012D1601B52E66B70E5E710F8013B1906B8
:1058500008D504EB0C0EB64503F07F033FF644AECB
:1058600004F8013B0132DFE7B9F1000F03D098F9EA
:105870000020002A17DB029BD3B11AF80B2004F892
:10588000012B0022019B98182044B0423FF62CAE19
:1058900098F8000004F8010B0099039220464FF09D
:1058A0000AF8039A14440AF1010A08F10108C6E74C
:1058B00098F8002055F822300093029B45F82230DA
:1058C0000098FAF7FCFD421CDCE76FF00D000DE6D6
:1058D0002B91050059F80500248C050094910500D2
:1058E000A99105002DE9F04F97B000AF8946D7F890
:1058F00080B0FA623B62044658B9AA49AA4AAB484A
:105900004FF4667345F01BFA4FF46671A64845F0F4
:105910000DFACBF3C00390F802A07B6141B9457842
:1059200000780AEB800020444D4517D8A0EB04090D
:10593000E378FB61BAF1000F02D01BF0010F16D122
:10594000FB6953BBFB6A1BB13A6A4946204698473C
:105950004D4628465C37BD46BDE8F08F461C3046B4
:10596000FAF7ADFD0130304409F10109DCE7237895
:1059700062687A62FA6A9900B96104EB8301002ACD
:1059800040F005814D460E4601EB0A094FF0000834
:105990004E4550D101EB0A0610E01BF0020FD1D0AA
:1059A00023789A00BA6162687A62FA6A04EB83012A
:1059B000002A7BD14D4601EB0A0690461BF0050FED
:1059C0000CBF02230123FB62FB6906EB430A0BF0C9
:1059D0000203BB625645BCD016F8021B16F8013C08
:1059E00054F82390724B994502D3724B99453AD3A0
:1059F0007B69002B44D0786A45F062F900283FD0DB
:105A00006D48036813F0060F13D0E9468AB06A4662
:105A10006A4B53617B6AC2E906314FF40073138409
:105A2000674B42F8103F00234FF4125102F09CF8EC
:105A3000CD46023DCEE716F8013BF96254F823004B
:105A4000FAF73DFDD7F88430F96A01304BB1D7F849
:105A5000883098453EBFD7F8843023F8180008F105
:105A60000108054494E77B6923B1786A45F028F979
:105A70000028C5D11BF0010F05D1FB6AED1AA9E77B
:105A8000BB6A002BA6D04846FAF719FDD7F8843038
:105A900053B1D7F8883098453FBFD7F88420431CCE
:105AA00022F8183008F10108054493E7BAF1000F15
:105AB00073D01BF0040673D0D046002607F14800CF
:105AC00052463B61B9624EF0F6FEB96A3B6901EBA2
:105AD0000A02BA62FA69F9695200FA60BA6A02EB1C
