:1000000080B6002085BC0000E197040071BC0000B0
:1000100071BC000071BC000071BC00000000000059
:10002000000000000000000000000000A5BD00006E
:1000300071BC00000000000071BD000071BC000038
:10004000A9BF000079850300A9BF0000A9BF000077
:10005000A9BF0000A9BF0000A9BF0000A9BF000000
:10006000A9BF0000A9BF0000A9BF0000A9BF0000F0
:10007000A9BF0000A9BF0000A9BF0000A9BF0000E0
:10008000A9BF0000A9BF0000A9BF0000A9BF0000D0
:10009000A9BF0000A9BF0000A9BF0000A9BF0000C0
:1000A000A9BF0000A9BF0000A9BF0000A9BF0000B0
:1000B000A9BF0000A9BF0000A9BF0000A9BF0000A0
:1000C000A9BF0000A9BF0000A9BF0000A9BF000090
:1000D000A9BF0000A9BF0000A9BF0000A9BF000080
:1000E000A9BF0000A9BF0000A9BF0000A9BF000070
:1000F000A9BF0000A9BF0000A9BF0000A9BF000060
:100100007BB972B90029BEBF00204FF0004106E064
:1001100008BF00281CBF6FF000414FF0FF3000F017
:1001200057B8ADF1080C6DE904CE002909DB002BAE
:100130001ADB00F062F8DDF804E0DDE9022304B028
:100140007047404261EB4101002B1BDB00F055F88A
:10015000DDF804E0DDE9022304B0404261EB410137
:10016000524263EB43037047524263EB430300F098
:1001700044F8DDF804E0DDE9022304B0404261EB1D
:1001800041017047524263EB430300F036F8DDF85B
:1001900004E0DDE9022304B0524263EB43037047FD
:1001A00053B94AB9002908BF00281CBF4FF0FF31DE
:1001B0004FF0FF3000F00CB8ADF1080C6DE904CE43
:1001C00000F01BF8DDF804E0DDE9022304B070471D
:1001D000704700BF430803F05533C01A00F03333B3
:1001E000800800F03330184400EB10104FF001335A
:1001F00000F00F305843000E70472DE9F047864657
:100200008C460846089E154674461946002B40F059
:10021000C2808542B2FA82F245D94AB1C2F12003C6
:1002200000FA02FC2EFA03F3954043EA0C0C9440CA
:100230004FEA154EA8B2BCFBFEF8230C0EFB18CCFF
:1002400008FB00F943EA0C43994528D9EB1808F15B
:10025000FF3704D2994502D9A8F102072B44A3EB3A
:100260000903A4B2B3FBFEFC0EFB1C330CFB00F035
:1002700044EA0344A04214D92C190CF1FF3304D2F0
:10028000A04202D9ACF102032C44241A43EA0740ED
:100290001EB1D440002334607360BDE8F087474648
:1002A000DDE76346F1E792BB431B01214FEA154EA0
:1002B000AFB2B3FBFEFC200C0EFB1C330CFB07F8AB
:1002C00040EA0343984562D9EB180CF1FF3004D2A1
:1002D000984502D9ACF102002B44A3EB0803A4B269
:1002E000B3FBFEFC0EFB1C330CFB07F744EA034494
:1002F000A7424ED92C190CF1FF3304D2A74202D9E0
:10030000ACF102032C44E41B43EA0040C0E7C2F115
:10031000200320FA03F1954090402EFA03F30343A3
:100320004FEA154EAFB2B1FBFEFC0EFB1C10190CD0
:100330000CFB07F841EA0041884504FA02F422D98F
:1003400069180CF1FF3004D2884502D9ACF10200E3
:100350002944A1EB08019BB2B1FBFEFC0EFB1C1172
:100360000CFB07F743EA01439F420ED9EB180CF14F
:10037000FF3104D29F4202D9ACF102012B44DB1BB6
:1003800041EA004192E76046E3E76146F7E76046ED
:10039000A3E76346B7E7834206D916B900210846AA
:1003A0007BE7C6E900E0F9E7B3FA83F78FB9834248
:1003B00001D3724508D8BEEB020460EB03030120B1
:1003C0009C461EB9002168E73846FAE7C6E9004CAA
:1003D000F8E7C7F1200CBB4022FA0CF41C432EFABC
:1003E0000CF120FA0CF3B84001434FEA14490EFA1D
:1003F00007F5B3FBF9F81FFA84FE09FB18300B0C64
:1004000008FB0EFA43EA00439A4502FA07F240D984
:10041000E31808F1FF3004D29A4502D9A8F102008E
:100420002344A3EB0A0389B2B3FBF9F809FB1833A1
:1004300008FB0EFE41EA03418E452CD9611808F1F4
:10044000FF3304D28E4502D9A8F10203214443EAC6
:100450000040A0FB0298A1EB0E014145CE46434669
:1004600002D306D14D4504D2B9EB020E68EB04036A
:100470000138002EA6D0B5EB0E0261EB030101FAA4
:100480000CFC22FA07F34CEA0303F940C6E90031F9
:1004900098E74046C5E74346D9E710F8012B11F825
:1004A000013B012A28BF9A42F7D0D01A7047034671
:1004B00011F8012B03F8012B002AF9D170470346EC
:1004C00013F8012B002AFBD1181A013870470000DD
:1004D0002DE9F047064688B00F4690464EF07FFD66
:1004E0004FF47A73A0FB034503FB0155E40B012F86
:1004F00044EA45444FEAD53507D1294922462B46DF
:10050000304646F090FF002012E0D8F804702548ED
:100510003946FFF7C2FF70B123483946FFF7BDFFE8
:1005200048B1304621493A4646F099FF6FF0040041
:1005300008B0BDE8F0872046294617A3D3E9002379
:10054000FFF7DEFD05460C4610461946184A002303
:10055000FFF7D6FD80460F46104619464EF660223C
:100560000023FFF7CDFD82468946104619464FF419
:100570007A720023FFF7C4FDCDE902A9CDE9062375
:10058000CDE90401CDE900870A492A4623463046D1
:1005900046F049FFB7E700BF005C260500000000F9
:1005A0008B4905009C4905009F490500A8490500A5
:1005B00080EE3600C04905002DE9F843D0E9063841
:1005C000456903EB08042F34A5420F46164619D897
:1005D000DFF86C80A3FB080117A3D3E90023FFF722
:1005E000DFFD0346601BA0FB080123F07F4412A33C
:1005F000D3E90023FFF7D4FD20F07F403C6030605A
:10060000BDE8F883DFF838900BA3D3E90023A5FBFE
:100610000901FFF7C5FD20F07F440A480A2106A31F
:10062000D3E90023E8FB0901FFF7BAFD20F07F4082
:100630003C603060BDE8F8838D49FD1A070000007A
:1006400000CA9A3B00166BF12DE9F04F8DB09A4627
:10065000179C9DF85890636C05460E46904653B122
:10066000B4F87E301BB1B4F87C209A4278D2D4F82A
:100670008020002A77D14FF6FF739A4520D0277843
:100680000137FFB22770002F78D06F496F4BC1F848
:10069000048004F11C000022C86081F80A900D60FB
:1006A000A1F808A09960012011462CF073F90028E8
:1006B00073D1636CC4F8885013B1204633F06CF8E2
:1006C00094F8245015F001054AD1614A614B117824
:1006D0001B788B4277D04FF6FF739A45D4F8808011
:1006E000B4F87C9015BF0AF101074FF0000ABFB2C1
:1006F0005746B8F1000F30D0B9F1000F2DD0226F5E
:100700000AF1010A40F271211FFA8AF301FB02FA91
:10071000514A4FF0070BA6FB02010AFB03F30993B2
:100720000BFB061146A3D3E90023FFF739FD099B14
:10073000494A1E18A5FB02010BFB051140A3D3E992
:100740000023FFF72DFD50443044804586BFA8EBC1
:100750000606C4F88060C4F880A04F44A4F87C70FA
:100760000DB0BDE8F08F216F40F27123A1FB0313A0
:10077000914273F10003FFF47EAFF1E7374A384945
:10078000384840F6491345F09FFC87F31188BFF3C2
:100790006F8F0323184602DF77E7304A324931482A
:1007A00040F66B1345F090FC002383F31188BFF3F0
:1007B0006F8F0323184602DF636CC4F88850002B48
:1007C0007FF47BAF7CE7013304210BA8137038F072
:1007D00027FA0B9B25490694A1FB0321244A009587
:1007E000581A01EB5001A21A22489208A0FB0202FB
:1007F000090A40F24710D20800FB113302321E49A9
:1008000005910133CDE90355CDE90155D2B201215E
:1008100028460B932DF0D2FB10F0FD0F0DD00F4AA0
:100820001649104840F2BA7345F04EFC85F3118822
:10083000BFF36F8F0323184602DF0B9D4BE700BF0A
:1008400000CA9A3B00000000885F00209010002042
:10085000407900203F7900208D49FD1A681E05006F
:10086000881F05009C1905002C1B050021F1D49060
:10087000B45F00203BA8833A011A03008C1F0500D7
:10088000002900F0B6802DE9F04F8FB0002840F02D
:10089000A780BB4C1D4694F88430DF07164600F154
:1008A0007D8194F8352094F8293004EB820204EB22
:1008B0008303976BD3F82C90002F79D039464846A4
:1008C00031F062FA002840F0918099F8003013F07E
:1008D0000E0F40F09080236A002B40F086802EF0AF
:1008E00099FC8246002800F0C1812EF09FFC8346CF
:1008F000002800F0B88133F037FF8046002800F070
:10090000AF81806E4FF6FF73A8F8283008F11C0302
:10091000002800F0CE8108F15C0208F158010B9329
:100920002BF0B4FF98F8392002F03F0262F07F020A
:1009300088F8392098F86E2022F0070288F86E2097
:1009400098F83C2022F00702062188F83C2000227B
:10095000C8E91222C8F86820A8F86C20A8F832204C
:10096000C8F82E2088F83B20C8F85020A8F8262187
:10097000A8F82211404634F033FE002288F8F02017
:10098000C8F8F4A008F1700034F050FC00220B9B72
:100990002362C4E91AABC8E9052288F80020C8F828
:1009A0001C8038F07DFC58B331F042FA03201DE082
:1009B00099F8003003F00F03072B16D004F1340030
:1009C00038F004FEC0B2002840F0508194F8353071
:1009D00004EB83039F6B04233B7006237B706DE75E
:1009E0002FF098FE002800F0C2800C200FB0BDE868
:1009F000F08F31F061BA03F00F03072B00F0648130
:100A00002FF088FE002840F03381206400252E4618
:100A100094F8242094F82530A4F87E50C2F34202C2
:100A2000012100250DF13300C4F880608DF83320DA
:100A3000C3F38206A4F87C502CF0C4F802460028C8
:100A400000F0078133463946484631F0FBFA4D49FC
:100A50004D4B2570A0FB0101C0184FF0310341F14F
:100A60000701A360C4E9055543A3D3E900236560EA
:100A7000E560FFF795FBB4F8706020612DF0E4FBB2
:100A800000F10E07002E00F00A8194F8243065F37F
:100A9000000384F82430DB07256900F11B81D4F8BA
:100AA0004480B8F1000F00F0A780D8F80080AB1C9C
:100AB0003B440DA940460D9300F0CEF9236F94F806
:100AC0007B2040F271218146A3FB0131002A40F0D6
:100AD000378142F6DC32981841F1000140F2E242DF
:100AE0000023FFF75DFB80B2A8F83C004A460D9951
:100AF000404600F0F9F98146002840F0AA800DAB8D
:100B000008930290214B2248049505F2471506945C
:100B100091211D600993A6FB000301FB06311D4BCB
:100B200007931D4B05934FF6FF730225039312A302
:100B3000D3E900230D95FFF733FB032101903B46DA
:100B40002A46CDF8009048462DF0D8F90DA92EF090
:100B500025FC00287DD198F84E3043F0010388F839
:100B60004E3094F8843043F0010384F88430002040
:100B70000FB0BDE8F08F00BF8D49FD1A07000000DF
:100B8000B45F002000CA9A3B8C49FD1AA85F002080
:100B9000002AE784E9E30200490600002FF0BAFDCD
:100BA0000028E4D094F88430D8077FF51EAF94F87D
:100BB000352094F8293004EB820204EB8303916B17
:100BC000D86A31F0E1F800287FF410AF236C002BD5
:100BD0003FF40BAF1A7902F0FF014AB942F21072EA
:100BE00006FB02F2A4F87C10A4F87E50C4F8802022
:100BF0001B79002BBBD0F8E65F4B6048049505F2EB
:100C000047150694CDF8088091211D600993A6FB35
:100C1000000301FB06315A4B07935A4B05934FF6DD
:100C2000FF7302260DAD039351A3D3E900230D9664
:100C30000895FFF7B5FA032101903B463246CDF8FF
:100C4000008040462DF05AF929462EF0A7FB0028D7
:100C500087D0236A002B3FF4C8AE31F0E9F8C4E630
:100C600058462EF0E9FA50462EF0DAFA0720BDE693
:100C70002EF0D0FA804608B32EF0D8FA00286CD0B7
:100C80000023C0F80080037194F824302064DA0750
:100C90003FF5BCAE42F2107303FB06F6B8E699F8D6
:100CA000005005F00F05A5F10105B5FA85F56D09B0
:100CB000EBE608F16000C8F868002CE6236A002B18
:100CC000D4D031F0B5F8D1E799F8023059067FF564
:100CD00097AE00E6284B099300200DAA1860022663
:100CE000049501950892264D264A05920321CDE9E7
:100CF000020006943B460090079532460D962DF073
:100D0000FDF80DA92EF04AFB0028A2D10DAA1E491C
:100D100008924AF2D83200920591CDE903000321EE
:100D2000CDE9010007953B46069401220D962DF072
:100D3000C9F80DA92EF032FB00283FF412AF88E766
:100D400002FB01110132A2FB0303194440F2E2420B
:100D50000023FFF725FA80B2C6E6236A0BB131F013
:100D600067F840462EF05CFA80E700BFAFF30080E2
:100D70008D49FD1A07000000A85F0020002AE784C3
:100D8000E9E30200490600006518030000000000C6
:100D9000F0B590F8243090F825708BB0C3F342037F
:100DA0000D46044601210DF1230016468DF823302F
:100DB0002BF008FFC7F3820702463B463146284620
:100DC00031F040F91E491F4AA0FB0131981841F14A
:100DD000070119A3D3E90023FFF7E2F92369984239
:100DE000054622D21B1A00220192174A02930221C1
:100DF000164B0991A21ACA40A3FB0232D208002363
:100E00000A4409AE12490591CDE903330321D2B258
:100E10000696009318462DF0D1F831462EF0BEFA12
:100E200038B9256100200BB0F0BDFBD9C21A0023F0
:100E3000DAE70C200BB0F0BD8D49FD1A0700000069
:100E400000CA9A3B8C49FD1AB45F00203BA8833A44
:100E5000E9E30200000000002DE9F04182B0044601
:100E60001F4E204F884631F0CBFE072500236360DC
:100E7000E36029463346E0FB07313122A260184681
:100E800015A3D3E90023FFF78BF994F8313020F054
:100E90007F4004EB83032061596B5F231A46204691
:100EA00031F06EFE2946E0FB07610BA3D3E9002376
:100EB0003046FFF775F901A920F07F4037F0A2F81E
:100EC00018B9019B0233C8F80030002002B0BDE819
:100ED000F08100BFAFF300808D49FD1A07000000CC
:100EE0008C49FD1A00CA9A3B2DE9F04700268CB0C8
:100EF0008846C0E905662049067017465022044618
:100F00002BF0A4FC0546A08F1C4940F2E24202FBF4
:100F100000F002230B93A0FB010115A3D3E90023EA
:100F2000FFF73EF90DF12C0ACDF820A006941946E2
:100F300023691F44124B0793124B059381460023EC
:100F400010464FF47A72CDE90367FFF729F90335AC
:100F5000EDB2CDE9019043462A4600963046032182
:100F60002CF0B0FF51462EF019FA0CB0BDE8F08716
:100F70008D49FD1A070000008460002000CA9A3BDA
:100F8000E9E302003D2C03002DE9F04FA3B00D462C
:100F90001E4640F201232C991092AB432D9A0D91DD
:100FA00004460E9200F0918194F8293004EB8303FB
:100FB00005F4007BD3F82CA09AF8007007F00F0717
:100FC000072F10D0BBF1000F04D10C27384623B0F7
:100FD000BDE8F08FD6F801203178204623B0BDE877
:100FE000F04F31F0D7BC9AF802200AF1040112F058
:100FF0003F0318BF9AF803300B91BBF1000F02D0EA
:101000007F2A00F284810D99099304F1280038F0B9
:1010100093FB9AF800100278034601F00F0122F0CA
:101020003F020A4303F8022B81469AF8022099F8FE
:1010300002101493920962F3871189F80210616C0F
:10104000099B04F11C004FF00008002900F0C98240
:101050004A7D01EB820290690A681592C2780C9071
:101060000230139002F00100129001F114000E9969
:101070001192099338F060FB804699F8000098F8C7
:1010800000100C9B00F00F0021F03F01014388F895
:101090000010197898F80000C1F3801161F38610F0
:1010A00088F800001978C0B2C90961F3C71088F840
:1010B000000099F8021098F802004FF00103890926
:1010C0008DF82830099B61F3871015F001020F920B
:1010D00088F80200119A03F0010140F0068100290E
:1010E00000F04B819AF8001098F800C00F98C1F3F7
:1010F000801161F3861C88F800C099F8001060F335
:10110000861189F800100AF10A010B911299002941
:1011100040F048810C990431099102F002011F91BD
:10112000990740F109810B9998F8000006310B915D
:101130009AF80010C90961F3C710414601F8100B75
:101140004FF003008DF8280099F800006FF3C710E6
:1011500089F8000002F0020010B1099806300990E9
:1011600013F00800199002D00B9802300B90881CE5
:101170000F9015F0080000F0DD8002203070D6F8E6
:1011800001001890C6F8011005360A9840F0080CC6
:1011900012F008008DF828C01A9002D00998023089
:1011A000099013F010001B9002D00B9803300B90A5
:1011B0004FF018008DF85C0009F10900119002F061
:1011C00010001C90E80640F1A480881CC6F80100BD
:1011D0004CF010000A9003203070053602F0100029
:1011E000002800F0A38000201D900998033009908A
:1011F0000A98C00644BF05310F91590610D50B9BC4
:1012000001330B9394F8253003F01C03102B00F0EE
:1012100009824FF058038DF85C3009F10A031193ED
:10122000530606D5099B013309930A9B43F04003FB
:101230000A939DF82830DAB213F0400316921E93F9
:1012400002D00F9B01330F93119B149A9B1ADBB2B0
:10125000022B03D809F1030311930123099A13996F
:10126000501AC0B2022803D80C9A03320992012006
:101270000C9A92F801C08445C0F07C810F9908F166
:1012800002028A1AD2B2022A03D808F103020F928C
:101290000122BBF1000F00F08980099DD6F80110F2
:1012A000C6F80150ACEB00003578C0B230708B4608
:1012B0000536002D40F06C81002940F08D810999A0
:1012C000CDF840B00546DC467EE0B84AB849B9489A
:1012D00040F2F45344F0F8FE002383F31188BFF387
:1012E0006F8F0323184602DF5EE616F801EB98F8CD
:1012F00000C06EF3861C88F800C099F800C06FF338
:10130000861C89F800C000293FF400AFFBE61227D5
:101310005CE61098C0063FF561AF02F0100028B1FE
:101320004CF010000A9009981D905EE702F0100042
:101330001D905DE7189028E70F9808F10A01002832
:101340007FF402AF02F00200002800F027810C9920
:1013500098F800C00978C90961F3C71C41464FF0ED
:10136000030001F810CB8DF8280099F800C00F9801
:1013700060F3C71C89F800C0EFE61299002900F05D
:10138000F9800C9998F800C009780F98C1F3801182
:1013900061F3861C88F800C099F8001060F386118C
:1013A00089F800100C990A310991B6E66D0500F133
:1013B000E3801099890500F10D81ACEB00050999D6
:1013C000CDF840B0DC46EDB205EB0C0EBEF11F0FC0
:1013D00028463FF7FBAD104460445F2800F3EC80E3
:1013E00099F8020089F80130013B63F3050089F8A0
:1013F000020098F802300F9E501E60F3050388F833
:1014000002300BEB05031A4488F8012030462A46C7
:101410004DF0B4FF109B23B15A46194670194DF098
:101420009FFF98F802309F0600F0A280179B5E068F
:1014300040F1FD800B9A119912F8013C01F8013C32
:10144000531E0B934B1E11931B9B13B10B9B033B22
:101450000B93119E94F8253016F8032C6FF30502B8
:1014600006F8032C5D0937F06BFF32288CBF002093
:10147000012095FAA5F3002DB3FA83F308BF4FF0CE
:10148000FF335B0106F8013C16F8033C60F386135A
:101490006FF3C71306F8033C002306F8023C1C9BBD
:1014A00013B1099B033B0993169BDD0602D50F9BE5
:1014B000033B0F931D9B23B10F98194603224DF058
:1014C0005DFF199B13B10B9B023B0B931A9B13B14E
:1014D000099B023B0993189B002B00F0FD80189A92
:1014E000537812781B0203F470631A431198D1B237
:1014F00000F8051C94F87A30C3F303031B0103EBD7
:10150000122300F8043C0F9800F8021C94F87A307B
:10151000C3F303031B0103EB122300F8013C169BEA
:101520009C0700F19380821E169BD8070BD5129B57
:10153000002B00F0E880099B063B196842F8061C66
:101540009B8822F8023C99F8023099061CBF9DF84E
:101550005C3089F8033098F802309A061CBF9DF879
:10156000283088F80330159B93F84E30DB077DD484
:1015700000272BE51F2729E596F800B0D6F80110C3
:101580001091ACEB00000999C5B20536DC461BE7AB
:101590004FF0000CE346CDF840C015E799F800C0C5
:1015A0000F9860F3C71C89F800C0D9E570200500CA
:1015B000E42005009C190500A2F15F035B442B4465
:1015C000CA45337000F09A800C9B984500F09180DA
:1015D0004527FBE45D465946AB461095AC46284688
:1015E000F9E631F0B7FE099B1590002800F09780CE
:1015F000DDF854E0CDF848809EF831200EEB8202F1
:101600000121506B0C9084461CF8022BCDF84CC085
:1016100002F03F024170027080F803800EF11C015D
:10162000424622E50A9B43F040030A93F8E51E9BDD
:10163000002B3FF409AF099A0F9912F8013C01F809
:10164000013C531E09934B1E0F93FDE61F9B002B7D
:101650005CD0099B063B09930F991A6841F8082C46
:101660009B8821F8043CA1F108025DE7159C204607
:1016700031F0C6FA364A374B0721E0FB02311846F3
:1016800031A3D3E90023FEF78BFD256920F07F44C9
:10169000AC423FD22E1B0025159F2F49022350221A
:1016A000384621932BF0D2F800232C490195C21C17
:1016B00021AD0591CDE9033303210296D2B2009307
:1016C000184606952CF07AFC29462DF067FE002876
:1016D0007FF47BAC3C614BE794F87A30204903F00F
:1016E0000F0331F81320501C21F81300C2F30B0232
:1016F000FCE60E9A636C12785A7569E70D9B1B78AD
:1017000084F8293060E70B9B063B16E70B9B063BF2
:101710000B93A1E77FF62CAF651B0026BCE7CA45FB
:101720007FF454AC0F4A1049104840F2276344F04C
:10173000CBFC159B83F31188BFF36F8F03231846EF
:1017400002DF43E4AFF300808D49FD1A070000007B
:1017500000CA9A3B8C49FD1A84600020E9E302002C
:101760006060002070200500342105009C190500F0
:1017700070B590F803C01CF0010F14BF00F10A040B
:10178000041D1B481CF0020F15461E464FF00702B1
:10179000A1FB000318BF063402FB01311CF0080F47
:1017A00011A3D3E9002318BF0234FEF7F9FCAD1BE7
:1017B00010492844A1FB00310D09490C04D00E4BFF
:1017C000A3FB003001214509A2782078657022F042
:1017D0001F02C5F3042361F3C71013432070A370E5
:1017E000204670BDAFF3008000CA9A3B00000000A5
:1017F0008D49FD1A89888888B5814E1B000000003C
:101800002DE9F04FD0F844B0A949DBF80030DFF8FB
:10181000A4A291B0044608905022184609932BF0D8
:1018200015F8FF23D4F888508DF82F30C61C0023FC
:10183000F6B20D950C9301240DF13C090DF1380819
:101840000CAF0CE00D9BAB4202D06CB3013CE4B298
:101850009DF82F30FF2B3BD09E424CD00D9D002099
:101860000221CDE905A9CDE90078CDE90300029078
:101870000DAB0DF12F020F912CF082FC022800F02D
:10188000EF800F9B002BDDD08B4A8C498C4840F6B3
:101890008E4344F019FC002383F31188BFF36F8F4C
:1018A0000323184602DFCDE78649834A844840F681
:1018B000974344F009FC84F31188BFF36F8F03232F
:1018C000184602DF9DF82F30FF2B4FF0FF04C3D1E5
:1018D0007D49794A7A4840F6994344F0F5FB002364
:1018E00083F31188BFF36F8F0323184602DF9DF83F
:1018F0002F309E42B2D10E9C744A0C9EA4F57423E4
:10190000A3F51073934207D904F1E874013E04F57E
:10191000D4340C9604F5A5746D4BCBF80C60A3FB86
:101920000434A40C089BCBF8104093F8282093F8BB
:1019300029100E948A42D3B204D00133DBB2022BB9
:1019400008BF0023089A634D92F82570BBF80890F1
:1019500002EB8303A6FB0501D3F82CA04FF0070888
:101960004FA3D3E9002308FB0611FEF719FCC7F3C8
:1019700082079AF8011007F003030B445649221816
:101980000933A1FB0201DB00C7F34007FB4021F054
:101990000F0003F59673A0EB1111B3EB410F21D9A2
:1019A000099B4E489B8F40F2E24101FB0324A4FBBC
:1019B00000013DA3D3E90023FEF7F2FB20F07F46B0
:1019C000A6FB050136A3D3E90023CBF80C6008FB86
:1019D0000611FEF7E5FB09F10109241ACBF81040C6
:1019E0001FFA89F92246314600235046FFF7C0FE10
:1019F000DBF80C300999099D0133CBF80C3091F8D4
:101A00004D2091F84C30934202EB420305EB430327
:101A100018BF81F84C2093F84530062101FB025293
:101A20004032E98F044603F03F03484636F0F8FBA6
:101A3000237860F3050323702CF006FC0D992CF03D
:101A400005FC089BD3E90121DB6891422CBFC3EB65
:101A50000103C3EB020398420ED211B0BDE8F08F30
:101A60000F9B022B7FF40DAF022100202CF0D4FB42
:101A70000F9B022BF8D004E70F4A1949104840F693
:101A8000E54344F021FB002383F31188BFF36F8FFC
:101A90000323184602DF11B0BDE8F08FAFF30080DA
:101AA00000CA9A3B000000008D49FD1A07000000A3
:101AB00084600020392C03007020050058210500A7
:101AC0009C1905006021050090210500BFBDF07F35
:101AD00083DE1B438D49FD1A8988888800CA9A3B9A
:101AE000B42105000000000070B5234C9DF810E003
:101AF00094F846C01CF0020F36D1460816F00405D3
:101B000032D149B363F3830C400194F82030A186AD
:101B10004FEACE0E0EF0180E00F0200040EA0E0044
:101B200023F03803184394F82C3084F8200013482D
:101B300084F846C066F3020384F82C309121A2FB9E
:101B4000000301FB02310AA3D3E90023FEF728FBBF
:101B5000C4E90E00284670BD94F82C3065F30203EA
:101B600084F82C30284670BD0C25284670BD00BF77
:101B70008D49FD1A0700000028390020002AE7845B
:101B80002DE9F04390F8463090F82020484D6FF34F
:101B90000003044600F12D01C3F3800060F38612B8
:101BA0008DB084F8463084F820202CF0A1FB94F806
:101BB0002020A38E3F48E46102F07902002784F8D8
:101BC00020209121A3FB0002C4E90577277001FBC7
:101BD000032135A3D3E90023FEF7E2FA3123E26BB8
:101BE000A360354B6760651BA3FB053502F10E034F
:101BF0009842C5F3071598BF3A4605EB450898BFCC
:101C0000134606464FEA8808E7602C4FA2638CBF54
:101C100019463146236147F808102CF015FB47445C
:101C20000DF12C090997CDF820900694A38E00F1B0
:101C30000E0820480027A3FB00020397912101FB17
:101C40000321236904931E4B07931E4B0593022324
:101C50000B9315A3D3E90023FEF7A2FA1046194609
:101C60004FF47A720023FEF79BFA0535EDB2CDE909
:101C70000160032143462A46009738462CF03EF97E
:101C800049462DF08BFB40B994F8463043F00203EF
:101C900084F846300DB0BDE8F0830C200DB0BDE8EF
:101CA000F08300BFAFF300808D49FD1A07000000EC
:101CB00028390020002AE784398EE338FC600020B0
:101CC000E9E30200E93703002DE9F04F0B79062B19
:101CD0008FB00C46064614D0092B00F09C80A64A13
:101CE000A649A7484FF4A37344F0EEF9002383F309
:101CF0001188BFF36F8F0323184602DF0FB0BDE8D2
:101D0000F08FD1F808A0DAF808306BB19A4A9D49F3
:101D10009B48912344F0D8F9002383F31188BFF343
:101D20006F8F0323184602DFDAF80090484632F03E
:101D300089F8637E2660002767F3C3036376637FB9
:101D4000E760002B5DD0053001225FFA80F804F1D6
:101D50001E0E3D4639460B92A27F90064DD094F957
:101D60001F0094F81FC00028C0F232811CF0010F40
:101D700014BF04F1260004F120001CF0020F18BF6C
:101D800006301CF0040F18BF01301CF0080F18BFFC
:101D900002301CF0100B1CBF834603301CF0200FD8
:101DA00018BF12301CF0400F18BF0130C2F30502FB
:101DB000A0EB0E000132D2B2C0B2824238BF02465E
:101DC0009A423ABF9B1ADBB20023BBF1000F78D0D6
:101DD0009BF802009BF801C0020202F4F85252EA9A
:101DE0000C026ED0002948D0002D00F0F881AA8E98
:101DF00013449BB2AB8663836CE0013BDBB2002DE6
:101E000040D16383214630462DF01CFA0FB0BDE867
:101E1000F04F2DF023BA8F685B4B3D689D4261D136
:101E2000D5F828A0BAF1000F00F097805649382263
:101E300008462AF00BFD00F106085FFA88F8DAF888
:101E4000000032F019F87A7902F00702012A81467F
:101E500046D0022A2FD10723617E237100200B4632
:101E600060F3C3036376637F2660E06053B10B9237
:101E7000C1F3400104F11E0E6EE73F2840F2BF801F
:101E8000002DBED0AA8E13449BB2AB866383B9F1FA
:101E9000000F44D099F846302A6BDB0700F19C8094
:101EA000D460AE6A2C63002E48D028460FB0BDE83F
:101EB000F04F32F095B8304A304931484FF48273D0
:101EC00012E7002D6AD0AA8E13449BB2AB866383BF
:101ED0000029DCD02B6B002B64D0DC602C630DE779
:101EE0000623B9E7D7F80880B8F1000F79D0D8F801
:101EF0000050AB6A9F4266D01F4A24492048D12334
:101F000044F0E2F8002383F31188BFF36F8F0323BB
:101F1000184602DFBA4647464FF0FF088FE7164AD9
:101F20001B49174840F2353344F0CEF889F3118845
:101F3000BFF36F8F0323184602DFABE70E4A154944
:101F40000F4840F25D3344F0BFF886F31188BFF3C9
:101F50006F8F0323184602DFA7E7074A0E49084898
:101F6000BD2344F0B1F88AF31188BFF36F8F0323C8
:101F7000184602DF5AE700BF402205001C1A050080
:101F80009C1905009C22050034610020B822050040
:101F90003822050084220500AC2205006383002955
:101FA0003FF430AFBA4ABB49BB4840F2F71344F0A4
:101FB0008BF8002383F31188BFF36F8F0323184638
:101FC00002DF2B6B89E7BA4647464FF0FF0836E73A
:101FD000002D3FF417AF5AE72B6BA3427FF47DAF80
:101FE0008CE6AB4AAD49AC48CE2344F06DF888F39B
:101FF0001188BFF36F8F0323184602DF77E7002DA8
:1020000000F00E81AA8E13449BB21E2BAB8603D91F
:10201000637EDE067FF53BAF2B6B002B00F01A8151
:10202000DC60AB8E2C6363839BF800203B7979796D
:1020300062F305033B719BF8022001235209934090
:1020400063F302017971637ED80600F1CA80B9F1A9
:10205000000F00F0018199F8463013F00103BBD165
:10206000CAF808309BF900300B98002BACBF1E213A
:102070004FF49671B960637F9BF8022000F003066D
:102080001E440936C0F34003F600DE4012029BF8FE
:10209000013002F4F8521A4301FB02FAB245FFF490
:1020A000F9AE9BF8003078795A064CBF4FF03209F0
:1020B0004FF4FA797A4B09FB0AF9B9FBF3F909F104
:1020C0002F0301EB4301B96000F00700012136F056
:1020D0000FFF4FF0000B31216369A960C5F804B010
:1020E000C5F80CB079796F4F2F3B9E1B01F00303AD
:1020F0000933C1F34001DB00CB40564403F5EA73DA
:102100000344361A68480721E3FB07015EA3D3E9BD
:102110000023FEF745F8A6EB090620F07F405AA3FE
:10212000D3E900232861A6FB0701FEF739F85A46D8
:1021300020F07F46022101202AF0F8FBB8F1FF0FC2
:102140001AD0CDE900BB23693F3B4246334401210D
:1021500058462BF04BFF10F0FD0F0DD04C4A534961
:102160004D4840F20B3343F0AFFF8BF31188BFF3C0
:102170006F8F0323184602DF4D49382228462AF084
:1021800065FB4C4A2369CDE907254B4ACDE9052576
:10219000296900960024821DCDE90341CDE901445F
:1021A0003F3BD2B2012120462BF08CFE10F0FD0FF8
:1021B0000DD0374A4149384840F21B3343F084FF81
:1021C00084F31188BFF36F8F0323184602DF0122C7
:1021D000022110460FB0BDE8F04F2AF0A7BB638381
:1021E000E0E6DAF8083083B1BB420ED0284A344921
:1021F000294840F2852343F067FF002383F31188C9
:10220000BFF36F8F0323184602DFCAF80870637E9E
:1022100043F0080363763B796FF386133B716DE5FA
:102220002848CDE90C312AF0E3FADDE90C31054606
:1022300008B3838690F820300170C0E9051161F37E
:10224000C713C1620163C061C0F828A080F82030C4
:1022500000F11C07EC62E4E60D4A1B490E484FF4FE
:10226000277343F031FF89F31188BFF36F8F032386
:10227000184602DFEFE6637EDF067FF5C3AD43F06D
:1022800008036376BEE500BF8D49FD1A0700000014
:1022900040220500CC2205009C190500B022050053
:1022A00040420F0000CA9A3B8C49FD1A0C230500DE
:1022B00034610020CD400300C53E03003C230500EF
:1022C000E0220500306100203822050000000000F7
:1022D0002DE9F04F06468DB08A460120022199462D
:1022E00015463AF0DDF900220B90022101202AF078
:1022F0001DFB3B494FF4987230462AF0A7FAC71DE0
:10230000FFB2384B00963A46012100202BF0B2FE76
:1023100010F0FD0F0ED0344A3449354840F63203F0
:1023200043F0D2FE002383F31188BFF36F8F0323A2
:10233000184602DF2F4CA5FB044527A3D3E9002351
:1023400020462946FDF72CFF08960696336904932C
:10235000294B20F07F48A8FB0331E01A274B079355
:102360004FF00702264B059302FB08114FF6FE7350
:1023700065EB010103934FF47A720023FDF710FF20
:102380004FF0000BCDE90180CDF800A04B463A4656
:10239000012158462BF096FD10F0FD0F0DD0124A8A
:1023A0001249134840F6470343F08EFE8BF3118821
:1023B000BFF36F8F0323184602DF0B9B13B90DB0D9
:1023C000BDE8F08F0122022110460DB0BDE8F04FAC
:1023D0002AF0ACBAAFF300808D49FD1A0700000067
:1023E0007039002009470300AC2305000C230500C9
:1023F0009C19050000CA9A3B8D49FD1AA9460300A5
:10240000C17E0300000000002DE9F04F87B0CDE948
:102410000423BDF8442003780292BDF84820BDF89B
:102420004080BDF84C50468EB0F82E90B0F8B4B055
:10243000019104460392002B7ED0013EB6B2A36800
:10244000D4F8AC70721B92B2002B009209DAE168EA
:10245000626823F0004391422CBF7F18BF18A3602D
:10246000FF1A009A638D13FB02F39BB2B3FBF8F2E1
:1024700018FB02F080B283421FFA82FA4BD2C01AD4
:1024800040F2E242564902FB00F0A0FB010152A3D8
:10249000D3E90023FDF784FE20F07F400744D944B0
:1024A00094F839304D44AD1B554440F2E246DB0907
:1024B000E58506FB08F543D14A4A4B494B4840F6AF
:1024C000BD0343F001FE002686F31188BFF36F8F32
:1024D0000323184602DFA946029BA385039BA4F8A9
:1024E0002431A4F82A802946204633F0E9F8019BDC
:1024F00013B10023A4F826313B464A463146204614
:10250000FFF7E6FE94F8203143F0010384F8203110
:1025100007B0BDE8F08F08FB1231314840F2E243CA
:1025200089B203FB01F1A1FB00012BA3D3E9002336
:10253000FDF736FE3F1AB2E74E445E44B6B27EE780
:10254000226C0099A36CDFF898B002FB1133A364EE
:1025500036F0F6FE814694F81401C0F3420036F0DE
:10256000F1FE049B814406FB03F305FB09F9236597
:1025700009F574291E4B09F23F29A3FB09394FEADB
:10258000994303FB0AF02364A5EB0309A36C6A08D3
:102590000344963A934228BF1346C4E9112300230B
:1025A000C4F81C31A0FB0B010BA3D3E90023FDF7FA
:1025B000F7FD104B059A3F1AA3FB0230800A06FB79
:1025C00000F005A3D3E90023A0FB0B01FDF7E8FD14
:1025D00020F07F4680E700BF8D49FD1A070000000C
:1025E00000CA9A3BAC2305001C1A05009C19050083
:1025F00083DE1B435917B7D12DE9F04F134615461B
:102600000A6853F8086BD2F80080B0F82EC0024672
:10261000044652F82EABD0F81E0094F81C900F46DA
:102620009178628CA5F808C09970D4F82A306B6054
:1026300093B0D4F83A30AB61ADF8442094F83E2022
:102640002A77109012AA12E9030005F118030E90E0
:10265000ADF83C10184605212AF0B4FA6B7F00F063
:102660003F0060F305036B7794F83F30C3F3040237
:10267000AA77A28EEA810128C9F3801940F2648109
:1026800003F01F031B3303F01F030B2B00F25C81CD
:1026900092B2002A00F058813B6800225A60E38E13
:1026A000E9892B8240F2E24303FB01F10B91D8F858
:1026B0004420618E0C91002A00F05E8198F825106C
:1026C00040F6C41240F6A6637F2988BF1A460D92D1
:1026D0000021304633F008F894F83F3096F8142182
:1026E0005B0963F3430286F8142136F029FE834622
:1026F00096F81401C0F3420036F024FE0B99C04A4C
:102700000BEB000301FB03F303F5742303F23F23F8
:10271000A2FB03239B0C6B624B08963BAB6294F8C5
:10272000313040F2E24202FB03F3AB63238FA6F8A1
:102730002431304632F0C4FFB24BC6F828316B6802
:10274000C6F81831D8F84430002B00F04F814FF014
:10275000010BE20700F13B81BDF83C30A4F82330C7
:102760000E9884F81E904FF48073C4F81F00A38362
:10277000EB89E3842B8A2385B6F82431638596F8A8
:102780001431C3F3420384F82C30304631F0F8FFA3
:10279000A881E080214650467C682CF053FDAB892F
:1027A000E3801C23D4F800902371BBF1000F40F0AC
:1027B000058184F81CB02DF0ADFF002840F0E680C4
:1027C000214648462CF050FD0021084636F090FB8B
:1027D0008D4A8E4B0446072100F2FE40E0FB023199
:1027E0004FF0000918463123B360C6F8049082A365
:1027F000D3E90023C6F80C90FDF7D2FC20F07F400F
:1028000030610B9B6D6A0C995D1BFB6840F2E242E4
:1028100002FB01330D992F3B19440C1B4A46022140
:1028200001202AF083F8D8F84430B3B1D3F800A0DF
:10283000504630F03FFDC21C754BCDF800A0D2B21F
:10284000012148462BF016FC012800F016819AF869
:102850004E306FF300038AF84E3040462FF0E2FF0F
:102860008246694864A3D3E90023A4FB0001FDF775
:1028700097FCCDF80480BB686549009120F07F4942
:102880000AF102023F3BD2B24B44012100202BF05F
:1028900033FC012800F0CC8098F82430DB076DD49D
:1028A000304631F06DFF584BA5FB03A8044652A3F8
:1028B000D3E9002350464146FDF772FC554BBF68F3
:1028C000554A079220F07F45A5FB0331BAEB030080
:1028D000524B059340F2D1130696089333694FF09B
:1028E000000BCDE903B34FF0070303FB051168EBC1
:1028F00001014FF47A720023FDF752FC07343F3F89
:10290000E4B2CDE90150CDF800903B4622460121CA
:1029100058462BF0D7FA10F0FD0F0DD0404A414930
:1029200041484FF4E97343F0CFFB8BF31188BFF3B9
:102930006F8F0323184602DF01220221104613B0D5
:10294000BDE8F04F29F0F2BF0022C8F8142095F836
:10295000203062F3000385F820300126E5682671F7
:10296000504621462CF06EFC28682E71294613B083
:10297000BDE8F04F2CF078BC0D93A9E600230122AE
:102980000093184611462BF075FB89E7214648460F
:102990002CF058FCD8F840404046D4F800902FF076
:1029A00041FF10F0FF0A58D100231222A4F806A01C
:1029B00023722271AA896281637201E76B7F43F0FF
:1029C00040036B77281D35F027FCE883F1E6144AB5
:1029D00016491548F82343F077FB002383F3118849
:1029E000BFF36F8F0323184602DFB5E694F81CB0DF
:1029F000CBF3401BADE600BF8D49FD1A0700000078
:102A000083DE1B43404B4C0000CA9A3B8C49FD1AA5
:102A1000817E03008D49FD1A4D7E0300C17E0300B7
:102A2000542805000C2305009C190500A41D050071
:102A30002CF0DEFC80453FF42FAF1A4A1A491B48A0
:102A400040F2792343F040FB002383F31188BFF366
:102A50006F8F0323184602DF1EE7124A14491348FA
:102A60004FF4A67343F030FB002383F31188BFF3C8
:102A70006F8F0323184602DF96E72CF0B9FC8245DE
:102A80003FF4E5AE074A0849084840F2792343F08D
:102A90001BFB89F31188BFF36F8F0323184602DFF6
:102AA000D5E600BF54280500B02805009C19050094
:102AB000A81E050000000000032838B50D4612D0FE
:102AC000072802D00024204638BD002031F060FEE7
:102AD00004460028F6D090F93930002BF2DB036968
:102AE0002B60204638BD002030F044FE044600280C
:102AF000E8D05F22114630F045FE0B4A0B4B072110
:102B0000E0FB0231184606A3D3E90023FDF748FB9A
:102B100020F07F402860204638BD00BFAFF3008022
:102B20008D49FD1A0700000000CA9A3B8C49FD1A26
:102B30002DE9F04F8FB00DF137010446DFF8F0A01A
:102B4000DFF8F0800DF136002CF0FEFB9DF83630FA
:102B50009DF837B00B932BF077FBDAF80060A6FBFB
:102B6000085631A3D3E90023002781463146284681
:102B7000FDF716FBCDE90777069420F07F44DAF8DD
:102B800004002D4B0593A0FB080127A3D3E90023E4
:102B9000FDF706FB294B20F07F40A4FB0331072201
:102BA00002FB0411CDE90370E81A66EB01014FF452
:102BB0007A720023FDF7F4FA0097CDE901404B4605
:102BC0000B985A4603212BF07DF910F0FD0404D038
:102BD0006FF08B000FB0BDE8F08F1948194A002341
:102BE0003FF000FB20B9DAF80C000FB0BDE8F08F21
:102BF0009DF837209DF836000094234603212BF0E2
:102C000039FA10F0FD0F0CD00F49104A1048E42398
:102C100043F05AFA0F4843F057FA0C48E42143F0C6
:102C20004AFA6FF07300D5E78D49FD1A07000000DE
:102C3000C464002000CA9A3B318403008D49FD1A08
:102C4000AC640020447B0B00AC2905003C29050046
:102C50009C190500F429050038B50F4D04462BF0EA
:102C6000F3FAA9682BF0F2FA696803460B48B3FB44
:102C7000F4F4A1FB00011C4405A3D3E90023FDF7F4
:102C80008FFA20F07F40844294BF0020012038BD9D
:102C90008D49FD1A07000000C464002000CA9A3B59
:102CA000F0B5C468636883B00546002B55D139F090
:102CB0004BF9002039F06EF9A17A607A01F0010138
:102CC000C0F3820039F058F9627A252102F01C0223
:102CD000082039F097F93C4B019301A839F07AF9B3
:102CE0003A4940F25B6039F027FA237AC3F3420293
:102CF00062F306132372204636F076FD27682E68AD
:102D0000384636F08FF806446A6806F10E01012055
:102D100039F04CFB39F090FC20462FF091FD811CDE
:102D20003246C9B2384636F08BF8054600BB20461D
:102D300035F0DEFF10B9002003B0F0BD244A25496C
:102D4000254840F2294343F0BFF985F31188BFF3CA
:102D50006F8F0323184602DFEDE793F820309B07BF
:102D6000A5D01E48214639F0ADF839F091F9E2E7D7
:102D7000174A1B49184840F2114343F0A5F9194B73
:102D80000721A5FB030301FB05310DA3D3E90023B4
:102D9000FDF706FA14490246144843F095F9002558
:102DA00085F31188BFF36F8F0323184602DF1048A5
:102DB000214639F087F839F06BF96FF08B00BBE7EB
:102DC00000CA9A3B00000000D6BE898E55555500BA
:102DD000E82C05002C1B05009C190500E98F030059
:102DE0001C1A05008D49FD1A9C2D0500682D050053
:102DF00051930300000000002DE9F047C46882B041
:102E0000002306460DF1030104F1140067688DF8F4
:102E1000033036F0B3FC8046002800F0C2803B7BD4
:102E200007EB83031D692B7803F00F03072B0DD0ED
:102E3000814A824982489F2343F046F9002383F365
:102E40001188BFF36F8F0323184602DFAB7813F0AE
:102E50003F0900F08280EB78DA074CBF05F10A02E7
:102E60002A1D980748BF0632190748BF0232DB0601
:102E700040F19080937851781B0203F4F8530B4390
:102E800000F08880238992F800A00133238139F073
:102E90005BF8002039F07EF897F80990B97A4FEA8C
:102EA000591901F00101484639F066F84FEA8902E4
:102EB0005F21082039F0A6F8624B019301A839F090
:102EC00089F80AF03F0A604940F25B6039F034F952
:102ED000504635F0C7FF404639F0C4F8AB783F2B79
:102EE00027D85A48214638F0EDFF39F0EBF927682A
:102EF0003568384635F096FF054405F10E017268D5
:102F0000012039F053FA39F097FB204630F0DCF914
:102F1000C11C2A46C9B2384635F092FF0546002842
:102F20005BD1204635F0E4FE28BB002002B0BDE8AE
:102F3000F0870DF1030107F1180036F01FFC05467C
:102F400000283CD02146424838F0BCFF962039F09A
:102F500021FA484639F00EF9C9E7374A3D49384861
:102F6000AB2343F0B1F889F31188BFF36F8F0323CC
:102F7000184602DF6FE7304A374931484FF4AD73E6
:102F800043F0A2F885F31188BFF36F8F032318462F
:102F900002DFCAE73148214638F094FF39F078F86B
:102FA000C3E7254A2E4926488A2343F08DF888F343
:102FB0001188BFF36F8F0323184602DF2FE71E4AE5
:102FC00028491F48F12343F07FF885F31188BFF3A8
:102FD0006F8F0323184602DFB4E7174A22491848C7
:102FE00040F2491343F070F8204B0721A5FB03037F
:102FF00001FB05310EA3D3E90023FDF7D1F81C49ED
:1030000002461C4843F060F8002585F31188BFF3A1
:103010006F8F0323184602DF0C48214638F052FF19
:1030200039F036F86FF08B0080E700BFAFF3008017
:1030300000CA9A3B00000000A82D0500002E0500E4
:103040009C190500D6BE898E55555500659D030017
:10305000B59D0300282E05002C1B0500E59E0300EE
:10306000F82D05005C2D05001C1A05008D49FD1A80
:10307000482E0500682D05002DE9F041C46823792C
:103080006FF300038CB023710F46054638F05CFFE8
:10309000002038F07FFF207C012100F0070038F08D
:1030A0006BFF227C9200252102F01C02082038F0E0
:1030B000A9FF237C23F01803012023742CF04CFA81
:1030C0000646002800F0848006F11C0038F0C4FF9A
:1030D0005D4B0B930BA838F07DFF5C4940F25B60C1
:1030E00039F02AF82079C0F34100253035F0BAFED6
:1030F0005748214638F0E6FE23799B062ED59620C8
:1031000039F048F900231A461946184639F07AF87A
:10311000D4F800802E68404635F084FE06446A6884
:1031200006F10E01002039F041F939F085FA39F045
:10313000D9F8204630F092FE411DC9B240463246D1
:1031400035F07EFE0546002851D157B1204635F0B6
:10315000CFFD68BB00200CB0BDE8F08139F0B2F8BB
:10316000D6E7E369002BF1D03A4907913A49059136
:1031700040F2F31100930891CDE90377CDE901778F
:1031800006943346042239462AF09CFE10F0FD0FC7
:10319000DCD0324A324933484FF4FA7342F094FF9C
:1031A00087F31188BFF36F8F0323184602DFCDE743
:1031B0002A4A2D492B4840F20B2342F085FF002379
:1031C00083F31188BFF36F8F0323184602DFC1E733
:1031D000224A264923484FF4C57342F075FF86F30F
:1031E0001188BFF36F8F0323184602DF6CE71B4A79
:1031F0001F491C4840F2E51342F066FF1D4B0721B2
:10320000A5FB030301FB05310DA3D3E90023FCF764
:10321000C7FF19490246194842F056FF002585F3B9
:103220001188BFF36F8F0323184602DF144821462D
:1032300038F048FE38F02CFF6FF08B008BE700BFB2
:1032400000CA9A3B00000000D6BE898E5555550035
:103250007DA903003DA6030071A60300542E0500BE
:10326000B41E05009C1905002C1B0500342D05001B
:103270001C1A05008D49FD1AAC2E0500682D0500AD
:1032800049A30300000000002DE9F041C46882B0AA
:103290000DF103010546204630F0C6FF2379664A4A
:1032A0006FF3861323710026168038F04DFE3046EA
:1032B00038F070FE6079012100F0070038F05CFE04
:1032C00062799200FF2102F01C02082038F09AFE79
:1032D00001202CF041F90646002871D006F11C00AF
:1032E00038F0BAFE554B019301A838F073FE5449EB
:1032F00040F25B6038F020FF207900F03F0035F0AD
:10330000B1FD21464F4838F0DDFD962039F042F8F6
:10331000627902F0070201231046002138F072FFA3
:1033200027682E68384635F07DFD06446A6806F148
:103330000E01002039F03AF805466079D4F808808B
:1033400000F00700012138F095FE0544607900F097
:1033500007000228454422D004280CBF4FF4BC7358
:10336000282301211D4438F087FE284439F02AF92A
:1033700039F062F938F0B6FF204630F04BFF811D7E
:103380003246C9B2384635F05BFD054638BB2046AB
:1033900035F0AEFC28B9002002B0BDE8F08118235A
:1033A000DFE7294A29492A484FF4187342F08CFE76
:1033B00085F31188BFF36F8F0323184602DFEAE716
:1033C000214A244922484FF4F57342F07DFE86F3EA
:1033D0001188BFF36F8F0323184602DF7EE71A4A76
:1033E0001D491B4840F2412342F06EFE1B4B072152
:1033F000A5FB030301FB05310DA3D3E90023FCF773
:10340000CFFE17490246174842F05EFE002585F3BD
:103410001188BFF36F8F0323184602DF124821463D
:1034200038F050FD38F034FE6FF08B00B4E700BF89
:1034300000CA9A3B0000000086760020D6BE898E26
:103440005555550011B60300C02E05002C1B050074
:103450009C190500342D05001C1A05008D49FD1A24
:10346000402F0500682D050055AC0300000000004A
:103470002DE9F041C468A2894FF6FF739A4282B0E9
:1034800000F0AF80054638F03BF92B89628AE08A6C
:103490001A4492B21044637FA28280B2411CE1823E
:1034A0005E064FF00001618204F1180175D403F04B
:1034B0003F000B46A17F009004F11F0034F064FE32
:1034C0000646D4E90B231344D4E90D02002102443B
:1034D000E1626163A16AA26394F852208B4228BF23
:1034E0000B4612F0040223635FD038F02DFD00205C
:1034F00038F050FD201D38F06DFD2389A17A40F28F
:103500005B6043EA014138F017FE304635F0AAFC13
:1035100021464D4838F0D6FC962038F03BFF00237A
:103520001A461946184638F06DFE204638F044F920
:1035300027682E68384635F075FC06446A6806F13F
:103540000E01002038F032FF804639F049F80020A3
:1035500039F060F8226BA36B0021084603EB4205AB
:1035600038F088FD8635002145440544084638F08A
:1035700083FD284439F026F8A18907313246C9B2C3
:10358000384635F05DFC054690BB204635F0B0FB73
:10359000C0B9002002B0BDE8F0810A4603F03F0345
:1035A000E18B34F03DFE06468BE7D4E90F0129F0AC
:1035B00085F9002899D194F8523043F0040384F837
:1035C000523092E7214A2249224840F2551342F0F4
:1035D0007BFD85F31188BFF36F8F0323184602DF4D
:1035E000D7E71D48214638F06DFC38F051FDD0E793
:1035F000164A1A49174840F24B1342F065FD184B22
:103600000721A5FB030301FB05310DA3D3E900232B
:10361000FCF7C6FD13490246134842F055FD00254C
:1036200085F31188BFF36F8F0323184602DF0F481D
:10363000214638F047FC38F02BFD6FF08B00A9E7EE
:1036400000CA9A3B0000000051B90300C42F0500D6
:103650002C1B05009C190500E98F03001C1A0500AE
:103660008D49FD1A18300500682D0500A98F03004B
:103670002DE9F04F0229D1B004460F46914607D8F4
:103680003F4943F0D0FE3F49204643F0CCFE11E0D5
:10369000D9F80400102205A942F046F8059B1B78D2
:1036A00006460BB902040BD5D9F80420364920464A
:1036B00043F0B9FE6FF01505284651B0BDE8F08F14
:1036C000DFF8C8B08DF838304FF0020807F1FF3A44
:1036D0000EA8FCF7F4FE59F8281003910546084699
:1036E000FCF7EDFE054402357F2D039901D92849E9
:1036F000CAE70EA84BF07DFDC24503D959460EA876
:103700004BF077FD08F10108B845E1D10EA8FCF7B0
:10371000D6FE054608B91F49B6E71422002109A8BC
:103720004BF046FEFF234FF407021B498DF834305F
:1037300006A82EABCDE907230693ADF8286048F024
:10374000ADFF2A460EA906A846F034FA13490EAB7F
:10375000B2B2204643F067FE00231148009306AA48
:1037600009A916F0EDF8054628B102460D49204694
:1037700043F059FEA0E70C49204643F054FE9BE776
:1037800098330500CB33050001340500F8440500EB
:103790001E340500403405003412C50059340500BC
:1037A000B00700207A3405009B34050070B50C4842
:1037B0000B7C0C4E15464A88898842F06FFC002429
:1037C000AB88A34204D8084842F068FC002070BDD2
:1037D0002B683046195D42F061FC0134F0E700BF10
:1037E000B6340500EB340500626505000A46014663
:1037F000014842F053BC00BFF1340500F0B5154656
:103800008BB000270E461D22394602A801974BF0C7
:10381000CFFDAC882968202C28BF2024224601A88F
:103820004BF09EFD04F128030DEB0304B1880D4815
:1038300004F8247C01AA42F031FC05F0E5FC30B923
:10384000094842F02BFC6FF012000BB0F0BD01A94B
:1038500006F0BAFD08B90020F7E7044801A942F0D4
:103860001DFCF8E7293505004B3505006A350500D4
:1038700070B588B003AB4FF4E02205460E4605A8AC
:1038800048F20421CDE90623059348F007FF084BD1
:103890000024197805A846F099F90094234605AA52
:1038A0003146284616F04CF8204608B070BD00BFDF
:1038B0006819002004292DE9FF410546144608D85F
:1038C0002E4943F0B0FD6FF01504204604B0BDE86A
:1038D000F0816068102203A941F026FF039B1B784A
:1038E00086B22BB162682649284643F09CFDEAE780
:1038F000A068102203A941F017FF039B1B7887B231
:1039000013B1A2681F49EFE7E068102203A941F054
:103910000BFF039B1B781FFA80F813B1E2681A496A
:10392000E2E71022206903A941F0FEFE039A83B268
:10393000107810B122691549D6E70DF10B02CDE9D7
:103940000032314643463A464AF0CFF8044628B1A1
:1039500002460F49284643F066FDB6E79DF80B2066
:1039600032B10C49284643F05EFD6FF00404ACE729
:103970000949284643F057FDA7E700BF89350500F0
:10398000D0350500EA35050007360500223605006A
:10399000383605005D3605008036050004292DE91E
:1039A000FF410546144608D82E4943F03CFD6FF010
:1039B0001504204604B0BDE8F0816068102203A918
:1039C00041F0B2FE039B1B7886B22BB16268264998
:1039D000284643F028FDEAE7A068102203A941F039
:1039E000A3FE039B1B7887B213B1A2681F49EFE7C0
:1039F000E068102203A941F097FE039B1B781FFA91
:103A000080F813B1E2681A49E2E71022206903A99D
:103A100041F08AFE039A83B2107810B122691549E9
:103A2000D6E70DF10B02CDE90032314643463A4666
:103A30004AF09AF8044628B102460F49284643F056
:103A4000F2FCB6E79DF80B2032B10C49284643F052
:103A5000EAFC6FF00404ACE70949284643F0E3FCB4
:103A6000A7E700BFA2360500D0350500EA350500FE
:103A70000736050022360500E93605000E37050039
:103A80003137050010B5044611F02CF928B1114961
:103A9000204643F0C8FC002010BD20460E4943F0EC
:103AA000C2FC0E49204606F08FFC0D49204606F068
:103AB0008BFC0C49204606F087FC0B49204606F09B
:103AC00083FC0A49204606F07FFC0949204606F09F
:103AD0007BFCE0E7553705008D370500CF37050043
:103AE000D9370500EA37050002380500113805000E
:103AF0002538050008B5014620B10D48BDE808404D
:103B000042F0CCBA0B4842F0C9FA0B490B4811F00D
:103B1000F3F8014608B10A48F0E743F042FA0320FF
:103B20001EF032FCBDE80840064842F0B7BA00BFBC
:103B30003A3805005A38050090FD04003CFD0400A9
:103B4000713805008C38050010B5124B59681A6998
:103B5000096849060ED41049104A11484FF4CB6346
:103B600042F0B2FA0F4842F0AFFA0C484FF4CB6182
:103B700042F0A1FA1268520603D520B19B681B6976
:103B800003E00028FAD09B68DB680248BDE81040DB
:103B900040211847C4F40400CF3805009E380500C2
:103BA0000D3905002A39050010B5104645F0C5FF4E
:103BB0000A4B1A78824204460ED0002814BF012214
:103BC00000221A70064B0749074808BF194642F001
:103BD00065FA2046FFF7B8FF002010BD68190020E5
:103BE0003C3905003738050040390500012973B517
:103BF0000546144607D8174943F015FC6FF0150425
:103C0000204602B070BD60680A2201A941F08CFD17
:103C1000019B1B7806460BB9012805D962680E493D
:103C2000284643F000FCE9E7FFF78EFF044630B179
:103C300003460A493246284643F0F5FBE0E7084BC5
:103C4000084A0949002E18BF1A46284643F0EBFBE4
:103C5000D6E700BF50390500633905008D390500EE
:103C6000373805003C3905004039050010B51B48C0
:103C700042F014FA1A4C20464BF02DF828B9194896
:103C800042F00CFA6FF0120010BD6368A1681B6867
:103C900022695B060ED41449144A154840F2ED33EC
:103CA00042F012FA134842F00FFA104840F2ED3198
:103CB00042F001FA136843F0400313600B680E4AA8
:103CC0000621204698470D480AF05AFE014608B9D9
:103CD0000020D9E70A4842F0E1F9F9E7B2390500D6
:103CE000C4F40400C3390500CF3805009E38050030
:103CF0000D3905002A39050001000600F53A0000DB
:103D00003A38050010B5094C0A44914200D110BD63
:103D100011F8013B584003090001E35CC0B2434085
:103D200018091B01205CDBB25840EEE7473B050059
:103D300070B50C46002934D002680B1F9B1AD908B5
:103D400023F0070313445D88E8070DD4154A16498C
:103D50001648AF2342F0B8F92146154842F0B4F9AD
:103D6000AF21104842F0A7F9104642F026F8084467
:103D700032F83060801B81420BD00A4A0D490B4853
:103D8000B72342F0A1F921460B4842F09DF9B72133
:103D9000E7E725F001055D80BDE87040104642F080
:103DA000C9B870BD573B05007A3B05000D390500C9
:103DB0008B3B0500C33B0500E93B05002DE9F843BB
:103DC0004B1E0B4006680F46144611D0C1F1000986
:103DD00009EA01094A46042A03F1FF3128BF0422F7
:103DE00019420CD11F46E4B900252846BDE8F883E6
:103DF000042913D8BDE8F843114642F0CCB82D4948
:103E00002D4A2E484FF4A27342F05EF92C4842F03E
:103E10005BF929484FF4A27142F04DF9994604220A
:103E2000E1E7B368B3EBD40FDED904F10B013944F9
:103E3000891AC908304642F016F880460028D3D0C7
:103E400009F1040505EBC0057B1E35441D44B5FB97
:103E5000F7F57D43A5EB09052C442B1F07349B1B6D
:103E600024F00704A41BB0EBD30F4FEAD3074FEAAB
:103E7000E40408D201463A46304642F041F8414651
:103E8000304641F09FFF3946304641F096FF3844B6
:103E9000844207D23046224642F032F8214630466C
:103EA00041F090FF06EBC706738843F0010373806F
:103EB0009BE700BF253C0500573B05000D39050079
:103EC000403C0500B2F5802F2DE9F0410ED33C496E
:103ED0003C4A3D4840F2EB1342F0F6F83B4842F0D2
:103EE000F3F840F2EB11374842F0E5F8042A0CD819
:103EF0003749344A34484FF4F97342F0E5F835480D
:103F000042F0E2F84FF4F971EDE7043ACD1D8E1856
:103F100025F0070526F00706761B172E4FEAD60771
:103F20000CD82D49274A284840F2FB1342F0CCF820
:103F3000284842F0C9F840F2FB11D4E7B7FA87F4F9
:103F4000C4F12002C4F12404A4000734E408631C73
:103F50004FF00008BB420560AF60C5F80C800CD97B
:103F60001E49184A18484FF4037342F0ADF8194837
:103F700042F0AAF84FF40371B5E74146920005F10B
:103F800010004BF015FA630043F001036B8005EB62
:103F9000C4023B1B5900A5F800805180AA1925F8DE
:103FA0003440A2F80280AB5305EBC70321465A8880
:103FB00042F001025A802846BDE8F04141F002BFBC
:103FC0005D3C0500573B05000D390500733C0500BD
:103FD0008A3C0500AB3C0500C43C0500ED3C0500F7
:103FE0002DE9F04F91B08407009302F0040302938F
:103FF000C2F3C20303F10103DDF8688003920546B2
:104000000E46059340F0F581041D30B1072909D80B
:104010006FF01B0011B0BDE8F08F01F00706341DF2
:10402000C6F10806009B4FF00009013B4FF0040B5E
:104030000193CDF810904F464B464FF0FF32DA46D1
:104040000DB1009921600598002800F3D7809848A9
:104050000099814203D397488142C0F0CF800399F1
:10406000A4EB050E89074FEA9E0040F1E2804FF075
:10407000000CCCE07A285AD84B280CD8472856D8C0
:1040800029282AD8252851D051D8202877D023385C
:104090004342434173E04C382E2848D8DFE800F013
:1040A0006F47474747474747474747474947474776
:1040B0004747474747594749495959596F496C47F5
:1040C0006F471849184747807D49474749477D0052
:1040D000002000234FF0040B39E02A38C0B2012140
:1040E00001FA00F010EA0E0F49D110F0625C30D1F5
:1040F00010EA010343D06046013C5C44B4FBFBF48E
:104100000BFB04F4002D60D0AAEB050CA444B445CD
:104110003FF67EAF00286AD1BAF1040F45D158F8B6
:10412000040B206004344FF0040A28E0013A002315
:1041300025E0019B13F8013C6C2B33D1019B13F854
:10414000023C00206C2B0346C4D14FF0080BDA462A
:10415000D2E708F1070828F007080734F8E802ABAF
:1041600024F0070435B106982044B0423FF650AF22
:10417000C4E900AB083400234FF0080BDA4601997C
:1041800011F8010F0191002800F0BB80002B7FF493
:1041900071AF2528F3D1013201234FF0040BEDE775
:1041A000184696E700200346A6E7BAF1080F40F04C
:1041B0009A8008F1070828F00708F8E80201C4E926
:1041C000000108344FF0080AD9E780B9BAF1040FAA
:1041D00002D108F10408A5E7BAF1080F40F0838086
:1041E00008F1070828F0070808F10808E9E7059929
:1041F0000139059158F8041B009121E703998807BC
:104200004AD5A4EB050E4FEA9E004FF0010CBEF517
:10421000007F1ED32849294A29484FF41F7341F0D3
:1042200053FF284841F050FF4FF41F71234841F0DD
:1042300042FF0F2F0FD8002D48D007F140010DEBA2
:10424000010C0CF8200C0CF8102C04980130049090
:1042500021E00F2F0CD91849184A194840F2812340
:1042600041F032FF184841F02FFF40F28121DDE795
:10427000CDB107F140010DEB010EC0B20EF8200CDC
:104280000EF8102CBCF1000FDFD060F07F000EF8AC
:10429000200C09F101090137C5F108010434069128
:1042A0004FF6DA7E6BE7BCF1000F0FD00136F2E774
:1042B000E4F3040044120600969F0500183D050033
:1042C0000D390500463D0500673D050002980236A0
:1042D0000028E0D10098CDE90632FCF7F0F8DDE9DE
:1042E00006320644D7E7444A4449454840F2C623CB
:1042F00041F0EAFE5146434841F0E6FE40F2C62155
:1043000094E7631BB3F5806F0CD33C493A4A3C48B1
:1043100040F2D22341F0D8FE3B4841F0D5FE40F2B6
:10432000D22183E71DB9A6F10804E01872E6029ACB
:1043300028609B082B709DF81030C2B1EB7085F897
:104340000290B9F1000F05D008A80022C5F1010CB8
:1043500097420ED1C5F101030DF120084FF0000A7C
:1043600001930DF1300B574512D1601B52E66B7073
:10437000E5E710F8013B190608D504EB0C0EB6452D
:1043800003F07F033FF644AE04F8013B0132DFE760
:10439000B9F1000F03D098F90020002A17DB029B27
:1043A000D3B11AF80B2004F8012B0022019B9818B6
:1043B0002044B0423FF62CAE98F8000004F8010B00
:1043C0000099039220464AF0CBFF039A14440AF165
:1043D000010A08F10108C6E798F8002055F82230D4
:1043E0000093029B45F822300098FCF768F8421CC5
:1043F000DCE76FF00D000DE6183D0500969F050007
:104400000D390500813D0500963D05002DE9F04F71
:1044100097B000AF8946D7F880B0FA623B62044695
:1044200058B9AA49AA4AAB484FF4667341F04CFE0A
:104430004FF46671A64841F03EFECBF3C00390F8FE
:1044400002A07B6141B9457800780AEB80002044E6
:104450004D4517D8A0EB0409E378FB61BAF1000FD2
:1044600002D01BF0010F16D1FB6953BBFB6A1BB1D5
:104470003A6A4946204698474D4628465C37BD462D
:10448000BDE8F08F461C3046FCF719F80130304487
:1044900009F10109DCE7237862687A62FA6A990017
:1044A000B96104EB8301002A40F005814D460E46B8
:1044B00001EB0A094FF000084E4550D101EB0A0606
:1044C00010E01BF0020FD1D023789A00BA61626825
:1044D0007A62FA6A04EB8301002A7BD14D4601EB34
:1044E0000A0690461BF0050F0CBF02230123FB6256
:1044F000FB6906EB430A0BF00203BB625645BCD0D6
:1045000016F8021B16F8013C54F82390724B99459B
:1045100002D3724B99453AD37B69002B44D0786A19
:1045200041F093FD00283FD06D48036813F0060F5B
:1045300013D0E9468AB06A466A4B53617B6AC2E986
:1045400006314FF400731384674B42F8103F002389
:104550004FF4125102F09CF8CD46023DCEE716F81A
:10456000013BF96254F82300FBF7A9FFD7F8843028
:10457000F96A01304BB1D7F8883098453EBFD7F87B
:10458000843023F8180008F10108054494E77B699A
:1045900023B1786A41F059FD0028C5D11BF0010F05
:1045A00005D1FB6AED1AA9E7BB6A002BA6D04846E5
:1045B000FBF785FFD7F8843053B1D7F8883098459A
:1045C0003FBFD7F88420431C22F8183008F10108B7
:1045D000054493E7BAF1000F73D01BF0040673D0C3
:1045E000D046002607F1480052463B61B9624AF0C6
:1045F000B7FEB96A3B6901EB0A02BA62FA69F96966
:104600005200FA60BA6A02EB41023A610BF0020210
:10461000BA60BA6A39698A4268D162787A621BF0F4
:10462000020F32440CBF4FEA580100211BF0010F6A
:10463000D2B240F0E4801BF0040F14BF40460020CB
:104640007B616270A070E1703A6AB969FB6A2046CA
:104650009847051EFFF611AF7B6923707B6A637074
:10466000FB69E37041463A6AFB6A84F802A007F1ED
:1046700048009847B0F10008C0F2EF80BB693A6A81
:10468000A9EB0A01C91AFB68C91AD7E90A039847B6
:104690000028C0F2E480A84408EB00054FF0000BAE
:1046A00007F1380AB345C0F0AC8000213A6AFB6AD2
:1046B00008469847E1E656464FF0000807F13800F3
:1046C00092E75646D04696E7B04694E7AD3D0500E2
:1046D000183D05000D390500E4F3040044120600FE
:1046E000DC140020C83D050004000001BA6A12F87D
:1046F000021BBA6212F8015C5A4A54F82500904233
:1047000002D3594A904218D37A693AB1786A7B60E9
:1047100041F09BFC7B6800287FF47BAFBA68002ADD
:104720004CD00F2E40D95149514A524840F24C4387
:1047300041F0CAFC40F24C417CE67A693AB1786AB1
:104740007B6041F082FC7B6800287FF462AF1BF045
:10475000010F0BD00F2E27D94449454A454840F256
:10476000424341F0B1FC40F2424163E61BF0040FCA
:104770003FF44FAFB8F10F0F09D93F493C4A3D48CC
:1047800040F2454341F0A0FC40F2454152E608F1B9
:10479000280207F1300008F1010102EB000808F8D7
:1047A000105C5FFA81F834E706F1280207F1300067
:1047B000711C161806F8205CCEB22AE7B8F10F0F6C
:1047C00009D92D492A4A2B4840F24F4341F07CFC3D
:1047D00040F24F412EE608F1280207F1300C08F1B3
:1047E0000100944407F1580252FA80F008F10208DF
:1047F0000CF8101C5FFA88F800F8105C09E700203C
:104800001EE71BF80A3087F8373054F82390D7F8A2
:104810008430FBB133F81B803A6AFB6A012107F14F
:104820003700984700281ADB0544B8F1000F06D17D
:104830004846FBF744FE00F101081FFA88F83A6A7F
:10484000FB6A414648469847002808DB05440BF1BF
:10485000010B27E7D7F88480DEE745460DE60546DD
:104860000BE600BFE4F30400441206006B3E0500B3
:10487000183D05000D3905008A3E0500014B186002
:10488000704700BF0808002080B505460E46174651
:1048900098463FF079FC03464AF09AFDDFF81890FD
:1048A000044649F80030424630463946A84754F895
:1048B000090007F005FA00BF0800000038B50D46F2
:1048C0000446202200214AF073FDEB68E361AB68E7
:1048D000A3612B6823626B6863620022A2622A696B
:1048E00023B1591E194208BF42F001022261012280
:1048F000002104F12C004AF081FA48B1054906482C
:10490000064A2F2341F0E0FB04482F2141F0D3FB5E
:1049100038BD00BFE13E05000D390500BB3E050076
:104920002DE9F04F89B0CDE90123436A00278B427E
:104930000446884605970797BA4655D300F11406F2
:104940004FF0200BEFF3118300938BF31288BFF32A
:104950006F8F3046DDF800903FF0D2FD58B94B4ADA
:104960004B494C48882341F0AFFB31464A4841F05F
:10497000ABFB882160E030463FF0E6FD079A2AB1A4
:104980003946204641F07FFC0023079306A92046C4
:1049900041F0A7FB0699414505462ED32268236ABC
:1049A00013F8221021F0030103F8221003EB820A0E
:1049B00021684246204641F0B8FBE36820609842F7
:1049C00016D0002530463FF0A9FD40B389F3118889
:1049D000BFF36F8F059929B1A2690AB120469047AC
:1049E00000230593002DADD1504609B0BDE8F08FEE
:1049F000236943F008032361E3E718B1204641F03F
:104A0000AEFBDFE7DDE90132134337D003914AF013
:104A10006CFA039990BB30463FF080FD78B91B4A91
:104A20001E491C4840F2311341F04EFB31461C48F0
:104A300041F04AFB40F23111144841F03CFB009B2D
:104A400083F31188BFF36F8FDDE9012304F12C009C
:104A50003DF0C8FB0546EFF311898BF31288BFF3D5
:104A60006F8F30463FF04CFD00283FF478AF304662
:104A7000B5FA85F53FF068FD6D09A3E707AB05AA18
:104A80002046276841F088FB05469BE7EA3E050083
:104A9000173F05000D3905002C3F0500423F05007A
:104AA000593F05002DE9F0410446C36908460E460A
:104AB000984704F114050746EFF31188202383F388
:104AC0001288BFF36F8F28463FF01AFD68B91B4A62
:104AD0001B491C48882341F0F7FA29461A4841F03F
:104AE000F3FA8821154841F0E6FA28463FF02CFDFC
:104AF000337843F00103337061683A46204641F051
:104B000014FB6060204641F0D9FB28463FF006FDCB
:104B100068B90A4A0D490B4840F2311341F0D4FA02
:104B200029460B4841F0D0FA40F23111DAE788F318
:104B30001188BFF36F8FBDE8F08100BFEA3E05002A
:104B4000173F05000D3905002C3F0500423F0500C9
:104B5000593F05002DE9F843044600F11407EFF32F
:104B60001188202383F31288BFF36F8F38463FF0FC
:104B7000C7FC054668B9354A35493648882341F0AF
:104B8000A3FA3946344841F09FFA88212F4841F072
:104B900092FA38463FF0D8FC2369A26813F0080F58
:104BA00002D163689A4200D9636A9B1A002B3FD0F6
:104BB000216A11F8223013F0030001EB82093AD088
:104BC000022803D151F82260B60805D1D8071FD4B6
:104BD000E369484698470646A1683246204641F0B8
:104BE000A4FA3146A060204641F0ADFA38463FF0C5
:104BF00095FC10BB154A1949164840F2311341F093
:104C000063FA3946164841F05FFA40F23111BDE7C8
:104C100043F0020301F822304846E369A56898474B
:104C200029460246204641F080FA0025A060DDE7D3
:104C30001D46A946DAE70546FBE788F31188BFF36E
:104C40006F8F002D8BD14846BDE8F883EA3E050002
:104C5000173F05000D3905002C3F0500423F0500B8
:104C6000593F05002DE9F0410446C36908460D4649
:104C7000984704F114060746EFF31188202383F3C5
:104C80001288BFF36F8F30463FF03AFC68B9284A6C
:104C900028492948882341F017FA3146274841F02E
:104CA00013FA8821224841F006FA30463FF04CFCC6
:104CB0002B786FF300032B7023699B0705D5E268FF
:104CC000236A03EB82039D4222D12B786FF34103C9
:104CD0002B70D4E90231994204D13A46204641F082
:104CE00024FAA0603946204641F02DFA30463FF0C4
:104CF00015FC90B90E4A12490F4840F2311341F0A9
:104D0000E3F931460F4841F0DFF940F23111C9E7CC
:104D10002B6867F39F032B60E8E788F31188BFF3E4
:104D20006F8F04F12C00BDE8F0413DF017BA00BFD1
:104D3000EA3E0500173F05000D3905002C3F050030
:104D4000423F0500593F050070B5044600F11405C7
:104D5000EFF31186202383F31288BFF36F8F284669
:104D60003FF0CEFB68B91B4A1B491C48882341F021
:104D7000ABF929461A4841F0A7F98821154841F0B6
:104D80009AF928463FF0E0FB2369A06813F0080F6A
:104D900002D16368984213D9646A241A28463FF006
:104DA000BDFB78B90B4A0F490C4840F2311341F072
:104DB0008BF929460C4841F087F940F23111DDE7C3
:104DC0001C1AEBE786F31188BFF36F8F201E18BF04
:104DD000012070BDEA3E0500173F05000D390500B2
:104DE0002C3F0500423F0500593F05002DE9F84FD3
:104DF00004460846A38B1907154612D4022803F06F
:104E0000070165D1204641F032FB88B10138042802
:104E100000F23781DFE810F05C0035018200D40039
:104E2000040101280CBF43F0100143F02001A183CD
:104E3000143420463FF072FB002840F09D819A49CF
:104E40009A4A9B4840F2311341F03EF92146B1E0C5
:104E500003F00702501F01281ED80020062A2768E9
:104E6000C4E9000014D13A4603E0E08B0130E0834E
:104E70001268002AF9D123F0070343F00202A2834B
:104E8000204641F0F4FA90B342F02002A2832EE0D3
:104E900023F007039AB2F2E7042A33D123F0070381
:104EA0009AB2A283204641F0E2FA10B142F0200209
:104EB000A283A38B03F00709894540F0EC80A18B06
:104EC000CA0640F1508121F01003A38301F00701CD
:104ED000D4F81880A38BB8F1000FB9DA0022276844
:104EE00023F00703C4E9002243F00103A383A38B4B
:104EF00003F00709894540F0CF80002FDFD000265E
:104F0000B24644E06B496C4A694840F21B1341F0D9
:104F1000DBF840F21B11684841F0CDF849B1674910
:104F2000654A63484FF4AB7341F0CEF84FF4AB7170
:104F3000F1E723684BB962495F4A5D4840F2571375
:104F400041F0C2F840F25711E5E723691E684EB9F7
:104F50005C49594A56484FF4AD7341F0B5F84FF4E7
:104F6000AD71D8E7A38B23F0070343F006039BB290
:104F7000A3830F4688464FF00609A268002A40F036
:104F80008D80002F40F08D80002E98D0BA4643F0DF
:104F9000080304F1140BA38358463FF0BFFA00281E
:104FA00040F09A804049414A414840F2311341F073
:104FB0008BF85946444841F087F840F23111ADE092
:104FC000022909D041493C4A394840F25D1341F079
:104FD0007BF840F25D119EE7E78B4FB13C49364AC2
:104FE00033484FF4AF7341F06FF84FF4AF7192E76D
:104FF00023695E684EB933492F4A2D4840F2611348
:1050000041F062F840F2611185E7A38B23F00703BA
:1050100043F004039BB2A383B8464FF00409ACE706
:10502000012909D02B49244A21484FF4B27341F099
:105030004BF84FF4B2716EE723684BB920491E4A12
:105040001B4840F2651341F03FF840F2651162E7FA
:1050500023699E684EB91B49174A15484FF4B4732B
:1050600041F032F84FF4B47155E7A38B23F00703F6
:1050700043F005039BB20027A383B8464FF0050910
:105080007BE70C490C4A0A4840F26B1341F01CF8CC
:1050900040F26B113FE7002700266EE74FF0010A50
:1050A00075E7924673E700BF423F0500EA3E050000
:1050B0000D390500969F05006E3F0500933F0500E2
:1050C0009F3F0500C23F0500593F0500D93F05003D
:1050D000EF3F0500FE3F050085F31188BFF36F8F9A
:1050E000BAF1000F1CD177BB16B126492046B04754
:1050F000EFF31185202383F31288BFF36F8F584697
:105100003FF0FEF938BB204A20492148882340F06F
:10511000DBFF59461F4840F0D7FF88211A48FBE6BD
:10512000A1680029DFD00D680029DCD0D1F804A0E7
:1051300043464A462046D0471DB12B6829461D46A6
:10514000F2E72B46FAE7394643464A4620463F688F
:1051500041F0B9F9C7E758463FF0F6F9A38B23F0C1
:105160000803A383ABE68B067FF562AE21F0200334
:10517000A38301F0070145E685F31188BFF36F8F24
:10518000BDE8F88F99510000EA3E0500173F050081
:105190000D3905002C3F0500F8B504460D4600F119
:1051A0001406EFF31187202383F31288BFF36F8F68
:1051B00030463FF0A5F968B90C4A0D490D488823DF
:1051C00040F082FF0C48314640F07EFF07488821BE
:1051D00040F071FF30463FF0B7F9A5613A462046EE
:1051E0000121BDE8F840FFF701BE00BFEA3E05001F
:1051F000173F05000D3905002C3F05002DE9F0474C
:1052000004460F4641F04FF9051E68DB04F114090E
:10521000EFF3118A202383F31288BFF36F8F484680
:105220003FF06EF9804660B9384A394939488823D9
:1052300040F04AFF4946384840F046FF882133484D
:1052400042E048463FF080F9E38BA68B4FF6FF72B1
:10525000934206F0070645D0022E15D10133E383B1
:10526000354648463FF05AF9002841D1274A2B4994
:10527000284840F2311340F027FF4946284840F0C3
:1052800023FF40F23111DAE7062E13D8DFE806F0EB
:10529000092D1212090409006FF085054FF000086E
:1052A000DFE700233B60636883B9C4E9007786B118
:1052B0003546F3E71B4917481B4A4FF4E47340F0A7
:1052C00003FF19484FF4E47140F0F5FE1F6067607A
:1052D000EDE7524602212046FFF788FD3546284675
:1052E000BDE8F0876FF00A05D8E76FF00405D5E751
:1052F0008AF31188BFF36F8FB8F1000FEFD000234E
:1053000032463946204641F0DEF8E8E7EA3E05003D
:10531000173F05000D3905002C3F0500423F0500F1
:10532000593F0500FE3F05006E3F0500F8B50546F4
:1053300000F11406EFF31187202383F31288BFF3E3
:105340006F8F30463FF0DCF860B9264A264927487F
:10535000882340F0B9FE3146254840F0B5FE88214B
:1053600020482BE030463FF0EFF8AC8B04F0070408
:10537000022C17D0012C0CBF6FF004046FF08504D1
:1053800030463FF0CBF838BB164A1A49174840F26E
:10539000311340F099FE3146174840F095FE40F237
:1053A0003111DDE7EB8B5BB914491048144A40F228
:1053B000EF1340F089FE124840F2EF1140F07BFEFF
:1053C000013B9BB2EB83002BDAD13A4621462846BB
:1053D000FFF70CFD2046F8BD87F31188BFF36F8FF0
:1053E000F8E700BFEA3E0500173F05000D3905004C
:1053F0002C3F0500423F0500593F050014400500C1
:105400006E3F05002DE9F0410F460546002850D0BB
:1054100000294ED000F11406EFF31188202383F306
:105420001288BFF36F8F30463FF06AF860B9224AA6
:1054300022492348882340F047FE3146214840F066
:1054400043FE88211C4817E030463FF07DF839467E
:105450002846AC8B40F0F0FF80B104F00704231F16
:10546000022B0DD918491648184A40F22D2340F056
:105470002BFE164840F22D2140F01DFE6FF0770400
:1054800030463FF04BF868B90B4A11490C4840F2DE
:10549000311340F019FE31460E4840F015FE40F23F
:1054A0003111CFE788F31188BFF36F8F2046BDE835
:1054B000F0816FF01504F9E7EA3E0500173F05009B
:1054C0000D3905002C3F0500224005006E3F050008
:1054D000423F0500593F050008B54268816002F06F
:1054E0000302022A03460AD0032A4FF0000103D028
:1054F000012A0AD1596006E01868596008BD186889
:1055000000225A6058B90020F8E706490648074AC1
:10551000452340F0D9FD0548452140F0CCFD40F041
:105520003BF8F0E7969F05000D390500994005000E
:105530002DE9F34180460E46154600272A4601A96B
:10554000404640F0FDFF314604460246019849F0CE
:1055500007FF2D1B2744264401D0002CEED13946ED
:10556000404641F00CF848B106490748074A49232C
:1055700040F0AAFD0548492140F09DFD384602B0A3
:10558000BDE8F081E13E05000D390500BF40050092
:105590002DE9F34180460D4616460027324601A903
:1055A000404641F001F804462DB1024601992846D3
:1055B00049F0D6FE2544361B274401D0002CEDD1FE
:1055C0003946404641F010F848B107490748084AB3
:1055D0008E2340F079FD06488E2140F06CFD384660
:1055E00002B0BDE8F08100BFE13E05000D390500C5
:1055F000BF4005002DE9F7430F4606460821C06A63
:10560000DFF8509041F070F83C68241A80463C6006
:1056100004EA0905AC4203D8002003B0BDE8F083DA
:1056200008236A462146304640F0F4FF0028F4D1B2
:105630006946304641F062F840B1BDF80230BDF82D
:1056400004203C6005EA090513441D44A4EB08044A
:10565000E0E700BF0000FFFF73B504460821C06A01
:10566000124E41F041F84FF6FF726368ADF800202A
:105670008DF80620A289191833401344181A002502
:1056800060606846ADF80210ADF8045041F023F8B0
:105690006946204641F0F2F82046211D40F0F3FF14
:1056A000636828463340A36002B070BD0000FFFF6E
:1056B0002DE9F04704468AB000F11407384649F056
:1056C00064FBA06A8368DB689847E06250B99F4832
:1056D00003685D0703D09E4A012140F0E1FF6FF0AF
:1056E00015054EE0A06A8368DB6898470368013BB4
:1056F0001F2B05D9954803685C07F0D0954AEBE766
:10570000A06A216807AA48F0FBFF28B18F48036808
:105710005907E4D0904ADFE7A5892DB1089BB5FB76
:10572000F3F203FB12552DB1884803685A07D6D00F
:105730008A4AD1E7E389012B05D8844803685B07CF
:10574000CDD0874AC8E7E36A029593F805904FF0F9
:10575000FF334FF0FF3238463CF05CFAE06A082134
:1057600040F0C2FFA8460646E3891FFA85FA534572
:105770000BD8E389434526D138463CF01BFB6FF03C
:105780002C0528460AB0BDE8F087A1892B04891BA7
:1057900013FA81F14A4608232046029140F048FF5F
:1057A00078B102A9204640F06EFF08F10108029985
:1057B00008234A4620461FFA88F840F039FF00289F
:1057C000D7D00135D0E753450BD1029908234A467B
:1057D000891B204640F02CFF18B902A9204640F052
:1057E00052FF02A92046FFF705FF054618B13846CB
:1057F0003CF0E0FAC5E7029B63604FEA13484FEACA
:105800000848C4F80880D4E9011399420FD308234B
:1058100003AA204640F0FEFE05460028E7D103AB70
:1058200013F8012B91453FD10135082DF8D163685C
:105830001B0C1B0402A92046029340F024FFA389FD
:1058400002994A46204640F0F3FE051ECFDB63680E
:1058500000F09C8003EB06084FF6FF79A389CDF892
:1058600008801FFA88F29B1B9A4239D300223748DE
:10587000036803F00703002A4CD0022B03D9394AEE
:10588000032140F00DFF63681B0C1B0402A9204696
:10589000029340F0F8FE0299204640F003FF0546CF
:1058A000002D00F09180A2E703A9204640F026FFDA
:1058B000626810B9921B6260A5E7BDF81050BDF890
:1058C0000E10E06AC4F80880294440F00DFF4044FF
:1058D0009042A060EED1002DECD06FF01C05AEE040
:1058E000082305AA4146204640F094FE05460028BC
:1058F0007FF47DAF05A9204640F000FF30B1BDF830
:1059000014304B4502D1BDF818300BB1B044A5E7B7
:105910000122ACE7022B03D9134A032140F0C0FE59
:105920006168204640F0BEFE054600287FF45FAF68
:1059300063680E4AA18913400B44A3EB46036360DE
:105940001340A360204640F0C1FFA8E7EC140020FC
:10595000FE400500204105003D4105005541050080
:10596000694105008C410500A14105000000FFFFD1
:105970005B1A4A46204640F05BFE051EFFF637AF35
:1059800008D0E26AA36812681344A360D4E9013125
:105990008B42EDD86168A38901EB46029A427FF4FD
:1059A0007FAFDFF8A880A26801EA08039A423FF4BB
:1059B00077AF204640F076FE054600287FF417AF0B
:1059C000636803EA0803A360A389A288A3EB4603E4
:1059D0009A4230D038463CF0EDF91D4D0123237436
:1059E0002B6803F00703022B23D9E389A289032143
:1059F00000922846174A41F0FFF82B6803F007038E
:105A0000022B16D963689AB200921B0C124A03212A
:105A1000284641F0F1F82B6803F00703022B08D960
:105A2000A3689AB200921B0C0C4A0321284641F04D
:105A3000E3F80025A5E6204640F031FF054638464C
:105A40003CF0B8F9002DC8D09BE600BF0000FFFF76
:105A5000EC140020C8410500DF410500F1410500BC
:105A60002DE9F04F1D4691B0037C0291044600924F
:105A70006BB9664803685B0703D0654A012140F0B3
:105A80000FFE6FF00C06304611B0BDE8F08FC26A11
:105A90000821104640F028FE29460190104640F0AB
:105AA00023FEA389019AA3EB8203AB420746C0F011
:105AB000A9801DB1009B002B00F0A48063680593B2
:105AC00006AA05A92046DDF814A040F054FE0646BB
:105AD0000028D8D1BDF81830029A934206D06268E7
