:1000000040B500202DB70000C98F040019B70000CB
:1000100019B7000019B7000019B700000000000070
:100020000000000000000000000000004DB80000CB
:1000300019B700000000000019B8000019B700004F
:1000400051BA0000617D030051BA000051BA0000AE
:1000500051BA000051BA000051BA000051BA000074
:1000600051BA000051BA000051BA000051BA000064
:1000700051BA000051BA000051BA000051BA000054
:1000800051BA000051BA000051BA000051BA000044
:1000900051BA000051BA000051BA000051BA000034
:1000A00051BA000051BA000051BA000051BA000024
:1000B00051BA000051BA000051BA000051BA000014
:1000C00051BA000051BA000051BA000051BA000004
:1000D00051BA000051BA000051BA000051BA0000F4
:1000E00051BA000051BA000051BA000051BA0000E4
:1000F00051BA000051BA000051BA000051BA0000D4
:100100007BB972B90029BEBF00204FF0004106E064
:1001100008BF00281CBF6FF000414FF0FF3000F017
:1001200057B8ADF1080C6DE904CE002909DB002BAE
:100130001ADB00F062F8DDF804E0DDE9022304B028
:100140007047404261EB4101002B1BDB00F055F88A
:10015000DDF804E0DDE9022304B0404261EB410137
:10016000524263EB43037047524263EB430300F098
:1001700044F8DDF804E0DDE9022304B0404261EB1D
:1001800041017047524263EB430300F036F8DDF85B
:1001900004E0DDE9022304B0524263EB43037047FD
:1001A00053B94AB9002908BF00281CBF4FF0FF31DE
:1001B0004FF0FF3000F00CB8ADF1080C6DE904CE43
:1001C00000F01BF8DDF804E0DDE9022304B070471D
:1001D000704700BF430803F05533C01A00F03333B3
:1001E000800800F03330184400EB10104FF001335A
:1001F00000F00F305843000E70472DE9F047864657
:100200008C460846089E154674461946002B40F059
:10021000C2808542B2FA82F245D94AB1C2F12003C6
:1002200000FA02FC2EFA03F3954043EA0C0C9440CA
:100230004FEA154EA8B2BCFBFEF8230C0EFB18CCFF
:1002400008FB00F943EA0C43994528D9EB1808F15B
:10025000FF3704D2994502D9A8F102072B44A3EB3A
:100260000903A4B2B3FBFEFC0EFB1C330CFB00F035
:1002700044EA0344A04214D92C190CF1FF3304D2F0
:10028000A04202D9ACF102032C44241A43EA0740ED
:100290001EB1D440002334607360BDE8F087474648
:1002A000DDE76346F1E792BB431B01214FEA154EA0
:1002B000AFB2B3FBFEFC200C0EFB1C330CFB07F8AB
:1002C00040EA0343984562D9EB180CF1FF3004D2A1
:1002D000984502D9ACF102002B44A3EB0803A4B269
:1002E000B3FBFEFC0EFB1C330CFB07F744EA034494
:1002F000A7424ED92C190CF1FF3304D2A74202D9E0
:10030000ACF102032C44E41B43EA0040C0E7C2F115
:10031000200320FA03F1954090402EFA03F30343A3
:100320004FEA154EAFB2B1FBFEFC0EFB1C10190CD0
:100330000CFB07F841EA0041884504FA02F422D98F
:1003400069180CF1FF3004D2884502D9ACF10200E3
:100350002944A1EB08019BB2B1FBFEFC0EFB1C1172
:100360000CFB07F743EA01439F420ED9EB180CF14F
:10037000FF3104D29F4202D9ACF102012B44DB1BB6
:1003800041EA004192E76046E3E76146F7E76046ED
:10039000A3E76346B7E7834206D916B900210846AA
:1003A0007BE7C6E900E0F9E7B3FA83F78FB9834248
:1003B00001D3724508D8BEEB020460EB03030120B1
:1003C0009C461EB9002168E73846FAE7C6E9004CAA
:1003D000F8E7C7F1200CBB4022FA0CF41C432EFABC
:1003E0000CF120FA0CF3B84001434FEA14490EFA1D
:1003F00007F5B3FBF9F81FFA84FE09FB18300B0C64
:1004000008FB0EFA43EA00439A4502FA07F240D984
:10041000E31808F1FF3004D29A4502D9A8F102008E
:100420002344A3EB0A0389B2B3FBF9F809FB1833A1
:1004300008FB0EFE41EA03418E452CD9611808F1F4
:10044000FF3304D28E4502D9A8F10203214443EAC6
:100450000040A0FB0298A1EB0E014145CE46434669
:1004600002D306D14D4504D2B9EB020E68EB04036A
:100470000138002EA6D0B5EB0E0261EB030101FAA4
:100480000CFC22FA07F34CEA0303F940C6E90031F9
:1004900098E74046C5E74346D9E710F8012B11F825
:1004A000013B012A28BF9A42F7D0D01A7047034671
:1004B00011F8012B03F8012B002AF9D170470346EC
:1004C00013F8012B002AFBD1181A013870470000DD
:1004D0002DE9F047064688B00F4690464EF0FCF8EE
:1004E0004FF47A73A0FB034503FB0155E40B012F86
:1004F00044EA45444FEAD53507D1294922462B46DF
:10050000304646F084FB002012E0D8F804702548FD
:100510003946FFF7C2FF70B123483946FFF7BDFFE8
:1005200048B1304621493A4646F08DFB6FF0040051
:1005300008B0BDE8F0872046294617A3D3E9002379
:10054000FFF7DEFD05460C4610461946184A002303
:10055000FFF7D6FD80460F46104619464EF660223C
:100560000023FFF7CDFD82468946104619464FF419
:100570007A720023FFF7C4FDCDE902A9CDE9062375
:10058000CDE90401CDE900870A492A4623463046D1
:1005900046F03DFBB7E700BF005C26050000000009
:1005A000493A05005A3A05005D3A0500663A0500E9
:1005B00080EE36007E3A05002DE9F843D0E9063892
:1005C000456903EB08042F34A5420F46164619D897
:1005D000DFF86C80A3FB080117A3D3E90023FFF722
:1005E000DFFD0346601BA0FB080123F07F4412A33C
:1005F000D3E90023FFF7D4FD20F07F403C6030605A
:10060000BDE8F883DFF838900BA3D3E90023A5FBFE
:100610000901FFF7C5FD20F07F440A480A2106A31F
:10062000D3E90023E8FB0901FFF7BAFD20F07F4082
:100630003C603060BDE8F8838D49FD1A070000007A
:1006400000CA9A3B00166BF12DE9F04F8DB09A4627
:10065000179C9DF85890636C05460E46904653B122
:10066000B4F87E301BB1B4F87C209A4278D2D4F82A
:100670008020002A77D14FF6FF739A4520D0277843
:100680000137FFB22770002F78D06F496F4BC1F848
:10069000048004F11C000022C86081F80A900D60FB
:1006A000A1F808A09960012011462BF067FD0028F1
:1006B00073D1636CC4F8885013B1204632F060FCEB
:1006C00094F8245015F001054AD1614A614B117824
:1006D0001B788B4277D04FF6FF739A45D4F8808011
:1006E000B4F87C9015BF0AF101074FF0000ABFB2C1
:1006F0005746B8F1000F30D0B9F1000F2DD0226F5E
:100700000AF1010A40F271211FFA8AF301FB02FA91
:10071000514A4FF0070BA6FB02010AFB03F30993B2
:100720000BFB061146A3D3E90023FFF739FD099B14
:10073000494A1E18A5FB02010BFB051140A3D3E992
:100740000023FFF72DFD50443044804586BFA8EBC1
:100750000606C4F88060C4F880A04F44A4F87C70FA
:100760000DB0BDE8F08F216F40F27123A1FB0313A0
:10077000914273F10003FFF47EAFF1E7374A384945
:10078000384840F6491345F093F887F31188BFF3D2
:100790006F8F0323184602DF77E7304A324931482A
:1007A00040F66B1345F084F8002383F31188BFF300
:1007B0006F8F0323184602DF636CC4F88850002B48
:1007C0007FF47BAF7CE7013304210BA8137037F073
:1007D0001BFE0B9B25490694A1FB0321244A00958F
:1007E000581A01EB5001A21A22489208A0FB0202FB
:1007F000090A40F24710D20800FB113302321E49A9
:1008000005910133CDE90355CDE90155D2B201215E
:1008100028460B932CF0C6FF10F0FD0F0DD00F4AA9
:100820001649104840F2BA7345F042F885F3118832
:10083000BFF36F8F0323184602DF0B9D4BE700BF0A
:1008400000CA9A3B000000005C5E0020940F00206C
:10085000DA770020D97700208D49FD1A441505006C
:1008600064160500781005000812050021F1D490E7
:10087000885E00203BA8833AE91103006816050052
:10088000002900F0B6802DE9F04F8FB0002840F02D
:10089000A780BB4C1D4694F88430DF07164600F154
:1008A0007D8194F8352094F8293004EB820204EB22
:1008B0008303976BD3F82C90002F79D039464846A4
:1008C00030F056FE002840F0918099F8003013F087
:1008D0000E0F40F09080236A002B40F086802EF0AF
:1008E0008DF88246002800F0C1812EF093F88346EF
:1008F000002800F0B88133F02BFB8046002800F080
:10090000AF81806E4FF6FF73A8F8283008F11C0302
:10091000002800F0CE8108F15C0208F158010B9329
:100920002BF0A8FB98F8392002F03F0262F07F021A
:1009300088F8392098F86E2022F0070288F86E2097
:1009400098F83C2022F00702062188F83C2000227B
:10095000C8E91222C8F86820A8F86C20A8F832204C
:10096000C8F82E2088F83B20C8F85020A8F8262187
:10097000A8F82211404634F027FA002288F8F02027
:10098000C8F8F4A008F1700034F044F800220B9B82
:100990002362C4E91AABC8E9052288F80020C8F828
:1009A0001C8038F071F858B330F036FE03201DE09B
:1009B00099F8003003F00F03072B16D004F1340030
:1009C00038F0F8F9C0B2002840F0508194F8353082
:1009D00004EB83039F6B04233B7006237B706DE75E
:1009E0002FF08CFA002800F0C2800C200FB0BDE878
:1009F000F08F30F055BE03F00F03072B00F0648139
:100A00002FF07CFA002840F03381206400252E4628
:100A100094F8242094F82530A4F87E50C2F34202C2
:100A2000012100250DF13300C4F880608DF83320DA
:100A3000C3F38206A4F87C502BF0B8FC02460028D1
:100A400000F0078133463946484630F0EFFE4D4905
:100A50004D4B2570A0FB0101C0184FF0310341F14F
:100A60000701A360C4E9055543A3D3E900236560EA
:100A7000E560FFF795FBB4F8706020612CF0D8FFBB
:100A800000F10E07002E00F00A8194F8243065F37F
:100A9000000384F82430DB07256900F11B81D4F8BA
:100AA0004480B8F1000F00F0A780D8F80080AB1C9C
:100AB0003B440DA940460D9300F0CEF9236F94F806
:100AC0007B2040F271218146A3FB0131002A40F0D6
:100AD000378142F6DC32981841F1000140F2E242DF
:100AE0000023FFF75DFB80B2A8F83C004A460D9951
:100AF000404600F0F9F98146002840F0AA800DAB8D
:100B000008930290214B2248049505F2471506945C
:100B100091211D600993A6FB000301FB06311D4BCB
:100B200007931D4B05934FF6FF730225039312A302
:100B3000D3E900230D95FFF733FB032101903B46DA
:100B40002A46CDF8009048462CF0CCFD0DA92EF099
:100B500019F800287DD198F84E3043F0010388F849
:100B60004E3094F8843043F0010384F88430002040
:100B70000FB0BDE8F08F00BF8D49FD1A07000000DF
:100B8000885E002000CA9A3B8C49FD1A7C5E0020DA
:100B9000002AE784D1DB0200490600002FF0AEF9FD
:100BA0000028E4D094F88430D8077FF51EAF94F87D
:100BB000352094F8293004EB820204EB8303916B17
:100BC000D86A30F0D5FC00287FF410AF236C002BDE
:100BD0003FF40BAF1A7902F0FF014AB942F21072EA
:100BE00006FB02F2A4F87C10A4F87E50C4F8802022
:100BF0001B79002BBBD0F8E65F4B6048049505F2EB
:100C000047150694CDF8088091211D600993A6FB35
:100C1000000301FB06315A4B07935A4B05934FF6DD
:100C2000FF7302260DAD039351A3D3E900230D9664
:100C30000895FFF7B5FA032101903B463246CDF8FF
:100C4000008040462CF04EFD29462DF09BFF0028E9
:100C500087D0236A002B3FF4C8AE30F0DDFCC4E639
:100C600058462DF0DDFE50462DF0CEFE0720BDE6A5
:100C70002DF0C4FE804608B32DF0CCFE00286CD0C9
:100C80000023C0F80080037194F824302064DA0750
:100C90003FF5BCAE42F2107303FB06F6B8E699F8D6
:100CA000005005F00F05A5F10105B5FA85F56D09B0
:100CB000EBE608F16000C8F868002CE6236A002B18
:100CC000D4D030F0A9FCD1E799F8023059067FF56D
:100CD00097AE00E6284B099300200DAA1860022663
:100CE000049501950892264D264A05920321CDE9E7
:100CF000020006943B460090079532460D962CF074
:100D0000F1FC0DA92DF03EFF0028A2D10DAA1E492D
:100D100008924AF2D83200920591CDE903000321EE
:100D2000CDE9010007953B46069401220D962CF073
:100D3000BDFC0DA92DF026FF00283FF412AF88E777
:100D400002FB01110132A2FB0303194440F2E2420B
:100D50000023FFF725FA80B2C6E6236A0BB130F014
:100D60005BFC40462DF050FE80E700BFAFF30080F3
:100D70008D49FD1A070000007C5E0020002AE784F0
:100D8000D1DB0200490600004D1003000000000006
:100D9000F0B590F8243090F825708BB0C3F342037F
:100DA0000D46044601210DF1230016468DF823302F
:100DB0002BF0FCFAC7F3820702463B463146284631
:100DC00030F034FD1E491F4AA0FB0131981841F153
:100DD000070119A3D3E90023FFF7E2F92369984239
:100DE000054622D21B1A00220192174A02930221C1
:100DF000164B0991A21ACA40A3FB0232D208002363
:100E00000A4409AE12490591CDE903330321D2B258
:100E10000696009318462CF0C5FC31462DF0B2FE24
:100E200038B9256100200BB0F0BDFBD9C21A0023F0
:100E3000DAE70C200BB0F0BD8D49FD1A0700000069
:100E400000CA9A3B8C49FD1A885E00203BA8833A71
:100E5000D1DB0200000000002DE9F04182B0044621
:100E60001F4E204F884631F0BFFA072500236360EC
:100E7000E36029463346E0FB07313122A260184681
:100E800015A3D3E90023FFF78BF994F8313020F054
:100E90007F4004EB83032061596B5F231A46204691
:100EA00031F062FA2946E0FB07610BA3D3E9002386
:100EB0003046FFF775F901A920F07F4036F096FC27
:100EC00018B9019B0233C8F80030002002B0BDE819
:100ED000F08100BFAFF300808D49FD1A07000000CC
:100EE0008C49FD1A00CA9A3B2DE9F04700268CB0C8
:100EF0008846C0E905662049067017465022044618
:100F00002BF098F80546A08F1C4940F2E24202FB04
:100F100000F002230B93A0FB010115A3D3E90023EA
:100F2000FFF73EF90DF12C0ACDF820A006941946E2
:100F300023691F44124B0793124B059381460023EC
:100F400010464FF47A72CDE90367FFF729F90335AC
:100F5000EDB2CDE9019043462A4600963046032182
:100F60002CF0A4FB51462DF00DFE0CB0BDE8F0872F
:100F70008D49FD1A07000000585F002000CA9A3B07
:100F8000D1DB0200252403002DE9F04FA3B00D466C
:100F90001E4640F201232C991092AB432D9A0D91DD
:100FA00004460E9200F0918194F8293004EB8303FB
:100FB00005F4007BD3F82CA09AF8007007F00F0717
:100FC000072F10D0BBF1000F04D10C27384623B0F7
:100FD000BDE8F08FD6F801203178204623B0BDE877
:100FE000F04F31F0CBB89AF802200AF1040112F068
:100FF0003F0318BF9AF803300B91BBF1000F02D0EA
:101000007F2A00F284810D99099304F1280037F0BA
:1010100087FF9AF800100278034601F00F0122F0D2
:101020003F020A4303F8022B81469AF8022099F8FE
:1010300002101493920962F3871189F80210616C0F
:10104000099B04F11C004FF00008002900F0C98240
:101050004A7D01EB820290690A681592C2780C9071
:101060000230139002F00100129001F114000E9969
:101070001192099337F054FF804699F8000098F8D0
:1010800000100C9B00F00F0021F03F01014388F895
:101090000010197898F80000C1F3801161F38610F0
:1010A00088F800001978C0B2C90961F3C71088F840
:1010B000000099F8021098F802004FF00103890926
:1010C0008DF82830099B61F3871015F001020F920B
:1010D00088F80200119A03F0010140F0068100290E
:1010E00000F04B819AF8001098F800C00F98C1F3F7
:1010F000801161F3861C88F800C099F8001060F335
:10110000861189F800100AF10A010B911299002941
:1011100040F048810C990431099102F002011F91BD
:10112000990740F109810B9998F8000006310B915D
:101130009AF80010C90961F3C710414601F8100B75
:101140004FF003008DF8280099F800006FF3C710E6
:1011500089F8000002F0020010B1099806300990E9
:1011600013F00800199002D00B9802300B90881CE5
:101170000F9015F0080000F0DD8002203070D6F8E6
:1011800001001890C6F8011005360A9840F0080CC6
:1011900012F008008DF828C01A9002D00998023089
:1011A000099013F010001B9002D00B9803300B90A5
:1011B0004FF018008DF85C0009F10900119002F061
:1011C00010001C90E80640F1A480881CC6F80100BD
:1011D0004CF010000A9003203070053602F0100029
:1011E000002800F0A38000201D900998033009908A
:1011F0000A98C00644BF05310F91590610D50B9BC4
:1012000001330B9394F8253003F01C03102B00F0EE
:1012100009824FF058038DF85C3009F10A031193ED
:10122000530606D5099B013309930A9B43F04003FB
:101230000A939DF82830DAB213F0400316921E93F9
:1012400002D00F9B01330F93119B149A9B1ADBB2B0
:10125000022B03D809F1030311930123099A13996F
:10126000501AC0B2022803D80C9A03320992012006
:101270000C9A92F801C08445C0F07C810F9908F166
:1012800002028A1AD2B2022A03D808F103020F928C
:101290000122BBF1000F00F08980099DD6F80110F2
:1012A000C6F80150ACEB00003578C0B230708B4608
:1012B0000536002D40F06C81002940F08D810999A0
:1012C000CDF840B00546DC467EE0B84AB849B9489A
:1012D00040F2F45344F0ECFA002383F31188BFF397
:1012E0006F8F0323184602DF5EE616F801EB98F8CD
:1012F00000C06EF3861C88F800C099F800C06FF338
:10130000861C89F800C000293FF400AFFBE61227D5
:101310005CE61098C0063FF561AF02F0100028B1FE
:101320004CF010000A9009981D905EE702F0100042
:101330001D905DE7189028E70F9808F10A01002832
:101340007FF402AF02F00200002800F027810C9920
:1013500098F800C00978C90961F3C71C41464FF0ED
:10136000030001F810CB8DF8280099F800C00F9801
:1013700060F3C71C89F800C0EFE61299002900F05D
:10138000F9800C9998F800C009780F98C1F3801182
:1013900061F3861C88F800C099F8001060F386118C
:1013A00089F800100C990A310991B6E66D0500F133
:1013B000E3801099890500F10D81ACEB00050999D6
:1013C000CDF840B0DC46EDB205EB0C0EBEF11F0FC0
:1013D00028463FF7FBAD104460445F2800F3EC80E3
:1013E00099F8020089F80130013B63F3050089F8A0
:1013F000020098F802300F9E501E60F3050388F833
:1014000002300BEB05031A4488F8012030462A46C7
:101410004DF022FB109B23B15A46194670194DF02E
:101420000DFB98F802309F0600F0A280179B5E0625
:1014300040F1FD800B9A119912F8013C01F8013C32
:10144000531E0B934B1E11931B9B13B10B9B033B22
:101450000B93119E94F8253016F8032C6FF30502B8
:1014600006F8032C5D0937F05FFB32288CBF0020A3
:10147000012095FAA5F3002DB3FA83F308BF4FF0CE
:10148000FF335B0106F8013C16F8033C60F386135A
:101490006FF3C71306F8033C002306F8023C1C9BBD
:1014A00013B1099B033B0993169BDD0602D50F9BE5
:1014B000033B0F931D9B23B10F98194603224DF058
:1014C000CBFA199B13B10B9B023B0B931A9B13B1E5
:1014D000099B023B0993189B002B00F0FD80189A92
:1014E000537812781B0203F470631A431198D1B237
:1014F00000F8051C94F87A30C3F303031B0103EBD7
:10150000122300F8043C0F9800F8021C94F87A307B
:10151000C3F303031B0103EB122300F8013C169BEA
:101520009C0700F19380821E169BD8070BD5129B57
:10153000002B00F0E880099B063B196842F8061C66
:101540009B8822F8023C99F8023099061CBF9DF84E
:101550005C3089F8033098F802309A061CBF9DF879
:10156000283088F80330159B93F84E30DB077DD484
:1015700000272BE51F2729E596F800B0D6F80110C3
:101580001091ACEB00000999C5B20536DC461BE7AB
:101590004FF0000CE346CDF840C015E799F800C0C5
:1015A0000F9860F3C71C89F800C0D9E54C170500F7
:1015B000C017050078100500A2F15F035B442B44BF
:1015C000CA45337000F09A800C9B984500F09180DA
:1015D0004527FBE45D465946AB461095AC46284688
:1015E000F9E631F0ABFA099B1590002800F09780DE
:1015F000DDF854E0CDF848809EF831200EEB8202F1
:101600000121506B0C9084461CF8022BCDF84CC085
:1016100002F03F024170027080F803800EF11C015D
:10162000424622E50A9B43F040030A93F8E51E9BDD
:10163000002B3FF409AF099A0F9912F8013C01F809
:10164000013C531E09934B1E0F93FDE61F9B002B7D
:101650005CD0099B063B09930F991A6841F8082C46
:101660009B8821F8043CA1F108025DE7159C204607
:1016700030F0BAFE364A374B0721E0FB02311846FC
:1016800031A3D3E90023FEF78BFD256920F07F44C9
:10169000AC423FD22E1B0025159F2F49022350221A
:1016A000384621932AF0C6FC00232C490195C21C20
:1016B00021AD0591CDE9033303210296D2B2009307
:1016C000184606952CF06EF829462DF05BFA002896
:1016D0007FF47BAC3C614BE794F87A30204903F00F
:1016E0000F0331F81320501C21F81300C2F30B0232
:1016F000FCE60E9A636C12785A7569E70D9B1B78AD
:1017000084F8293060E70B9B063B16E70B9B063BF2
:101710000B93A1E77FF62CAF651B0026BCE7CA45FB
:101720007FF454AC0F4A1049104840F2276344F04C
:10173000BFF8159B83F31188BFF36F8F03231846FF
:1017400002DF43E4AFF300808D49FD1A070000007B
:1017500000CA9A3B8C49FD1A585F0020D1DB020079
:10176000345F00204C1705001018050078100500A4
:1017700070B590F803C01CF0010F14BF00F10A040B
:10178000041D1B481CF0020F15461E464FF00702B1
:10179000A1FB000318BF063402FB01311CF0080F47
:1017A00011A3D3E9002318BF0234FEF7F9FCAD1BE7
:1017B00010492844A1FB00310D09490C04D00E4BFF
:1017C000A3FB003001214509A2782078657022F042
:1017D0001F02C5F3042361F3C71013432070A370E5
:1017E000204670BDAFF3008000CA9A3B00000000A5
:1017F0008D49FD1A89888888B5814E1B000000003C
:101800002DE9F04FD0F844B0A949DBF80030DFF8FB
:10181000A4A291B0044608905022184609932AF0D9
:1018200009FCFF23D4F888508DF82F30C61C002304
:10183000F6B20D950C9301240DF13C090DF1380819
:101840000CAF0CE00D9BAB4202D06CB3013CE4B298
:101850009DF82F30FF2B3BD09E424CD00D9D002099
:101860000221CDE905A9CDE90078CDE90300029078
:101870000DAB0DF12F020F912CF076F8022800F03D
:10188000EF800F9B002BDDD08B4A8C498C4840F6B3
:101890008E4344F00DF8002383F31188BFF36F8F5C
:1018A0000323184602DFCDE78649834A844840F681
:1018B000974343F0FDFF84F31188BFF36F8F032339
:1018C000184602DF9DF82F30FF2B4FF0FF04C3D1E5
:1018D0007D49794A7A4840F6994343F0E9FF00236D
:1018E00083F31188BFF36F8F0323184602DF9DF83F
:1018F0002F309E42B2D10E9C744A0C9EA4F57423E4
:10190000A3F51073934207D904F1E874013E04F57E
:10191000D4340C9604F5A5746D4BCBF80C60A3FB86
:101920000434A40C089BCBF8104093F8282093F8BB
:1019300029100E948A42D3B204D00133DBB2022BB9
:1019400008BF0023089A634D92F82570BBF80890F1
:1019500002EB8303A6FB0501D3F82CA04FF0070888
:101960004FA3D3E9002308FB0611FEF719FCC7F3C8
:1019700082079AF8011007F003030B445649221816
:101980000933A1FB0201DB00C7F34007FB4021F054
:101990000F0003F59673A0EB1111B3EB410F21D9A2
:1019A000099B4E489B8F40F2E24101FB0324A4FBBC
:1019B00000013DA3D3E90023FEF7F2FB20F07F46B0
:1019C000A6FB050136A3D3E90023CBF80C6008FB86
:1019D0000611FEF7E5FB09F10109241ACBF81040C6
:1019E0001FFA89F92246314600235046FFF7C0FE10
:1019F000DBF80C300999099D0133CBF80C3091F8D4
:101A00004D2091F84C30934202EB420305EB430327
:101A100018BF81F84C2093F84530062101FB025293
:101A20004032E98F044603F03F03484635F0ECFFAF
:101A3000237860F3050323702BF0FAFF0D992BF048
:101A4000F9FF089BD3E90121DB6891422CBFC3EB6E
:101A50000103C3EB020398420ED211B0BDE8F08F30
:101A60000F9B022B7FF40DAF022100202BF0C8FF4B
:101A70000F9B022BF8D004E70F4A1949104840F693
:101A8000E54343F015FF002383F31188BFF36F8F05
:101A90000323184602DF11B0BDE8F08FAFF30080DA
:101AA00000CA9A3B000000008D49FD1A07000000A3
:101AB000585F0020212403004C170500341805004E
:101AC000781005003C1805006C180500BFBDF07FBC
:101AD00083DE1B438D49FD1A8988888800CA9A3B9A
:101AE000901805000000000070B5234C9DF810E030
:101AF00094F846C01CF0020F36D1460816F00405D3
:101B000032D149B363F3830C400194F82030A186AD
:101B10004FEACE0E0EF0180E00F0200040EA0E0044
:101B200023F03803184394F82C3084F8200013482D
:101B300084F846C066F3020384F82C309121A2FB9E
:101B4000000301FB02310AA3D3E90023FEF728FBBF
:101B5000C4E90E00284670BD94F82C3065F30203EA
:101B600084F82C30284670BD0C25284670BD00BF77
:101B70008D49FD1A0700000020380020002AE78464
:101B80002DE9F04390F8463090F82020484D6FF34F
:101B90000003044600F12D01C3F3800060F38612B8
:101BA0008DB084F8463084F820202BF095FF94F80F
:101BB0002020A38E3F48E46102F07902002784F8D8
:101BC00020209121A3FB0002C4E90577277001FBC7
:101BD000032135A3D3E90023FEF7E2FA3123E26BB8
:101BE000A360354B6760651BA3FB053502F10E034F
:101BF0009842C5F3071598BF3A4605EB450898BFCC
:101C0000134606464FEA8808E7602C4FA2638CBF54
:101C100019463146236147F808102BF009FF474465
:101C20000DF12C090997CDF820900694A38E00F1B0
:101C30000E0820480027A3FB00020397912101FB17
:101C40000321236904931E4B07931E4B0593022324
:101C50000B9315A3D3E90023FEF7A2FA1046194609
:101C60004FF47A720023FEF79BFA0535EDB2CDE909
:101C70000160032143462A46009738462BF032FD87
:101C800049462CF07FFF40B994F8463043F00203F8
:101C900084F846300DB0BDE8F0830C200DB0BDE8EF
:101CA000F08300BFAFF300808D49FD1A07000000EC
:101CB00020380020002AE784398EE338D05F0020E6
:101CC000D1DB0200D12F03002DE9F04F0B79062B59
:101CD0008FB00C46064614D0092B00F09C80A64A13
:101CE000A649A7484FF4A37343F0E2FD002383F312
:101CF0001188BFF36F8F0323184602DF0FB0BDE8D2
:101D0000F08FD1F808A0DAF808306BB19A4A9D49F3
:101D10009B48912343F0CCFD002383F31188BFF34C
:101D20006F8F0323184602DFDAF80090484631F03F
:101D30007DFC637E2660002767F3C3036376637FC1
:101D4000E760002B5DD0053001225FFA80F804F1D6
:101D50001E0E3D4639460B92A27F90064DD094F957
:101D60001F0094F81FC00028C0F232811CF0010F40
:101D700014BF04F1260004F120001CF0020F18BF6C
:101D800006301CF0040F18BF01301CF0080F18BFFC
:101D900002301CF0100B1CBF834603301CF0200FD8
:101DA00018BF12301CF0400F18BF0130C2F30502FB
:101DB000A0EB0E000132D2B2C0B2824238BF02465E
:101DC0009A423ABF9B1ADBB20023BBF1000F78D0D6
:101DD0009BF802009BF801C0020202F4F85252EA9A
:101DE0000C026ED0002948D0002D00F0F881AA8E98
:101DF00013449BB2AB8663836CE0013BDBB2002DE6
:101E000040D16383214630462CF010FE0FB0BDE870
:101E1000F04F2CF017BE8F685B4B3D689D4261D13F
:101E2000D5F828A0BAF1000F00F097805649382263
:101E300008462AF0FFF800F106085FFA88F8DAF899
:101E4000000031F00DFC7A7902F00702012A814688
:101E500046D0022A2FD10723617E237100200B4632
:101E600060F3C3036376637F2660E06053B10B9237
:101E7000C1F3400104F11E0E6EE73F2840F2BF801F
:101E8000002DBED0AA8E13449BB2AB866383B9F1FA
:101E9000000F44D099F846302A6BDB0700F19C8094
:101EA000D460AE6A2C63002E48D028460FB0BDE83F
:101EB000F04F31F089BC304A304931484FF48273D9
:101EC00012E7002D6AD0AA8E13449BB2AB866383BF
:101ED0000029DCD02B6B002B64D0DC602C630DE779
:101EE0000623B9E7D7F80880B8F1000F79D0D8F801
:101EF0000050AB6A9F4266D01F4A24492048D12334
:101F000043F0D6FC002383F31188BFF36F8F0323C4
:101F1000184602DFBA4647464FF0FF088FE7164AD9
:101F20001B49174840F2353343F0C2FC89F311884E
:101F3000BFF36F8F0323184602DFABE70E4A154944
:101F40000F4840F25D3343F0B3FC86F31188BFF3D2
:101F50006F8F0323184602DFA7E7074A0E49084898
:101F6000BD2343F0A5FC8AF31188BFF36F8F0323D1
:101F7000184602DF5AE700BF1C190500F8100500DB
:101F800078100500781905000860002094190500F4
:101F900014190500601905008819050063830029DC
:101FA0003FF430AFBA4ABB49BB4840F2F71343F0A5
:101FB0007FFC002383F31188BFF36F8F0323184640
:101FC00002DF2B6B89E7BA4647464FF0FF0836E73A
:101FD000002D3FF417AF5AE72B6BA3427FF47DAF80
:101FE0008CE6AB4AAD49AC48CE2343F061FC88F3A4
:101FF0001188BFF36F8F0323184602DF77E7002DA8
:1020000000F00E81AA8E13449BB21E2BAB8603D91F
:10201000637EDE067FF53BAF2B6B002B00F01A8151
:10202000DC60AB8E2C6363839BF800203B7979796D
:1020300062F305033B719BF8022001235209934090
:1020400063F302017971637ED80600F1CA80B9F1A9
:10205000000F00F0018199F8463013F00103BBD165
:10206000CAF808309BF900300B98002BACBF1E213A
:102070004FF49671B960637F9BF8022000F003066D
:102080001E440936C0F34003F600DE4012029BF8FE
:10209000013002F4F8521A4301FB02FAB245FFF490
:1020A000F9AE9BF8003078795A064CBF4FF03209F0
:1020B0004FF4FA797A4B09FB0AF9B9FBF3F909F104
:1020C0002F0301EB4301B96000F00700012136F056
:1020D00003FB4FF0000B31216369A960C5F804B020
:1020E000C5F80CB079796F4F2F3B9E1B01F00303AD
:1020F0000933C1F34001DB00CB40564403F5EA73DA
:102100000344361A68480721E3FB07015EA3D3E9BD
:102110000023FEF745F8A6EB090620F07F405AA3FE
:10212000D3E900232861A6FB0701FEF739F85A46D8
:1021300020F07F460221012029F0ECFFB8F1FF0FCB
:102140001AD0CDE900BB23693F3B4246334401210D
:1021500058462BF03FFB10F0FD0F0DD04C4A534971
:102160004D4840F20B3343F0A3FB8BF31188BFF3D0
:102170006F8F0323184602DF4D493822284629F085
:1021800059FF4C4A2369CDE907254B4ACDE905257E
:10219000296900960024821DCDE90341CDE901445F
:1021A0003F3BD2B2012120462BF080FA10F0FD0F08
:1021B0000DD0374A4149384840F21B3343F078FB91
:1021C00084F31188BFF36F8F0323184602DF0122C7
:1021D000022110460FB0BDE8F04F29F09BBF63838A
:1021E000E0E6DAF8083083B1BB420ED0284A344921
:1021F000294840F2852343F05BFB002383F31188D9
:10220000BFF36F8F0323184602DFCAF80870637E9E
:1022100043F0080363763B796FF386133B716DE5FA
:102220002848CDE90C3129F0D7FEDDE90C3105460F
:1022300008B3838690F820300170C0E9051161F37E
:10224000C713C1620163C061C0F828A080F82030C4
:1022500000F11C07EC62E4E60D4A1B490E484FF4FE
:10226000277343F025FB89F31188BFF36F8F032396
:10227000184602DFEFE6637EDF067FF5C3AD43F06D
:1022800008036376BEE500BF8D49FD1A0700000014
:102290001C190500A8190500781005008C19050007
:1022A00040420F0000CA9A3B8C49FD1AE81905000C
:1022B00008600020B5380300AD360300181A050089
:1022C000BC1905000460002014190500000000007E
:1022D0002DE9F04F06468DB08A460120022199462D
:1022E000154639F0D1FD00220B900221012029F082
:1022F00011FF3B494FF49872304629F09BFEC71DF1
:10230000FFB2384B00963A46012100202BF0A6FA86
:1023100010F0FD0F0ED0344A3449354840F63203F0
:1023200043F0C6FA002383F31188BFF36F8F0323B2
:10233000184602DF2F4CA5FB044527A3D3E9002351
:1023400020462946FDF72CFF08960696336904932C
:10235000294B20F07F48A8FB0331E01A274B079355
:102360004FF00702264B059302FB08114FF6FE7350
:1023700065EB010103934FF47A720023FDF710FF20
:102380004FF0000BCDE90180CDF800A04B463A4656
:10239000012158462BF08AF910F0FD0F0DD0124A9A
:1023A0001249134840F6470343F082FA8BF3118831
:1023B000BFF36F8F0323184602DF0B9B13B90DB0D9
:1023C000BDE8F08F0122022110460DB0BDE8F04FAC
:1023D00029F0A0BEAFF300808D49FD1A0700000070
:1023E00068380020F13E0300881A0500E81905004E
:1023F0007810050000CA9A3B8D49FD1A913E0300F2
:10240000A9760300000000002DE9F04F87B0CDE968
:102410000423BDF8442003780292BDF84820BDF89B
:102420004080BDF84C50468EB0F82E90B0F8B4B055
:10243000019104460392002B7ED0013EB6B2A36800
:10244000D4F8AC70721B92B2002B009209DAE168EA
:10245000626823F0004391422CBF7F18BF18A3602D
:10246000FF1A009A638D13FB02F39BB2B3FBF8F2E1
:1024700018FB02F080B283421FFA82FA4BD2C01AD4
:1024800040F2E242564902FB00F0A0FB010152A3D8
:10249000D3E90023FDF784FE20F07F400744D944B0
:1024A00094F839304D44AD1B554440F2E246DB0907
:1024B000E58506FB08F543D14A4A4B494B4840F6AF
:1024C000BD0343F0F5F9002686F31188BFF36F8F43
:1024D0000323184602DFA946029BA385039BA4F8A9
:1024E0002431A4F82A802946204632F0DDFC019BE5
:1024F00013B10023A4F826313B464A463146204614
:10250000FFF7E6FE94F8203143F0010384F8203110
:1025100007B0BDE8F08F08FB1231314840F2E243CA
:1025200089B203FB01F1A1FB00012BA3D3E9002336
:10253000FDF736FE3F1AB2E74E445E44B6B27EE780
:10254000226C0099A36CDFF898B002FB1133A364EE
:1025500036F0EAFA814694F81401C0F3420036F0EE
:10256000E5FA049B814406FB03F305FB09F92365A7
:1025700009F574291E4B09F23F29A3FB09394FEADB
:10258000994303FB0AF02364A5EB0309A36C6A08D3
:102590000344963A934228BF1346C4E9112300230B
:1025A000C4F81C31A0FB0B010BA3D3E90023FDF7FA
:1025B000F7FD104B059A3F1AA3FB0230800A06FB79
:1025C00000F005A3D3E90023A0FB0B01FDF7E8FD14
:1025D00020F07F4680E700BF8D49FD1A070000000C
:1025E00000CA9A3B881A0500F8100500781005000B
:1025F00083DE1B435917B7D12DE9F04F134615461B
:102600000A6853F8086BD2F80080B0F82EC0024672
:10261000044652F82EABD0F81E0094F81C900F46DA
:102620009178628CA5F808C09970D4F82A306B6054
:1026300093B0D4F83A30AB61ADF8442094F83E2022
:102640002A77109012AA12E9030005F118030E90E0
:10265000ADF83C101846052129F0A8FE6B7F00F06C
:102660003F0060F305036B7794F83F30C3F3040237
:10267000AA77A28EEA810128C9F3801940F2648109
:1026800003F01F031B3303F01F030B2B00F25C81CD
:1026900092B2002A00F058813B6800225A60E38E13
:1026A000E9892B8240F2E24303FB01F10B91D8F858
:1026B0004420618E0C91002A00F05E8198F825106C
:1026C00040F6C41240F6A6637F2988BF1A460D92D1
:1026D0000021304632F0FCFB94F83F3096F814218C
:1026E0005B0963F3430286F8142136F01DFA834632
:1026F00096F81401C0F3420036F018FA0B99C04A5C
:102700000BEB000301FB03F303F5742303F23F23F8
:10271000A2FB03239B0C6B624B08963BAB6294F8C5
:10272000313040F2E24202FB03F3AB63238FA6F8A1
:102730002431304632F0B8FBB24BC6F828316B6812
:10274000C6F81831D8F84430002B00F04F814FF014
:10275000010BE20700F13B81BDF83C30A4F82330C7
:102760000E9884F81E904FF48073C4F81F00A38362
:10277000EB89E3842B8A2385B6F82431638596F8A8
:102780001431C3F3420384F82C30304631F0ECFBB3
:10279000A881E080214650467C682CF047F9AB893F
:1027A000E3801C23D4F800902371BBF1000F40F0AC
:1027B000058184F81CB02DF0A1FB002840F0E680D4
:1027C000214648462CF044F90021084635F084FFA4
:1027D0008D4A8E4B0446072100F2FE40E0FB023199
:1027E0004FF0000918463123B360C6F8049082A365
:1027F000D3E90023C6F80C90FDF7D2FC20F07F400F
:1028000030610B9B6D6A0C995D1BFB6840F2E242E4
:1028100002FB01330D992F3B19440C1B4A46022140
:10282000012029F077FCD8F84430B3B1D3F800A0E8
:10283000504630F033F9C21C754BCDF800A0D2B22F
:10284000012148462BF00AF8012800F016819AF879
:102850004E306FF300038AF84E3040462FF0D6FB1F
:102860008246694864A3D3E90023A4FB0001FDF775
:1028700097FCCDF80480BB686549009120F07F4942
:102880000AF102023F3BD2B24B44012100202BF05F
:1028900027F8012800F0CC8098F82430DB076DD4AD
:1028A000304631F061FB584BA5FB03A8044652A308
:1028B000D3E9002350464146FDF772FC554BBF68F3
:1028C000554A079220F07F45A5FB0331BAEB030080
:1028D000524B059340F2D1130696089333694FF09B
:1028E000000BCDE903B34FF0070303FB051168EBC1
:1028F00001014FF47A720023FDF752FC07343F3F89
:10290000E4B2CDE90150CDF800903B4622460121CA
:1029100058462AF0CBFE10F0FD0F0DD0404A414939
:1029200041484FF4E97342F0C3FF8BF31188BFF3C2
:102930006F8F0323184602DF01220221104613B0D5
:10294000BDE8F04F29F0E6BB0022C8F8142095F846
:10295000203062F3000385F820300126E5682671F7
:10296000504621462CF062F828682E71294613B093
:10297000BDE8F04F2CF06CB80D93A9E600230122BE
:102980000093184611462AF069FF89E72146484618
:102990002CF04CF8D8F840404046D4F800902FF086
:1029A00035FB10F0FF0A58D100231222A4F806A02C
:1029B00023722271AA896281637201E76B7F43F0FF
:1029C00040036B77281D35F01BF8E883F1E6144AC5
:1029D00016491548F82342F06BFF002383F3118852
:1029E000BFF36F8F0323184602DFB5E694F81CB0DF
:1029F000CBF3401BADE600BF8D49FD1A0700000078
:102A000083DE1B43404B4C0000CA9A3B8C49FD1AA5
:102A1000697603008D49FD1A35760300A976030017
:102A2000301F0500E8190500781005008014050026
:102A30002CF0D2F880453FF42FAF1A4A1A491B48B0
:102A400040F2792342F034FF002383F31188BFF36F
:102A50006F8F0323184602DF1EE7124A14491348FA
:102A60004FF4A67342F024FF002383F31188BFF3D1
:102A70006F8F0323184602DF96E72CF0ADF88245EE
:102A80003FF4E5AE074A0849084840F2792342F08E
:102A90000FFF89F31188BFF36F8F0323184602DFFE
:102AA000D5E600BF301F05008C1F0500781005001B
:102AB0008415050000000000032838B50D4612D02B
:102AC000072802D00024204638BD002031F054FAF7
:102AD00004460028F6D090F93930002BF2DB036968
:102AE0002B60204638BD002030F038FA044600281C
:102AF000E8D05F22114630F039FA0B4A0B4B072120
:102B0000E0FB0231184606A3D3E90023FDF748FB9A
:102B100020F07F402860204638BD00BFAFF3008022
:102B20008D49FD1A0700000000CA9A3B8C49FD1A26
:102B30002DE9F04F8FB00DF137010446DFF8F0A01A
:102B4000DFF8F0800DF136002BF0F2FF9DF8363003
:102B50009DF837B00B932AF06BFFDAF80060A6FB04
:102B6000085631A3D3E90023002781463146284681
:102B7000FDF716FBCDE90777069420F07F44DAF8DD
:102B800004002D4B0593A0FB080127A3D3E90023E4
:102B9000FDF706FB294B20F07F40A4FB0331072201
:102BA00002FB0411CDE90370E81A66EB01014FF452
:102BB0007A720023FDF7F4FA0097CDE901404B4605
:102BC0000B985A4603212AF071FD10F0FD0404D041
:102BD0006FF08B000FB0BDE8F08F1948194A002341
:102BE0003EF0F4FE20B9DAF80C000FB0BDE8F08F2B
:102BF0009DF837209DF836000094234603212AF0E3
:102C00002DFE10F0FD0F0CD00F49104A1048E423A0
:102C100042F04EFE0F4842F04BFE0C48E42142F0D9
:102C20003EFE6FF07300D5E78D49FD1A07000000E6
:102C30009863002000CA9A3B197C03008D49FD1A55
:102C400080630020447B0B008820050018200500CD
:102C500078100500D020050038B50F4D04462AF045
:102C6000E7FEA9682AF0E6FE696803460B48B3FB55
:102C7000F4F4A1FB00011C4405A3D3E90023FDF7F4
:102C80008FFA20F07F40844294BF0020012038BD9D
:102C90008D49FD1A070000009863002000CA9A3B86
:102CA000F0B5C468636883B00546002B55D138F091
:102CB0003FFD002038F062FDA17A607A01F0010149
:102CC000C0F3820038F04CFD627A252102F01C022C
:102CD000082038F08BFD3C4B019301A838F06EFDC5
:102CE0003A4940F25B6038F01BFE237AC3F342029C
:102CF00062F306132372204636F06AF927682E68BD
:102D0000384635F083FC06446A6806F10E0101205E
:102D100038F040FF39F084F820462FF085F9811C07
:102D20003246C9B2384635F07FFC054600BB204626
:102D300035F0D2FB10B9002003B0F0BD244A25497C
:102D4000254840F2294342F0B3FD85F31188BFF3D3
:102D50006F8F0323184602DFEDE793F820309B07BF
:102D6000A5D01E48214638F0A1FC38F085FDE2E7E9
:102D7000174A1B49184840F2114342F099FD194B7C
:102D80000721A5FB030301FB05310DA3D3E90023B4
:102D9000FDF706FA14490246144842F089FD002561
:102DA00085F31188BFF36F8F0323184602DF1048A5
:102DB000214638F07BFC38F05FFD6FF08B00BBE7FD
:102DC00000CA9A3B00000000D6BE898E55555500BA
:102DD000C42305000812050078100500D187030000
:102DE000F81005008D49FD1A7824050044240500DB
:102DF000398B0300000000002DE9F047C46882B061
:102E0000002306460DF1030104F1140067688DF8F4
:102E1000033036F0A7F88046002800F0C2803B7BE4
:102E200007EB83031D692B7803F00F03072B0DD0ED
:102E3000814A824982489F2342F03AFD002383F36E
:102E40001188BFF36F8F0323184602DFAB7813F0AE
:102E50003F0900F08280EB78DA074CBF05F10A02E7
:102E60002A1D980748BF0632190748BF0232DB0601
:102E700040F19080937851781B0203F4F8530B4390
:102E800000F08880238992F800A00133238138F074
:102E90004FFC002038F072FC97F80990B97A4FEA9D
:102EA000591901F00101484638F05AFC4FEA8902ED
:102EB0005F21082038F09AFC624B019301A838F09A
:102EC0007DFC0AF03F0A604940F25B6038F028FD63
:102ED000504635F0BBFB404638F0B8FCAB783F2B92
:102EE00027D85A48214638F0E1FB38F0DFFD276843
:102EF0003568384635F08AFB054405F10E017268E5
:102F0000012038F047FE38F08BFF20462FF0D0FD2F
:102F1000C11C2A46C9B2384635F086FB0546002852
:102F20005BD1204635F0D8FA28BB002002B0BDE8BE
:102F3000F0870DF1030107F1180036F013F805468C
:102F400000283CD02146424838F0B0FB962038F0AB
:102F500015FE484638F002FDC9E7374A3D49384872
:102F6000AB2342F0A5FC89F31188BFF36F8F0323D5
:102F7000184602DF6FE7304A374931484FF4AD73E6
:102F800042F096FC85F31188BFF36F8F0323184638
:102F900002DFCAE73148214638F088FB38F06CFC84
:102FA000C3E7254A2E4926488A2342F081FC88F34C
:102FB0001188BFF36F8F0323184602DF2FE71E4AE5
:102FC00028491F48F12342F073FC85F31188BFF3B1
:102FD0006F8F0323184602DFB4E7174A22491848C7
:102FE00040F2491342F064FC204B0721A5FB030388
:102FF00001FB05310EA3D3E90023FDF7D1F81C49ED
:1030000002461C4842F054FC002585F31188BFF3AA
:103010006F8F0323184602DF0C48214638F046FB29
:1030200038F02AFC6FF08B0080E700BFAFF3008020
:1030300000CA9A3B0000000084240500DC2405003F
:1030400078100500D6BE898E555555004D95030064
:103050009D9503000425050008120500CD96030088
:10306000D424050038240500F81005008D49FD1A08
:1030700024250500442405002DE9F041C468237986
:103080006FF300038CB023710F46054638F050FBF8
:10309000002038F073FB207C012100F0070038F09D
:1030A0005FFB227C9200252102F01C02082038F0F0
:1030B0009DFB237C23F01803012023742BF040FE9A
:1030C0000646002800F0848006F11C0038F0B8FBAA
:1030D0005D4B0B930BA838F071FB5C4940F25B60D1
:1030E00038F01EFC2079C0F34100253035F0AEFAEF
:1030F0005748214638F0DAFA23799B062ED59620D8
:1031000038F03CFD00231A461946184638F06EFC8C
:10311000D4F800802E68404635F078FA06446A6894
:1031200006F10E01002038F035FD38F079FE38F058
:10313000CDFC204630F086FA411DC9B240463246E9
:1031400035F072FA0546002851D157B1204635F0C6
:10315000C3F968BB00200CB0BDE8F08138F0A6FCD4
:10316000D6E7E369002BF1D03A4907913A49059136
:1031700040F2F31100930891CDE90377CDE901778F
:1031800006943346042239462AF090FA10F0FD0FD7
:10319000DCD0324A324933484FF4FA7342F088FBAC
:1031A00087F31188BFF36F8F0323184602DFCDE743
:1031B0002A4A2D492B4840F20B2342F079FB002389
:1031C00083F31188BFF36F8F0323184602DFC1E733
:1031D000224A264923484FF4C57342F069FB86F31F
:1031E0001188BFF36F8F0323184602DF6CE71B4A79
:1031F0001F491C4840F2E51342F05AFB1D4B0721C2
:10320000A5FB030301FB05310DA3D3E90023FCF764
:10321000C7FF19490246194842F04AFB002585F3C9
:103220001188BFF36F8F0323184602DF144821462D
:1032300038F03CFA38F020FB6FF08B008BE700BFD2
:1032400000CA9A3B00000000D6BE898E5555550035
:1032500065A10300259E0300599E0300302505004B
:1032600090150500781005000812050010240500CF
:10327000F81005008D49FD1A882505004424050035
:10328000319B0300000000002DE9F041C46882B0CA
:103290000DF103010546204630F0BAFB2379664A5A
:1032A0006FF3861323710026168038F041FA3046FA
:1032B00038F064FA6079012100F0070038F050FA24
:1032C00062799200FF2102F01C02082038F08EFA89
:1032D00001202BF035FD0646002871D006F11C00B8
:1032E00038F0AEFA554B019301A838F067FA54490B
:1032F00040F25B6038F014FB207900F03F0035F0BD
:10330000A5F921464F4838F0D1F9962038F036FC1F
:10331000627902F0070201231046002138F066FBB3
:1033200027682E68384635F071F906446A6806F158
:103330000E01002038F02EFC05466079D4F8088094
:1033400000F00700012138F089FA0544607900F0A7
:1033500007000228454422D004280CBF4FF4BC7358
:10336000282301211D4438F07BFA284438F01EFD43
:1033700038F056FD38F0AAFB204630F03FFB811DA7
:103380003246C9B2384635F04FF9054638BB2046BB
:1033900035F0A2F828B9002002B0BDE8F08118236A
:1033A000DFE7294A29492A484FF4187342F080FA86
:1033B00085F31188BFF36F8F0323184602DFEAE716
:1033C000214A244922484FF4F57342F071FA86F3FA
:1033D0001188BFF36F8F0323184602DF7EE71A4A76
:1033E0001D491B4840F2412342F062FA1B4B072162
:1033F000A5FB030301FB05310DA3D3E90023FCF773
:10340000CFFE17490246174842F052FA002585F3CD
:103410001188BFF36F8F0323184602DF124821463D
:1034200038F044F938F028FA6FF08B00B4E700BFA9
:1034300000CA9A3B0000000052750020D6BE898E5B
:1034400055555500F9AD03009C25050008120500EF
:103450007810050010240500F81005008D49FD1AAC
:103460001C260500442405003DA4030000000000C4
:103470002DE9F041C468A2894FF6FF739A4282B0E9
:1034800000F0AF80054637F02FFD2B89628AE08A75
:103490001A4492B21044637FA28280B2411CE1823E
:1034A0005E064FF00001618204F1180175D403F04B
:1034B0003F000B46A17F009004F11F0034F058FA42
:1034C0000646D4E90B231344D4E90D02002102443B
:1034D000E1626163A16AA26394F852208B4228BF23
:1034E0000B4612F0040223635FD038F021F900206C
:1034F00038F044F9201D38F061F92389A17A40F2AF
:103500005B6043EA014138F00BFA304635F09EF833
:1035100021464D4838F0CAF8962038F02FFB00239A
:103520001A461946184638F061FA204637F038FD39
:1035300027682E68384635F069F806446A6806F14F
:103540000E01002038F026FB804638F03DFC0020BC
:1035500038F054FC226BA36B0021084603EB4205B4
:1035600038F07CF98635002145440544084638F09A
:1035700077F9284438F01AFCA18907313246C9B2DC
:10358000384635F051F8054690BB204634F0A4FF8C
:10359000C0B9002002B0BDE8F0810A4603F03F0345
:1035A000E18B34F031FA06468BE7D4E90F0128F0BD
:1035B00079FD002899D194F8523043F0040384F83F
:1035C000523092E7214A2249224840F2551342F0F4
:1035D0006FF985F31188BFF36F8F0323184602DF5D
:1035E000D7E71D48214638F061F838F045F9D0E7B3
:1035F000164A1A49174840F24B1342F059F9184B32
:103600000721A5FB030301FB05310DA3D3E900232B
:10361000FCF7C6FD13490246134842F049F900255C
:1036200085F31188BFF36F8F0323184602DF0F481D
:10363000214638F03BF838F01FF96FF08B00A9E70E
:1036400000CA9A3B0000000039B10300A026050023
:103650000812050078100500D1870300F810050056
:103660008D49FD1AF42605004424050091870300C6
:103670000A460146014842F005B900BF742A050018
:1036800030B589B003AB4FF4E02204460D4605A8DF
:1036900048F20421CDE90623059348F07CFB074B53
:1036A00005A8197845F086FE0023009305AA29464F
:1036B000204615F071FD09B030BD00BF6018002034
:1036C00008B5014620B10D48BDE8084042F0DAB81F
:1036D0000B4842F0D7F80B490B4811F061F801464E
:1036E00008B10A48F0E743F050F803201EF040FA12
:1036F000BDE80840064842F0C5B800BFAC2A050046
:10370000CC2A0500FCF30400A8F30400E32A05001A
:10371000FE2A050010B5104645F003FE1A4B1A7834
:10372000824204462ED0002814BF012200221A70C3
:10373000164B1749174808BF194642F0A3F8164B15
:1037400059681A69096849060ED41449144A15487B
:103750004FF4CB6342F0ACF8134842F0A9F810489C
:103760004FF4CB6142F09BF81268520603D524B1A6
:103770009B681B6903E0002CFAD09B68DB68064855
:1037800040219847002010BD60180020102B050034
:1037900016FC0500142B0500A0EB0400552B0500BA
:1037A000242B0500932B0500B02B050010B51E48F7
:1037B00042F068F81D4C20464AF00AFE28B91C4821
:1037C00042F060F86FF0120010BD6368A1681B68DA
:1037D00022695B060ED41749174A184840F2ED33A8
:1037E00042F066F8164842F063F8134840F2ED31B3
:1037F00042F055F8136843F0400313600B68114A18
:1038000006212046984710480AF00EFE014610B1E6
:103810000E4842F037F80E4842F034F80D490E4891
:1038200010F0BEFF0020CFE7C22B0500A0EB040084
:10383000D32B0500552B0500242B0500932B0500E9
:10384000B02B050001000600C1360000AC2A0500BF
:10385000E92B0500FCF30400A8F3040010B5094CA3
:103860000A44914200D110BD11F8013B58400309B0
:103870000001E35CC0B2434018091B01205CDBB2CD
:103880005840EEE7FF2B050070B50C46002934D0F8
:1038900002680B1F9B1AD90823F0070313445D88A5
:1038A000E8070DD4154A16491648AF2342F000F830
:1038B0002146154841F0FCFFAF21104841F0EFFFD1
:1038C000104641F06EFE084432F83060801B8142A1
:1038D0000BD00A4A0D490B48B72341F0E9FF2146B6
:1038E0000B4841F0E5FFB721E7E725F001055D80D2
:1038F000BDE87040104641F011BF70BD0F2C0500AF
:10390000322C0500932B0500432C05007B2C050071
:10391000A12C05002DE9F8434B1E0B4006680F460D
:10392000144611D0C1F1000909EA01094A46042AE6
:1039300003F1FF3128BF042219420CD11F46E4B91C
:1039400000252846BDE8F883042913D8BDE8F843CC
:10395000114641F014BF2D492D4A2E484FF4A27351
:1039600041F0A6FF2C4841F0A3FF29484FF4A27173
:1039700041F095FF99460422E1E7B368B3EBD40F19
:10398000DED904F10B013944891AC908304641F0E7
:103990005EFE80460028D3D009F1040505EBC00582
:1039A0007B1E35441D44B5FBF7F57D43A5EB0905AA
:1039B0002C442B1F07349B1B24F00704A41BB0EBE3
:1039C000D30F4FEAD3074FEAE40408D201463A4640
:1039D000304641F089FE4146304641F0E7FD394628
:1039E000304641F0DEFD3844844207D2304622465C
:1039F00041F07AFE2146304641F0D8FD06EBC7067D
:103A0000738843F0010373809BE700BFDD2C050042
:103A10000F2C0500932B0500F82C0500B2F5802F24
:103A20002DE9F0410ED33C493C4A3D4840F2EB13AE
:103A300041F03EFF3B4841F03BFF40F2EB1137487D
:103A400041F02DFF042A0CD83749344A34484FF44A
:103A5000F97341F02DFF354841F02AFF4FF4F97119
:103A6000EDE7043ACD1D8E1825F0070526F0070670
:103A7000761B172E4FEAD6070CD82D49274A28481F
:103A800040F2FB1341F014FF284841F011FF40F2CF
:103A9000FB11D4E7B7FA87F4C4F12002C4F124047F
:103AA000A4000734E408631C4FF00008BB42056023
:103AB000AF60C5F80C800CD91E49184A18484FF45D
:103AC000037341F0F5FE194841F0F2FE4FF4037123
:103AD000B5E74146920005F110004AF0D7FF6300B8
:103AE00043F001036B8005EBC4023B1B5900A5F8B2
:103AF00000805180AA1925F83440A2F80280AB5307
:103B000005EBC70321465A8842F001025A80284635
:103B1000BDE8F04141F04ABD152D05000F2C050010
:103B2000932B05002B2D0500422D0500632D05006C
:103B30007C2D0500A52D05002DE9F04F91B08407DF
:103B4000009302F004030293C2F3C20303F10103E2
:103B5000DDF86880039205460E46059340F0F58136
:103B6000041D30B1072909D86FF01B0011B0BDE862
:103B7000F08F01F00706341DC6F10806009B4FF0D8
:103B80000009013B4FF0040B0193CDF810904F4614
:103B90004B464FF0FF32DA460DB10099216005988F
:103BA000002800F3D78098480099814203D39748B2
:103BB0008142C0F0CF800399A4EB050E89074FEA3C
:103BC0009E0040F1E2804FF0000CCCE07A285AD8F9
:103BD0004B280CD8472856D829282AD8252851D030
:103BE00051D8202877D023384342434173E04C38E2
:103BF0002E2848D8DFE800F06F4747474747474738
:103C0000474747474947474747474747475947492E
:103C1000495959596F496C476F47184918474780A8
:103C20007D49474749477D00002000234FF0040BA2
:103C300039E02A38C0B2012101FA00F010EA0E0F73
:103C400049D110F0625C30D110EA010343D06046E4
:103C5000013C5C44B4FBFBF40BFB04F4002D60D08E
:103C6000AAEB050CA444B4453FF67EAF00286AD108
:103C7000BAF1040F45D158F8040B206004344FF01A
:103C8000040A28E0013A002325E0019B13F8013CD7
:103C90006C2B33D1019B13F8023C00206C2B0346A4
:103CA000C4D14FF0080BDA46D2E708F1070828F034
:103CB00007080734F8E802AB24F0070435B106988A
:103CC0002044B0423FF650AFC4E900AB08340023B3
:103CD0004FF0080BDA46019911F8010F0191002805
:103CE00000F0BB80002B7FF471AF2528F3D10132A7
:103CF00001234FF0040BEDE7184696E7002003463A
:103D0000A6E7BAF1080F40F09A8008F1070828F0FA
:103D10000708F8E80201C4E9000108344FF0080A76
:103D2000D9E780B9BAF1040F02D108F10408A5E778
:103D3000BAF1080F40F0838008F1070828F007085F
:103D400008F10808E9E705990139059158F8041BBD
:103D5000009121E7039988074AD5A4EB050E4FEAA5
:103D60009E004FF0010CBEF5007F1ED32849294A62
:103D700029484FF41F7341F09BFD284841F098FDFE
:103D80004FF41F71234841F08AFD0F2F0FD8002DEB
:103D900048D007F140010DEB010C0CF8200C0CF899
:103DA000102C04980130049021E00F2F0CD91849F1
:103DB000184A194840F2812341F07AFD184841F031
:103DC00077FD40F28121DDE7CDB107F140010DEB38
:103DD000010EC0B20EF8200C0EF8102CBCF1000F32
:103DE000DFD060F07F000EF8200C09F101090137E7
:103DF000C5F10801043406914FF6DA7E6BE7BCF199
:103E0000000F0FD00136F2E7C0EA0400B00206004E
:103E1000F08F0500D02D0500932B0500FE2D050029
:103E20001F2E0500029802360028E0D10098CDE947
:103E30000632FCF744FBDDE906320644D7E7444A84
:103E40004449454840F2C62341F032FD51464348BB
:103E500041F02EFD40F2C62194E7631BB3F5806F5D
:103E60000CD33C493A4A3C4840F2D22341F020FD71
:103E70003B4841F01DFD40F2D22183E71DB9A6F178
:103E80000804E01872E6029A28609B082B709DF8DF
:103E90001030C2B1EB7085F80290B9F1000F05D077
:103EA00008A80022C5F1010C97420ED1C5F101030B
:103EB0000DF120084FF0000A01930DF1300B57452A
:103EC00012D1601B52E66B70E5E710F8013B190652
:103ED00008D504EB0C0EB64503F07F033FF644AE65
:103EE00004F8013B0132DFE7B9F1000F03D098F984
:103EF0000020002A17DB029BD3B11AF80B2004F82C
:103F0000012B0022019B98182044B0423FF62CAEB2
:103F100098F8000004F8010B0099039220464AF03B
:103F20008DFD039A14440AF1010A08F10108C6E75D
:103F300098F8002055F822300093029B45F8223073
:103F40000098FCF7BCFA421CDCE76FF00D000DE6B0
:103F5000D02D0500F08F0500932B0500392E0500AC
:103F60004E2E05002DE9F04F97B000AF8946D7F8E7
:103F700080B0FA623B62044658B9AA49AA4AAB48E3
:103F80004FF4667341F094FC4FF46671A64841F01B
:103F900086FCCBF3C00390F802A07B6141B9457861
:103FA00000780AEB800020444D4517D8A0EB0409A7
:103FB000E378FB61BAF1000F02D01BF0010F16D1BC
:103FC000FB6953BBFB6A1BB13A6A494620469847D6
:103FD0004D4628465C37BD46BDE8F08F461C30464E
:103FE000FCF76DFA0130304409F10109DCE7237870
:103FF00062687A62FA6A9900B96104EB8301002A67
:1040000040F005814D460E4601EB0A094FF00008CD
:104010004E4550D101EB0A0610E01BF0020FD1D043
:1040200023789A00BA6162687A62FA6A04EB8301C3
:10403000002A7BD14D4601EB0A0690461BF0050F86
:104040000CBF02230123FB62FB6906EB430A0BF062
:104050000203BB625645BCD016F8021B16F8013CA1
:1040600054F82390724B994502D3724B99453AD339
:104070007B69002B44D0786A41F0DBFB00283FD0FD
:104080006D48036813F0060F13D0E9468AB06A46FC
:104090006A4B53617B6AC2E906314FF400731384A3
:1040A000674B42F8103F00234FF4125102F09CF886
:1040B000CD46023DCEE716F8013BF96254F82300E5
:1040C000FCF7FDF9D7F88430F96A01304BB1D7F825
:1040D000883098453EBFD7F8843023F8180008F19F
:1040E0000108054494E77B6923B1786A41F0A1FB9C
:1040F0000028C5D11BF0010F05D1FB6AED1AA9E715
:10410000BB6A002BA6D04846FCF7D9F9D7F8843013
:1041100053B1D7F8883098453FBFD7F88420431C67
:1041200022F8183008F10108054493E7BAF1000FAE
:1041300073D01BF0040673D0D046002607F1480068
:1041400052463B61B9624AF079FCB96A3B6901EBBE
:104150000A02BA62FA69F9695200FA60BA6A02EBB5
:1041600041023A610BF00202BA60BA6A39698A42C6
:1041700068D162787A621BF0020F32440CBF4FEABA
:10418000580100211BF0010FD2B240F0E4801BF077
:10419000040F14BF404600207B616270A070E17084
:1041A0003A6AB969FB6A20469847051EFFF611AFC7
:1041B0007B6923707B6A6370FB69E37041463A6AEE
:1041C000FB6A84F802A007F148009847B0F10008A4
:1041D000C0F2EF80BB693A6AA9EB0A01C91AFB6811
:1041E000C91AD7E90A0398470028C0F2E480A84416
:1041F00008EB00054FF0000B07F1380AB345C0F09B
:10420000AC8000213A6AFB6A08469847E1E65646C8
:104210004FF0000807F1380092E75646D04696E77F
:10422000B04694E7652E0500D02D0500932B0500C0
:10423000C0EA0400B0020600D4130020802E05005E
:1042400004000001BA6A12F8021BBA6212F8015C9B
:104250005A4A54F82500904202D3594A904218D342
:104260007A693AB1786A7B6041F0E3FA7B680028AA
:104270007FF47BAFBA68002A4CD00F2E40D9514949
:10428000514A524840F24C4341F012FB40F24C413B
:104290007CE67A693AB1786A7B6041F0CAFA7B6859
:1042A00000287FF462AF1BF0010F0BD00F2E27D92F
:1042B0004449454A454840F2424341F0F9FA40F248
:1042C000424163E61BF0040F3FF44FAFB8F10F0F0C
:1042D00009D93F493C4A3D4840F2454341F0E8FA9C
:1042E00040F2454152E608F1280207F1300008F19A
:1042F000010102EB000808F8105C5FFA81F834E76E
:1043000006F1280207F13000711C161806F8205C2F
:10431000CEB22AE7B8F10F0F09D92D492A4A2B4806
:1043200040F24F4341F0C4FA40F24F412EE608F10B
:10433000280207F1300C08F10100944407F15802FB
:1043400052FA80F008F102080CF8101C5FFA88F8A5
:1043500000F8105C09E700201EE71BF80A3087F818
:10436000373054F82390D7F88430FBB133F81B80F2
:104370003A6AFB6A012107F13700984700281ADBE7
:104380000544B8F1000F06D14846FCF798F800F153
:1043900001081FFA88F83A6AFB6A4146484698477E
:1043A000002808DB05440BF1010B27E7D7F88480D0
:1043B000DEE745460DE605460BE600BFC0EA040011
:1043C000B0020600232F0500D02D0500932B050019
:1043D000422F0500014B1860704700BF0C070020FA
:1043E00080B505460E46174698463FF0C1FA03468B
:1043F0004AF05CFBDFF81890044649F8003042466A
:1044000030463946A84754F8090007F0ADF900BF17
:104410000800000038B50D460446202200214AF06D
:1044200035FBEB68E361AB68A3612B6823626B68C3
:1044300063620022A2622A6923B1591E194208BF91
:1044400042F0010222610122002104F12C004AF015
:1044500052F848B105490648064A2F2341F028FA88
:1044600004482F2141F01BFA38BD00BF992F0500E9
:10447000932B0500732F05002DE9F04F89B0CDE98E
:104480000123436A00278B42044688460597079715
:10449000BA4655D300F114064FF0200BEFF3118309
:1044A00000938BF31288BFF36F8F3046DDF80090D6
:1044B0003FF01AFC58B94B4A4B494C48882341F00D
:1044C000F7F931464A4841F0F3F9882160E0304677
:1044D0003FF02EFC079A2AB13946204641F0C7FA30
:1044E0000023079306A9204641F0EFF906994145BC
:1044F00005462ED32268236A13F8221021F0030107
:1045000003F8221003EB820A21684246204641F05C
:1045100000FAE3682060984216D0002530463FF04C
:10452000F1FB40B389F31188BFF36F8F059929B16F
:10453000A2690AB12046904700230593002DADD112
:10454000504609B0BDE8F08F236943F008032361AA
:10455000E3E718B1204641F0F6F9DFE7DDE9013283
:10456000134337D003914AF03DF8039990BB30468E
:104570003FF0C8FB78B91B4A1E491C4840F2311372
:1045800041F096F931461C4841F092F940F2311160
:10459000144841F084F9009B83F31188BFF36F8FB7
:1045A000DDE9012304F12C003DF010FA0546EFF39C
:1045B00011898BF31288BFF36F8F30463FF094FB65
:1045C00000283FF478AF3046B5FA85F53FF0B0FBF0
:1045D0006D09A3E707AB05AA2046276841F0D0F98B
:1045E00005469BE7A22F0500CF2F0500932B050062
:1045F000E42F0500FA2F0500113005002DE9F041E8
:104600000446C36908460E46984704F11405074658
:10461000EFF31188202383F31288BFF36F8F2846AE
:104620003FF062FB68B91B4A1B491C48882341F0D4
:104630003FF929461A4841F03BF98821154841F0D5
:104640002EF928463FF074FB337843F001033370B2
:1046500061683A46204641F05CF96060204641F0CE
:1046600021FA28463FF04EFB68B90A4A0D490B482B
:1046700040F2311341F01CF929460B4841F018F97A
:1046800040F23111DAE788F31188BFF36F8FBDE88C
:10469000F08100BFA22F0500CF2F0500932B05004E
:1046A000E42F0500FA2F0500113005002DE9F8432D
:1046B000044600F11407EFF31188202383F31288D6
:1046C000BFF36F8F38463FF00FFB054668B9354A98
:1046D00035493648882341F0EBF83946344841F0F3
:1046E000E7F888212F4841F0DAF838463FF020FB00
:1046F0002369A26813F0080F02D163689A4200D9B7
:10470000636A9B1A002B3FD0216A11F8223013F004
:10471000030001EB82093AD0022803D151F822604C
:10472000B60805D1D8071FD4E3694846984706461E
:10473000A1683246204641F0ECF83146A0602046A0
:1047400041F0F5F838463FF0DDFA10BB154A19493B
:10475000164840F2311341F0ABF83946164841F0A3
:10476000A7F840F23111BDE743F0020301F822300F
:104770004846E369A568984729460246204641F025
:10478000C8F80025A060DDE71D46A946DAE7054622
:10479000FBE788F31188BFF36F8F002D8BD148465C
:1047A000BDE8F883A22F0500CF2F0500932B05004D
:1047B000E42F0500FA2F0500113005002DE9F04126
:1047C0000446C36908460D46984704F11406074697
:1047D000EFF31188202383F31288BFF36F8F3046E5
:1047E0003FF082FA68B9284A28492948882341F0CD
:1047F0005FF83146274841F05BF88821224841F0B4
:104800004EF830463FF094FA2B786FF300032B708C
:1048100023699B0705D5E268236A03EB82039D4267
:1048200022D12B786FF341032B70D4E902319942E6
:1048300004D13A46204641F06CF8A0603946204643
:1048400041F075F830463FF05DFA90B90E4A1249D2
:104850000F4840F2311341F02BF831460F4841F038
:1048600027F840F23111C9E72B6867F39F032B60EB
:10487000E8E788F31188BFF36F8F04F12C00BDE8DF
:10488000F0413DF05FB800BFA22F0500CF2F05001B
:10489000932B0500E42F0500FA2F050011300500C9
:1048A00070B5044600F11405EFF31186202383F35D
:1048B0001288BFF36F8F28463FF016FA68B91B4A7B
:1048C0001B491C48882340F0F3FF29461A4840F052
:1048D000EFFF8821154840F0E2FF28463FF028FA14
:1048E0002369A06813F0080F02D16368984213D9B6
:1048F000646A241A28463FF005FA78B90B4A0F4932
:104900000C4840F2311340F0D3FF29460C4840F0E8
:10491000CFFF40F23111DDE71C1AEBE786F3118877
:10492000BFF36F8F201E18BF012070BDA22F05009E
:10493000CF2F0500932B0500E42F0500FA2F05006B
:10494000113005002DE9F84F04460846A38B1907DE
:10495000154612D4022803F0070165D1204641F024
:104960007AF988B10138042800F23781DFE810F0C5
:104970005C0035018200D400040101280CBF43F023
:10498000100143F02001A183143420463FF0BAF90E
:10499000002840F09D819A499A4A9B4840F2311381
:1049A00040F086FF2146B1E003F00702501F0128C6
:1049B0001ED80020062A2768C4E9000014D13A4610
:1049C00003E0E08B0130E0831268002AF9D123F084
:1049D000070343F00202A283204641F03CF990B362
:1049E00042F02002A2832EE023F007039AB2F2E7FE
:1049F000042A33D123F007039AB2A283204641F060
:104A00002AF910B142F02002A283A38B03F0070918
:104A1000894540F0EC80A18BCA0640F1508121F01D
:104A20001003A38301F00701D4F81880A38BB8F119
:104A3000000FB9DA0022276823F00703C4E9002237
:104A400043F00103A383A38B03F00709894540F0DA
:104A5000CF80002FDFD00026B24644E06B496C4A7D
:104A6000694840F21B1340F023FF40F21B116848D5
:104A700040F015FF49B16749654A63484FF4AB738D
:104A800040F016FF4FF4AB71F1E723684BB9624970
:104A90005F4A5D4840F2571340F00AFF40F2571159
:104AA000E5E723691E684EB95C49594A56484FF4F8
:104AB000AD7340F0FDFE4FF4AD71D8E7A38B23F04A
:104AC000070343F006039BB2A3830F4688464FF0CB
:104AD0000609A268002A40F08D80002F40F08D80EA
:104AE000002E98D0BA4643F0080304F1140BA383B8
:104AF00058463FF007F9002840F09A804049414A63
:104B0000414840F2311340F0D3FE5946444840F04A
:104B1000CFFE40F23111ADE0022909D041493C4AB3
:104B2000394840F25D1340F0C3FE40F25D119EE74C
:104B3000E78B4FB13C49364A33484FF4AF7340F0EE
:104B4000B7FE4FF4AF7192E723695E684EB93349FF
:104B50002F4A2D4840F2611340F0AAFE40F2611145
:104B600085E7A38B23F0070343F004039BB2A383E1
:104B7000B8464FF00409ACE7012909D02B49244A73
:104B800021484FF4B27340F093FE4FF4B2716EE7D8
:104B900023684BB920491E4A1B4840F2651340F078
:104BA00087FE40F2651162E723699E684EB91B4992
:104BB000174A15484FF4B47340F07AFE4FF4B471BD
:104BC00055E7A38B23F0070343F005039BB20027AF
:104BD000A383B8464FF005097BE70C490C4A0A4805
:104BE00040F26B1340F064FE40F26B113FE7002788
:104BF00000266EE74FF0010A75E7924673E700BFA3
:104C0000FA2F0500A22F0500932B0500F08F050059
:104C1000263005004B300500573005007A3005007E
:104C20001130050091300500A7300500B6300500B1
:104C300085F31188BFF36F8FBAF1000F1CD177BBDA
:104C400016B126492046B047EFF31185202383F3A0
:104C50001288BFF36F8F58463FF046F838BB204AA2
:104C600020492148882340F023FE59461F4840F040
:104C70001FFE88211A48FBE6A1680029DFD00D68D5
:104C80000029DCD0D1F804A043464A462046D0474C
:104C90001DB12B6829461D46F2E72B46FAE7394637
:104CA00043464A4620463F6841F001F8C7E7584668
:104CB0003FF03EF8A38B23F00803A383ABE68B06FB
:104CC0007FF562AE21F02003A38301F0070145E6E2
:104CD00085F31188BFF36F8FBDE8F88FF14C0000AA
:104CE000A22F0500CF2F0500932B0500E42F050010
:104CF000F8B504460D4600F11406EFF311872023A2
:104D000083F31288BFF36F8F30463EF0EDFF68B932
:104D10000C4A0D490D48882340F0CAFD0C48314625
:104D200040F0C6FD0748882140F0B9FD30463EF00E
:104D3000FFFFA5613A4620460121BDE8F840FFF794
:104D400001BE00BFA22F0500CF2F0500932B050049
:104D5000E42F05002DE9F04704460F4640F097FF89
:104D6000051E68DB04F11409EFF3118A202383F395
:104D70001288BFF36F8F48463EF0B6FF804660B999
:104D8000384A39493948882340F092FD4946384825
:104D900040F08EFD8821334842E048463EF0C8FF8F
:104DA000E38BA68B4FF6FF72934206F0070645D0C1
:104DB000022E15D10133E383354648463EF0A2FF6B
:104DC000002841D1274A2B49284840F2311340F0AE
:104DD0006FFD4946284840F06BFD40F23111DAE79B
:104DE000062E13D8DFE806F0092D12120904090077
:104DF0006FF085054FF00008DFE700233B60636834
:104E000083B9C4E9007786B13546F3E71B491748F3
:104E10001B4A4FF4E47340F04BFD19484FF4E47122
:104E200040F03DFD1F606760EDE7524602212046DD
:104E3000FFF788FD35462846BDE8F0876FF00A0584
:104E4000D8E76FF00405D5E78AF31188BFF36F8FB9
:104E5000B8F1000FEFD0002332463946204640F02B
:104E600026FFE8E7A22F0500CF2F0500932B0500B2
:104E7000E42F0500FA2F050011300500B6300500BB
:104E800026300500F8B5054600F11406EFF311874A
:104E9000202383F31288BFF36F8F30463EF024FF48
:104EA00060B9264A26492748882340F001FD31464B
:104EB000254840F0FDFC882120482BE030463EF09C
:104EC00037FFAC8B04F00704022C17D0012C0CBF69
:104ED0006FF004046FF0850430463EF013FF38BBDA
:104EE000164A1A49174840F2311340F0E1FC3146A6
:104EF000174840F0DDFC40F23111DDE7EB8B5BB988
:104F000014491048144A40F2EF1340F0D1FC124803
:104F100040F2EF1140F0C3FC013B9BB2EB83002B4E
:104F2000DAD13A4621462846FFF70CFD2046F8BD67
:104F300087F31188BFF36F8FF8E700BFA22F05003A
:104F4000CF2F0500932B0500E42F0500FA2F050055
:104F500011300500CC300500263005002DE9F04168
:104F60000F460546002850D000294ED000F1140607
:104F7000EFF31188202383F31288BFF36F8F30463D
:104F80003EF0B2FE60B9224A22492348882340F00D
:104F90008FFC3146214840F08BFC88211C4817E0EB
:104FA00030463EF0C5FE39462846AC8B40F038FE10
:104FB00080B104F00704231F022B0DD918491648AD
:104FC000184A40F22D2340F073FC164840F22D2180
:104FD00040F065FC6FF0770430463EF093FE68B910
:104FE0000B4A11490C4840F2311340F061FC314644
:104FF0000E4840F05DFC40F23111CFE788F3118894
:10500000BFF36F8F2046BDE8F0816FF01504F9E71C
:10501000A22F0500CF2F0500932B0500E42F0500DC
:10502000DA30050026300500FA2F050011300500A2
:1050300008B54268816002F00302022A03460AD0E2
:10504000032A4FF0000103D0012A0AD1596006E07B
:105050001868596008BD186800225A6058B90020C5
:10506000F8E706490648074A452340F021FC054871
:10507000452140F014FC3FF083FEF0E7F08F05007F
:10508000932B0500513105002DE9F34180460E4672
:10509000154600272A4601A9404640F045FE314604
:1050A00004460246019849F0C9FC2D1B27442644BA
:1050B00001D0002CEED13946404640F054FE48B1B4
:1050C00006490748074A492340F0F2FB05484921B1
:1050D00040F0E5FB384602B0BDE8F081992F0500AD
:1050E000932B0500773105002DE9F34180460D46ED
:1050F00016460027324601A9404640F049FE0446C4
:105100002DB102460199284649F098FC2544361BEA
:10511000274401D0002CEDD13946404640F058FEDE
:1051200048B107490748084A8E2340F0C1FB0648AA
:105130008E2140F0B4FB384602B0BDE8F08100BFDC
:10514000992F0500932B0500773105002DE9F743D2
:105150000F4606460821C06ADFF8509040F0B8FEBE
:105160003C68241A80463C6004EA0905AC4203D836
:10517000002003B0BDE8F08308236A46214630468C
:1051800040F03CFE0028F4D16946304640F0AAFECB
:1051900040B1BDF80230BDF804203C6005EA0905C5
:1051A00013441D44A4EB0804E0E700BF0000FFFF28
:1051B00073B504460821C06A124E40F089FE4FF6CE
:1051C000FF726368ADF800208DF80620A2891918D7
:1051D00033401344181A002560606846ADF8021089
:1051E000ADF8045040F06BFE6946204640F03AFFAF
:1051F0002046211D40F03BFE636828463340A360F3
:1052000002B070BD0000FFFF2DE9F04704468AB0F0
:1052100000F11407384649F035F9A06A8368DB6865
:105220009847E06250B99F4803685D0703D09E4AE3
:10523000012140F029FE6FF015054EE0A06A836859
:10524000DB6898470368013B1F2B05D99548036825
:105250005C07F0D0954AEBE7A06A216807AA48F0FE
:10526000CCFD28B18F4803685907E4D0904ADFE7A6
:10527000A5892DB1089BB5FBF3F203FB12552DB1A7
:10528000884803685A07D6D08A4AD1E7E389012BB8
:1052900005D8844803685B07CDD0874AC8E7E36A2E
:1052A000029593F805904FF0FF334FF0FF323846E8
:1052B0003CF0A4F8E06A082140F00AFEA846064641
:1052C000E3891FFA85FA53450BD8E389434526D174
:1052D00038463CF063F96FF02C0528460AB0BDE86B
:1052E000F087A1892B04891B13FA81F14A46082310
:1052F0002046029140F090FD78B102A9204640F08E
:10530000B6FD08F10108029908234A4620461FFA13
:1053100088F840F081FD0028D7D00135D0E753450B
:105320000BD1029908234A46891B204640F074FDA0
:1053300018B902A9204640F09AFD02A92046FFF7BD
:1053400005FF054618B138463CF028F9C5E7029B31
:1053500063604FEA13484FEA0848C4F80880D4E96C
:10536000011399420FD3082303AA204640F046FDBB
:1053700005460028E7D103AB13F8012B91453FD137
:105380000135082DF8D163681B0C1B0402A92046C7
:10539000029340F06CFDA38902994A46204640F0F2
:1053A0003BFD051ECFDB636800F09C8003EB060825
:1053B0004FF6FF79A389CDF808801FFA88F29B1B6E
:1053C0009A4239D300223748036803F00703002AC2
:1053D0004CD0022B03D9394A032140F055FD6368B4
:1053E0001B0C1B0402A92046029340F040FD0299C9
:1053F000204640F04BFD0546002D00F09180A2E7CD
:1054000003A9204640F06EFD626810B9921B6260ED
:10541000A5E7BDF81050BDF80E10E06AC4F808808A
:10542000294440F055FD40449042A060EED1002D4B
:10543000ECD06FF01C05AEE0082305AA41462046DB
:1054400040F0DCFC054600287FF47DAF05A920462E
:1054500040F048FD30B1BDF814304B4502D1BDF8E5
:1054600018300BB1B044A5E70122ACE7022B03D9F9
:10547000134A032140F008FD6168204640F006FD14
:10548000054600287FF45FAF63680E4AA189134088
:105490000B44A3EB460363601340A360204640F037
:1054A00009FEA8E7E4130020B6310500D831050055
:1054B000F53105000D3205002132050044320500AA
:1054C000593205000000FFFF5B1A4A46204640F0B3
:1054D000A3FC051EFFF637AF08D0E26AA368126886
:1054E0001344A360D4E901318B42EDD86168A389EC
:1054F00001EB46029A427FF47FAFDFF8A880A268F2
:1055000001EA08039A423FF477AF204640F0BEFC20
:10551000054600287FF417AF636803EA0803A36019
:10552000A389A288A3EB46039A4230D038463CF0C8
:1055300035F81D4D012323742B6803F00703022B5C
:1055400023D9E389A289032100922846174A40F013
:1055500047FF2B6803F00703022B16D963689AB242
:1055600000921B0C124A0321284640F039FF2B6899
:1055700003F00703022B08D9A3689AB200921B0C10
:105580000C4A0321284640F02BFF0025A5E62046C3
:1055900040F079FD054638463CF000F8002DC8D0B3
:1055A0009BE600BF0000FFFFE413002080320500EF
:1055B00097320500A93205002DE9F04F1D4691B044
:1055C000037C0291044600926BB9664803685B074E
:1055D00003D0654A012140F057FC6FF00C063046BD
:1055E00011B0BDE8F08FC26A0821104640F070FC8F
:1055F00029460190104640F06BFCA389019AA3EB69
:105600008203AB420746C0F0A9801DB1009B002B6E
:1056100000F0A4806368059306AA05A92046DDF87A
:1056200014A040F09CFC06460028D8D1BDF81830E4
:10563000029A934206D06268059B9A42ECD1002DF3
:1056400036D1CCE706A9204640F04CFC0028F2D029
:10565000BDF81A90BDF81C3045B39D4228D1E36ACD
:10566000DDF800B01B684FEA1A4A5B424FEA0A4A6B
:1056700003F02003D1440393AA46DDF80C80D04503
:1056800028BFD046434608AA4946204640F0B6FB0C
:1056900000284AD1424608A9584649F017F938B9B6
:1056A000BAEB080AC144C344E7D198E7002B96D06F
:1056B000002F3DD1B94604F1140A4FF0FF324FF0EC
:1056C000FF3350463BF09AFEE3899E4243D0A168E7
:1056D000626809EB01039A422FD3029BADF8203098
:1056E000FF238DF82630009AADF822102B46204675
:1056F000ADF8245040F07DFC29460746E06A40F0B2
:10570000E7FBA3680344A36057B908A840F0D7FBA0
:1057100008A9204640F0A6FC002814BF07462F46E3
:1057200050463BF03BFF3E4659E7C1DC064656E794
:10573000019B1F441FFA87F9BDE72046FFF738FD9C
:1057400007460028ECD1204640F0B4FC074600286C
:10575000E6D10136B8E76FF01B07E1E76FF01506F9
:105760003DE700BFE4130020A23105002DE9FF470B
:105770001E46037CBDF8309004460F46904663B940
:105780002E4803685B0703D02D4A012140F07CFBC3
:105790006FF00C0004B0BDE8F087C06A082140F04B
:1057A00097FBA389A3EB4003B34243D3D4F804A0EF
:1057B000CDF804A000254D455146DDF804A009D9D7
:1057C000636853451ED1BDF80830BB421AD06FF054
:1057D0000100DFE702AA01A9204640F0C0FB002833
:1057E000D8D1BDF80830BB4206D102A9204640F00E
:1057F00079FB08B10135ADB26268019B9A42DAD1FA
:105800005146E0E7BDF80C30002BE0D0A945DED8CA
:10581000BDF80A00090CB3424FEA014128BF3346E4
:1058200001444246204640F0E9FA0028B2D1BDF8D2
:105830000C00AFE76FF01500ACE700BFE4130020E9
:10584000A231050030B51049104889B0002248F057
:105850008AFF0F4D0F494FF400320023CDE9062394
:1058600000240E23CDE90334CDE901440A4B009412
:105870004FF4006228463DF025F8084928463CF0E0
:10588000F7FE204609B030BDE5590000F828002099
:105890009818002040780020195D0000C1320500F2
:1058A0002DE9F047DFF85880044607464FF001091C
:1058B00014B93846BDE8F08794FAA4F5B5FA85F531
:1058C00009FA05F32E0108EB05156FEA030A24EA2D
:1058D00003042B7B002BEBD058F806301B694BB927
:1058E0004644042273682846196807EA0A0700F04C
:1058F000F7FBDDE7284698470028D9D1F0E700BF3D
:1059000074F004002DE9F047DFF8B8902E4CA9EBB5
:1059100004038F2B80460F460BD92C492C4A2D4867
:1059200040F23F133FF0C4FF40F23F1128483FF0E0
:10593000B6FF294840F0AAFC064660B30025284679
:10594000BDE8F087237B6BB12368DB680BB1204691
:10595000984723681B69B3B9636804221968204615
:1059600000F0BEFB013610344C4518D91B49184ACB
:1059700018484FF4A6733FF09BFF19483FF098FF7B
:105980004FF4A671D2E7204698470028E4D00AFADF
:1059900006F31D43E6E705464FF0010AE4E7D1D3DD
:1059A000B8F1000FCBD0002DC8D02846FFF778FF04
:1059B0000546002FF7D000214FF4A4703DF084FF7E
:1059C000F1E700BF84F0040074F00400F632050033
:1059D000C9320500932B0500083E00202633050040
:1059E0004733050001483BF0ADBF00BF6C150020F8
:1059F00008B5034608462BB1044A136000F01AFFAD
:105A0000002008BD6FF01500FBE700BF1007002065
:105A100010B5044C237813B903483BF093FF0123DE
:105A2000237010BD567500206C15002010B504467B
:105A30000B4840F02BFC5CB1BFF35B8F094B53E884
:105A4000001F013943E80012002AF8D1BFF35B8F31
:105A5000054848F094FE0548BDE810403BF072BF91
:105A6000003E0020043E0020F82800206C15002095
:105A70000020064BBFF35B8F014653E8000F43E85D
:105A80000012002AF9D1BFF35B8F7047003E00205F
:105A900070B5FFF7EDFF104C104E0546B44219D912
:105AA0000F49104A104840F2FF133FF001FF0F4822
:105AB0003FF0FEFE0B4840F2FF113FF0F0FE63683E
:105AC0005B792BB123685B6813B129462046984760
:105AD0001034E3E7F3D370BD74F0040084F00400E5
