:1000000040C8002075D000006FE3040061D00000FC
:1000100061D0000061D0000061D00000000000004D
:1000200000000000000000000000000095D100006A
:1000300061D000000000000061D1000061D000002C
:1000400099D30000D1D2030099D3000099D30000C6
:1000500099D3000099D3000099D3000099D30000F0
:1000600099D3000099D3000099D3000099D30000E0
:1000700099D3000099D3000099D3000099D30000D0
:1000800099D3000099D3000099D3000099D30000C0
:1000900099D3000099D3000099D3000099D30000B0
:1000A00099D3000099D3000099D3000099D30000A0
:1000B00099D3000099D3000099D3000099D3000090
:1000C00099D3000099D3000099D3000099D3000080
:1000D00099D3000099D3000099D3000099D3000070
:1000E00099D3000099D3000099D3000099D3000060
:1000F00099D3000099D3000099D3000099D3000050
:100100007BB972B90029BEBF00204FF0004106E064
:1001100008BF00281CBF6FF000414FF0FF3000F017
:1001200057B8ADF1080C6DE904CE002909DB002BAE
:100130001ADB00F062F8DDF804E0DDE9022304B028
:100140007047404261EB4101002B1BDB00F055F88A
:10015000DDF804E0DDE9022304B0404261EB410137
:10016000524263EB43037047524263EB430300F098
:1001700044F8DDF804E0DDE9022304B0404261EB1D
:1001800041017047524263EB430300F036F8DDF85B
:1001900004E0DDE9022304B0524263EB43037047FD
:1001A00053B94AB9002908BF00281CBF4FF0FF31DE
:1001B0004FF0FF3000F00CB8ADF1080C6DE904CE43
:1001C00000F01BF8DDF804E0DDE9022304B070471D
:1001D000704700BF430803F05533C01A00F03333B3
:1001E000800800F03330184400EB10104FF001335A
:1001F00000F00F305843000E70472DE9F047864657
:100200008C460846089E154674461946002B40F059
:10021000C2808542B2FA82F245D94AB1C2F12003C6
:1002200000FA02FC2EFA03F3954043EA0C0C9440CA
:100230004FEA154EA8B2BCFBFEF8230C0EFB18CCFF
:1002400008FB00F943EA0C43994528D9EB1808F15B
:10025000FF3704D2994502D9A8F102072B44A3EB3A
:100260000903A4B2B3FBFEFC0EFB1C330CFB00F035
:1002700044EA0344A04214D92C190CF1FF3304D2F0
:10028000A04202D9ACF102032C44241A43EA0740ED
:100290001EB1D440002334607360BDE8F087474648
:1002A000DDE76346F1E792BB431B01214FEA154EA0
:1002B000AFB2B3FBFEFC200C0EFB1C330CFB07F8AB
:1002C00040EA0343984562D9EB180CF1FF3004D2A1
:1002D000984502D9ACF102002B44A3EB0803A4B269
:1002E000B3FBFEFC0EFB1C330CFB07F744EA034494
:1002F000A7424ED92C190CF1FF3304D2A74202D9E0
:10030000ACF102032C44E41B43EA0040C0E7C2F115
:10031000200320FA03F1954090402EFA03F30343A3
:100320004FEA154EAFB2B1FBFEFC0EFB1C10190CD0
:100330000CFB07F841EA0041884504FA02F422D98F
:1003400069180CF1FF3004D2884502D9ACF10200E3
:100350002944A1EB08019BB2B1FBFEFC0EFB1C1172
:100360000CFB07F743EA01439F420ED9EB180CF14F
:10037000FF3104D29F4202D9ACF102012B44DB1BB6
:1003800041EA004192E76046E3E76146F7E76046ED
:10039000A3E76346B7E7834206D916B900210846AA
:1003A0007BE7C6E900E0F9E7B3FA83F78FB9834248
:1003B00001D3724508D8BEEB020460EB03030120B1
:1003C0009C461EB9002168E73846FAE7C6E9004CAA
:1003D000F8E7C7F1200CBB4022FA0CF41C432EFABC
:1003E0000CF120FA0CF3B84001434FEA14490EFA1D
:1003F00007F5B3FBF9F81FFA84FE09FB18300B0C64
:1004000008FB0EFA43EA00439A4502FA07F240D984
:10041000E31808F1FF3004D29A4502D9A8F102008E
:100420002344A3EB0A0389B2B3FBF9F809FB1833A1
:1004300008FB0EFE41EA03418E452CD9611808F1F4
:10044000FF3304D28E4502D9A8F10203214443EAC6
:100450000040A0FB0298A1EB0E014145CE46434669
:1004600002D306D14D4504D2B9EB020E68EB04036A
:100470000138002EA6D0B5EB0E0261EB030101FAA4
:100480000CFC22FA07F34CEA0303F940C6E90031F9
:1004900098E74046C5E74346D9E710F8012B11F825
:1004A000013B012A28BF9A42F7D0D01A7047034671
:1004B00011F8012B03F8012B002AF9D170470346EC
:1004C00013F8012B002AFBD1181A013870470000DD
:1004D0002DE9F047064688B00F46904653F0C5FF19
:1004E0004FF47A73A0FB034503FB0155E40B012F86
:1004F00044EA45444FEAD53507D1294922462B46DF
:1005000030464BF057FD002012E0D8F80470254823
:100510003946FFF7C2FF70B123483946FFF7BDFFE8
:1005200048B1304621493A464BF060FD6FF0040077
:1005300008B0BDE8F0872046294617A3D3E9002379
:10054000FFF7DEFD05460C4610461946184A002303
:10055000FFF7D6FD80460F46104619464EF660223C
:100560000023FFF7CDFD82468946104619464FF419
:100570007A720023FFF7C4FDCDE902A9CDE9062375
:10058000CDE90401CDE900870A492A4623463046D1
:100590004BF010FDB7E700BF005C2605000000002F
:1005A0008B9D05009C9D05009F9D0500A89D050055
:1005B00080EE3600C09D05002DE9F843D0E90638ED
:1005C000456903EB08042F34A5420F46164619D897
:1005D000DFF86C80A3FB080117A3D3E90023FFF722
:1005E000DFFD0346601BA0FB080123F07F4412A33C
:1005F000D3E90023FFF7D4FD20F07F403C6030605A
:10060000BDE8F883DFF838900BA3D3E90023A5FBFE
:100610000901FFF7C5FD20F07F440A480A2106A31F
:10062000D3E90023E8FB0901FFF7BAFD20F07F4082
:100630003C603060BDE8F8838D49FD1A070000007A
:1006400000CA9A3B00166BF12DE9F04F8DB09A4627
:10065000179C9DF85890636C05460E46904653B122
:10066000B4F87E301BB1B4F87C209A4278D2D4F82A
:100670008020002A77D14FF6FF739A4520D0277843
:100680000137FFB22770002F78D06F496F4BC1F848
:10069000048004F11C000022C86081F80A900D60FB
:1006A000A1F808A099600120114630F061FA0028F5
:1006B00073D1636CC4F88C5013B1204637F098FAAC
:1006C00094F8245015F001054AD1614A614B117824
:1006D0001B788B4277D04FF6FF739A45D4F8808011
:1006E000B4F87C9015BF0AF101074FF0000ABFB2C1
:1006F0005746B8F1000F30D0B9F1000F2DD0226F5E
:100700000AF1010A40F271211FFA8AF301FB02FA91
:10071000514A4FF0070BA6FB02010AFB03F30993B2
:100720000BFB061146A3D3E90023FFF739FD099B14
:10073000494A1E18A5FB02010BFB051140A3D3E992
:100740000023FFF72DFD50443044804586BFA8EBC1
:100750000606C4F88060C4F880A04F44A4F87C70FA
:100760000DB0BDE8F08F216F40F27123A1FB0313A0
:10077000914273F10003FFF47EAFF1E7374A384945
:10078000384840F649134AF066FA87F31188BFF3F8
:100790006F8F0323184602DF77E7304A324931482A
:1007A00040F66B134AF057FA002383F31188BFF326
:1007B0006F8F0323184602DF636CC4F88C50002B44
:1007C0007FF47BAF7CE7013304210BA813703DF06D
:1007D000D3F80B9B25490694A1FB0321581A244A00
:1007E000009501EB50012348A21AA0FB0202090A5E
:1007F00040F24710520900FB113302321E490591A5
:100800000133CDE90355CDE90155D2B20121284686
:100810000B9331F07FFD10F0FD0F0DD00F4A1749FB
:10082000104840F2BA734AF016FA85F31188BFF304
:100830006F8F0323184602DF0B9D4CE7AFF3008058
:1008400000CA9A3B000000004C680020C011002044
:1008500032840020318400208D49FD1AF474050093
:100860001476050028700500B871050021F1D490B8
:1008700078680020398EE338F95D030018760500AA
:10088000002900F0CF802DE9F04F8FB0002840F014
:10089000C080C74C1D4694F88430DF07164600F12F
:1008A000978194F8352094F8293004EB820204EB08
:1008B0008303976BD3F82C90002F00F09280394679
:1008C000484635F065FC002840F0A98099F80030D2
:1008D00013F00E0F40F0A880236A002B40F09E809A
:1008E00032F04CFE8246002800F0DA8132F052FEEF
:1008F0008346002800F0D18138F07AF9804600283C
:1009000000F0C881806E4FF6FF73A8F8283008F118
:100910001C03002800F0E78108F15C0208F158018F
:100920000B9330F0A1F8A34A98F82C11D2F80100EB
:10093000C8F82D01C8F8330112F8010B9288A8F805
:100940003121A8F8372198F8392002F03F0262F0EF
:100950007F0288F8392098F86E2022F0070200F014
:10096000010088F86E2098F83C2060F3000160F3E5
:10097000410122F0070288F82C1188F83C2006215A
:100980000022C8E91222C8F86820A8F86C20A8F84C
:100990003220C8F82E2088F83B20C8F85020A8F84C
:1009A0002621A8F82211404639F0D8F8002288F80C
:1009B000F020C8F8F4A008F1700038F0EDFE002235
:1009C0000B9B2362C4E91AABC8E9052288F8002012
:1009D000C8F81C803DF012FB58B335F02DFC032005
:1009E0001DE099F8003003F00F03072B16D004F137
:1009F00034003DF09BFCC0B2002840F0518194F8D7
:100A0000353004EB83039F6B04233B7006237B701C
:100A100055E734F033F8002800F0C2800C200FB006
:100A2000BDE8F08F35F04CBC03F00F03072B00F04E
:100A3000658134F023F8002840F0348120640025DB
:100A40002E4694F8242094F82530A4F87E50C2F362
:100A50004202012100250DF13300C4F880608DF8B9
:100A60003320C3F38206A4F87C5030F099F9024693
:100A7000002800F0088133463946484635F0E6FC48
:100A80004D494E4B2570A0FB0101C0184FF03103BA
:100A900041F10701A360C4E9055543A3D3E900234D
:100AA0006560E560FFF77CFBB4F87060206131F0B1
:100AB00077FD00F10E07002E00F00B8194F8243032
:100AC00065F3000384F82430DB07256900F11C81FD
:100AD000D4F84480B8F1000F00F0A880D8F8008066
:100AE000AB1C3B440DA940460D9300F0CDF9236F9C
:100AF00094F87B2040F271218146A3FB0131002A4A
:100B000040F0388142F6DC32981841F1000140F2A1
:100B1000E2420023FFF744FB80B2A8F83C004A46BB
:100B20000D99404600F0F8F98146002840F0AB806E
:100B30000DAB08930290224B2248049505F247150D
:100B4000069491211D600993A6FB000301FB063169
:100B50001D4B07931D4B05934FF6FF73022503931F
:100B600011A3D3E900230D95FFF71AFB0321019090
:100B70003B462A46CDF80090484631F06BFB0DA964
:100B800032F0C0FD00287ED198F84E3043F00103CA
:100B900088F84E3094F8843043F0010384F88430B0
:100BA00000200FB0BDE8F08F8D49FD1A070000004E
:100BB00078680020F3B9050000CA9A3B8C49FD1AF9
:100BC0006C680020002AE7844127030049060000E2
:100BD00033F054FF0028E3D094F88430D8077FF531
:100BE0001DAF94F8352094F8293004EB820204EB11
:100BF0008303916BD86A35F0CBFA00287FF40FAFEE
:100C0000236C002B3FF40AAF1A7902F0FF014AB9B6
:100C100042F2107206FB02F2A4F87C10A4F87E5097
:100C2000C4F880201B79002BBAD0F7E65E4B5F48F2
:100C3000049505F247150694CDF8088091211D60B2
:100C40000993A6FB000301FB0631594B0793594B4F
:100C500005934FF6FF7302260DAD039350A3D3E91E
:100C600000230D960895FFF79BFA032101903B4660
:100C70003246CDF80080404631F0ECFA294632F099
:100C800041FD002886D0236A002B3FF4C7AE35F023
:100C9000D3FAC3E6584632F083FC504632F074FC77
:100CA0000720BCE632F06AFC804608B332F072FCE2
:100CB00000286CD00023C0F80080037194F8243021
:100CC0002064DA073FF5BBAE42F2107303FB06F671
:100CD000B7E699F8005005F00F05A5F10105B5FA42
:100CE00085F56D09EAE608F16000C8F8680013E6CA
:100CF000236A002BD4D035F09FFAD1E799F802305F
:100D000059067FF596AEE7E5274B099300200DAA1B
:100D100018600226049501950892254D254A0592F2
:100D20000321CDE9020006943B4600900795324628
:100D30000D9631F08FFA0DA932F0E4FC0028A2D113
:100D40000DAA1D4908924AF2D83200920591CDE9C8
:100D500003000321CDE9010007953B4606940122DB
:100D60000D9631F043FA0DA932F0CCFC00283FF487
:100D700011AF88E702FB01110132A2FB0303194402
:100D800040F2E2420023FFF70BFA80B2C5E6236A85
:100D90000BB135F051FA404632F0F6FB80E700BF68
:100DA0008D49FD1A070000006C680020002AE784C6
:100DB00041270300490600005D5C030000000000BD
:100DC000F0B590F8243090F825708BB0C3F342034F
:100DD0000D46044601210DF1230016468DF82330FF
:100DE0002FF0DEFFC7F3820702463B463146284616
:100DF00035F02CFB1E491F4AA0FB0131981841F128
:100E0000070119A3D3E90023FFF7CAF92369984220
:100E1000054621D21B1A00220192174A0293174B52
:100E2000A21AA3FB02320221520900230A4409AE8E
:100E3000099113490591CDE903330321D2B20696F6
:100E40000093184631F066FA314632F05BFC38B94F
:100E5000256100200BB0F0BDFBD9C21A0023DBE7EF
:100E60000C200BB0F0BD00BF8D49FD1A070000003B
:100E700000CA9A3B8C49FD1A78680020398EE33805
:100E800041270300000000002DE9F04182B0044634
:100E90001F4E204F884636F0B3F8072500236360C5
:100EA000E36029463346E0FB07313122A260184651
:100EB00015A3D3E90023FFF773F994F8313020F03C
:100EC0007F4004EB83032061596B5F231A46204661
:100ED00036F056F82946E0FB07610BA3D3E900235F
:100EE0003046FFF75DF901A920F07F403BF09CFF01
:100EF00018B9019B0233C8F80030002002B0BDE8E9
:100F0000F08100BFAFF300808D49FD1A070000009B
:100F10008C49FD1A00CA9A3B2DE9F04700268CB097
:100F20008846C0E9056620490670174650220446E7
:100F30002FF07AFD0546A08F1C4940F2E24202FBE9
:100F400000F002230B93A0FB010115A3D3E90023BA
:100F5000FFF726F90DF12C0ACDF820A006941946CA
:100F600023691F44124B0793124B059381460023BC
:100F700010464FF47A72CDE90367FFF711F9033594
:100F8000EDB2CDE9019043462A4600963046032152
:100F900031F02CF9514632F0B5FB0CB0BDE8F087CA
:100FA0008D49FD1A070000004C69002000CA9A3BD9
:100FB000412703003D7003002DE9F04FA3B00D461B
:100FC0001E4640F201232C991092AB432D9A0D91AD
:100FD00004460E9200F0918194F8293004EB8303CB
:100FE00005F4007BD3F82CA09AF8007007F00F07E7
:100FF000072F10D0BBF1000F04D10C27384623B0C7
:10100000BDE8F08FD6F801203178204623B0BDE846
:10101000F04F35F0BFBE9AF802200AF1040112F039
:101020003F0318BF9AF803300B91BBF1000F02D0B9
:101030007F2A00F284810D99099304F128003DF084
:101040002BFA9AF800100278034601F00F0122F003
:101050003F020A4303F8022B81469AF8022099F8CE
:1010600002101493920962F3871189F80210616CDF
:10107000099B04F11C004FF00008002900F0C98210
:101080004A7D01EB820290690A681592C2780C9041
:101090000230139002F00100129001F114000E9939
:1010A000119209933DF0F8F9804699F8000098F8FC
:1010B00000100C9B00F00F0021F03F01014388F865
:1010C0000010197898F80000C1F3801161F38610C0
:1010D00088F800001978C0B2C90961F3C71088F810
:1010E000000099F8021098F802004FF001038909F6
:1010F0008DF82830099B61F3871015F001020F92DB
:1011000088F80200119A03F0010140F006810029DD
:1011100000F04B819AF8001098F800C00F98C1F3C6
:10112000801161F3861C88F800C099F8001060F304
:10113000861189F800100AF10A010B911299002911
:1011400040F048810C990431099102F002011F918D
:10115000990740F109810B9998F8000006310B912D
:101160009AF80010C90961F3C710414601F8100B45
:101170004FF003008DF8280099F800006FF3C710B6
:1011800089F8000002F0020010B1099806300990B9
:1011900013F00800199002D00B9802300B90881CB5
:1011A0000F9015F0080000F0DD8002203070D6F8B6
:1011B00001001890C6F8011005360A9840F0080C96
:1011C00012F008008DF828C01A9002D00998023059
:1011D000099013F010001B9002D00B9803300B9075
:1011E0004FF018008DF85C0009F10900119002F031
:1011F00010001C90E80640F1A480881CC6F801008D
:101200004CF010000A9003203070053602F01000F8
:10121000002800F0A38000201D9009980330099059
:101220000A98C00644BF05310F91590610D50B9B93
:1012300001330B9394F8253003F01C03102B00F0BE
:1012400009824FF058038DF85C3009F10A031193BD
:10125000530606D5099B013309930A9B43F04003CB
:101260000A939DF82830DAB213F0400316921E93C9
:1012700002D00F9B01330F93119B149A9B1ADBB280
:10128000022B03D809F1030311930123099A13993F
:10129000501AC0B2022803D80C9A033209920120D6
:1012A0000C9A92F801C08445C0F07C810F9908F136
:1012B00002028A1AD2B2022A03D808F103020F925C
:1012C0000122BBF1000F00F08980099DD6F80110C2
:1012D000C6F80150ACEB00003578C0B230708B46D8
:1012E0000536002D40F06C81002940F08D81099970
:1012F000CDF840B00546DC467EE0B84AB849B9486A
:1013000040F2F45349F0A7FC002383F31188BFF3A4
:101310006F8F0323184602DF5EE616F801EB98F89C
:1013200000C06EF3861C88F800C099F800C06FF307
:10133000861C89F800C000293FF400AFFBE61227A5
:101340005CE61098C0063FF561AF02F0100028B1CE
:101350004CF010000A9009981D905EE702F0100012
:101360001D905DE7189028E70F9808F10A01002802
:101370007FF402AF02F00200002800F027810C99F0
:1013800098F800C00978C90961F3C71C41464FF0BD
:10139000030001F810CB8DF8280099F800C00F98D1
:1013A00060F3C71C89F800C0EFE61299002900F02D
:1013B000F9800C9998F800C009780F98C1F3801152
:1013C00061F3861C88F800C099F8001060F386115C
:1013D00089F800100C990A310991B6E66D0500F103
:1013E000E3801099890500F10D81ACEB00050999A6
:1013F000CDF840B0DC46EDB205EB0C0EBEF11F0F90
:1014000028463FF7FBAD104460445F2800F3EC80B2
:1014100099F8020089F80130013B63F3050089F86F
:10142000020098F802300F9E501E60F3050388F802
:1014300002300BEB05031A4488F8012030462A4697
:1014400053F0D3F9109B23B15A461946701953F043
:10145000BEF998F802309F0600F0A280179B5E0646
:1014600040F1FD800B9A119912F8013C01F8013C02
:10147000531E0B934B1E11931B9B13B10B9B033BF2
:101480000B93119E94F8253016F8032C6FF3050288
:1014900006F8032C5D093CF003FE32288CBF0020C7
:1014A000012095FAA5F3002DB3FA83F308BF4FF09E
:1014B000FF335B0106F8013C16F8033C60F386132A
:1014C0006FF3C71306F8033C002306F8023C1C9B8D
:1014D00013B1099B033B0993169BDD0602D50F9BB5
:1014E000033B0F931D9B23B10F981946032253F022
:1014F0007CF9199B13B10B9B023B0B931A9B13B105
:10150000099B023B0993189B002B00F0FD80189A61
:10151000537812781B0203F470631A431198D1B206
:1015200000F8051C94F87A30C3F303031B0103EBA6
:10153000122300F8043C0F9800F8021C94F87A304B
:10154000C3F303031B0103EB122300F8013C169BBA
:101550009C0700F19380821E169BD8070BD5129B27
:10156000002B00F0E880099B063B196842F8061C36
:101570009B8822F8023C99F8023099061CBF9DF81E
:101580005C3089F8033098F802309A061CBF9DF849
:10159000283088F80330159B93F84E30DB077DD454
:1015A00000272BE51F2729E596F800B0D6F8011093
:1015B0001091ACEB00000999C5B20536DC461BE77B
:1015C0004FF0000CE346CDF840C015E799F800C095
:1015D0000F9860F3C71C89F800C0D9E5FC760500B8
:1015E0007077050028700500A2F15F035B442B446F
:1015F000CA45337000F09A800C9B984500F09180AA
:101600004527FBE45D465946AB461095AC46284657
:10161000F9E636F0CBF8099B1590002800F097808A
:10162000DDF854E0CDF848809EF831200EEB8202C0
:101630000121506B0C9084461CF8022BCDF84CC055
:1016400002F03F024170027080F803800EF11C012D
:10165000424622E50A9B43F040030A93F8E51E9BAD
:10166000002B3FF409AF099A0F9912F8013C01F8D9
:10167000013C531E09934B1E0F93FDE61F9B002B4D
:101680005CD0099B063B09930F991A6841F8082C16
:101690009B8821F8043CA1F108025DE7159C2046D7
:1016A00035F0AEFC364A374B0721E0FB02311846D5
:1016B00031A3D3E90023FEF773FD256920F07F44B1
:1016C000AC423FD22E1B0025159F2F4902235022EA
:1016D000384621932FF0A8F900232C490195C21C0C
:1016E00021AD0591CDE9033303210296D2B20093D7
:1016F0001846069530F00EFE294632F003F8002811
:101700007FF47BAC3C614BE794F87A30204903F0DE
:101710000F0331F81320501C21F81300C2F30B0201
:10172000FCE60E9A636C12785A7569E70D9B1B787C
:1017300084F8293060E70B9B063B16E70B9B063BC2
:101740000B93A1E77FF62CAF651B0026BCE7CA45CB
:101750007FF454AC0F4A1049104840F2276349F017
:101760007AFA159B83F31188BFF36F8F0323184612
:1017700002DF43E4AFF300808D49FD1A070000004B
:1017800000CA9A3B8C49FD1A4C690020412703008E
:1017900028690020FC760500C07705002870050048
:1017A00070B590F803C01CF0010F14BF00F10A04DB
:1017B000041D1B481CF0020F15461E464FF0070281
:1017C000A1FB000318BF063402FB01311CF0080F17
:1017D00011A3D3E9002318BF0234FEF7E1FCAD1BCF
:1017E00010492844A1FB00310D09490C04D00E4BCF
:1017F000A3FB003001214509A2782078657022F012
:101800001F02C5F3042361F3C71013432070A370B4
:10181000204670BDAFF3008000CA9A3B0000000074
:101820008D49FD1A89888888B5814E1B000000000B
:101830002DE9F04FD0F844B0A949DBF80030DFF8CB
:10184000A4A291B0044608905022184609932FF0A4
:10185000EBF8FF23D4F88C508DF82F30C61C0023F2
:10186000F6B20D950C9301240DF13C090DF13808E9
:101870000CAF0CE00D9BAB4202D06CB3013CE4B268
:101880009DF82F30FF2B3BD09E424CD00D9D002069
:101890000221CDE905A9CDE90078CDE90300029048
:1018A0000DAB0DF12F020F9130F016FE022800F063
:1018B000EF800F9B002BDDD08B4A8C498C4840F683
:1018C0008E4349F0C8F9002383F31188BFF36F8F6B
:1018D0000323184602DFCDE78649834A844840F651
:1018E000974349F0B8F984F31188BFF36F8F03234E
:1018F000184602DF9DF82F30FF2B4FF0FF04C3D1B5
:101900007D49794A7A4840F6994349F0A4F9002381
:1019100083F31188BFF36F8F0323184602DF9DF80E
:101920002F309E42B2D10E9C744A0C9EA4F57423B3
:10193000A3F51073934207D904F1E874013E04F54E
:10194000D4340C9604F5A5746D4BCBF80C60A3FB56
:101950000434A40C089BCBF8104093F8282093F88B
:1019600029100E948A42D3B204D00133DBB2022B89
:1019700008BF0023089A634D92F82570BBF80890C1
:1019800002EB8303A6FB0501D3F82CA04FF0070858
:101990004FA3D3E9002308FB0611FEF701FCC7F3B0
:1019A00082079AF8011007F003030B4456492218E6
:1019B0000933A1FB0201DB00C7F34007FB4021F024
:1019C0000F0003F59673A0EB1111B3EB410F21D972
:1019D000099B4E489B8F40F2E24101FB0324A4FB8C
:1019E00000013DA3D3E90023FEF7DAFB20F07F4698
:1019F000A6FB050136A3D3E90023CBF80C6008FB56
:101A00000611FEF7CDFB09F10109241ACBF81040AD
:101A10001FFA89F92246314600235046FFF7C0FEDF
:101A2000DBF80C300999099D0133CBF80C3091F8A3
:101A30004D2091F84C30934202EB420305EB4303F7
:101A400018BF81F84C2093F84530062101FB025263
:101A50004032E98F044603F03F0348463BF08CFADE
:101A6000237860F30503237030F09AFD0D9930F070
:101A700099FD089BD3E90121DB6891422CBFC3EBA0
:101A80000103C3EB020398420ED211B0BDE8F08F00
:101A90000F9B022B7FF40DAF0221002030F068FD78
:101AA0000F9B022BF8D004E70F4A1949104840F663
:101AB000E54349F0D0F8002383F31188BFF36F8F1B
:101AC0000323184602DF11B0BDE8F08FAFF30080AA
:101AD00000CA9A3B000000008D49FD1A0700000073
:101AE0004C69002039700300FC760500E47705009E
:101AF00028700500EC7705001C780500BFBDF07F5D
:101B000083DE1B438D49FD1A8988888800CA9A3B69
:101B1000407805000000000070B5234C9DF810E0EF
:101B200094F856C01CF0020F37D1460816F0040591
:101B300033D151B363F3830C400194F83230A4F8ED
:101B400044104FEACE0E0EF0180E00F0200040EACE
:101B50000E0023F03803184394F83C3084F8320028
:101B6000124884F856C066F3020384F83C30912191
:101B7000A2FB000301FB023109A3D3E90023FEF716
:101B80000FFBC4E91200284670BD94F83C3065F3A1
:101B9000020384F83C30284670BD0C25284670BDF1
:101BA0008D49FD1A07000000883C0020002AE784C8
:101BB00010B504469DF8080022854FEA411CC0007C
:101BC000A17D00F018000CF0200C4CEA000C0C4831
:101BD00021F038014CEA010CA3FB0002912184F8AA
:101BE00016C001FB032104A3D3E90023FEF7D8FAB2
:101BF000E06210BDAFF300808D49FD1A07000000C0
:101C0000002AE784000000002DE9F04790F85630E4
:101C100090F832205A4DDFF86C916FF300030446C0
:101C200000F13D01C3F3800060F386128CB084F8AC
:101C3000563084F8322030F007FD94F83220B4F8A2
:101C400044305148E46102F07902002784F83220E0
:101C50009121A3FB0002C4E90577277001FB032152
:101C600045A3D3E90023FEF79BFA3123E26CA3607E
:101C7000464B6760651BA3FB053502F10E039842D6
:101C80009CBF3A461346C5F3871588BF19460646DA
:101C9000236105EB4503E76098BF3146A26449F82C
:101CA000231030F07DFC236A00F10E074FEA450A4D
:101CB000002B45D00DF12C08AA4409EB8A030993A7
:101CC000CDF820800694B4F844302F484FF0000936
:101CD000A3FB0002CDF80C90912101FB03212369A5
:101CE00004932B4B07932B4B059302230B9322A3B7
:101CF000D3E90023FEF754FA104619464FF47A72DE
:101D00000023FEF74DFA0535EDB2CDE90160032160
:101D10003B462A46CDF80090484630F09BFA4146B3
:101D200031F0F0FC40B994F8563043F0020384F8E7
:101D300056300CB0BDE8F0870C200CB0BDE8F08741
:101D40000DF12C08CDE90A33216943460AAA032084
:101D500001F022FA0028AFD10B990F4806A3D3E96E
:101D60000023A1FB0001FEF71BFA0A9B20F07F472E
:101D70001F44A1E7AFF300808D49FD1A0700000062
:101D8000883C0020C4690020002AE784A38B2EBA77
:101D900041270300417C030000CA9A3B0000000079
:101DA0002DE9F04F0B79062B8FB00C46064614D068
:101DB000092B00F09C80A64AA649A7484FF4A373BC
:101DC00048F049FF002383F31188BFF36F8F03238B
:101DD000184602DF0FB0BDE8F08FD1F808A0DAF89E
:101DE00018306BB19A4A9D499B48912348F033FFC4
:101DF000002383F31188BFF36F8F0323184602DF9C
:101E0000DAF80090484636F057FA637E26600027DD
:101E100067F3C3036376637FE760002B5DD0053013
:101E200001225FFA80F804F11E0E3D4639460B92FE
:101E3000A27F90064DD094F91F0094F81FC000288F
:101E4000C0F232811CF0010F14BF04F1260004F12E
:101E500020001CF0020F18BF06301CF0040F18BF42
:101E600001301CF0080F18BF02301CF0100B1CBF13
:101E7000834603301CF0200F18BF12301CF0400FB7
:101E800018BF0130C2F30502A0EB0E000132D2B23E
:101E9000C0B2824238BF02469A423ABF9B1ADBB2B6
:101EA0000023BBF1000F78D09BF802009BF801C023
:101EB000020202F4F85252EA0C026ED0002948D015
:101EC000002D00F0F8812A8F13449BB22B87638387
:101ED0006CE0013BDBB2002D40D1638321463046EC
:101EE00031F064FB0FB0BDE8F04F31F06BBB8F6891
:101EF0005B4B3D689D4261D1D5F82CA0BAF1000F33
:101F000000F0978056493C2208462EF08DFD00F1E6
:101F100006085FFA88F8DAF8000036F0E7F97A790F
:101F200002F00702012A814646D0022A2FD1072358
:101F3000617E237100200B4660F3C3036376637FE9
:101F40002660E06053B10B92C1F3400104F11E0E14
:101F50006EE73F2840F2BF80002DBED02A8F134489
:101F60009BB22B876383B9F1000F44D099F85630A8
:101F70006A6BDB0700F19C80D460EE6A6C63002E14
:101F800048D028460FB0BDE8F04F36F083BA304A4B
:101F9000304931484FF4827312E7002D6AD02A8FFE
:101FA00013449BB22B8763830029DCD06B6B002B1F
:101FB00064D0DC606C630DE70623B9E7D7F81880BE
:101FC000B8F1000F79D0D8F80050EB6A9F4266D084
:101FD0001F4A24492048D12348F03DFE002383F3C3
:101FE0001188BFF36F8F0323184602DFBA464746B6
:101FF0004FF0FF088FE7164A1B49174840F2353368
:1020000048F029FE89F31188BFF36F8F0323184628
:1020100002DFABE70E4A15490F4840F25D3348F046
:102020001AFE86F31188BFF36F8F0323184602DF71
:10203000A7E7074A0E490848BD2348F00CFE8AF37B
:102040001188BFF36F8F0323184602DF5AE700BFE2
:10205000CC780500A87005002870050028790500D7
:10206000FC69002044790500C4780500107905005A
:1020700038790500638300293FF430AFBA4ABB4981
:10208000BB4840F2F71348F0E6FD002383F31188C4
:10209000BFF36F8F0323184602DF6B6B89E7BA46E5
:1020A00047464FF0FF0836E7002D3FF417AF5AE7D9
:1020B0006B6BA3427FF47DAF8CE6AB4AAD49AC4875
:1020C000CE2348F0C8FD88F31188BFF36F8F032338
:1020D000184602DF77E7002D00F00E812A8F1344A7
:1020E0009BB21E2B2B8703D9637EDE067FF53BAFA9
:1020F0006B6B002B00F01A81DC602B8F6C636383A9
:102100009BF800203B79797962F305033B719BF8DA
:10211000022001235209934063F302017971637E27
:10212000D80600F1CA80B9F1000F00F0018199F8DA
:10213000563013F00103BBD1CAF818309BF90030B8
:102140000B98002BACBF1E214FF49671B960637FD2
:102150009BF8022000F003061E440936C0F340033A
:10216000F600DE4012029BF8013002F4F8521A43E6
:1021700001FB02FAB245FFF4F9AE9BF80030787922
:102180005A064CBF4FF032094FF4FA797A4B09FBEB
:102190000AF9B9FBF3F909F12F0301EB4301B96027
:1021A00000F0070001213BF051FD4FF0000B312101
:1021B0006369A960C5F804B0C5F80CB079796F4FB0
:1021C0002F3B9E1B01F003030933C1F34001DB00E9
:1021D000CB40564403F5EA730344361A6848072196
:1021E000E3FB07015EA3D3E90023FDF7D9FFA6EBCC
:1021F000090620F07F405AA3D3E900232861A6FBFB
:102200000701FDF7CDFF5A4620F07F46022101204D
:102210002EF07AFCB8F1FF0F1AD0CDE900BB23698C
:102220003F3B424633440121584630F08BF810F0D2
:10223000FD0F0DD04C4A53494D4840F20B3348F046
:102240000AFD8BF31188BFF36F8F0323184602DF5B
:102250004D493C2228462EF0E7FB4C4A2369CDE944
:1022600007254B4ACDE90525296900960024821DE2
:10227000CDE90341CDE901443F3BD2B201212046E3
:102280002FF0B4FF10F0FD0F0DD0374A4149384808
:1022900040F21B3348F0DFFC84F31188BFF36F8FEB
:1022A0000323184602DF0122022110460FB0BDE8C9
:1022B000F04F2EF029BC6383E0E6DAF8183083B1E2
:1022C000BB420ED0284A3449294840F2852348F0C1
:1022D000C2FC002383F31188BFF36F8F03231846DA
:1022E00002DFCAF81870637E43F0080363763B7917
:1022F0006FF386133B716DE52848CDE90C312EF064
:1023000065FBDDE90C31054608B3038790F8203002
:102310000170C0E9051161F3C71301634163C06136
:10232000C0F82CA080F8203000F11C072C63E4E6F4
:102330000D4A1B490E484FF4277348F08CFC89F373
:102340001188BFF36F8F0323184602DFEFE6637E29
:10235000DF067FF5C3AD43F008036376BEE500BF3B
:102360008D49FD1A07000000CC780500587905005A
:10237000287005003C79050040420F0000CA9A3BD6
:102380008C49FD1A98790500FC69002081850300BD
:1023900079830300C87905006C790500F86900208D
:1023A000C4780500000000002DE9F04F05468BB011
:1023B0008B46012002219A4614463EF03BFF002244
:1023C0000221814601202EF09FFB3D494FF4A0726F
:1023D00028462EF029FBC61DF6B23A4B0095324630
:1023E000012100202FF0F2FF10F0FD0F0ED0364A31
:1023F0003649374840F6320348F02DFC002383F37A
:102400001188BFF36F8F0323184602DF314BA4FB03
:102410000348204628A3D3E900234146FDF7C0FE28
:102420002D4B20F07F47A7FB03310722E01A02FB68
:10243000071168EB01014FF47A720023FDF7B0FE3B
:10244000CDE90170CDF800B008950695296995F998
:10245000394022480491224931EA240128BF01462B
:102460000591204C07944FF6FE7103915346324676
:10247000012100202FF0BAFE10F0FD0F0ED0124AFD
:102480001249134840F6470348F0E5FB002383F365
:102490001188BFF36F8F0323184602DFB9F1000FD5
:1024A00002D10BB0BDE8F08F0122022110460BB023
:1024B000BDE8F04F2EF028BB8D49FD1A0700000043
:1024C000E03C0020918B0300387A050098790500E4
:1024D0002870050000CA9A3B8D49FD1AE9C7030020
:1024E00051C90300318B03002DE9F04F87B0CDE9CE
:1024F0000432BDF8442003780292BDF84820BDF8AC
:102500004080BDF84C50468EB0F82E90B0F8B4B074
:10251000019104460392002B00F0BA80013EB6B24E
:10252000A368D4F8AC70721B92B2002B009209DA47
:10253000E168626823F0004391422CBF7F18BF1806
:10254000A360FF1A009A638D13FB02F39BB2B3FBE7
:10255000F8F218FB02F080B283421FFA82FA80F090
:102560008680C01A40F2E242554902FB00F0A0FB0F
:10257000010151A3D3E90023FDF712FE20F07F40B3
:102580000744D94494F839304D44AD1B554440F2CA
:10259000E246DB09E58506FB08F57DD0226C009953
:1025A000A36CDFF81CB102FB1133A3643BF078FD90
:1025B000814694F81401C0F342003BF073FD059B83
:1025C000814406FB03F305FB09F9236509F574292A
:1025D0003C4B09F23F29A3FB09394FEA994303FB1E
:1025E0000AF02364A5EB0309A36C6A080344963A36
:1025F000934228BF1346C4E911230023C4F81C31B9
:10260000A0FB0B012CA3D3E90023FDF7C9FD049B1C
:102610003F1A2D48A0FB0330800A06FB00F026A3DA
:10262000D3E90023A0FB0B01FDF7BAFD20F07F46A4
:10263000029BA385039BA4F82431A4F82A80294691
:10264000204637F0FBFA019B13B10023A4F8263192
:102650003B464A4631462046FFF7A6FE94F8203115
:1026600043F0010384F8203107B0BDE8F08F08FB88
:102670001231134840F2E24389B203FB01F1A1FB9E
:1026800000010DA3D3E90023FDF78AFD3F1A78E787
:102690004E445E44B6B243E7049B0948A3FB0001E5
:1026A00005A3D3E90023FDF77BFD20F07F46A94673
:1026B0000136BDE7AFF300808D49FD1A0700000029
:1026C00000CA9A3B83DE1B435917B7D100000000B4
:1026D0002DE9F04F04460B68D0F81E00D3F80080B7
:1026E000638C166893B00F46ADF84430237F2168A1
:1026F0000A91C3F3801B1090CDF82CB012A911E9F8
:1027000003004FEAD31A08F1850915460E90ADF87B
:102710003C100EAB5A465046494636F01FFC002886
:1027200040F0A08196F82C11BDF83C200C906BF382
:1027300041010E98C6F833016AF3000186F82C11A6
:10274000A6F83721D8F88520C6F82D21B9F804203D
:10275000A6F83121E28D94F83010A9722A81D4F8BC
:102760002A206A60D4F83A20AA6105F1180094F88A
:102770003E20027105212EF013FB6A7F00F03F001E
:1027800060F305026A7794F83F20C2F30401A97749
:10279000A18EE981012802F01F0289B240F2628114
:1027A0001B3202F01F020B2A00F25C810C9B0029F5
:1027B00000F058813A685360E38E2B82E989D8F89B
:1027C000442040F2E24303FB01FA618E0C91002A9F
:1027D00000F0AD8198F8251040F6C41240F6A663CB
:1027E0007F2988BF1A460D920021304637F03AFA09
:1027F00094F83F3096F814215B0963F3430286F89E
:1028000014213BF04DFC814696F81401C0F34200C0
:102810003BF048FC09EB00030AFB03F3C84A03F54D
:10282000742303F23F23A2FB03239B0C6B624FEA4A
:102830005A03963BAB6294F8313040F2E24202FB1D
:1028400003F3AB63238FA6F824315146304637F0AB
:10285000F5F9BC4BC6F828316B68C6F81831D8F8C2
:102860004430002B00F05E814FF00109E20700F1D7
:102870003A819DF82C30A377BDF83C30A4F8233082
:102880000E98C4F81F004FF48073A383EB89E38490
:102890002B8A2385B6F82431638596F81431C3F367
:1028A000420384F82C30304636F0AEF9A881E0803F
:1028B00021460A987C6830F079FEAB89E3801C23BE
:1028C000D4F800B02371B9F1000F40F0038184F80F
:1028D0001C9032F0D3F8002840F0E480214658469E
:1028E00030F076FE002108463BF0B0F9964A974B4F
:1028F0000446072100F2FE40E0FB02314FF00009E0
:1029000018463123B360C6F804908BA3D3E90023A3
:10291000C6F80C90FDF744FC20F07F4030610C9924
:10292000FB686D6A40F2E24202FB01330D992F3BD6
:1029300019440C1B4A46022101202EF0E5F8D8F874
:102940004430AAEB0505B3B1D3F800A0504634F0EB
:10295000DDFEC21C7E4BCDF800A0D2B2012148465C
:102960002FF034FD012800F01A819AF84E306FF3F1
:1029700000038AF84E30404634F058F982467248D7
:102980006DA3D3E90023A4FB0001FDF709FCCDF8FA
:102990000480BB686E49009120F07F490AF1020271
:1029A0003F3BD2B24B44012100202FF051FD0128C2
:1029B00000F0E08098F82430DB076BD4304636F026
:1029C00023F9614BA5FB03A804465BA3D3E90023CD
:1029D00050464146FDF7E4FB5E4BBF685E4A0792F6
:1029E00020F07F45A5FB0331BAEB03005B4B059359
:1029F00040F2D1130696089333694FF0000BCDE9EE
:102A000003B34FF0070303FB051168EB01014FF41B
:102A10007A720023FDF7C4FB07343F3FE4B2CDE9EF
:102A20000150CDF800903B462246012158462FF038
:102A3000DDFB10F0FD0F0DD0494A4A494A484FF4DA
:102A4000E97348F008F98BF31188BFF36F8F032304
:102A5000184602DF0122022110462EF055F813B06D
:102A6000BDE8F08F0022C8F8142095F820300A98AD
:102A700062F3000385F82030E568012621462671BF
:102A800030F094FD28682E71294630F0A1FD13B076
:102A9000BDE8F08F002301220093184611462FF065
:102AA00095FC8BE72146584630F080FDD8F8404031
:102AB0004046D4F800B034F0B9F810F0FF0921D145
:102AC00000231222A4F8069023722271AA8962813F
:102AD000637203E76B7F43F040036B77281D3AF086
:102AE00047FAE883F3E61E4A20491F48F82348F0D6
:102AF000B2F8002383F31188BFF36F8F03231846C6
:102B000002DFB6E6164A1A4917484FF4A67348F092
:102B1000A2F8002383F31188BFF36F8F03231846B5
:102B200002DFCDE794F81C90C9F340199EE60D939F
:102B30005AE600BFAFF300808D49FD1A0700000080
:102B400083DE1B43404B4C0000CA9A3B8C49FD1A64
:102B5000A9C703008D49FD1A75C70300E9C7030023
:102B6000E07E0500987905002870050030740500A6
:102B70003475050030F0F0FD80453FF41BAF124A7C
:102B80001249134840F2792348F065F8002383F393
:102B90001188BFF36F8F0323184602DF0AE730F076
:102BA000DBFD82453FF4E1AE074A0849084840F2A0
:102BB000792348F050F889F31188BFF36F8F03230E
:102BC000184602DFD1E600BFE07E05003C7F05002D
:102BD00028700500000000002DE9F04F8DB0CDE910
:102BE00003011E460020BDF860309DF85C80BDF8F2
:102BF00064A0BDF868909DF86C500592069335F07E
:102C000095FB00286ED008F0010B044658462FF0C3
:102C10000BFD0746BBF1000F5DD1169B58463246AF
:102C2000394636F09BF9002860D1012D5AD894F826
:102C30003C3065F3020384F83C30236A079304F1C7
:102C40001C0B002B56D0236A1D6806F001060021DC
:102C500008463AF0F9FF94F83C108B4A01F0030360
:102C60002833C1F34001DB00CB40B3F5A47F38BF6C
:102C70004FF4A47300EB4303844803F26E2307214F
:102C8000E3FB02017EA3D3E90023FDF789FA20F0DC
:102C90007F40286194F8561068F3830184F8561039
:102CA00094F83C1066F3451184F83C1016990968B5
:102CB00061621699898821850599A4F83090DDE92B
:102CC0000323009158460021FEF772FFE0640020C4
:102CD0000DB0BDE8F08F06212DF0BAFE00289CD182
:102CE0001220F5E70C200DB0BDE8F08F0B200DB0E1
:102CF000BDE8F08F30F042FC0890002800F0BC8066
:102D000035F076FF0546002800F0B38020302EF025
:102D10005BF805F11C030993002840F0978003211C
:102D200005F124003AF0E8FD069BA86E6B854FF68E
:102D3000FF73A5F82CA02B85002800F0968005F1E4
:102D40005C0205F158012DF08FFE95F86E304FF0C2
:102D5000000A23F0070385F86E30C5F868A0A5F8CF
:102D60006CA0C5F82EA0A5F832A005F134003AF009
:102D7000A9F895F8393060F30503012185F8393059
:102D80000DF12F003AF0B8FD9DF82F20404B85F84B
:102D90003BA0A3FB0213DB0803EB4303A2EB83027C
:102DA00095F83930A5F826A103F03F0385F83930AE
:102DB00095F83C30A5F8249123F00303053285F8FB
:102DC0003C30062385F83A20A5F82231284636F013
:102DD000C5FE069B40F2E24101FB03F3194628467B
:102DE00036F02CFF089BC5F8F43085F8F0A005F10B
:102DF000700036F0D1FC95F82C31C5F804A006F02F
:102E0000010666F3410385F82C313123AB60169B34
:102E1000C5F80CA01B68C5F83331169A95F82C310B
:102E20009288A5F8372168F3000385F82C313B68B8
:102E3000C5F82D31BB88A5F8313105F11C0323629B
:102E4000C5E905AA85F800A0ED6100E7114A12491D
:102E50001248C12347F0FFFE079B83F31188BFF39D
:102E60006F8F0323184602DF59E705F16000A8665B
:102E700065E7089830F088FB072029E7AFF300806A
:102E80008D49FD1A0700000000CA9A3B8C49FD1AC3
:102E9000ABAAAAAA6C7F0500847005002870050003
:102EA0002DE9F04F04468DB090F81C80238D406AC8
:102EB000ADF82C30E307C8F3C0160F461546C8F32B
:102EC00040180A9000F1E480BDF82C300A98A677EB
:102ED0004FF0000AA4F81CA0A4F82330C4F81F0087
:102EE0003B68D3F80090EB89E3842B8A2385B9F8FB
:102EF000303063853BF0D2F884F82C002E683046E1
:102F000035F082FE5146A881E080304636F0AAFEB8
:102F1000D7F804A02068214630F048FBAB89AAF816
:102F200006301C23DAF800408AF80430B8F1000FAC
:102F300040F0BE808AF81C805146204630F048FBA5
:102F4000B3687268B5F80E80FD68614C934238BF73
:102F50001346002103F10E0A084640F2E24303FB48
:102F600008F83AF071FE002202212D1A01202DF0FE
:102F7000CBFD484635F0A0F9A5FB044552A3D3E9A3
:102F80000023834629462046FDF70AF9CDF8049030
:102F9000BB685049009120F07F490BF10502A3EB7B
:102FA0000A03D2B24B44012100202FF051FA10F055
:102FB000FD0F0ED0484A4949494840F23E3347F098
:102FC0004AFE002383F31188BFF36F8F0323184653
:102FD00002DF4FF0000B5B4604220121CDF800B068
:102FE00058462FF0F3F9304635F00EFEBB68074621
:102FF0003748A3EB0A0AA8FB000133A3D3E9002357
:10300000FDF7CEF81946374B0893374B069340F23D
:103010006E330796099333698046CDE904B31046B1
:1030200000234FF47A72FDF7BBF8304B0722A9FB5F
:103030000331CDE9028002FB0911E01A65EB0101C1
:103040004FF47A720023FDF7ABF80737FFB2CDE9F2
:10305000009053463A46012158462FF0E3F810F00D
:10306000FD0F0DD01C4A1D491D4840F26F3347F03B
:10307000F2FD8BF31188BFF36F8F0323184602DF35
:103080000122022110460DB0BDE8F04F2DF03CBDED
:10309000114A1749124840F2BE2347F0DCFD0023D5
:1030A00083F31188BFF36F8F0323184602DF0BE70A
:1030B0006B7F43F040036B77281D39F059FF4FF0C9
:1030C0000108E88336E700BF8D49FD1A07000000BC
:1030D00000CA9A3B19C903006C7F05009879050066
:1030E000287005001DC9030051C903008D49FD1A50
:1030F0003074050000000000032870B50D4626D08E
:103100000738C3B2012B02D90024204670BD80B21B
:1031100035F082FD04460028F6D090F93930002BB6
:10312000F2DB002108463AF08FFD194E194A00F2F1
:103130004E500721E0FB0621104613A3D3E90023DC
:10314000FDF72EF820F07F402860204670BD00205B
:1031500034F03CFD04460028D6D05F22114634F0FE
:103160003DFD0B4A0B4B0721E0FB0231184606A33D
:10317000D3E90023FDF714F820F07F4028602046B3
:1031800070BD00BFAFF300808D49FD1A070000003D
:1031900000CA9A3B8C49FD1A70B588B01E4607AB31
:1031A0001446019306AA05AB02920093204A2346D7
:1031B00039F098FDFF2834D0069B1E480721A3FB59
:1031C000000201FB032118A3D3E90023FCF7E8FF69
:1031D000044600B13E34079D1749059BA5F57422AE
:1031E000A2F510728A4214D812480721A3FB0002EC
:1031F00001FB03210CA3D3E90023FCF7D1FF0F4B04
:10320000A3FB053504EB954404443460002008B06A
:1032100070BD05F1E87505F5D435013B05F5A575DB
:10322000E2E76FF00900F2E700CA9A3B00000000F5
:10323000D9CC03008D49FD1ABFBDF07F83DE1B434F
:103240002DE9F043C668476873683D491A68D0F8AD
:103250000090A7F57423A3F510738B4283B08046CA
:1032600007D907F1E87707F5D43709F1FF3907F5F2
:10327000A57773681169DD89CDF8049006F1100314
:1032800001AA0220FFF788FF00284ED10199A1EB87
:1032900009031B0237D4084649462FF083F9034639
:1032A00028480721A3FB000201FB032122A3D3E945
:1032B0000023FCF775FF34690444002C346109DBFA
:1032C00040F2E24305FB03F3A3422FD2E41AA342E8
:1032D000FCD33461D8F800301A48A3EB0903A3FBF0
:1032E0000002072101FB032113A3D3E90023FCF70C
:1032F00057FF154BA3FB0737A0EB974020443061E5
:1033000003B0BDE8F08348462FF04CF903460D4862
:103310000721A3FB000201FB032107A3D3E900233C
:10332000FCF73EFF3469241AC7E73469002CD1D179
:1033300003B0BDE8F08300BF00CA9A3B0000000064
:10334000BFBDF07F8D49FD1A83DE1B4300000000E6
:103350002DE9F04F8FB00DF137010446DFF8F0A0F2
:10336000DFF8F0800DF1360030F0A2F99DF836302C
:103370009DF837B00B932FF013F9DAF80060A6FB35
:10338000085631A3D3E90023002781463146284659
:10339000FCF706FFCDE90777069420F07F44DAF8C2
:1033A00004002D4B0593A0FB080127A3D3E90023BC
:1033B000FCF7F6FE294B20F07F40A4FB03310722E7
:1033C00002FB0411CDE90370E81A66EB01014FF42A
:1033D0007A720023FCF7E4FE0097CDE901404B46EA
:1033E0000B985A4603212EF001FF10F0FD0404D083
:1033F0006FF08B000FB0BDE8F08F1948194A002319
:1034000043F0BAFC20B9DAF80C000FB0BDE8F08F39
:103410009DF837209DF836000094234603212EF0B6
:10342000D5FF10F0FD0F0CD00F49104A1048E423CF
:1034300047F011FC0F4847F00EFC0C48E42147F020
:1034400001FC6FF07300D5E78D49FD1A07000000FD
:10345000E06E002000CA9A3B89D103008D49FD1A15
:10346000C86E0020447B0B007C8005000C800500AA
:1034700028700500C480050038B50F4D04462FF0B4
:103480008FF8A9682FF08EF8696803460B48B3FBE4
:10349000F4F4A1FB00011C4405A3D3E90023FCF7CD
:1034A0007FFE20F07F40844294BF0020012038BD81
:1034B0008D49FD1A07000000E06E002000CA9A3B0B
:1034C000F0B5C468636883B00546002B55D13DF064
:1034D000FFFA00203DF022FBA17A607A01F00101A1
:1034E000C0F382003DF00CFB627A252102F01C0241
:1034F00008203DF04BFB3C4B019301A83DF02EFB17
:103500003A4940F25B603DF0E1FB237AC3F34202AB
:1035100062F30613237220463BF016F827682E68E4
:1035200038463AF02BFB06446A6806F10E0101208A
:103530003DF006FD3DF04AFE204633F083FB811C42
:103540003246C9B238463AF027FB054600BB204652
:103550003AF07AFA10B9002003B0F0BD244A2549A8
:10356000254840F2294347F076FB85F31188BFF3E5
:103570006F8F0323184602DFEDE793F820309B0797
:10358000A5D01E4821463DF061FA3DF04BFBE2E735
:10359000174A1B49184840F2114347F05CFB194B8E
:1035A0000721A5FB030301FB05310DA3D3E900238C
:1035B000FCF7F6FD14490246144847F04CFB002581
:1035C00085F31188BFF36F8F0323184602DF10487D
:1035D00021463DF03BFA3DF025FB6FF08B00BBE749
:1035E00000CA9A3B00000000D6BE898E5555550092
:1035F000B8830500B87105002870050045DD03009B
:10360000A87005008D49FD1A6C84050038840500FA
:10361000B1E00300000000002DE9F047C46882B06B
:10362000002306460DF1030104F1140067688DF8CC
:1036300003303AF053FF8046002800F0C2803B7B05
:1036400007EB83031D692B7803F00F03072B0DD0C5
:10365000814A824982489F2347F0FDFA002383F381
:103660001188BFF36F8F0323184602DFAB7813F086
:103670003F0900F08280EB78DA074CBF05F10A02BF
:103680002A1D980748BF0632190748BF0232DB06D9
:1036900040F19080937851781B0203F4F8530B4368
:1036A00000F08880238992F800A0013323813DF047
:1036B0000FFA00203DF032FA97F80990B97A4FEAF4
:1036C000591901F0010148463DF01AFA4FEA890202
:1036D0005F2108203DF05AFA624B019301A83DF0AA
:1036E0003DFA0AF03F0A604940F25B603DF0EEFAB5
:1036F00050463AF063FA40463DF078FAAB783F2BFB
:1037000027D85A4821463DF0A1F93DF0A5FB27688E
:10371000356838463AF032FA054405F10E01726810
:1037200001203DF00DFC3DF051FD204633F0F8FF47
:10373000C11C2A46C9B238463AF02EFA054600287E
:103740005BD120463AF080F928BB002002B0BDE8EA
:10375000F0870DF1030107F118003AF0BFFE0546AE
:1037600000283CD0214642483DF070F996203DF0BB
:10377000DBFB48463DF0C8FAC9E7374A3D493848BF
:10378000AB2347F068FA89F31188BFF36F8F0323E7
:10379000184602DF6FE7304A374931484FF4AD73BE
:1037A00047F059FA85F31188BFF36F8F032318464A
:1037B00002DFCAE7314821463DF048F93DF032FAD0
:1037C000C3E7254A2E4926488A2347F044FA88F35E
:1037D0001188BFF36F8F0323184602DF2FE71E4ABD
:1037E00028491F48F12347F036FA85F31188BFF3C3
:1037F0006F8F0323184602DFB4E7174A224918489F
:1038000040F2491347F027FA204B0721A5FB030399
:1038100001FB05310EA3D3E90023FCF7C1FC1C49D1
:1038200002461C4847F017FA002585F31188BFF3BC
:103830006F8F0323184602DF0C4821463DF006F93E
:103840003DF0F0F96FF08B0080E700BFAFF3008030
:1038500000CA9A3B0000000078840500D08405006F
:1038600028700500D6BE898E55555500C5EA03005F
:1038700015EB0300F8840500B871050045EC030062
:10388000C88405002C840500A87005008D49FD1A28
:1038900018850500388405002DE9F041C46894F9C5
:1038A0001630002B8CB0C0F2E780636805460E46E8
:1038B000002B40F0D680A37D6FF30003A3753DF08D
:1038C00007F900203DF02AF994F82000012100F0CA
:1038D00007003DF015F994F820209200252102F010
:1038E0001C0208203DF052F994F8203023F0180310
:1038F000012084F820302FF0E3FF0746002800F075
:10390000A18007F11C003DF06BF9754B0B930BA8E0
:103910003DF024F9734940F25B603DF0D7F9A07D9A
:10392000C0F3410025303AF049F96F4821463DF097
:103930008DF8A37D9B0602D46368002B7FD0962070
:103940003DF0F2FA00231A46194618463DF024FAD3
:10395000D4F800802F6840463AF010F907446A68AE
:1039600007F10E0100203DF0EBFA3DF02FFC3DF099
:1039700083FA204634F0ACFC411DC9B240463A46B9
:103980003AF00AF9804600287DD116B9E36A002B87
:1039900031D163683BB1554B0122022100209D606B
:1039A0002DF0E6F8B8B920463AF04EF818B90020E4
:1039B0000CB0BDE8F0814E4A4E494F4840F20B230F
:1039C00047F049F9002383F31188BFF36F8F032376
:1039D000184602DFEBE7464A4849474840F20623CB
:1039E00047F039F9002383F31188BFF36F8F032366
:1039F000184602DFD7E7424A0792424A059240F250
:103A0000F31200930892CDE90366CDE901660694AE
:103A10003B46042231462EF0E9FB10F0FD0FB8D0F2
:103A2000334A394934484FF4FA7347F014F986F3AE
:103A30001188BFF36F8F0323184602DFA9E73DF01B
:103A40000BFA85E72A4A31492B484FF4C57347F0F2
:103A500002F987F31188BFF36F8F0323184602DF43
:103A60004FE7636893F82030D90705D4636893F86B
:103A700020309A077FF51FAF254821463CF0E6FF2E
:103A80003DF0D0F893E71A4A22491B4840F2E5136B
:103A900047F0E1F8204B0721A8FB030301FB0831A5
:103AA0000DA3D3E90023FCF77BFB1C4902461C480D
:103AB00047F0D1F8002585F31188BFF36F8F0323FA
:103AC000184602DF174821463CF0C0FF3DF0AAF837
:103AD0006FF08B006CE700BF00CA9A3B000000004B
:103AE000D6BE898E55555500C93B000018130020DD
:103AF00024850500B871050028700500BC7005001C
:103B00006DF30300A1F30300407505000484050074
:103B100045DD0300A87005008D49FD1A7C85050070
:103B20003884050045F1030038B504463BF0C4FA7B
:103B3000A37DA27DC3F34103013303F00303032BF1
:103B400008BF002363F3420214BF03F125002520C0
:103B5000A2753AF033F863680BB123694BB92EF0C4
:103B60001FFDC11C00203DF05FFABDE838403DF06C
:103B70002DBB3DF0DFFA05462EF012FDC11C0020E2
:103B80003DF052FA3DF022FB3DF0D4FA29462EF0EA
:103B900009FD0B4A03460721A0FB020201FB03219A
:103BA00005A3D3E90023FCF7FBFA23691B1A236161
:103BB00038BD00BFAFF3008000CA9A3B0000000090
:103BC0008D49FD1A000000002DE9F04F8DB004462C
:103BD0003DF066F810F0FF0013D1FF238DF82900A7
:103BE0008DF827008DF82A308DF828303AF042F809
:103BF000C34821463CF02AFF3DF014F80DB0BDE863
:103C0000F08F3DF06FF805463DF06EF98DF8270016
:103C10003DF074F90022FF238DF829208DF82A3019
:103C20008DF828003DF042F981463DF023F9EDB2D0
:103C300007463AF01FF8002DDAD001202FF040FEA1
:103C40000546002800F046812B7F03F00F03072B69
:103C500005F11C0800F01681A37D9DF827201907A7
:103C600000F1B68095F81CA0636800225FFA89F91C
:103C70008DF82B200AF00F06002B00F0AD80636852
:103C800093F820309B0700F1A780072E00F00E81EB
:103C900094F816B01BF0080FCBF3C10300F040817D
:103CA000002E40F05A816B7F063B1F2BA0D80420CA
:103CB0002FF006FE00289BD03DF090FAE36A0646FE
:103CC00043B9238D40F2712202FB03F3B0FBF3F200
:103CD00003FB120622688B4B12690721A2FB030328
:103CE00001FB023184A3D3E90023FCF759FAA0F2C7
:103CF000A2331F3B4FF0000747F1FF32B34272F18E
:103D00000002FFF475AF3DF0A7F8A67D63683CF0B4
:103D1000F7FF05F11E0301930BAB0493C6F3801666
:103D200004F12103029603932B7FC3F38013014612
:103D3000064600933A46012320463BF0F1FC30460C
:103D40003CF054FF3CF098FF002840F0A2816E4800
:103D500021463CF07BFE626892F8203043F001037C
:103D600082F82030A37D43F08003A3752FF0C2FDBD
:103D7000172303714FF6FF73C38095F81CE00746C5
:103D80003346CEF3401E00F11C0206F1200C1D68E4
:103D900058689968DE68D6601033634515605060D6
:103DA000916002F11002F2D11B6813603B7FBC608E
:103DB0006EF345133B773DF0BDF90B9BC7E9040358
:103DC0002FF098FD3946F86038682FF0BDFD15E7F3
:103DD000002A7FF447AF0BE7002E40F09D806A7FFA
:103DE000052A7FF605AF252A3FF602AFA37D03F033
:103DF0002103202B32D16368002B00F0FB80062EBC
:103E000051D84523F340D90700F1E180012E00F09D
:103E1000D980042E7FF4ECAE6B7F052B7FF6E8AEE5
:103E2000252B3FF6E5AEA37DDB077FF5E1AE3CF049
:103E300067FF2B7F0278C3F38013B3EBD21F7FF4AD
:103E4000D7AE0830062205F11E0150F008FC00280C
:103E50007FF4CEAE6B7F002B3FF4CAAE63682BB10C
:103E60002B7F03F00F03072B7FF4C2AE3A4649467F
:103E700020463BF0E9FA00283FF4BAAE10307FF458
:103E8000B7AEBBE60DF12A0301930DF129030093B0
:103E90000DF127020AAB414620463CF0E9F8002824
:103EA0007FF4DAAEDEE6072E7FF4A2AE94F820307F
:103EB0005A073FF49DAE0DF12B020192FF220092B2
:103EC00043460022012120463BF0C8FB00283FF476
:103ED0008FAEBFE70D4A0E490E4840F2C72346F0A9
:103EE000BAFE85F31188BFF36F8F0323184602DFF4
:103EF000AAE600BFAFF3008000CA9A3B00000000B2
:103F000099F103008D49FD1A55F20300248505003F
:103F10000484050028700500062E3FF460AF6EE7AC
:103F200094F82020CAF38011C2F34012914208D0C5
:103F3000002E3FF454AF062E3FF451AF7FF661AF31
:103F400056E6062205F11E0104F10800079350F021
:103F500086FB079B0028EBD1A2E6012EEBD16A7FFE
:103F60000C2A7FF445AECBF3801BBBEBDA1F4FEA84
:103F7000DA1600F09D80012B07D936B195F829306B
:103F800003F0C003402B3FF492AE94F816B0CBF38D
:103F90008013B3EBDA1F4FEADA1620D0CBF3C10B54
:103FA000BBF1010F7FF624AE002E3FF421AE95F851
:103FB000293003F0C003402B7FF41AAE01238DF8A3
:103FC0002B304BE76A7F0C2A7FF412AEDDE76B7F64
:103FD000052B7FF60DAE252B3FF60AAE3EE70622F7
:103FE00005F1240104F1210050F039FB00283FF4D1
:103FF00035AFD3E7962007933CF096FF079B184612
:104000003CF082FE3A46494620463BF01DFA064601
:1040100000287FF4EDAD3CF073FE0278032767F3D0
:10402000030202702A7F0178C2F3801262F3C71183
:104030000C2201704270A27DC9B2C2F3801262F3F9
:104040008611024602F8021BD4F82110C0F80210B3
:10405000B4F825109180D5F81E2082606A8C828188
:104060003CF0C4FD3CF008FE78BB3DF0AFF8A37D0A
:1040700043F00103A3752B7F180705D194F8203076
:1040800043F0080384F82030174821463CF0DEFC5A
:10409000B4E5164A1649174840F2AB4346F0DBFD3B
:1040A00087F31188BFF36F8F0323184602DF4EE6B4
:1040B000062205F1240104F12100079350F0CFFA04
:1040C000079B00283FF4F3AD55E7084A0849094823
:1040D00040F22F5346F0BFFD86F31188BFF36F8F78
:1040E000384602DFC1E700BFADF1030024850500BB
:1040F0000C840500287005002DE9F047C46882B0E3
:1041000006460DF10301204634F0E8FA90F9163026
:10411000002BC0F2CF8043680746002B40F0BF80E1
:1041200023797F4A6FF386132371002515803CF0B5
:10413000CFFC28463CF0F2FC6079012100F007003A
:104140003CF0DEFC62799200FF2102F01C020820A4
:104150003CF01CFD01202FF0B3FB0546002800F0C9
:104160008F8005F11C003CF03BFD6E4B019301A8D4
:104170003CF0F4FC6C4940F25B603CF0A7FD207918
:1041800000F03F0039F01AFD214668483CF05EFC23
:1041900096203CF0C9FE627902F007020123104626
:1041A00000213CF0F9FDD4F800903568484639F01C
:1041B000E5FC05EB0008726808F10E0100203CF0F8
:1041C000BFFE05466079D4F808A000F00700012181
:1041D0003CF01AFD0544607900F0070002285544C0
:1041E0002DD004280CBF4FF4BC73282301211D449B
:1041F0003CF00CFD28443CF0AFFF3CF0E7FF3CF006
:104200003BFE204634F060FA811D4246C9B2484662
:1042100039F0C2FC0546002853D17B683BB1444BC2
:10422000F760012202219E602CF0A2FCC8B9204652
:1042300039F00AFC28B9002002B0BDE8F087182345
:10424000D4E73C4A3C493D484FF4187346F003FD1F
:10425000002383F31188BFF36F8F0323184602DF17
:10426000E9E7344A3449354840F25B2346F0F3FC31
:1042700085F31188BFF36F8F0323184602DFD6E75B
:104280002C4A2F492D484FF4F57346F0E4FC85F392
:104290001188BFF36F8F0323184602DF61E743687D
:1042A00093F82030DA0705D4436893F820309B0751
:1042B0007FF536AF234821463CF0C8FB3CF0B2FC0A
:1042C000B9E71C4A20491D4840F2412346F0C3FC8F
:1042D0001E4B0721A5FB030301FB05310EA3D3E908
:1042E0000023FBF75DFF1A4902461A4846F0B3FC6B
:1042F000002585F31188BFF36F8F0323184602DF73
:10430000154821463CF0A2FB3CF08CFC6FF08B0082
:1043100092E700BFAFF3008000CA9A3B00000000A4
:10432000C4800020D6BE898E555555003900040042
:104330002813002090850500B8710500287005003D
:104340000484050039FA0300A87005008D49FD1AA0
:1043500010860500388405004DF8030000000000B9
:104360002DE9F04F8BB004460D4616463CF098FC04
:10437000C0B258B939F074FC35B3974800213CF00D
:1043800065FB0BB0BDE8F04F3CF04CBC3CF0AAFC28
:1043900007463CF0A9FD82463CF0B0FD3CF086FDAE
:1043A00081463CF067FDFFB2804639F059FC4FB1C1
:1043B00003202FF085FA074620B1037F03F00F0397
:1043C000072B23D0002DD8D194F82030D906D4D58E
:1043D0002FF090FA0546002800F06E810A23286825
:1043E0002B71AC6029462FF0AFFA94F82030DA0632
:1043F000C3D56FF30413794884F8203021463CF08C
:1044000025FB0BB0BDE8F04F3CF00CBC437F002B0C
:10441000D8D0C37FDA0708D55FFA8AF2FF230021DC
:1044200020463BF0FDF80028CCD0636800228DF8D0
:10443000232007F11C0B002B00F0DA80636893F84F
:10444000201011F0020140F0D380BB7F5B0640F1E9
:10445000CF80FF23009301915B46012220463BF071
:10446000FDF8002800F0C480002D00F00D8204202B
:104470002FF026FA002880D0AA463CF0AFFEE36A6F
:10448000814643B9238D40F2712202FB03F3B0FB56
:10449000F3F203FB1209236851481A6906F003037B
:1044A00003F12B011733C6F3400CC900DB0021FADE
:1044B0000CF123FA0CF3DFF82CC10B44ACEB030333
:1044C000A2FB00010793072303FB021140A3D3E9DA
:1044D0000023FBF765FE079B03441F3B4FF0000BD7
:1044E0004BF1FF324B4572F10002FFF46BAF94F8D1
:1044F00016903CF005FC09AA049204F121020392F3
:10450000C9F3801907F12002CDF8089001923A7F93
:10451000C2F380120146814643460092204632464D
:104520003BF0FEF848463CF061FB3CF0A5FB002860
:1045300040F0C7813CF04AFE96203CF0F5FC304646
:104540003CF0E2FB284851463CF080FA626892F861
:10455000203043F0010382F82030A37D43F0800334
:10456000A3752FF0C7F9172202714FF6FF72C280B0
:1045700006464B4600F11C0209F1200E1F685868E0
:104580009968D3F80CC0C2F80CC01033734517609B
:104590005060916002F11002F0D11B681360337F0C
:1045A000B46043F0200333773CF0C4FD099BC6E9B7
:1045B00004032FF09FF9F060CAF80C60002D78D149
:1045C0000A4A13880133138073E000BFAFF3008001
:1045D00000CA9A3B000000004DF80300EDF503000F
:1045E0008D49FD1A28FDFFFFE9F90300C480002072
:1045F00063685FFA89F9002B6DD06368002B7FF444
:10460000E1AE002D77D02B791B0613D4A3691BB123
:1046100093F90430002B0DDB0DF1230300220193ED
:10462000FF23009311465B4620463BF017F8002815
:104630003FF4C8AEBD602B797A7EC3F3801363F379
:1046400082027A762B7943F080032B712FF052F996
:104650003CF070FD38613CF0C1FD41468246304679
:104660003CF0D4FA7B7EAAEB000068F3000378618B
:104670007B76B9F1000F67D17F207B7E38766FF3B0
:1046800041037B764246A54B0094314658463BF0A9
:1046900023FC7B7E092260F304137B7638683A7131
:1046A00039462FF051F97B7ED80640F1FA80002D73
:1046B0004ED00BB0BDE8F08F994A9A499A484FF412
:1046C000587346F0C8FA85F31188BFF36F8F032340
:1046D000184602DF82E6A37D98068ED5002D00F0F5
:1046E000BC802B7959063AD4BA7F7F2A43D86268B6
:1046F000002A89D041E6A369002B00F0B68093F927
:104700000430002B11DB0DF1230300220193FF2362
:10471000009311465B4620463AF0A0FF00283FF484
:1047200053AEA369002B3FF44FAEBC60A3697A7E01
:104730001B79C3F3801363F382027A76A26913793B
:1047400043F08003137181E73CF0A0FBC0B294E713
:1047500094F8203043F0100384F82030A9E7A269D0
:10476000002A00F0A68013795A063FF546AFBB7FBA
:104770007F2B7FF642AF0DF1230300220193FF232D
:10478000009311465B4620463AF068FF00283FF44C
:1047900034AF04202FF094F800283FF413AE962095
:1047A0003CF0C2FB30463CF0AFFA3CF0A9FA02788C
:1047B0004FF0030A6AF3030202703A7F0178C2F3F2
:1047C000801262F3C7110C2201704270A27DC9B23F
:1047D000C2F3801262F38611024602F8021BD4F87B
:1047E0002110C0F80210B4F8251091803A6A826056
:1047F000BA8C82813CF0FAF93CF03EFA00287ED176
:104800003CF0E4FC2FF076F809233B71002D6BD0CF
:104810004648BD6029463CF019F92B7943F0400326
:104820002B713CF087FC38613CF0D8FC41460446D3
:1048300030463CF0EBF9241A7C61B9F1000F4FD1FE
:104840007F227B7E38683A7623F0160343F002031A
:104850007B7639462FF078F82BE7A269002A82D1BF
:104860006368002B3FF44FAFAEE50DF123030193D6
:10487000FF2300932A465B46294620463AF0EEFE87
:1048800000287FF44EAF9FE5D4F818A0BAF1000FCE
:104890003FF49AAD04202FF013F800287FF4EDAD1B
:1048A00092E5234A138801331380002D7FF465AD10
:1048B0009BE56268002A7FF460AD1B067FF5ACAE15
:1048C000B8E6174A1B4918484FF47C7346F0C3F901
:1048D0008BF31188BFF36F8F0323184602DF29E69D
:1048E0003CF0D4FAC2B2ACE71348BC6039463CF0A5
:1048F000ADF8A269137943F04003137191E7084AB8
:104900000C49094840F2864346F0A5F9002383F399
:104910001188BFF36F8F504602DF71E765FB03001C
:1049200090850500708505002870050099F9030041
:10493000C48000200C84050049F903000000000039
:104940002DE9F041C468A2894FF6FF739A4282B004
:1049500000F0AF8005463BF0E9FB2B89628AE08AD4
:104960001A4492B21044637FA28280B2411CE18259
:104970005E064FF00001618204F1180175D403F066
:104980003F000B46A17F009004F11F0038F0A8FA09
:104990000646D4E90B231344D4E90D020021024456
:1049A000E1626163A16AA26394F852208B4228BF3E
:1049B0000B4612F0040223635FD03CF089F800201C
:1049C0003CF0ACF8201D3CF0C9F82389A17A40F2F4
:1049D0005B6043EA01413CF079F9304639F0EEF88A
:1049E00021464D483CF032F896203CF09DFA0023D9
:1049F0001A46194618463CF0CFF920463BF0F2FB28
:104A000027682E68384639F0B9F806446A6806F116
:104A10000E0100203CF094FA80463CF0ABFB0020F5
:104A20003CF0C2FB226BA36B0021084603EB42055E
:104A30003CF0EAF8863500214544054408463CF040
:104A4000E5F828443CF088FBA18907313246C9B219
:104A5000384639F0A1F8054690BB204638F0F4FFFF
:104A6000C0B9002002B0BDE8F0810A4603F03F0360
:104A7000E18B38F081FA06468BE7D4E90F012CF080
:104A80000BF8002899D194F8523043F0040384F8CD
:104A9000523092E7214A2249224840F2551346F00B
:104AA000DAF885F31188BFF36F8F0323184602DF0E
:104AB000D7E71D4821463BF0C9FF3CF0B3F8D0E7EB
:104AC000164A1A49174840F24B1346F0C4F8184BDF
:104AD0000721A5FB030301FB05310DA3D3E9002347
:104AE000FBF75EFB13490246134846F0B4F8002575
:104AF00085F31188BFF36F8F0323184602DF0F4839
:104B000021463BF0A3FF3CF08DF86FF08B00A9E746
:104B100000CA9A3B000000009D0304009486050033
:104B2000B87105002870050045DD0300A870050078
:104B30008D49FD1AE88605003884050005DD03006F
:104B4000F0B5C468A2894FF6FF739A4285B000F0B1
:104B5000898005463BF0EAFA2B89628AE08A1A448A
:104B600092B21044637FA28280B2411CE1825E0651
:104B70004FF00001618204F118015CD403F03F00A2
:104B80000B46A17F009004F11F0038F0A9F90646FA
:104B9000204603A93BF0A4FB039B94F852101A781B
:104BA00061F3C3021A70039A94F852301178C3F378
:104BB000400363F3820111703BF08AFF00203BF059
:104BC000ADFF201D3BF0CAFF2389A17A40F25B6054
:104BD00043EA01413CF07AF8304638F0EFFF0399A0
:104BE00020463BF06DFB214637483BF02FFF9620D7
:104BF0003CF09AF900203CF087F827682E68384688
:104C000038F0BCFF06446A6806F10E0101203CF052
:104C100097F93CF0DBFAA18907313246C9B2384630
:104C200038F0BAFF054620BB204638F00DFF50B9DA
:104C3000002005B0F0BD0A4603F03F03E18B38F0D9
:104C40009BF90646A4E7214A2149224840F2031372
:104C500046F001F885F31188BFF36F8F03231846E0
:104C600002DFE5E71C4821463BF0F0FE3BF0DAFFAF
:104C7000DEE7164A19491748F92345F0ECFF184BAF
:104C80000721A5FB030301FB05310DA3D3E9002395
:104C9000FBF786FA13490246134845F0DCFF00256E
:104CA00085F31188BFF36F8F0323184602DF0F4887
:104CB00021463BF0CBFE3BF0B5FF6FF08B00B8E731
:104CC00000CA9A3B000000003D020400F486050083
:104CD000B87105002870050045DD0300A8700500C7
:104CE0008D49FD1A448705003884050005DD030061
:104CF000042908B505D8044947F05CF96FF01500A0
:104D000008BD0020FCE700BFC48A0500042908B5DF
:104D100005D8044947F04EF96FF0150008BD002092
:104D2000FCE700BF0B8B050070B50C480B7C0C4EEC
:104D300015464A88898845F078FF0024AB88A3424D
:104D400004D8084845F071FF002070BD2B6830463C
:104D5000195D45F06AFF0134F0E700BF528B050092
:104D6000878B050019B9050070B588B003AB4FF407
:104D7000E02205460E4605A848F20421CDE90623A7
:104D800005934CF058FE084B0024197805A849F00B
:104D9000E4FC0094234605AA3146284617F0A2FFFA
:104DA000204608B070BD00BFC81A002008B50146F3
:104DB00020B10B48BDE8084045F037BF094845F031
:104DC00034FF0949094813F069F9014608B1084858
:104DD000F0E746F0ADFEBDE80840064845F025BFC7
:104DE0008D8B0500AD8B0500E4510500EC10002013
:104DF000C48B0500DF8B050010B5124B59681A698A
:104E0000096849060ED41049104A11484FF4CB6383
:104E100045F021FF0F4845F01EFF0C484FF4CB61D1
:104E200045F010FF1268520603D520B19B681B693C
:104E300003E00028FAD09B68DB680248BDE8104018
:104E4000402118473C490500378C0500068C0500B9
:104E5000758C0500928C0500012973B50546144632
:104E600007D8174947F0A6F86FF01504204602B09E
:104E700070BD60680A2201A945F020FA019B1B78E9
:104E800006460BB9012805D962680E49284647F045
:104E900091F8E9E7FFF7B0FF044630B103460A494D
:104EA0003246284647F086F8E0E7084B084A0949A9
:104EB000002E18BF1A46284647F07CF8D6E700BFF8
:104EC000A88C0500BB8C0500E58C05003668060043
:104ED000A48C05000A8D0500F0B5254C254E2178DF
:104EE000254D264881F001018FB021704FF44042DA
:104EF00000290CBF3146294645F097FE14220021B7
:104F000009A827784FF08BFCFF234FF420224FF4A1
:104F100040448DF8343048F2022103AB06A8CDE9B5
:104F200007230693ADF828404CF085FD394606A8C6
:104F300049F013FC124B197806A84A1C1A7049F064
:104F40000CFC1048002F0CBF32462A46214645F083
:104F50006CFE002309A90C48009306AA17F0C2FEB4
:104F6000014610B1094845F060FE0FB0F0BD00BF2A
:104F7000CA800020A48C0500366806001A8D050042
:104F8000C88000204F8D050058080020768D050050
:104F900070B510468EB049F097FB244B1A788242C8
:104FA000044640D0002814BF012600261E70204B66
:104FB000204D214808BF1D46294645F036FE2046B3
:104FC000FFF71AFF1422002109A84FF028FC4FF622
:104FD000FF734FF42022ADF828308DF8343048F2BA
:104FE000022103AB06A8CDE9072306934CF023FD6D
:104FF000314606A849F0B1FB104B197806A84A1CA7
:105000001A7049F0AAFB0E48294645F00EFE00230F
:1050100009A90C48009306AA17F064FE014610B1D6
:10502000094845F002FE00200EB070BDC81A0020ED
:10503000A48C0500366806000A8D0500C980002092
:105040009D8D050058080020B48D05002DE9F04124
:10505000434845F0EAFD434C20464FF082F838B90A
:10506000414845F0E2FD6FF012042046BDE8F081B2
:105070006368A1681B68226958060ED43B493C4A04
:105080003C4840F2ED3345F0E6FD3B4845F0E3FD9A
:1050900040F2ED31364845F0D5FD136843F040034A
:1050A00013600B68354A062120469847344D284640
:1050B0004FF057F808B93348D3E7D5F80480AE6805
:1050C000D8F800302F695A06D8D53B682E4A43F0ED
:1050D00040033B603368062128469847044620B1C8
:1050E00001462A4845F0A1FDBFE7B46914B3D8F8DA
:1050F00000305B060CD41D491D4A1E4840F28B331C
:1051000045F0A9FD1C4845F0A6FD40F28B31C1E7F2
:105110003B6813F0400F14BF4FF000734FF08063F3
:105120004FF0A07206212846A047044628B118482F
:105130002146D7E76FF05704F9E71649164B4B6045
:1051400040238B60F36913B1012228469847134826
:105150000BF0A4F80146002887D01148C2E700BF31
:10516000D58D05003C490500E68D0500378C05000E
:10517000068C0500758C0500928C05000100060068
:1051800028490500FC8D050011000100158E050061
:105190003E8E050078430020D94E0000AD4D000042
:1051A0008D8B050010B5094C0A44914200D110BD09
:1051B00011F8013B584003090001E35CC0B24340D1
:1051C00018091B01205CDBB25840EEE74B8F05004D
:1051D00070B50C46002934D002680B1F9B1AD90801
:1051E00023F0070313445D88E8070DD4154A1649D8
:1051F0001648AF2345F02FFD2146154845F02BFDFD
:10520000AF21104845F01EFD104645F09DFB0844B7
:1052100032F83060801B81420BD00A4A0D490B489E
:10522000B72345F018FD21460B4845F014FDB72182
:10523000E7E725F001055D80BDE87040104645F0C8
:1052400040BC70BD5B8F05007E8F0500758C05002E
:105250008F8F0500C78F0500ED8F05002DE9F843FE
:105260004B1E0B4006680F46144611D0C1F10009D1
:1052700009EA01094A46042A03F1FF3128BF042242
:1052800019420CD11F46E4B900252846BDE8F88331
:10529000042913D8BDE8F843114645F043BC2D4915
:1052A0002D4A2E484FF4A27345F0D5FC2C4845F00A
:1052B000D2FC29484FF4A27145F0C4FC994604225F
:1052C000E1E7B368B3EBD40FDED904F10B01394445
:1052D000891AC908304645F08DFB80460028D3D096
:1052E00009F1040505EBC0057B1E35441D44B5FBE3
:1052F000F7F57D43A5EB09052C442B1F07349B1BB9
:1053000024F00704A41BB0EBD30F4FEAD3074FEAF6
:10531000E40408D201463A46304645F0B8FB41461F
:10532000304645F016FB3946304645F00DFB384413
:10533000844207D23046224645F0A9FB214630463A
:1053400045F007FB06EBC706738843F00103738043
:105350009BE700BF299005005B8F0500758C050059
:1053600044900500B2F5802F2DE9F0410ED33C4961
:105370003C4A3D4840F2EB1345F06DFC3B4845F09C
:105380006AFC40F2EB11374845F05CFC042A0CD86B
:105390003749344A34484FF4F97345F05CFC3548DA
:1053A00045F059FC4FF4F971EDE7043ACD1D8E1824
:1053B00025F0070526F00706761B172E4FEAD607BD
:1053C0000CD82D49274A284840F2FB1345F043FCEE
:1053D000284845F040FC40F2FB11D4E7B7FA87F4C7
:1053E000C4F12002C4F12404A4000734E408631CBF
:1053F0004FF00008BB420560AF60C5F80C800CD9C7
:105400001E49184A18484FF4037345F024FC194804
:1054100045F021FC4FF40371B5E74146920005F1D8
:1054200010004FF0FCF9630043F001036B8005EBC3
:10543000C4023B1B5900A5F800805180AA1925F829
:105440003440A2F80280AB5305EBC70321465A88CB
:1054500042F001025A802846BDE8F04145F079BA91
:10546000619005005B8F0500758C05007790050045
:105470008E900500AF900500C8900500F1900500E2
:105480002DE9F04F91B08407009302F004030293DA
:10549000C2F3C20303F10103DDF8688003920546FD
:1054A0000E46059340F0F581041D30B1072909D857
:1054B0006FF01B0011B0BDE8F08F01F00706341D3E
:1054C000C6F10806009B4FF00009013B4FF0040BAA
:1054D0000193CDF810904F464B464FF0FF32DA461D
:1054E0000DB1009921600598002800F3D7809848F5
:1054F0000099814203D397488142C0F0CF8003993D
:10550000A4EB050E89074FEA9E0040F1E2804FF0C0
:10551000000CCCE07A285AD84B280CD8472856D80B
:1055200029282AD8252851D051D8202877D02338A7
:105530004342434173E04C382E2848D8DFE800F05E
:105540006F474747474747474747474749474747C1
:105550004747474747594749495959596F496C4740
:105560006F471849184747807D49474749477D009D
:10557000002000234FF0040B39E02A38C0B201218B
:1055800001FA00F010EA0E0F49D110F0625C30D140
:1055900010EA010343D06046013C5C44B4FBFBF4D9
:1055A0000BFB04F4002D60D0AAEB050CA444B44519
:1055B0003FF67EAF00286AD1BAF1040F45D158F802
:1055C000040B206004344FF0040A28E0013A002361
:1055D00025E0019B13F8013C6C2B33D1019B13F8A0
:1055E000023C00206C2B0346C4D14FF0080BDA4676
:1055F000D2E708F1070828F007080734F8E802ABFB
:1056000024F0070435B106982044B0423FF650AF6D
:10561000C4E900AB083400234FF0080BDA460199C7
:1056200011F8010F0191002800F0BB80002B7FF4DE
:1056300071AF2528F3D1013201234FF0040BEDE7C0
:10564000184696E700200346A6E7BAF1080F40F097
:105650009A8008F1070828F00708F8E80201C4E971
:10566000000108344FF0080AD9E780B9BAF1040FF5
:1056700002D108F10408A5E7BAF1080F40F08380D1
:1056800008F1070828F0070808F10808E9E7059974
:105690000139059158F8041B009121E70399880707
:1056A0004AD5A4EB050E4FEA9E004FF0010CBEF563
:1056B000007F1ED32849294A29484FF41F7345F01B
:1056C000CAFA284845F0C7FA4FF41F71234845F03D
:1056D000B9FA0F2F0FD8002D48D007F140010DEB7C
:1056E000010C0CF8200C0CF8102C049801300490DC
:1056F00021E00F2F0CD91849184A194840F281238C
:1057000045F0A9FA184845F0A6FA40F28121DDE7F4
:10571000CDB107F140010DEB010EC0B20EF8200C27
:105720000EF8102CBCF1000FDFD060F07F000EF8F7
:10573000200C09F101090137C5F108010434069173
:105740004FF6DA7E6BE7BCF1000F0FD00136F2E7BF
:1057500054480500D06E0600FAF705001C910500BC
:10576000758C05004A9105006B9105000298023680
:105770000028E0D10098CDE90632FAF7A0FEDDE975
:1057800006320644D7E7444A4449454840F2C62316
:1057900045F061FA5146434845F05DFA40F2C621B2
:1057A00094E7631BB3F5806F0CD33C493A4A3C48FD
:1057B00040F2D22345F04FFA3B4845F04CFA40F214
:1057C000D22183E71DB9A6F10804E01872E6029A17
:1057D00028609B082B709DF81030C2B1EB7085F8E3
:1057E0000290B9F1000F05D008A80022C5F1010C04
:1057F00097420ED1C5F101030DF120084FF0000AC8
:1058000001930DF1300B574512D1601B52E66B70BE
:10581000E5E710F8013B190608D504EB0C0EB64578
:1058200003F07F033FF644AE04F8013B0132DFE7AB
:10583000B9F1000F03D098F90020002A17DB029B72
:10584000D3B11AF80B2004F8012B0022019B981801
:105850002044B0423FF62CAE98F8000004F8010B4B
:105860000099039220464EF0B2FF039A14440AF1C5
:10587000010A08F10108C6E798F8002055F822301F
:105880000093029B45F822300098FAF718FE421C5C
:10589000DCE76FF00D000DE61C910500FAF705003E
:1058A000758C0500859105009A9105002DE9F04F52
:1058B00097B000AF8946D7F880B0FA623B620446E1
:1058C00058B9AA49AA4AAB484FF4667345F0C3F9E0
:1058D0004FF46671A64845F0B5F9CBF3C00390F8D4
:1058E00002A07B6141B9457800780AEB8000204432
:1058F0004D4517D8A0EB0409E378FB61BAF1000F1E
:1059000002D01BF0010F16D1FB6953BBFB6A1BB120
:105910003A6A4946204698474D4628465C37BD4678
:10592000BDE8F08F461C3046FAF7C9FD013030441F
:1059300009F10109DCE7237862687A62FA6A990062
:10594000B96104EB8301002A40F005814D460E4603
:1059500001EB0A094FF000084E4550D101EB0A0651
:1059600010E01BF0020FD1D023789A00BA61626870
:105970007A62FA6A04EB8301002A7BD14D4601EB7F
:105980000A0690461BF0050F0CBF02230123FB62A1
:10599000FB6906EB430A0BF00203BB625645BCD021
:1059A00016F8021B16F8013C54F82390724B9945E7
:1059B00002D3724B99453AD37B69002B44D0786A65
:1059C00045F00AF900283FD06D48036813F0060F30
:1059D00013D0E9468AB06A466A4B53617B6AC2E9D2
:1059E00006314FF400731384674B42F8103F0023D5
:1059F0004FF4125102F09CF8CD46023DCEE716F866
:105A0000013BF96254F82300FAF759FDD7F88430C6
:105A1000F96A01304BB1D7F8883098453EBFD7F8C6
:105A2000843023F8180008F10108054494E77B69E5
:105A300023B1786A45F0D0F80028C5D11BF0010FDA
:105A400005D1FB6AED1AA9E7BB6A002BA6D0484630
:105A5000FAF735FDD7F8843053B1D7F88830984538
:105A60003FBFD7F88420431C22F8183008F1010802
:105A7000054493E7BAF1000F73D01BF0040673D00E
:105A8000D046002607F1480052463B61B9624EF00D
:105A90009EFEB96A3B6901EB0A02BA62FA69F969CA
:105AA0005200FA60BA6A02EB41023A610BF002025C
:105AB000BA60BA6A39698A4268D162787A621BF040
:105AC000020F32440CBF4FEA580100211BF0010FB6
:105AD000D2B240F0E4801BF0040F14BF4046002017
